S0110000536572766F536C6F772E737265635F
S113000071C000008EC000008CC000008AC00000D7
S113001088C0000086C0000084C0000082C00000C8
S113002080C000007EC000007CC000007AC00000D8
S113003078C0000076C0000074C0000072C00000E8
S113004070C000006EC000006CC000006AC00000F8
S113005068C0000066C0000064C0000062C0000008
S113006060C000005EC000005CC000005AC0000018
S113007058C0000056C0000054C0000052C0000028
S113008050C000004EC000004CC000004AC0000038
S113009048C0000046C0000044C0000042C0000048
S11300A040C000003EC000003CC000003AC0000058
S11300B038C0000036C0000034C0000032C0000068
S11300C030C000002EC000002CC000002AC0000078
S11300D028C0000026C0000024C0000022C0000088
S11300E020C0000011241FBECFEFD1E2DEBFCDBF80
S11300F000E00CBF12E0A0E0B2E0E4E6F3E000E0D0
S11301000BBF02C007900D92A030B107D9F722E0CF
S1130110A0E0B2E001C01D92A030B207E1F7E4D044
S11301201FC16ECF259A2D9A0895269A2E9A089566
S1130130279A2F9A0895F6DFF8DFFACF0895E1E8B9
S1130140F0E010828CEF8093850081E0809384003E
S113015093E0909389008FEF8093880090938B00B5
S113016080938A0090938D0080938C0090938700F5
S1130170809386008BEA80938000109282008CE04A
S113018080830895F8943B9A4398D5DFD8DF789418
S1130190089583E0809389008FEF80938800089509
S11301A083E080938B008FEF80938A00089583E02F
S11301B080938D008FEF80938C000895813031F40B
S11301C010928B0080E480938A00089510928B0033
S11301D083E680938A00089510928B0083E58093D0
S11301E08A002FEF8FEF9AE1215080409040E1F791
S11301F000C00000D5CF0895811110C010928D0069
S113020083E280938C002FEF8FE796E121508040AA
S11302109040E1F700C00000CACF08951092890011
S113022083E2809388002FEF8FE796E1215080408E
S11302309040E1F700C00000ACCF0895811106C0E2
S113024010928D0088E480938C000895813029F405
S11302501092890088E4809388000895CF93C82F72
S1130260ADDF2FEF8FEF9CE2215080409040E1F70B
S113027000C000008C2FE2DF2FEF8FEF96E82150B3
S113028080409040E1F700C00000A6DF2FEF8FEF21
S11302909CE2215080409040E1F700C00000CF91E3
S11302A00895CF93C82F8ADF2FEF8FEF9CE2215060
S11302B080409040E1F700C000008C2F9DDF2FEFBD
S11302C08FEF96E8215080409040E1F700C0000095
S11302D083DF2FEF8FEF9CE2215080409040E1F7C5
S11302E000C00000CF9108954DDF2FEF8FEF99E507
S11302F0215080409040E1F700C0000051DF2FEF13
S11303008FEF99E5215080409040E1F700C0000054
S113031081E090E0A3DF2FEF8FEF99E5215080403B
S11303209040E1F700C0000081E090E0BADF2FEFD9
S11303308FEF99E5215080409040E1F700C0000024
S113034080E090E08BDF2FEF8FEF99E52150804024
S11303509040E1F700C0000080E090E0A2DFCFCF42
S1070360F894FFCF3B
S9030000FC
