S01200004E617669676174696F6E2E7372656302
S113000071C0000003C300008EC000008CC000005B
S11300108AC0000088C0000086C0000084C00000C0
S113002082C0000080C000007EC000007CC00000D0
S11300307AC0000078C0000076C0000074C00000E0
S113004072C0000070C000006EC000006CC00000F0
S11300506AC0000068C0000066C0000064C0000000
S113006062C0000060C000005EC000005CC0000010
S11300705AC0000058C0000056C0000054C0000020
S113008052C0000050C000004EC000004CC0000030
S11300904AC0000048C0000046C0000044C0000040
S11300A042C0000040C000003EC000003CC0000050
S11300B03AC0000038C0000036C0000034C0000060
S11300C032C0000030C000002EC000002CC0000070
S11300D02AC0000028C0000026C0000024C0000080
S11300E022C0000011241FBECFEFD1E2DEBFCDBF7E
S11300F000E00CBF12E0A0E0B2E0EEE2FBE200E0C0
S11301000BBF02C007900D92A237B107D9F722E0C6
S1130110A2E7B2E001C01D92A73DB207E1F70E9439
S113012073130C9495156CCF86E69EE00197F1F756
S113013000004098419880E388B9429A8FEF97E491
S11301400197F1F700C00000429886E69EE001970F
S1130150F1F700004098419880E388B9429A8FEF04
S113016097E40197F1F700C00000429886E69EE00C
S11301700197F1F700004098419880E388B9429ACA
S11301808FEF97E40197F1F700C00000429886E6EC
S11301909EE00197F1F700004098419880E288B909
S11301A0429A8FEF97E40197F1F700C0000042985C
S11301B0089598B19F7098B998B1282F207F922BF9
S11301C098B940984198429AEFEFF7E43197F1F7E4
S11301D000C00000429898B19F7098B998B1829578
S11301E0807F892B88B940984198429A8FEF97E491
S11301F00197F1F700C000004298089595DF86E664
S11302009EE00197F1F7000088E2D3DF81E0D1DFBF
S113021086E0CFDF8EE0CDDF80E8CBCF089598B1C4
S11302209F7098B998B1282F207F922B98B9409A43
S11302304198429AEFEFF7E43197F1F700C00000DC
S1130240429898B19F7098B998B18295807F892B14
S113025088B9409A4198429A8FEF97E40197F1F751
S113026000C000004298089580E8A3CF0895CF937A
S1130270DF93EC018881882329F02196D0DF8991CE
S11302808111FCCFDF91CF910895823069F018F489
S1130290813031F00895833059F0843069F0089545
S11302A08FE7860F86CF08958FEB860F82CF089550
S11302B083E9860F7ECF089583ED860F7ACF089564
S11302C00F931F93CF93DF938A01E901882311F0E1
S11302D0611102C0C9DF01C0D8DFC530D10509F002
S11302E0D5C09801329522952F7023273F7023277C
S11302F0A7E4B3E00E947215969587959695879525
S113030096958795C096909393028093920287DF87
S11303109801369527953695279536952795A5EC1A
S1130320B0E20E947215AC01529542954F70452778
S11303305F70452750939702409396029A01ADEC63
S1130340BCEC0E947215969587959695879596951F
S113035087959C01220F331F880F991F880F991FBF
S1130360880F991F820F931F481B590BCA01C0960F
S11303709093D6028093D50252DF04C0C330D105D6
S113038009F089C098013695279536952795ABE7EE
S1130390B4E10E947215AC015695479550939702AB
S11303A0409396029A01ADECBCEC0E9472159695AE
S11303B0879596958795969587959C01220F331F6F
S11303C0880F991F880F991F880F991F820F931FF9
S11303D0481B590BCA01C0969093CC028093CB0260
S11303E01EDF9801ADECBCEC0E947215AC01569571
S11303F04795569547955695479550939702409340
S113040096029A010E9472159695879596958795FE
S1130410969587959C01220F331F880F991F880F8B
S1130420991F880F991F820F931F481B590BCA01EC
S1130430C0969093A8028093A702F1DE03C0C13056
S1130440D105F9F49801ADECBCEC0E9472159695B7
S1130450879596958795969587959C01220F331FCE
S1130460880F991F880F991F880F991F820F931F58
S1130470081B190BC801C0969093D4028093D30231
S1130480CEDE269764F085E4CADE09C0C430D10507
S113049009F074CF3DCFC230D10589F6A2CFDF91E8
S11304A0CF911F910F910895E1E2F1E010828FEF57
S11304B08093250191E09093240110922901809367
S11304C0280110922B0180932A0110922D01809310
S11304D02C0189EA809320018BE08083089581B107
S11304E08F6081B982B1807F82B9EAE0F1E08081D6
S11304F088618083EBE0F1E08081886180830895E6
S113050092B1907F8F70982B92B9089586E0F8CFBE
S1130510089585E0F5CF08958AE0F2CF089580E04C
S1130520EFCF089587B1876F87B988B1807888B98C
S113053008958AB18E6F8AB9589A089510BA11BA7B
S113054010920701109208010895259A2D9A089592
S1130550269A2E9A0895279A2F9A0895E1E8F0E0B2
S113056010828CEF8093850081E08093840093E077
S1130570909389008FEF8093880090938B008093F1
S11305808A0090938D0080938C00909387008093D1
S113059086008BEA80938000109282008CE0808336
S11305A00895C0DFCBDF3B9A4398CFDFD1DFD3DFA1
S11305B0C0CF089586B1886088B9089586B1877FD1
S11305C088B90895883018F098E090937B0087707C
S11305D0806280937C00EAE7F0E08081806480831D
S11305E0808184FFFDCF80917900EAE7F0E090817B
S11305F09061908310927B000895F894E9E6F0E00E
S1130600808182608083E89A789408951F920F9283
S11306100FB60F9211248F939F93AF93BF93809142
S11306207E0290917F02A0918002B0918102019696
S1130630A11DB11D80937E0290937F02A09380023E
S1130640B0938102BF91AF919F918F910F900FBE94
S11306500F901F901895EAE7F0E0108210927B004B
S113066080E280937C0080E880BF86E880830895E0
S1130670F89497DFC2DFEFDF32DF16DF6FDF7894A5
S1130680089510928900682F70E080E090E00E9445
S1130690D1142BE734E14EEE5FE30E943D1420E0D9
S11306A030E04CE052E40E94D9130E94A5146093F8
S11306B0880008955E985F9808955E9A5F9A0895F9
S11306C05E985F9A08955C9A5D9A0895F3DF10929C
S11306D07E0210927F0210928002109281022FEF0C
S11306E08FE794E0215080409040E1F700C0000083
S11306F080917E0290917F02A0918002B09181024C
S113070080939C0290939D02A0939E02B0939F02BB
S11307102FEF8FEF9CE2215080409040E1F700C022
S113072000000895CADF10927E0210927F02109298
S11307308002109281022FEF8FE794E021508040D5
S11307409040E1F700C0000080917E0290917F020A
S1130750A0918002B09181028093980290939902B3
S1130760A0939A02B0939B020895AADF10927E028E
S113077010927F0210928002109281022FEF8FE775
S113078094E0215080409040E1F700C00000809147
S11307907E0290917F02A0918002B09181028093A9
S11307A08C0290938D02A0938E02B0938F020895D1
S11307B00F931F93CF93DF938C01181619068CF4B3
S11307C0C0E0D0E009C086E69EE00197F1F70000A2
S11307D02196C017D10739F082E0F4DE893298F30C
S11307E002C0C0E0D0E09BDE81E0C017D1070CF06E
S11307F080E0DF91CF911F910F9108950F931F9384
S113080065DFB3DF8FDF80918A0290918B02AA2784
S113081097FDA095BA2F40919C0250919D02609142
S11308209E0270919F02481759076A077B07D8F404
S1130830409198025091990260919A0270919B02A2
S1130840481759076A077B0770F440918C0250914E
S11308508D0260918E0270918F02481759076A07C2
S11308607B0708F446C040919C0250919D02609120
S11308709E0270919F0280918C0290918D02A091B2
S11308808E02B0918F0284179507A607B707C8F4A4
S113089000919C0210919D0220919E0230919F0232
S11308A0409198025091990260919A0270919B0232
S11308B081E090E04017510762077307F8F480E085
S11308C01DC040918C0250918D0260918E027091F6
S11308D08F028091980290919902A0919A02B0910E
S11308E09B0284179507A607B70730F482E090E0CF
S11308F005C083E090E002C081E090E01F910F9179
S11309000895CF93DF9380EF8093280180932A0189
S113091000DEC0E0D0E004C02196C031D105C9F0AA
S11309208BE050DE8134C0F3FADD609718F466DFA3
S1130930C82F01C0CFEFF0DD82E044DE8932E0F35E
S113094081E040DE893240F483E03CDE8932A0F36A
S113095003C0E5DDCFEFEFCFE2DD8C2FDF91CF9148
S11309600895CF93DF93C9EBD2E0E9EAF2E0A2E87D
S1130970B2E080E090E02EEF3FEF899399933383C8
S11309802283318320831D921D92019634968430F4
S1130990910599F7E091B902F091BA02EE0FFF1FA9
S11309A0EF53FD4F11821082E091BB02F091BC0223
S11309B0EE0FFF1FEF53FD4F81E090E091838083A2
S11309C0E091BD02F091BE02EE0FFF1FEF53FD4F09
S11309D082E090E091838083E091BF02F091C002B5
S11309E0EE0FFF1FEF53FD4F83E090E09183808370
S11309F08FEF9FEF9093A4028093A3029093A2029F
S1130A008093A1029093D0028093CF029093CE0260
S1130A108093CD02DF91CF91089583E0D3DD80935D
S1130A20750282E0CFDD8093740281E0CBDD809398
S1130A307302089588EC8093280180932A018091A1
S1130A407402893238F40EC061DDE7DF80917402EC
S1130A50893240F0809175028932B0F78091730237
S1130A60893290F72FEF8FEF9AE121508040904028
S1130A70E1F700C0000053CD0895DCDF4ADD2FEF1D
S1130A808FE791E3215080409040E1F700C00000DF
S1130A9046DD90DD2FEF8FEF9CE2215080409040A7
S1130AA0E1F700C000008ACD0895E7DFE6DF82DDCC
S1130AB02FEF8FEF9CE2215080409040E1F700C07F
S1130AC000007CDD2CCD0895F0DF809176029091BA
S1130AD07702029683709078992324F401978C6F9F
S1130AE09F6F019690937702809376020895C5DFF5
S1130AF0809176029091770203968370907899237F
S1130B0024F401978C6F9F6F0196909377028093E2
S1130B10760208958FDF00DD2FEF8FE791E32150F8
S1130B2080409040E1F700C00000F9DC43DD2FEF86
S1130B308FEF9CE2215080409040E1F700C000001C
S1130B403DCD0895E7DF809176029091770201967A
S1130B5083709078992324F401978C6F9F6F01968A
S1130B6090937702809376020895611102C089CD33
S1130B700895613031F48D3211F480E001C08DE2CA
S1130B8080CD0895811106C010928B0083E8809374
S1130B908A000895813029F410928D0083E88093AF
S1130BA08C000895811106C010928B0083E280931B
S1130BB08A000895813029F410928D0083E2809395
S1130BC08C0008958091A9029091AA022091B90203
S1130BD03091BA028217930709F05FC02091AB02EB
S1130BE03091AC028217930709F057C08091AD028F
S1130BF09091AE022091BB023091BC028217930700
S1130C0009F04BC02091AF023091B00282179307D4
S1130C1009F043C08091A5029091A602FC01EE0F59
S1130C20FF1FEE0FFF1FE755FD4F20813181FC01AF
S1130C30EE0FFF1FE754FD4F408151812417350704
S1130C4061F5FC01EE0FFF1FEE0FFF1FE755FD4F8F
S1130C50828193812817390701F58091A10290912F
S1130C60A2020196D1F48091A3029091A40201966C
S1130C70A1F48091CD029091CE02019671F48091FD
S1130C80CF029091D002019641F48091000290919C
S1130C90010290937D0280937C020895CF93DF93A9
S1130CA0EC0181E086DA61E081E0EFDACE01DFDA9F
S1130CB0DF91CF910895CF93DF9384E092E0EEDF4C
S1130CC080EF8093280180932A0126DCC0E0D0E0E5
S1130CD004C02196C031D105D1F08BE073DC81349E
S1130CE0C0F31DDC6BDC609718F488DDC82F01C0ED
S1130CF0CFEF0FDC82E066DC8932E0F381E062DC76
S1130D00893248F483E05EDC8932A0F304C007DC56
S1130D1055DCCFEFEECF03DC87E092E0BFDF8C2F12
S1130D20DF91CF91089580917402883208F04FC00A
S1130D3080917502893228F190917302983208F5F6
S1130D408BE092E0ABDF809174028832B0F4809142
S1130D507502893290F080917302883270F4D9DB85
S1130D605CDE80917402883240F48091750289328D
S1130D7020F080917302883290F38FE092E08ECF5E
S1130D80089590917302993210F1883200F581E14F
S1130D9092E084DF809174028832B0F4809175020D
S1130DA0883290F480917302893270F0B5DB35DEBD
S1130DB080917402883240F480917502883220F464
S1130DC080917302893290F78FE092E067CF0895A3
S1130DD00F931F93CF93DF9385E090E0909391025C
S1130DE08093900285E192E059DF99DB8091720251
S1130DF0813009F034C010927202CEE3D0E002E0F8
S1130E0010E08ADB0230110531F48EE190E0D0DC91
S1130E10882329F05BC0CE01CBDC811157C07FDB76
S1130E2082E0D0DB893208F04DC07DDF72DB023016
S1130E30110531F48CE390E0BBDC882329F046C033
S1130E40CE01B6DC811142C06ADB82E0BBDB649672
S1130E50883208F437C067DF0C5E1F4FD2CF81E0C1
S1130E6080937202CEE3D0E002E010E052DB023065
S1130E70110531F48EE190E09BDC882329F026C033
S1130E80CE0196DC811122C04ADB82E09BDB8932F1
S1130E90C8F449DF41DB0230110531F48CE390E002
S1130EA087DC882329F012C0CE0182DC81110EC0B8
S1130EB036DB82E087DB6496883220F034DF0C5E18
S1130EC01F4FD4CF8FE092E0E9DE29DBDF91CF9191
S1130ED01F910F91089586E98093280180932A0138
S1130EE080917402883208F052C080917502893270
S1130EF028F190917302983208F58BE092E0CEDEEF
S1130F00809174028832B0F480917502893290F035
S1130F1080917302883270F4FCDA7FDD8091740270
S1130F20883240F480917502893220F080917302F6
S1130F30883290F38FE092E0B1DE38C09091730272
S1130F40993218F1883208F581E192E0A7DE8091A8
S1130F5074028832B0F480917502883290F48091E2
S1130F607302893270F0D8DA58DD809174028832C5
S1130F7040F480917502883220F4809173028932A2
S1130F8090F78FE092E08ADE11C022DF0FC08091DB
S1130F907502893220F090917302983240F08832C1
S1130FA020F480917302893210F412DFB8CA0895D4
S1130FB0FF920F931F93CF93DF9308E211E00F2E5C
S1130FC0F0EFFF2EF02DCAE2D1E0A0DA26DD809109
S1130FD07402893250F080917502893220F4809134
S1130FE07302893210F026DD11C0F801F082F88214
S1130FF080917402893240F080917502883220F425
S113100080917302883208F366DFD2DFDF91CF91DB
S11310101F910F91FF900895CBDF809194029091DE
S11310209502019690939502809394020895CF932C
S1131030DF93EC010497029788F5C430D10539F4A5
S11310408091760290917702892B51F00BC0C530C4
S1131050D10541F48091760290917702029711F4C0
S113106071DD01C044DDD8DFD7DF249739F485E092
S113107090E0909379028093780206C084E090E037
S113108090937902809378028091940290919502D2
S11310900296909395028093940222C022973CF486
S11310A08091760290917702892B39F007C0809164
S11310B0760290917702029709F406DDADDF809104
S11310C0A5029091A60281709078992324F4019747
S11310D08E6F9F6F019604969093790280937802A5
S11310E0DF91CF9108950F931F93CF93DF938C01DA
S11310F0EB012091A5023091A60240917802509113
S113110079022417350709F06AC0C9012230310574
S113111030F44091760250917702452B61F02250D1
S113112031092230310568F44091760250917702FA
S11311304230510531F40C171D0709F4A8C0C4DC72
S1131140A6C08230910538F440917602509177021E
S11311504230510549F02230310560F44091760265
S113116050917702452B31F40C171D0709F08FC0FD
S1131170ABDC8DC08230910538F4409176025091F9
S113118077024130510551F02230310570F440911D
S11311907602509177024330510539F40C171D073C
S11311A011F0D0DC74C0A3DC72C0029730F48091DB
S11311B0760290917702039759F02230310508F0B6
S11311C066C08091760290917702019709F05FC022
S11311D00C171D0711F4B6DC5AC089DC58C0809185
S11311E0760290917702009719F0029781F504C076
S11311F022303105A8F405C02250310922303105CE
S113120078F4445051094230510510F070DC04DF89
S11312100C171D0711F400DF32C0FEDE55DC2FC0B1
S11312200C171D0759F4445051094230510518F068
S11312305EDCF2DE01C048DCEFDE21C0445051091F
S11312404230510510F053DCE7DEE6DE18C0061725
S1131250170759F42115310519F02330310511F41C
S113126071DC01C044DCD8DE0AC02115310519F057
S11312702330310511F466DC01C039DCCDDE809108
S1131280A5029091A6029093790280937802DF914F
S1131290CF911F910F910895CF93DF93EC010097A5
S11312A021F48EE292E0FADC03C088E392E0F6DCFB
S11312B06C2F80E05ADC8C2F65DC8C2F73DC6C2F58
S11312C08DE253DC80910202909103020197909386
S11312D0030280930202DF91CF9108950F931F932D
S11312E0CF93DF938C01EB01FC01EE0FFF1FE3535F
S11312F0FD4FA091A502B091A602AA0FBB1FA60F95
S1131300B71FAA0FBB1FA755BD4F8D919C91918309
S11313108083C801E8DEC801BFDF8091A5029091F7
S1131320A602880F991FC80FD91FCC0FDD1FC75500
S1131330DD4F8FEF9FEF99838883DF91CF911F91CA
S11313400F910895CF93DF939C012F5F3F4F21703E
S11313503078332334F4215031092E6F3F6F2F5FDF
S11313603F4FD22FC32FE091A502F091A602AF0107
S1131370440F551F240F351FD901AA0FBB1FA755B2
S1131380BD4F2D913C91DA01A754BD4F4D915C9115
S11313902417350769F0A091C902B091CA02AA0FB7
S11313A0BB1FA754BD4F6D917C9126173707A9F039
S11313B0EE0FFF1FE80FF91FEE0FFF1FE755FD4F5C
S11313C00190F081E02D4E175F0739F0319629F036
S11313D0BC018D2F9C2F82DF0BC02417350741F0F1
S11313E02F3F3F4F29F06D2F7C2F8D2F9C2F76DFC1
S11313F0DF91CF9108950F931F93CF93DF93EC0167
S11314008B0181E492E04ADCFE01EE0FFF1FE353FF
S1131410FD4FD801AA0FBB1FAF55BD4F8D919C91B5
S113142091838083C017D10739F48091760290911B
S11314307702892B49F406C0809176029091770255
S1131440029711F441DB0CC08091760290917702EF
S11314508D7F019729F4209711F449DB01C072DBD9
S1131460CE011ADFF801EE0FFF1FEF55FD4F8FEF8E
S11314709FEF91838083DF91CF911F910F91089506
S1131480CF93DF93EC01009721F48AE492E006DC29
S113149003C084E592E002DC6C2F80E066DB8C2FD5
S11314A071DB6C2F8DE261DB8C2F7CDB809102027F
S11314B09091030201969093030280930202DF91BC
S11314C0CF9108950F931F93CF93DF93EC01E09195
S11314D0A502F091A602EE0FFF1FE60FF71FEE0F15
S11314E0FF1FE755FD4F8C01000F111F03531D4FC4
S11314F0D8018D919C9191838083CE01F4DDCE013E
S1131500BFDF8FEF9FEFF8019183808380917C028E
S113151090917D02019690937D0280937C02DF91ED
S1131520CF911F910F910895CF93DF93EC01FB01AD
S1131530EE0FFF1FEF55FD4FDC01AA0FBB1FA35396
S1131540BD4F8D919C9191838083C617D70739F441
S11315508091760290917702892B49F406C080919C
S1131560760290917702029711F4AEDA0CC0809162
S11315707602909177028D7F019729F4209711F4D8
S1131580B6DA01C0DFDACE017BDFCC0FDD1FC35337
S1131590DD4F8FEF9FEF99838883DF91CF9108957B
S11315A0EF92FF920F931F93CF93DF932091CD027D
S11315B03091CE022F3F4FEF340739F0F901EE0F8F
S11315C0FF1FEF53FD4FC081D181E091CF02F09115
S11315D0D002EF3F6FEFF60709F45DC1DF01AA0FF8
S11315E0BB1FAF53BD4F0D911C918091A5029091EB
S11315F0A602019681709078992324F401978E6F46
S11316009F6F0196BC010296D093A602C093A502D7
S11316102F3FAFEF3A07E1F1DE01AA0FBB1FAA0F7C
S1131620BB1FA755BD4F4D915C914F3F5F4F71F06C
S1131630DE01AA0FBB1FAA0FBB1FA755BD4F1296F1
S11316404D915C9113974F3F5F4F11F5319609F01F
S113165010C1660F771FFB01EF55FD4F20813181CB
S1131660FB01E754FD4F408151812417350759F0A0
S1131670FC01EE0FFF1FE754FD4F80819181281775
S1131680390709F0F6C0BE0181E090E0B4DEF1C094
S1131690EF3F4FEFF40709F452C0D801AA0FBB1F64
S11316A0AA0FBB1FA755BD4F4D915C914F3F5F4F94
S11316B009F414C1D801AA0FBB1FAA0FBB1FA75559
S11316C0BD4F12964D915C9113974F3F5F4FB9F503
S11316D0F3C02F3F3F4F09F0CCC09B01220F331FB3
S11316E0F901EF55FD4F40815181F901E754FD4F58
S11316F0208131814217530709F0BBC0FC01EE0F72
S1131700FF1FE754FD4F808191814817590709F065
S1131710B0C081E090E06FDEACC0FB01EE0FFF1FB4
S1131720EF55FD4F80819181019609F0A2C02F3FB2
S11317303F4F09F49EC081E090E0F6DE9AC02F3F4F
S1131740AFEF3A07A1F0DB01AA0FBB1FAF55BD4FA6
S11317508D919C91019631F4319621F081E090E0D5
S1131760E3DE87C03093A6022093A50282C0F093E3
S1131770A602E093A5027DC0A701440F551FFA01FC
S1131780EF55FD4F20813181FA01E754FD4F40812F
S113179051812417350751F0FC01EE0FFF1FE75468
S11317A0FD4F608171812617370781F42F3FAFEF1A
S11317B03A0771F1F901EE0FFF1FEF53FD4F8081DE
S11317C091819093A6028093A50253C02F3F3F4F6F
S11317D0F9F0B70180E090E00EDE2FEFE21AF20A92
S11317E041E0E42240E8F422FF2054F461E0E61AE8
S11317F0F1088EEFE82AFF24FA94AFEFEA1AFA0A06
S1131800E4E0EE0EF11CF092A602E092A50231C0D3
S1131810F701EE0FFF1FEE57FD4F2081318121307C
S1131820310519F5F701EE0FFF1FEE0FFF1FE75506
S1131830FD4F208131814217530719F02F3F3F4F4D
S1131840A1F4F701EE0FFF1FEE0FFF1FE755FD4F49
S1131850228133814217530719F02F3F3F4F29F458
S11318609093A6028093A50204C0F092A602E0928F
S1131870A5028091A5029091A602029683709078A9
S1131880992324F401978C6F9F6F01969093CA0259
S11318908093C9022DC08091A5029091A602019661
S11318A062E070E00E945F157C01BC0102962F3F4C
S11318B04FEF3407C1F460CF1093A6020093A50242
S11318C0F801EE0FFF1FEE0FFF1FE755FD4F42819A
S11318D053814F3F5F4F09F020CFFBCE1093A602F8
S11318E00093A502F6CED093A602C093A50294CE8F
S11318F0DF91CF911F910F91FF90EF9008958F92F8
S11319009F92AF92BF92CF92DF92EF92FF920F938A
S11319101F93CF93DF934091A5025091A6024230CA
S1131920510530F48091760290917702029779F014
S1131930CA010297029780F480917602909177020F
S1131940892B79F001E010E0C0E0D0E00EC000E0A7
S113195010E0C1E0D0E009C001E010E0C0E0D0E058
S113196004C000E010E0C1E0D0E09A0121703078BA
S1131970332334F4215031092E6F3F6F2F5F3F4FD3
S1131980B22EA32EF901EE0FFF1FEF55FD4F20815C
S11319903181FA01EE0FFF1FE754FD4F80819181E1
S11319A02817390779F08091C9029091CA02FC0185
S11319B0EE0FFF1FE754FD4F408151812417350777
S11319C009F0A6C08091020290910302181619062C
S11319D00CF095C0F901EE0FFF1FEF53FD4F60812E
S11319E071817093A6026093A502FE01EE0FFF1FA2
S11319F0E353FD4F80819181019669F461707078A1
S1131A00772334F4615071096E6F7F6F6F5F7F4F7E
S1131A10CE01F1DC15C0F801EE0FFF1FE353FD4FBB
S1131A2080819181019661F461707078772334F438
S1131A30615071096E6F7F6F6F5F7F4FC801DBDC90
S1131A408091020290910302019709F468C1809188
S1131A50A5029091A602FC01EE0FFF1FEE0FFF1FDF
S1131A60E755FD4F208131812F3F3F4F09F457C186
S1131A70FC01EE0FFF1FEE0FFF1FE755FD4F228104
S1131A8033812F3F3F4F09F44AC19C0121703078C4
S1131A90332334F4215031092E6F3F6F2F5F3F4FB2
S1131AA0622F732FF901EE0FFF1FEF55FD4F2081B9
S1131AB031812F3F3F4F09F032C1FC01EE0FFF1F70
S1131AC0E754FD4F80819181FE01EE0FFF1FE35328
S1131AD0FD4F208131812817390719F4C80124DD0D
S1131AE01EC1F801EE0FFF1FE353FD4F208131812A
S1131AF08217930709F013C1CE0116DD10C180913E
S1131B00C9029091CA029093A6028093A50207C1CC
S1131B10FE01EE0FFF1FE353FD4F0190F081E02D16
S1131B204E175F0709F48CC0D801AA0FBB1FA3533B
S1131B30BD4F8D909C904815590509F481C0E090E3
S1131B400202F0900302E114F10409F44CC0B1E084
S1131B50EB16F10429F42F3F6FEF3607B1F509C0F6
S1131B60670171E0C71AD108A2E0CA16D10408F0CF
S1131B7062C06C01CC0CDD1CCC0CDD1CB6016755BD
S1131B807D4FDB01CD90DC904C155D0521F0CD201F
S1131B90C09409F050C06C01CC0CDD1CCC0CDD1CD5
S1131BA0B60167557D4FDB011296CD90DC901397FB
S1131BB04C155D0521F0CD20C09409F03CC01E14E5
S1131BC01F048CF42F3F3F4F71F0319629F46B2D95
S1131BD07A2DCE0110DC07C08920809421F46B2D6E
S1131BE07A2DC80108DC8091A5029091A602BC015F
S1131BF06F5F7F4F61707078772334F4615071099F
S1131C006E6F7F6F6F5F7F4F6C5F7F4F81709078D7
S1131C10992324F401978E6F9F6F0196049607DA37
S1131C20BFDC8091A5029091A6020497029708F068
S1131C3087C0B6DC85C09093A6028093A5026FC0CE
S1131C40A0910202B09103021097C1F5DC01AA0F22
S1131C50BB1FAE57BD4F0D90BC91A02DA130B10557
S1131C60D9F4DC01AA0FBB1FAA0FBB1FA755BD4F98
S1131C700D90BC91A02D119609F449C0DC01AA0F66
S1131C80BB1FAA0FBB1FA755BD4F12968D919C91E8
S1131C901397019619F43BC0AB2BC9F52F3F3F4F67
S1131CA0B1F54E175F0729F46B2D7A2DC8013CDC82
S1131CB02EC06B2D7A2DCE0137DC29C0119739F552
S1131CC0DC01AA0FBB1FAA0FBB1FA755BD4F4D9127
S1131CD05C914F3F5F4F69F0DC01AA0FBB1FAA0F55
S1131CE0BB1FA755BD4F12968D919C9113970196DA
S1131CF071F42F3F3F4F59F0319629F46B2D7A2D13
S1131D00CE0179DB04C06B2D7A2DC80174DB809180
S1131D10C9029091CA029093A6028093A502809171
S1131D20A5029091A602029683709078992324F4D8
S1131D3001978C6F9F6F01969093CA028093C9029A
S1131D40DF91CF911F910F91FF90EF90DF90CF9093
S1131D50BF90AF909F908F900895CF93DF93809121
S1131D607802909179022091A5023091A602281759
S1131D703907A1F120917602309177022D7F21302D
S1131D80310551F48330910511F0892B19F40E9427
S1131D90A20502C00E9477058091A5029091A60237
S1131DA08230910538F42091760230917702223006
S1131DB0310549F00297029740F4809176029091A0
S1131DC07702892B11F40E94640526D98091A5021B
S1131DD09091A602909379028093780224E030E0F7
S1131DE047E554E061E081E00E946001C091A502F2
S1131DF0D091A6020E945B06CC0FDD1FCC0FDD1F25
S1131E00C755DD4F90E099838883E091A502F09156
S1131E10A602EE0FFF1FEE0FFF1FE755FD4F808157
S1131E2091810E944E062091A5023091A602F901EB
S1131E30EE0FFF1FEE0FFF1FE755FD4F80819181CD
S1131E408F3F4FEF940751F0F901EE0FFF1FE75456
S1131E50FD4F208131818217930749F4809100025C
S1131E609091010201979093010280930002DF9107
S1131E70CF910895CF93DF938091A5029091A6020C
S1131E808230910530F42091760230917702232B31
S1131E9049F00297029740F480917602909177027C
S1131EA0029711F40E947705C091A502D091A60271
S1131EB00E948104CC0FDD1FCC0FDD1FC755DD4F01
S1131EC090E09B838A83E091A502F091A602EE0F35
S1131ED0FF1FEE0FFF1FE755FD4F828193810E9484
S1131EE04E068091A5029091A602FC01EE0FFF1F01
S1131EF0EE0FFF1FE755FD4F228133812F3F4FEF38
S1131F00340751F0FC01EE0FFF1FE754FD4F4081F1
S1131F1051812417350751F42091000230910102B8
S1131F20215031093093010220930002FC01EE0F8D
S1131F30FF1FEE57FD4F81E090E0918380838091F5
S1131F407A0290917B02019690937B0280937A02AD
S1131F50DF91CF910895EF92FF920F931F93CF9348
S1131F60DF938DE592E00E944E062091A502309108
S1131F70A6022230310530F48091760290917702E6
S1131F80029779F0C9010297029780F48091760252
S1131F9090917702892B79F0C1E0D0E000E010E065
S1131FA00EC0C0E0D0E001E010E009C0C1E0D0E024
S1131FB000E010E004C0C0E0D0E001E010E0F9016E
S1131FC0EE0FFF1FEE57FD4F40815181452B09F065
S1131FD028C2F901EE0FFF1FEE0FFF1FE755FD4F5B
S1131FE080819181029619F4B8DE44DF01C042DF9A
S1131FF02091A5023091A602F901EE0FFF1FEE0F0A
S1132000FF1FE755FD4F80819181F901EE0FFF1FFE
S1132010E754FD4F408151818417950721F08F3F8C
S11320206FEF960789F4F901EE0FFF1FEE0FFF1F04
S1132030E755FD4F628173814617570709F4F1C1D3
S11320406F3F7F4F09F4EDC160910202709103026A
S11320506230710509F0AFC0E091C902F091CA0283
S1132060DF01AA0FBB1FA754BD4F6D917C9186174A
S1132070970779F0D901AA0FBB1FAA0FBB1FA75559
S1132080BD4F1296ED90FC9013976E157F0559F491
S113209005C060E070E0C80121D98DC061E070E046
S11320A0CE011CD988C04E155F0509F44EC0EF203F
S11320B0E09409F44AC08417950769F08F3FAFEFA5
S11320C09A0749F061E070E0CE0108D960E070E061
S11320D0C80104D970C021703078332334F42150FE
S11320E031092E6F3F6F2F5F3F4FD901AA0FBB1FDE
S11320F0AF55BD4F2D913C912F3F3F4F09F1DF016B
S1132100AA0FBB1FAA0FBB1FA755BD4F2D913C9112
S113211062177307A9F02F3F3F4F91F0EE0FFF1F97
S1132120EE0FFF1FE755FD4F2281338162177307BE
S113213039F02F3F3F4F21F08417950709F071C103
S113214061E070E0CE01CAD836C08417950709F45F
S113215068C1019609F465C121703078332334F4E1
S1132160215031092E6F3F6F2F5F3F4FD901AA0FC6
S1132170BB1FAF55BD4F8D919C910196C1F0DF01FE
S1132180AA0FBB1FAA0FBB1FA755BD4F8D919C91D2
S113219011976817790759F0019649F0FD0182817A
S11321A093816817790719F0019609F03AC160E044
S11321B070E0C80193D880910202909103020197C4
S11321C009F02FC1F801EE0FFF1FE353FD4F80818B
S11321D09181019609F4E801BE016F5F7F4F617040
S11321E07078772334F4615071096E6F7F6F6F5F7D
S11321F07F4F8091A5029091A6029C0121703078B6
S1132200332334F4215031092E6F3F6F2F5F3F4F3A
S1132210F901EE0FFF1FEF55FD4F208131812F3F54
S1132220AFEF3A07D9F5FC01EE0FFF1FEC0FFD1FCE
S1132230EE0FFF1FE755FD4F208131812F3FEFEF58
S11322403E0771F0FC01EE0FFF1FE754FD4F408184
S113225051812417350721F0BE01CE013FD8E1C0DA
S1132260FC01EE0FFF1FE60FF71FEE0FFF1FE755F0
S1132270FD4F208131812F3F4FEF340709F4D1C046
S1132280FC01EE0FFF1FE754FD4F80819181281759
S1132290390709F4C6C0CE0121D8C3C04091C90290
S11322A05091CA02FA01EE0FFF1FE754FD4F01904F
S11322B0F081E02DDC01AA0FBB1FAA0FBB1FA7559D
S11322C0BD4F0D90BC91A02DAE17BF0771F0DC017E
S11322D0AA0FBB1FAA0FBB1FA755BD4F12960D9087
S11322E0BC91A02DEA17FB07E9F5DA01AA0FBB1F81
S11322F0AE57BD4F2D913C912130310509F091C06D
S1132300DA01AA0FBB1FAA0FBB1FA755BD4F2D9102
S11323103C912F3F3F4F79F0DA01AA0FBB1FAA0F60
S1132320BB1FA755BD4F12962D913C9113972F3F7C
S11323303F4F09F076C0880F991F8C0F9D1FDC0159
S1132340AA0FBB1FA755BD4F8D919C91E817F907A4
S113235029F4BE01CE010E946E0963C0CE010E9421
S11323606E095FC0DC01AA0FBB1FA754BD4F0D90BF
S1132370BC91A02D2A173B0709F453C02E173F0721
S113238009F44FC0FA01EE0FFF1FEE57FD4F2081F5
S113239031812130310509F044C0FA01EE0FFF1FED
S11323A0EE0FFF1FE755FD4F20813181A217B307C0
S11323B0C1F1FA01EE0FFF1FEE0FFF1FE755FD4FAE
S11323C022813381A217B30761F1FC01EE0FFF1FD5
S11323D0EC0FFD1FEE0FFF1FE755FD4F20813181EC
S11323E02F3FEFEF3E0741F0A217B30729F0BE01DC
S11323F0CE010E946E0915C0880F991F860F971F82
S1132400FC01EE0FFF1FE755FD4F808191818F3F47
S11324102FEF920731F0A817B90719F0CE010E94E7
S11324206E09DF91CF911F910F91FF90EF90089566
S11324300F931F93CF93DF9384E692E00E944E069E
S11324402091A5023091A6022230310530F480910A
S1132450760290917702029779F0C9010297029768
S113246080F48091760290917702892B79F001E0D3
S113247010E0C0E0D0E00EC000E010E0C1E0D0E029
S113248009C001E010E0C0E0D0E004C000E010E0CA
S1132490C1E0D0E040910202509103024230510564
S11324A009F41CC1F901EE0FFF1FE754FD4F4081F1
S11324B051816091CD027091CE026417750741F08D
S11324C08091CF029091D0024817590709F006C1B4
S11324D0F901EE0FFF1FEE57FD4F80819181892B8B
S11324E011F43BDCC7DC8091020290910302892B3A
S11324F009F04CC02091A5023091A602F901EE0F1B
S1132500FF1FE754FD4F80819181FE01EE0FFF1FF5
S1132510E353FD4F4081518148175907B9F4F9013C
S1132520EE0FFF1FEE0FFF1FE755FD4F80819181D6
S1132530019631F460E070E0CE010E94620A26C088
S113254061E070E0CE010E94620A20C0F801EE0F43
S1132550FF1FE353FD4F4081518184179507B1F468
S1132560F901EE0FFF1FEE0FFF1FE755FD4F8081AE
S11325709181019631F061E070E0C8010E94620A25
S113258005C060E070E0C8010E94620A2091A502C3
S11325903091A602F901EE0FFF1FE754FD4F808131
S11325A091814091CD025091CE024817590741F0D4
S11325B04091CF025091D0028417950709F08EC044
S11325C0F901EE0FFF1FEE0FFF1FE755FD4F40818E
S11325D051814F3F5F4FE9F0F901EE0FFF1FEE0FFE
S11325E0FF1FE755FD4F228133812F3F3F4F89F075
S11325F0FE01EE0FFF1FE353FD4F2081318182174F
S1132600930721F4CE010E94A20903C0C8010E94CD
S1132610A2098091A5029091A602FC01EE0FFF1F72
S1132620E754FD4F20813181FE01EE0FFF1FE3537C
S1132630FD4F408151814217530721F5FC01EE0FF4
S1132640FF1FEE0FFF1FE755FD4F408151814F3FA4
S11326505F4F31F460E070E0CE010E94620A3EC038
S1132660FC01EE0FFF1FEE0FFF1FE755FD4F4281E8
S113267053814F3F5F4F31F461E070E0CE010E941F
S1132680620A2CC0F801EE0FFF1FE353FD4F408197
S113269051812417350711F5FC01EE0FFF1FEE0FD2
S11326A0FF1FE755FD4F208131812F3F3F4F31F40C
S11326B060E070E0C8010E94620A10C0FC01EE0FE5
S11326C0FF1FEE0FFF1FE755FD4F82819381019697
S11326D029F461E070E0C8010E94620ADF91CF91A1
S11326E01F910F9108950E9438030E9494000E9444
S11326F0FE000E9463030E94B1041092A60210928D
S1132700A50282E090E09093CA028093C9028CE60D
S113271092E00E944E0620917C0230917D028091CD
S1132720000290910102281739070CF03EC080DEA8
S11327302FEF8FE796E1215080409040E1F700C0F1
S1132740000080917A0290917B02039711F40E9419
S1132750E20520917C0230917D02809100029091EB
S113276001022817390709F1F6DB8091A50290913F
S1132770A602BC0161707078772334F4615071094A
S11327806E6F7F6F6F5F7F4F6C5F7F4F0E94170884
S1132790B6D820917C0230917D0280910002909104
S11327A00102281739070CF4C2CF80E090E00895A5
S11327B05058BB27AA270ED048C139D130F03ED19A
S11327C020F031F49F3F11F41EF42EC10EF4E09575
S11327D0E7FB24C1E92F4AD180F3BA1762077307D4
S11327E08407950718F071F49EF562C10EF4E09524
S11327F00B2EBA2FA02D0B01B90190010C01CA01B7
S1132800A0011124FF27591B99F0593F50F4503E61
S113281068F11A16F040A22F232F342F4427585F53
S1132820F3CF469537952795A795F0405395C9F76B
S11328307EF41F16BA0B620B730B840BBAF0915023
S1132840A1F0FF0FBB1F661F771F881FC2F70EC0C2
S1132850BA0F621F731F841F48F487957795679595
S1132860B795F7959E3F08F0B3CF9395880F08F07E
S11328709927EE0F9795879508950CD0E6C0DED082
S113288040F0D5D030F021F45F3F19F0C7C05111AA
S113289010C1CAC0EBD098F39923C9F35523B1F3FF
S11328A0951B550BBB27AA2762177307840738F0BB
S11328B09F5F5F4F220F331F441FAA1FA9F333D01A
S11328C00E2E3AF0E0E830D091505040E695001CCE
S11328D0CAF729D0FE2F27D0660F771F881FBB1F8A
S11328E0261737074807AB07B0E809F0BB0B802D64
S11328F0BF01FF2793585F4F2AF09E3F510568F0B0
S11329008DC0D7C05F3FECF3983EDCF38695779596
S11329106795B795F7959F5FC9F7880F911D9695B1
S1132920879597F90895E1E0660F771F881FBB1F0D
S1132930621773078407BA0720F0621B730B840BBA
S1132940BA0BEE1F88F7E095089598D088F09F574A
S113295090F0B92F9927B751A0F0D1F0660F771FE7
S1132960881F991F1AF0BA95C9F712C0B13081F0C7
S11329709FD0B1E008959CC0672F782F8827B85F57
S113298039F0B93FCCF3869577956795B395D9F728
S11329903EF490958095709561957F4F8F4F9F4F32
S11329A00895E89409C097FB3EF49095809570953E
S11329B061957F4F8F4F9F4F9923A9F0F92F96E987
S11329C0BB279395F695879577956795B795F111FC
S11329D0F8CFFAF4BB0F11F460FF1BC06F5F7F4F99
S11329E08F4F9F4F16C0882311F096E911C07723AB
S11329F021F09EE8872F762F05C0662371F096E8B4
S1132A00862F70E060E02AF09A95660F771F881F82
S1132A10DAF7880F9695879597F9089597F99F6740
S1132A2080E870E060E008959FEF80EC0895002452
S1132A300A941616170618060906089500240A941F
S1132A4012161306140605060895092E0394000CA5
S1132A5011F4882352F0BB0F40F4BF2B11F460FF34
S1132A6004C06F5F7F4F8F4F9F4F089557FD90585D
S1132A70440F551F59F05F3F71F04795880F97FB3E
S1132A80991F61F09F3F79F08795089512161306F8
S1132A901406551FF2CF4695F1DF08C01616170627
S1132AA01806991FF1CF869571056105089408955C
S1132AB0E894BB2766277727CB0197F9089597FBFE
S1132AC0072E16F4009406D077FD08D01AD007FC20
S1132AD005D03EF4909581959F4F0895709561952A
S1132AE07F4F0895A29FB001B39FC001A39F700DB3
S1132AF0811D1124911DB29F700D811D1124911D02
S1132B000895AA1BBB1B51E107C0AA1FBB1FA61730
S1132B10B70710F0A61BB70B881F991F5A95A9F782
S1112B2080959095BC01CD010895F894FFCFE7
S1132B2E08000200494E004F555400627777002D7D
S1132B3E0077776200636F720063616C635468722E
S1132B4E657368005468726573686F6C64007069AD
S1132B5E636B5269676874007069636B4C65667465
S1132B6E007069636B536F72740064726F70526994
S1132B7E6768740064726F704C6566740070696384
S1132B8E6B75700063616E44726F700042656769A5
S1052B9E6E00C3
S9030000FC
