:1000000071C0000006C300008EC000008CC000005C
:100010008AC000003AC4000013C4000084C000007D
:1000200082C0000080C000007EC000007CC00000D4
:100030007AC0000078C0000076C0000074C00000E4
:1000400072C0000070C000006EC000006CC00000F4
:100050006AC0000068C0000066C0000064C0000004
:1000600062C0000060C000005EC000005CC0000014
:100070005AC0000058C0000056C0000054C0000024
:1000800052C0000050C000004EC000004CC0000034
:100090004AC0000048C0000046C0000044C0000044
:1000A00042C0000040C000003EC000003CC0000054
:1000B0003AC0000038C0000036C0000034C0000064
:1000C00032C0000030C000002EC000002CC0000074
:1000D0002AC0000028C0000026C0000024C0000084
:1000E00022C0000011241FBECFEFD1E2DEBFCDBF82
:1000F00000E00CBF12E0A0E0B2E0E6E1F1E300E0D6
:100100000BBF02C007900D92AA34B107D9F722E0C5
:10011000AAE4B2E001C01D92AD3BB207E1F70E9434
:1001200072160C9489186CCF86E69EE00197F1F761
:1001300000004098419880E388B9429A8FEF97E495
:100140000197F1F700C00000429886E69EE0019713
:10015000F1F700004098419880E388B9429A8FEF08
:1001600097E40197F1F700C00000429886E69EE010
:100170000197F1F700004098419880E388B9429ACE
:100180008FEF97E40197F1F700C00000429886E6F0
:100190009EE00197F1F700004098419880E288B90D
:1001A000429A8FEF97E40197F1F700C00000429860
:1001B000089598B19F7098B998B1282F207F922BFD
:1001C00098B940984198429AEFEFF7E43197F1F7E8
:1001D00000C00000429898B19F7098B998B182957C
:1001E000807F892B88B940984198429A8FEF97E495
:1001F0000197F1F700C000004298089595DF86E668
:100200009EE00197F1F7000088E2D3DF81E0D1DFC3
:1002100086E0CFDF8EE0CDDF80E8CBCF089598B1C8
:100220009F7098B998B1282F207F922B98B9409A47
:100230004198429AEFEFF7E43197F1F700C00000E0
:10024000429898B19F7098B998B18295807F892B18
:1002500088B9409A4198429A8FEF97E40197F1F755
:1002600000C000004298089580E8A3CF0895CF937E
:10027000DF93EC018881882329F02196D0DF8991D2
:100280008111FCCFDF91CF910895823069F018F48D
:10029000813031F00895833059F0843069F0089549
:1002A0008FE7860F86CF08958FEB860F82CF089554
:1002B00083E9860F7ECF089583ED860F7ACF089568
:1002C0000F931F93CF93DF938A01E901882311F0E5
:1002D000611102C0C9DF01C0D8DFC530D10509F006
:1002E000D5C09801329522952F7023273F70232780
:1002F000A7E4B3E00E946618969587959695879532
:1003000096958795C096909377028093760287DFC3
:100310009801369527953695279536952795A5EC1E
:10032000B0E20E946618AC01529542954F70452785
:100330005F70452750937B0240937A029A01ADEC9F
:10034000BCEC0E946618969587959695879596952C
:1003500087959C01220F331F880F991F880F991FC3
:10036000880F991F820F931F481B590BCA01C09613
:100370009093BC028093BB0252DF04C0C330D1050E
:1003800009F089C098013695279536952795ABE7F2
:10039000B4E10E946618AC015695479550937B02D4
:1003A00040937A029A01ADECBCEC0E9466189695D7
:1003B000879596958795969587959C01220F331F73
:1003C000880F991F880F991F880F991F820F931FFD
:1003D000481B590BCA01C0969093B2028093B10298
:1003E0001EDF9801ADECBCEC0E946618AC0156957E
:1003F0004795569547955695479550937B02409360
:100400007A029A010E946618969587959695879527
:10041000969587959C01220F331F880F991F880F8F
:10042000991F880F991F820F931F481B590BCA01F0
:10043000C09690938C0280938B02F1DE03C0C13092
:10044000D105F9F49801ADECBCEC0E9466189695C4
:10045000879596958795969587959C01220F331FD2
:10046000880F991F880F991F880F991F820F931F5C
:10047000081B190BC801C0969093BA028093B90269
:10048000CEDE269764F085E4CADE09C0C430D1050B
:1004900009F074CF3DCFC230D10589F6A2CFDF91EC
:1004A000CF911F910F910895E1E2F1E010828FEF5B
:1004B0008093250191E0909324011092290180936B
:1004C000280110922B0180932A0110922D01809314
:1004D0002C0189EA809320018BE08083089581B10B
:1004E0008F6081B982B1807F82B9EAE0F1E08081DA
:1004F00088618083EBE0F1E08081886180830895EA
:1005000092B1907F8F70982B92B9089586E0F8CFC2
:10051000089589E0F5CF089585E0F2CF08958AE047
:10052000EFCF089580E0ECCF089587B1876F87B94A
:1005300088B1807888B908958AB18E6F8AB9589A3F
:10054000089510BA11BA1092070110920801089587
:10055000259A2D9A0895269A2E9A0895279A2F9AC9
:100560000895E1E8F0E010828CEF8093850081E04F
:100570008093840093E0909389008FEF80938800AC
:1005800090938B0080938A0090938D0080938C00D1
:1005900090938700809386008BEA8093800010926E
:1005A00082008CE080830895C0DFCBDF3B9A4398C4
:1005B000CFDFD1DFD3DFC0CF089586B1886088B99F
:1005C000089586B1877F88B90895883018F098E03B
:1005D00090937B008770806280937C00EAE7F0E074
:1005E000808180648083808184FFFDCF8091790049
:1005F000EAE7F0E090819061908310927B0008958B
:10060000F894E9E6F0E0808182608083E89A78944B
:1006100008951F920F920FB60F9211248F939F93FC
:10062000AF93BF9380915A0290915B02A0915C02BC
:10063000B0915D020196A11DB11D80935A02909365
:100640005B02A0935C02B0935D02BF91AF919F915A
:100650008F910F900FBE0F901F901895EAE7F0E072
:10066000108210927B0080E280937C0080E880BF43
:1006700086E88083089510928900682F70E080E0FA
:1006800090E00E94C5172BE734E14EEE5FE30E9435
:10069000311720E030E04CE052E40E94CD160E9479
:1006A000991760938800089510928B00682F70E06E
:1006B00080E090E00E94C5172BE734E14EEE5FE347
:1006C0000E94311720E030E04CE052E40E94CD1649
:1006D0000E94991760938A00089510928D00682FE8
:1006E00070E080E090E00E94C5172BE734E14EEE09
:1006F0005FE30E94311720E030E04CE052E40E94BA
:10070000CD160E94991760938C0008955E985F98AB
:1007100008955E9A5F9A08955E985F9A08955C9A2C
:100720005D9A0895F3DF10925A0210925B021092C4
:100730005C0210925D022FEF8FE794E02150804021
:100740009040E1F700C0000080915A0290915B0256
:10075000A0915C02B0915D0280938002909381022F
:10076000A0938202B09383022FEF8FEF9CE221507F
:1007700080409040E1F700C000000895CADF109269
:100780005A0210925B0210925C0210925D022FEFEF
:100790008FE794E0215080409040E1F700C00000D6
:1007A00080915A0290915B02A0915C02B0915D022F
:1007B00080937C0290937D02A0937E02B0937F028F
:1007C0000895AADF10925A0210925B0210925C0206
:1007D00010925D022FEF8FE794E02150804090400F
:1007E000E1F700C0000080915A0290915B02A09155
:1007F0005C02B0915D028093700290937102A093AD
:100800007202B093730208956C98749A08956D986B
:10081000759A089564DEF8DFFACF0895F894EAE651
:10082000F0E0808182608083EC9A78940895F89457
:10083000EAE6F0E0808188608083ED9A78940895FC
:100840001F920F920FB60F9211248F939F93AF9325
:10085000BF9380915E0290915F02A0916002B0917F
:1008600061020196A11DB11D80935E0290935F020B
:10087000A0936002B0936102BF91AF919F918F915D
:100880000F900FBE0F901F9018951F920F920FB6EA
:100890000F9211248F939F93AF93BF938091620225
:1008A00090916302A0916402B09165020196A11D2E
:1008B000B11D8093620290936302A0936402B0938F
:1008C0006502BF91AF919F918F910F900FBE0F90D6
:1008D0001F901895CF92DF92EF92FF920F931F9384
:1008E000BC0180E090E00E94C51728E431EE42E8A8
:1008F00050E40E9431170E949917CB01A0E0B0E0AC
:1009000010925E0210925F021092600210926102D9
:1009100010926202109263021092640210926502B9
:1009200051E0E0E0C0905E02D0905F02E090600293
:10093000F0906102009162021091630220916402C2
:1009400030916502452F081719072A073B0708F45D
:100950004E2F411109C0252FC816D906EA06FB06FD
:1009600008F42E2F2223F1F2DDDD1F910F91FF906D
:10097000EF90DF90CF9008950F931F93BC0180E01C
:1009800090E00E94C51725EE30ED4AEA50E40E943F
:1009900031170E94991710925E0210925F02109216
:1009A00060021092610200915E0210915F0220913C
:1009B000600230916102601771078207930798F710
:1009C000B1DD1F910F910895CF93DF93EC019EDD70
:1009D000CE01D2DFDF91CF910895CF93DF93EC0169
:1009E00098DDCE01C9DFDF91CF910895CF93DF93DA
:1009F000EC0192DDCE016EDFDF91CF910895CF93B0
:100A0000DF93EC018CDDCE0165DFDF91CF9108959E
:100A1000F89400DF03DF0BDFC7DDF2DD1FDE5FDDF3
:100A200043DD9FDD7894089583E0CFDD80934D0210
:100A300082E0CBDD80934C0281E0C7DD80934B02E6
:100A400008958130E9F48AE590E090934F02809315
:100A50004E022ADE8FEF9FE80197F1F700C00000F9
:100A600080914E0290914F02019790934F02809394
:100A70004E028C3391056CF78CE38093000208954D
:100A80008AE590E090934F0280934E020DDE8FEF47
:100A90009FE80197F1F700C0000080914E0290910D
:100AA0004F02019690934F0280934E028937910531
:100AB0006CF388E7809300020895809100028C33E4
:100AC000D1F48CE390E090934F0280934E02ECDDE2
:100AD0008FEF9FE80197F1F700C0000080914E0270
:100AE00090914F02019690934F0280934E028B3566
:100AF0009105D4F4ECCF88E790E090934F02809377
:100B00004E02D2DD8FEF9FE80197F1F700C00000A1
:100B100080914E0290914F02019790934F028093E3
:100B20004E028A3591056CF78AE58093000208959C
:100B300081111AC087E390E090934F0280934E0298
:100B4000CCDD8FEF9FE80197F1F700C000008091A6
:100B50004E0290914F02019790934F0280934E0264
:100B600018161906E4F4ECCF8130C9F487E390E05D
:100B700090934F0280934E027EDD8FEF9FE80197A6
:100B8000F1F700C0000080914E0290914F02019752
:100B900090934F0280934E02181619066CF3089535
:100BA000811118C010924F0210924E0296DD8FEF05
:100BB0009FE80197F1F700C0000080914E029091EC
:100BC0004F02019690934F0280934E028733910516
:100BD000DCF4ECCF8130C1F410924F0210924E023F
:100BE00080E049DD8FEF9FE80197F1F700C000003A
:100BF00080914E0290914F02019690934F02809304
:100C00004E02873391056CF30895D7DC2FEF8FE701
:100C100094E0215080409040E1F700C00000D1CC2A
:100C20000895CF93DF93EC0181E0C3DA61E081E0C6
:100C30002CDBCE011CDBDF91CF9108950F931F9326
:100C400071DDBFDD9BDD2FEF8FE794E02150804009
:100C50009040E1F700C000008BE0B7DC883308F477
:100C60007BC08BE0B2DC843608F079C080916E02E4
:100C700090916F02AA2797FDA095BA2F409180020C
:100C80005091810260918202709183024817590746
:100C90006A077B07D8F440917C0250917D026091F5
:100CA0007E0270917F02481759076A077B0770F42C
:100CB00040917002509171026091720270917302C2
:100CC000481759076A077B0708F44CC04091800217
:100CD0005091810260918202709183028091700232
:100CE00090917102A0917202B091730284179507DE
:100CF000A607B707C8F400918002109181022091E5
:100D000082023091830240917C0250917D02609179
:100D10007E0270917F0281E090E0401751076207E8
:100D2000730728F580E023C0409170025091710252
:100D3000609172027091730280917C0290917D02A9
:100D4000A0917E02B0917F0284179507A607B7078E
:100D500060F482E090E00BC08FEF9FEF08C08FEF50
:100D60009FEF05C083E090E002C081E090E01F911A
:100D70000F910895CF93DF93CFE9D2E0EDE8F2E051
:100D8000A6E6B2E080E090E02EEF3FEF89939993E2
:100D900033832283318320831D921D9201963496E2
:100DA0008430910599F7E0919F02F091A002EE0F37
:100DB000FF1FE955FD4F11821082E091A102F091D1
:100DC000A202EE0FFF1FE955FD4F81E090E09183F5
:100DD0008083E091A302F091A402EE0FFF1FE9557A
:100DE000FD4F82E090E091838083E091A502F09135
:100DF000A602EE0FFF1FE955FD4F83E090E09183BF
:100E000080838FEF9FEF9093880280938702909367
:100E10008602809385029093B6028093B5029093E8
:100E2000B4028093B302DF91CF910895CF93DF9303
:100E300086E98093280180932A018091560290913F
:100E40005702892B39F58091500290915102892BDC
:100E500071F48091520290915302029720F48EE136
:100E600090E0B2DD11C08EE190E0B7DD0DC0809161
:100E7000520290915302029720F48EE190E0ADDD92
:100E800003C08EE190E0A0DD81E090E090935702F6
:100E9000809356028091890290918A028230910556
:100EA00030F42091500230915102232B69F09C01C3
:100EB000225031092230310540F5409150025091C5
:100EC00051024230510509F58EE190E08FDD86E94F
:100ED0008093280180932A0101C01EDB81E075DB2D
:100EE0008233D8F31FDB8091500290915102039618
:100EF00083709078992324F401978C6F9F6F0196EB
:100F0000909351028093500253C0029730F4809125
:100F1000500290915102029749F02230310538F584
:100F20008091500290915102892B09F58EE190E059
:100F300066DD86E98093280180932A0101C0EFDAFB
:100F400081E043DB8233D8F3EDDA80915002909157
:100F50005102019683709078992324F401978C6F45
:100F60009F6F0196909351028093500221C086E9B1
:100F700090E03CDD86E98093280180932A0101C03E
:100F8000CBDA82E022DB8832D8F3CCDA80915002CF
:100F900090915102029683709078992324F40197DE
:100FA0008C6F9F6F0196909351028093500239DEAF
:100FB000C0918902D0918A0241DECC0FDD1FCC0F97
:100FC000DD1FC357DD4F9B838A83E0918902F09137
:100FD0008A02EE0FFF1FEE0FFF1FE357FD4F428106
:100FE00053814F3F2FEF520741F421E030E049E0B9
:100FF00050E06BE082E064D905C021E030E06BE0B6
:1010000082E05ED94FEF8FEF9CE2415080409040EC
:10101000E1F700C000008091890290918A02FC01F2
:10102000EE0FFF1FEE0FFF1FE357FD4F22813381AD
:101030002F3F4FEF340751F0FC01EE0FFF1FE15639
:10104000FD4F408151812417350751F42091010251
:1010500030910202215031093093020220930102A3
:10106000FC01EE0FFF1FEA59FD4F81E090E09183F4
:10107000808380915402909155020196909355027D
:1010800080935402DF91CF910895CF93DF93EC01C9
:10109000D8DC8C2F4DDD8C2F83DD0FDD809103029A
:1010A0009091040201979093040280930302CD2B48
:1010B00021F48FE092E0B5DD03C089E192E0B1DD7B
:1010C000DF91CF910895CF93DF93EC01BADC8C2FA1
:1010D0002FDDF3DC8091030290910402019690933E
:1010E000040280930302CD2B21F482E292E099DD89
:1010F00003C08CE292E095DDDF91CF91089580915D
:101100008D0290918E0220919F023091A002821751
:10111000930709F05FC020918F02309190028217EF
:10112000930709F057C0809191029091920220910B
:10113000A1023091A2028217930709F04BC02091BF
:101140009302309194028217930709F043C0809173
:10115000890290918A02FC01EE0FFF1FEE0FFF1F24
:10116000E357FD4F20813181FC01EE0FFF1FE15657
:10117000FD4F408151812417350761F5FC01EE0FC9
:10118000FF1FEE0FFF1FE357FD4F8281938128174A
:10119000390701F580918502909186020196D1F47C
:1011A00080918702909188020196A1F48091B30208
:1011B0009091B402019671F48091B5029091B602BB
:1011C000019641F48091010290910202909359029C
:1011D0008093580208951CDC0E9494000FD89FDA77
:1011E000C9DD80E797E190936F0280936E028AE5F4
:1011F0005BCA089521E030E041E050E061E081E029
:101200005FD886E98093280180932A018CE390E0DF
:10121000DBCB08950F931F93CF93DF938C011816A8
:1012200019068CF4C0E0D0E009C086E69EE0019784
:10123000F1F700002196C017D10739F082E0C5D937
:10124000883298F302C0C0E0D0E06CD981E0C017CA
:10125000D1070CF080E0DF91CF911F910F9108959D
:1012600080914C02893250F090914D02993220F4D5
:1012700090914B02993210F0BDCF08958832D8F486
:1012800080914D02893258F090914B02983238F497
:1012900043D9CADB80914C028832D0F308959091F3
:1012A0004B02993240F0883230F439D9BDDB80915D
:1012B0004C028832D0F30895CF93DF9385E090E01D
:1012C00090937502809374022DD981E080934A0235
:1012D000C2E3D0E021D9CE019DDF811126C022D901
:1012E00021E030E041E050E061E081E00E946001F7
:1012F000B7DF82E06AD98932B8F411D9CE01C2963B
:1013000089DF811112C00ED921E030E042E050E0C7
:1013100061E081E00E946001A3DF82E056D989325A
:1013200018F4CC59DF4FD6CFFDD8DF91CF91089577
:1013300088EC8093280180932A0180914C028832A6
:1013400080F580914D028932A0F090914B02983245
:1013500080F402C0E1D868DB80914C028932D0F37E
:1013600080914D028832B0F780914B02883290F71D
:101370002BC090914B02993290F0883280F402C0D9
:10138000CED852DB80914C028932D0F380914D024D
:101390008832B0F780914B02883290F715C08CDF0D
:1013A00013C080914D02893230F090914B029832F7
:1013B00010F420CF0895883230F480914B028932A6
:1013C00010F018CF089578DFADC80895FF920F93FD
:1013D0001F93CF93DF9308E211E00F2EF0EFFF2E63
:1013E000F02DCAE2D1E092D81FDB80914C02893205
:1013F00050F080914D02893220F480914B02893265
:1014000010F0F8DE11C0F801F082F88280914C02F1
:10141000893240F080914D02883220F480914B0255
:10142000883208F385DFD2DFDF91CF911F910F91D2
:10143000FF900895CBDF8091780290917902019618
:101440009093790280937802089583E690E09093D8
:10145000510280935002909353028093520286E986
:101460008093280180932A018EE190E0C8DA01C0C0
:1014700056D882E0AAD88233D8F329E989E993E0E3
:10148000215080409040E1F700004CD885E392E085
:10149000C8DB809150029091510201968370907840
:1014A000992324F401978C6F9F6F019690935102BA
:1014B0008093500280919D0290919E02865A9F4F88
:1014C00090939E0280939D02A0CB0895809150023C
:1014D000909151028130910539F48091520290919E
:1014E0005302029798F409C0039781F48091520245
:1014F000909153020297029748F486E9809328015D
:1015000080932A018AE590E071DA11C08EE190E0C3
:101510006DDA86E98093280180932A0102C00E9437
:101520008C0282E052D88233D0F30E94920280E48F
:1015300092E077DB80915002909151020396837084
:101540009078992324F401978C6F9F6F0196909364
:1015500051028093500280919D0290919E02865A82
:101560009F4F90939E0280939D024FCB0895809150
:10157000500290915102009781F480915202909113
:10158000530202970297D0F486E980932801809352
:101590002A0184EB90E02ADA23C0029779F4809143
:1015A000520290915302029748F486E980932801F1
:1015B00080932A0184EB90E019DA12C086E98093C7
:1015C000280180932A0186E990E010DA02C00E9487
:1015D0008C0282E00E94E5028233C8F30E949202EC
:1015E00085E492E01EDB80915002909151020296B8
:1015F00083709078992324F401978C6F9F6F0196E4
:10160000909351028093500280919D0290919E028E
:101610008C549F4F90939E0280939D020895CF9388
:10162000DF93EC018091560290915702019721F4CB
:101630001092570210925602CE010497029788F535
:10164000C430D10539F48091500290915102892B18
:1016500051F00BC0C530D10541F4809150029091FA
:101660005102029711F4F1DE01C030DFE3DEE2DE69
:10167000249739F485E090E09093530280935202CE
:1016800006C084E090E090935302809352028091D0
:101690007802909179020296909379028093780271
:1016A00045C080915002909151028130910539F4EA
:1016B0008091520290915302029778F409C00397E7
:1016C00099F480915202909153028230910511F465
:1016D000BCDE0AC0029740F406C08091520290918D
:1016E0005302029709F4F2DE22973CF480915002F3
:1016F00090915102892B39F007C08091500290914E
:101700005102029709F433DF95DE809189029091AE
:101710008A0281709078992324F401978E6F9F6FCD
:10172000019604969093530280935202DF91CF91D9
:101730000895CF93DF9381E00E94D90023E030E049
:1017400048E753E061E081E00E94600186E9809310
:10175000280180932A0181E090E0909357028093C2
:101760005602809152029091530220918902309149
:101770008A022817390789F12091500230915102CD
:101780002D7F2130310541F48330910511F0892BF3
:1017900011F45BDE01C09ADE8091890290918A0289
:1017A0008230910538F4209150023091510222305C
:1017B000310549F00297029738F4809150029091D8
:1017C0005102892B09F4D3DE35DE80918902909194
:1017D0008A02909353028093520282E390E00FD9E1
:1017E00086E98093280180932A018091500290918C
:1017F0005102019683709078992324F401978C6F9D
:101800009F6F0196909351028093500202C00E94F4
:101810008F0283E00E94E5028832C8F30E949202A0
:10182000C0918902D0918A0209DACC0FDD1FCC0F5A
:10183000DD1FC357DD4F99838883E0918902F091C2
:101840008A02EE0FFF1FEE0FFF1FE357FD4F40818F
:1018500051814F3F2FEF520749F421E030E049E03A
:1018600050E06BE082E00E94600106C021E030E0C1
:101870006BE082E00E9460014FEF8FEF9CE24150ED
:1018800080409040E1F700C0000020918902309133
:101890008A02F901EE0FFF1FEE0FFF1FE357FD4F06
:1018A000808191818F3F4FEF940751F0F901EE0F46
:1018B000FF1FE156FD4F208131818217930749F4C4
:1018C000809101029091020201979093020280930D
:1018D0000102DF91CF9108950F931F93CF93DF9370
:1018E0008C01EB012091890230918A0240915202D1
:1018F000509153022417350709F07EC0C9012230E8
:10190000310530F44091500250915102452B61F065
:10191000225031092230310568F440915002509133
:1019200051024230510531F40C171D0709F44CC027
:101930001EDE4AC08230910538F440915002509129
:1019400051024230510549F02230310558F440919E
:10195000500250915102452B29F40C171D07A1F597
:1019600006DE32C08230910538F440915002509129
:1019700051024130510551F02230310570F440914F
:101980005002509151024330510539F40C171D0794
:1019900011F05BDD19C09ADD17C0029730F4809119
:1019A000500290915102039749F02230310560F4C2
:1019B0008091500290915102019731F40C171D074C
:1019C00011F443DD01C082DD8091560290915702EF
:1019D000019709F065C080915002909151028D7F6E
:1019E000892B09F05DC08EE190E00E94ED04109219
:1019F00057021092560254C08091500290915102A9
:101A00008D7F019749F42115310519F023303105F7
:101A100011F41BDD01C05ADD2091500230915102BA
:101A20002115310521F02230310591F507C0809153
:101A3000890290918A020297C8F407C080918902B6
:101A400090918A020297029788F4809152029091B5
:101A500053020497029710F039DDECDC0C171D07D8
:101A600011F4E8DC15C0E6DC82DD12C08091520280
:101A7000909153020497029710F028DDDBDC0C17DD
:101A80001D0719F474DDD6DC03C071DDD3DC6FDD16
:101A90008091890290918A0290935302809352021E
:101AA000DF91CF911F910F9108950F931F93CF93C3
:101AB000DF938C01EB01FC01EE0FFF1FED54FD4F96
:101AC000A0918902B0918A02AA0FBB1FA60FB71F6F
:101AD000AA0FBB1FA357BD4F8D919C91918380830B
:101AE000C801FADEC801D1DA8091890290918A0298
:101AF000880F991FC80FD91FCC0FDD1FC357DD4FAB
:101B00008FEF9FEF99838883DF91CF911F910F9182
:101B10000895EF92FF920F931F93CF93DF9320913D
:101B2000890230918A022230310530F480915002CE
:101B300090915102029779F0C9010297029780F4BF
:101B40008091500290915102892B79F0C1E0D0E050
:101B500000E010E00EC0C0E0D0E001E010E009C0FD
:101B6000C1E0D0E000E010E004C0C0E0D0E001E05F
:101B700010E0F901EE0FFF1FEA59FD4F80819181BE
:101B8000892B79F4F901EE0FFF1FEE0FFF1FE357CA
:101B9000FD4F80819181029619F4CBDD47D901C0B8
:101BA00045D92091890230918A02F901EE0FFF1F79
:101BB000EE0FFF1FE357FD4F40815181F901EE0FFA
:101BC000FF1FE156FD4F808191814817590721F091
:101BD0004F3F6FEF560789F4F901EE0FFF1FEE0F2D
:101BE000FF1FE357FD4F628173818617970709F442
:101BF000EEC16F3F7F4F09F4EAC16091030270911B
:101C000004026230710509F0B0C0E091AF02F091BA
:101C1000B002DF01AA0FBB1FA156BD4F6D917C9191
:101C20004617570779F0D901AA0FBB1FAA0FBB1F90
:101C3000A357BD4F1296ED90FC9013976E157F053C
:101C400059F405C060E070E0C8012FDF8EC061E08C
:101C500070E0CE012ADF89C08E159F0509F44EC0C1
:101C6000EF20E09409F44AC04817590769F04F3F44
:101C7000AFEF5A0749F061E070E0CE0116DF60E097
:101C800070E0C80112DF71C021703078332334F462
:101C9000215031092E6F3F6F2F5F3F4FD901AA0F9F
:101CA000BB1FAB57BD4F2D913C912F3F3F4F09F1CB
:101CB000DF01AA0FBB1FAA0FBB1FA357BD4F2D915A
:101CC0003C9162177307A9F02F3F3F4F91F0EE0F41
:101CD000FF1FEE0FFF1FE357FD4F22813381621775
:101CE000730739F02F3F3F4F21F04817590709F08C
:101CF0006EC161E070E0CE01D8DE37C048175907E9
:101D000009F465C14F3F5F4F09F461C1217030781C
:101D1000332334F4215031092E6F3F6F2F5F3F4F33
:101D2000D901AA0FBB1FAB57BD4F8D919C91019656
:101D3000C1F0DF01AA0FBB1FAA0FBB1FA357BD4FE6
:101D40008D919C9111976817790759F0019649F088
:101D5000FD01828193816817790719F0019609F0D6
:101D600036C160E070E0C801A0DE8091030290916E
:101D70000402019709F02BC1F801EE0FFF1FED548B
:101D8000FD4F80819181019609F4E801BE016F5FEA
:101D90007F4F61707078772334F4615071096E6FF2
:101DA0007F6F6F5F7F4F8091890290918A029C01C3
:101DB00021703078332334F4215031092E6F3F6F76
:101DC0002F5F3F4FF901EE0FFF1FEB57FD4F2081B3
:101DD00031812F3FAFEF3A07D9F5FC01EE0FFF1F1E
:101DE000EC0FFD1FEE0FFF1FE357FD4F20813181E8
:101DF0002F3FEFEF3E0771F0FC01EE0FFF1FE156A2
:101E0000FD4F408151812417350721F0BE01CE01DD
:101E10004CDEDDC0FC01EE0FFF1FE60FF71FEE0FDB
:101E2000FF1FE357FD4F208131812F3F4FEF3407D4
:101E300009F4CDC0FC01EE0FFF1FE156FD4F80817C
:101E400091812817390709F4C2C0CE012EDEBFC028
:101E50004091AF025091B002FA01EE0FFF1FE15620
:101E6000FD4F0190F081E02DDC01AA0FBB1FAA0FEE
:101E7000BB1FA357BD4F0D90BC91A02DAE17BF0740
:101E800071F0DC01AA0FBB1FAA0FBB1FA357BD4FE8
:101E900012960D90BC91A02DEA17FB07D9F5DA0137
:101EA000AA0FBB1FAA59BD4F2D913C91213031057E
:101EB00009F08DC0DA01AA0FBB1FAA0FBB1FA357E1
:101EC000BD4F2D913C912F3F3F4F79F0DA01AA0F82
:101ED000BB1FAA0FBB1FA357BD4F12962D913C915C
:101EE00013972F3F3F4F09F072C0880F991F8C0F37
:101EF0009D1FDC01AA0FBB1FA357BD4F8D919C9165
:101F0000E817F90721F4BE01CE01CFDD60C0CE0194
:101F1000CCDD5DC0DC01AA0FBB1FA156BD4F0D90EB
:101F2000BC91A02D2A173B0709F451C02E173F077B
:101F300009F44DC0FA01EE0FFF1FEA59FD4F208151
:101F400031812130310509F042C0FA01EE0FFF1F47
:101F5000EE0FFF1FE357FD4F20813181A217B3071A
:101F6000B1F1FA01EE0FFF1FEE0FFF1FE357FD4F18
:101F700022813381A217B30751F1FC01EE0FFF1F3D
:101F8000EC0FFD1FEE0FFF1FE357FD4F2081318146
:101F90002F3FEFEF3E0739F0A217B30721F0BE0144
:101FA000CE0183DD14C0880F991F860F971FFC0197
:101FB000EE0FFF1FE357FD4F808191818F3F2FEF81
:101FC000920729F0A817B90711F0CE016EDDDF9155
:101FD000CF911F910F91FF90EF900895CF93DF93D2
:101FE0009C012F5F3F4F21703078332334F4215010
:101FF00031092E6F3F6F2F5F3F4FD22FC32FE091DC
:102000008902F0918A02AF01440F551F240F351F3A
:10201000D901AA0FBB1FA357BD4F2D913C91DA01E7
:10202000A156BD4F4D915C912417350769F0A091E1
:10203000AF02B091B002AA0FBB1FA156BD4F6D9168
:102040007C9126173707A9F0EE0FFF1FE80FF91F45
:10205000EE0FFF1FE357FD4F0190F081E02D4E176B
:102060005F0739F0319629F0BC018D2F9C2F1DDDC3
:102070000BC02417350741F02F3F3F4F29F06D2F3C
:102080007C2F8D2F9C2F11DDDF91CF9108950F9321
:102090001F93CF93DF93EC01E0918902F0918A02C4
:1020A000EE0FFF1FE60FF71FEE0FFF1FE357FD4F69
:1020B0008C01000F111F0D541D4FD8018D919C9163
:1020C00091838083CE0108DCCE010E9463088FEFEC
:1020D0009FEFF8019183808380915802909159027B
:1020E00001969093590280935802DF91CF911F91EE
:1020F0000F9108950F931F93CF93DF93209189023F
:1021000030918A022230310530F480915002909152
:102110005102029779F0C9010297029780F48091E9
:10212000500290915102892B79F001E010E0C0E05B
:10213000D0E00EC000E010E0C1E0D0E009C001E056
:1021400010E0C0E0D0E004C000E010E0C1E0D0E06A
:1021500040910302509104024230510509F43CC100
:10216000F901EE0FFF1FE156FD4F40815181809133
:10217000B3029091B4028417950741F08091B502A3
:102180009091B6024817590709F026C1F901EE0FE0
:10219000FF1FEA59FD4F80819181892B09F4C9DA2B
:1021A0008091030290910402892B09F048C020918C
:1021B000890230918A02F901EE0FFF1FE156FD4FAF
:1021C00080819181FE01EE0FFF1FED54FD4F408194
:1021D000518148175907A9F4F901EE0FFF1FEE0FBF
:1021E000FF1FE357FD4F80819181019629F460E044
:1021F00070E0CE014CDF23C061E070E0CE0147DF2C
:102200001EC0F801EE0FFF1FED54FD4F40815181BC
:1022100084179507A1F4F901EE0FFF1FEE0FFF1FC2
:10222000E357FD4F80819181019629F061E070E0D4
:10223000C8012DDF04C060E070E0C80128DF2091F4
:10224000890230918A02F901EE0FFF1FE156FD4F1E
:10225000808191814091B3025091B402481759078F
:1022600041F04091B5025091B6028417950709F0EC
:10227000B3C0F901EE0FFF1FEE0FFF1FE357FD4F35
:1022800080819181019609F446C0F901EE0FFF1F8C
:10229000EE0FFF1FE357FD4F828193810196D1F02E
:1022A000F901EE0FFF1FEA59FD4F80819181892BC3
:1022B00089F40E9416072091890230918A02F9015F
:1022C000EE0FFF1FEE0FFF1FE357FD4F808191813F
:1022D000019609F1F901EE0FFF1FEE0FFF1FE35703
:1022E000FD4F828193810196B1F0DE01AA0FBB1FE1
:1022F000AD54BD4FF901EE0FFF1FE156FD4F4D915B
:102300005C91808191814817590719F4CE0166DEEE
:1023100002C0C80163DE8091890290918A02FC01AB
:10232000EE0FFF1FE156FD4F20813181FE01EE0FC0
:10233000FF1FED54FD4F408151814217530711F5A6
:10234000FC01EE0FFF1FEE0FFF1FE357FD4F408113
:1023500051814F3F5F4F29F460E070E0CE0197DE7E
:102360003BC0FC01EE0FFF1FEE0FFF1FE357FD4FB9
:10237000428153814F3F5F4F29F461E070E0CE010D
:1023800086DE2AC0F801EE0FFF1FED54FD4F40819D
:1023900051812417350701F5FC01EE0FFF1FEE0FE9
:1023A000FF1FE357FD4F208131812F3F3F4F29F41D
:1023B00060E070E0C8016BDE0FC0FC01EE0FFF1F94
:1023C000EE0FFF1FE357FD4F82819381019621F4A9
:1023D00061E070E0C8015BDEDF91CF911F910F914A
:1023E00008950F931F93CF93DF93EC018B01FC01B2
:1023F000EE0FFF1FED54FD4FDB01AA0FBB1FAB57C4
:10240000BD4F8D919C9191838083C617D70739F476
:102410008091500290915102892B49F406C080911D
:10242000500290915102029711F4A1D80CC08091F2
:102430005002909151028D7F019729F4209711F459
:1024400045D801C002D8CE010E944508F801EE0F20
:10245000FF1FEB57FD4F8FEF9FEF91838083DF913D
:10246000CF911F910F910895CF93DF93EC01FB0162
:10247000EE0FFF1FEB57FD4FDC01AA0FBB1FAD5442
:10248000BD4F8D919C9191838083C617D70739F4F6
:102490008091500290915102892B49F406C080919D
:1024A000500290915102029711F461D80DC08091B1
:1024B0005002909151028D7F019731F4209711F4D1
:1024C00005D802C00E94250ACE010E946308CC0FE5
:1024D000DD1FCD54DD4F8FEF9FEF99838883DF9110
:1024E000CF9108950F931F93CF93DF932091B30261
:1024F0003091B4022F3F1FEF310741F0F901EE0F89
:10250000FF1FE955FD4FC081D18102C0CEEFDFEF43
:10251000E091B502F091B602EF3F4FEFF40709F4F6
:102520007FC1DF01AA0FBB1FA955BD4F4D915C9123
:102530008091890290918A02019681709078992306
:1025400024F401978E6F9F6F0196BC010296D09381
:102550008A02C09389022E173F0761F5DE01AA0F98
:10256000BB1FAA59BD4F0D90BC91A02DAB2BC9F03C
:10257000DE01AA0FBB1FAA0FBB1FA357BD4F0D90B3
:10258000BC91A02D1196B1F0DE01AA0FBB1FAA0FBE
:10259000BB1FA357BD4F12960D90BC91A02D119655
:1025A00049F0209719F0239709F028C181E090E0C5
:1025B0005BDF24C12F3FAFEF3A07C1F1DE01AA0F65
:1025C000BB1FAA0FBB1FA357BD4F0D90BC91A02DE1
:1025D000119651F0CC0FDD1FCC0FDD1FC357DD4F1F
:1025E000AA81BB81119611F5319609F007C19B01B3
:1025F000220F331FF901EB57FD4F40815181F90143
:10260000E156FD4F208131814217530759F0FC01FB
:10261000EE0FFF1FE156FD4F80819181481759074A
:1026200009F0ECC081E090E0DCDEE8C0EF3FAFEF06
:10263000FA0709F451C0DA01AA0FBB1FAA0FBB1F8A
:10264000A357BD4F0D90BC91A02D119609F40AC15E
:10265000DA01AA0FBB1FAA0FBB1FA357BD4F1296CB
:102660000D90BC91A02D1196B9F5EAC02F3F3F4FB8
:1026700009F0C4C09B01220F331FF901EB57FD4F36
:1026800040815181F901E156FD4F2081318142178E
:10269000530709F0B3C0FC01EE0FFF1FE156FD4FD9
:1026A000808191814817590709F0A8C081E090E026
:1026B00098DEA4C0FB01EE0FFF1FEB57FD4F80819A
:1026C0009181019609F09AC02F3F3F4F09F496C0BF
:1026D00081E090E0C9DE92C02F3F1FEF3107A1F0EB
:1026E000DB01AA0FBB1FAB57BD4F8D919C9101968B
:1026F00031F4319621F081E090E0B6DE7FC0309376
:102700008A02209389027AC0F0938A02E0938902B8
:1027100075C0A801440F551FFA01EB57FD4F2081EA
:102720003181FA01E156FD4F40815181241735076F
:1027300051F0FC01EE0FFF1FE156FD4F60817181EA
:102740002617370781F42F3FAFEF3A0731F1F90130
:10275000EE0FFF1FE955FD4F8081918190938A0212
:10276000809389024BC02F3F3F4FB9F0B80180E002
:1027700090E037DE0F5F1F4F01701078112334F4A3
:10278000015011090E6F1F6F0F5F1F4F0C5F1F4F1E
:1027900010938A020093890231C0F801EE0FFF1FE7
:1027A000EA59FD4F208131812130310519F5F801B9
:1027B000EE0FFF1FEE0FFF1FE357FD4F208131810A
:1027C0004217530719F02F3F3F4FA1F4F801EE0FC6
:1027D000FF1FEE0FFF1FE357FD4F2281338142178A
:1027E000530719F02F3F3F4F29F490938A028093AB
:1027F000890204C010938A020093890280918902A1
:1028000090918A02029683709078992324F401971C
:102810008C6F9F6F01969093B0028093AF022EC091
:102820008091890290918A02019662E070E03BD427
:102830008C01BC0102962F3FAFEF3A07C1F469CF7C
:1028400050938A0240938902FA01EE0FFF1FEE0FA8
:10285000FF1FE357FD4F428153814F3F5F4F09F008
:1028600029CF04CF50938A0240938902FFCED093A0
:102870008A02C09389024EEF5FEF9CCEDF91CF9129
:102880001F910F9108958F929F92AF92BF92CF9216
:10289000DF92EF92FF920F931F93CF93DF934091BC
:1028A000890250918A024230510530F480915002E1
:1028B00090915102029779F0CA010297029780F431
:1028C0008091500290915102892B79F001E010E043
:1028D000C0E0D0E00EC000E010E0C1E0D0E009C0F0
:1028E00001E010E0C0E0D0E004C000E010E0C1E092
:1028F000D0E09A0121703078332334F4215031092B
:102900002E6F3F6F2F5F3F4FB22EA32EF901EE0FB8
:10291000FF1FEB57FD4F20813181FA01EE0FFF1FA2
:10292000E156FD4F808191812817390779F0809118
:10293000AF029091B002FC01EE0FFF1FE156FD4F78
:10294000408151812417350709F0A6C08091030208
:1029500090910402181619060CF095C0F901EE0FBB
:10296000FF1FE955FD4F6081718170938A0260936A
:102970008902FE01EE0FFF1FED54FD4F8081918112
:10298000019669F461707078772334F461507109AD
:102990006E6F7F6F6F5F7F4FCE0123DD15C0F80133
:1029A000EE0FFF1FED54FD4F80819181019661F480
:1029B00061707078772334F4615071096E6F7F6FA6
:1029C0006F5F7F4FC8010DDD80910302909104027B
:1029D000019709F469C18091890290918A02FC01F2
:1029E000EE0FFF1FEE0FFF1FE357FD4F20813181D8
:1029F0002F3F3F4F09F458C1FC01EE0FFF1FEE0FB0
:102A0000FF1FE357FD4F228133812F3F3F4F09F4D2
:102A10004BC19C0121703078332334F421503109AB
:102A20002E6F3F6F2F5F3F4F622F732FF901EE0F15
:102A3000FF1FEB57FD4F208131812F3F3F4F09F0A2
:102A400033C1FC01EE0FFF1FE156FD4F80819181E4
:102A5000FE01EE0FFF1FED54FD4F2081318128173D
:102A6000390719F4C80100DD1FC1F801EE0FFF1F7F
:102A7000ED54FD4F208131818217930709F014C175
:102A8000CE01F2DC11C18091AF029091B00290931F
:102A90008A028093890208C1FE01EE0FFF1FED54E8
:102AA000FD4F0190F081E02D4E175F0709F48DC0B6
:102AB000D801AA0FBB1FAD54BD4F8D909C904815F7
:102AC000590509F482C0E0900302F0900402E11479
:102AD000F10409F44CC0B1E0EB16F10429F42F3FE6
:102AE0006FEF3607B1F509C0670171E0C71AD10869
:102AF000A2E0CA16D10408F063C06C01CC0CDD1C46
:102B0000CC0CDD1CB60163577D4FDB01CD90DC9012
:102B10004C155D0521F0CD20C09409F051C06C0129
:102B2000CC0CDD1CCC0CDD1CB60163577D4FDB01EA
:102B30001296CD90DC9013974C155D0521F0CD20B9
:102B4000C09409F03DC01E141F048CF42F3F3F4F6A
:102B500071F0319629F46B2D7A2DCE0142DC07C03D
:102B60008920809421F46B2D7A2DC8013ADC809164
:102B7000890290918A02BC016F5F7F4F617070780B
:102B8000772334F4615071096E6F7F6F6F5F7F4FF1
:102B90006C5F7F4F81709078992324F401978E6F3A
:102BA0009F6F019604960E940F0B9CDC8091890216
:102BB00090918A020497029708F087C093DC85C041
:102BC00090938A02809389026FC0A0910302B09112
:102BD00004021097C1F5DC01AA0FBB1FAA59BD4F13
:102BE0000D90BC91A02DA130B105D9F4DC01AA0F44
:102BF000BB1FAA0FBB1FA357BD4F0D90BC91A02DAB
:102C0000119609F449C0DC01AA0FBB1FAA0FBB1F14
:102C1000A357BD4F12968D919C911397019619F46D
:102C20003BC0AB2BC9F52F3F3F4FB1F54E175F07A8
:102C300029F46B2D7A2DC80117DC2EC06B2D7A2D4F
:102C4000CE0112DC29C0119739F5DC01AA0FBB1F98
:102C5000AA0FBB1FA357BD4F4D915C914F3F5F4FD4
:102C600069F0DC01AA0FBB1FAA0FBB1FA357BD4F02
:102C700012968D919C911397019671F42F3F3F4FBF
:102C800059F0319629F46B2D7A2DCE01AADB04C0C0
:102C90006B2D7A2DC801A5DB8091AF029091B00217
:102CA00090938A02809389028091890290918A028E
:102CB000029683709078992324F401978C6F9F6F0C
:102CC00001969093B0028093AF02DF91CF911F9154
:102CD0000F91FF90EF90DF90CF90BF90AF909F90BB
:102CE0008F9008950E94EB0810928A021092890238
:102CF00082E090E09093B0028093AF0280E00E9467
:102D00003B038AE50E94540380E00E946D030E9409
:102D1000E609209158023091590280910102909168
:102D2000020228173907ACF5E5D980915402909139
:102D30005502039711F40E947F08209158023091A8
:102D4000590280910102909102022817390709F176
:102D50000E94890D8091890290918A02BC01617064
:102D60007078772334F4615071096E6F7F6F6F5FF5
:102D70007F4F6C5F7F4F0E940F0B85DD20915802C3
:102D8000309159028091010290910202281739076F
:102D90005CF280E090E008955058BB27AA270ED03F
:102DA00048C139D130F03ED120F031F49F3F11F4C9
:102DB0001EF42EC10EF4E095E7FB24C1E92F4AD1A1
:102DC00080F3BA17620773078407950718F071F448
:102DD0009EF562C10EF4E0950B2EBA2FA02D0B01CB
:102DE000B90190010C01CA01A0011124FF27591B50
:102DF00099F0593F50F4503E68F11A16F040A22F56
:102E0000232F342F4427585FF3CF469537952795C6
:102E1000A795F0405395C9F77EF41F16BA0B620BC5
:102E2000730B840BBAF09150A1F0FF0FBB1F661F0C
:102E3000771F881FC2F70EC0BA0F621F731F841F4F
:102E400048F4879577956795B795F7959E3F08F075
:102E5000B3CF9395880F08F09927EE0F9795879534
:102E600008950CD0E6C0DED040F0D5D030F021F48B
:102E70005F3F19F0C7C0511110C1CAC0EBD098F321
:102E80009923C9F35523B1F3951B550BBB27AA27EB
:102E900062177307840738F09F5F5F4F220F331F5D
:102EA000441FAA1FA9F333D00E2E3AF0E0E830D029
:102EB00091505040E695001CCAF729D0FE2F27D02C
:102EC000660F771F881FBB1F261737074807AB07FA
:102ED000B0E809F0BB0B802DBF01FF2793585F4F6F
:102EE0002AF09E3F510568F08DC0D7C05F3FECF3DC
:102EF000983EDCF3869577956795B795F7959F5F34
:102F0000C9F7880F911D9695879597F90895E1E087
:102F1000660F771F881FBB1F621773078407BA07E6
:102F200020F0621B730B840BBA0BEE1F88F7E09541
:102F3000089598D088F09F5790F0B92F9927B751EE
:102F4000A0F0D1F0660F771F881F991F1AF0BA956D
:102F5000C9F712C0B13081F09FD0B1E008959CC094
:102F6000672F782F8827B85F39F0B93FCCF3869563
:102F700077956795B395D9F73EF4909580957095C0
:102F800061957F4F8F4F9F4F0895E89409C097FB3D
:102F90003EF490958095709561957F4F8F4F9F4F30
:102FA0009923A9F0F92F96E9BB279395F695879574
:102FB00077956795B795F111F8CFFAF4BB0F11F437
:102FC00060FF1BC06F5F7F4F8F4F9F4F16C08823DE
:102FD00011F096E911C0772321F09EE8872F762F14
:102FE00005C0662371F096E8862F70E060E02AF055
:102FF0009A95660F771F881FDAF7880F9695879541
:1030000097F9089597F99F6780E870E060E0089568
:103010009FEF80EC089500240A94161617061806F0
:103020000906089500240A941216130614060506CC
:103030000895092E0394000C11F4882352F0BB0F5D
:1030400040F4BF2B11F460FF04C06F5F7F4F8F4FC0
:103050009F4F089557FD9058440F551F59F05F3FFB
:1030600071F04795880F97FB991F61F09F3F79F0AA
:1030700087950895121613061406551FF2CF46952C
:10308000F1DF08C0161617061806991FF1CF8695AE
:103090007105610508940895E894BB276627772792
:1030A000CB0197F9089597FB072E16F4009406D0EC
:1030B00077FD08D01AD007FC05D03EF49095819595
:1030C0009F4F0895709561957F4F0895A29FB0011D
:1030D000B39FC001A39F700D811D1124911DB29F4C
:1030E000700D811D1124911D0895AA1BBB1B51E178
:1030F00007C0AA1FBB1FA617B70710F0A61BB70B68
:10310000881F991F5A95A9F780959095BC01CD010C
:063110000895F894FFCFC2
:103116005A080002005468726573686F6C64007028
:1031260069636B5269676874007069636B4C6566A6
:10313600740064726F7052696768740064726F70AD
:103146004C656674005269676874207475726E0007
:0A3156004C656674207475726E00FB
:00000001FF
