S0110000416C69676E6D656E742E7372656374
S113000071C0000006C300008EC000008CC0000058
S11300108AC000003AC4000013C4000084C0000079
S113002082C0000080C000007EC000007CC00000D0
S11300307AC0000078C0000076C0000074C00000E0
S113004072C0000070C000006EC000006CC00000F0
S11300506AC0000068C0000066C0000064C0000000
S113006062C0000060C000005EC000005CC0000010
S11300705AC0000058C0000056C0000054C0000020
S113008052C0000050C000004EC000004CC0000030
S11300904AC0000048C0000046C0000044C0000040
S11300A042C0000040C000003EC000003CC0000050
S11300B03AC0000038C0000036C0000034C0000060
S11300C032C0000030C000002EC000002CC0000070
S11300D02AC0000028C0000026C0000024C0000080
S11300E022C0000011241FBECFEFD1E2DEBFCDBF7E
S11300F000E00CBF12E0A0E0B2E0E2EBF1E300E0CC
S11301000BBF02C007900D92A034B107D9F722E0CB
S1130110A0E4B2E001C01D92A33BB207E1F70E9444
S1130120C0160C94D7186CCF86E69EE00197F1F7C1
S113013000004098419880E388B9429A8FEF97E491
S11301400197F1F700C00000429886E69EE001970F
S1130150F1F700004098419880E388B9429A8FEF04
S113016097E40197F1F700C00000429886E69EE00C
S11301700197F1F700004098419880E388B9429ACA
S11301808FEF97E40197F1F700C00000429886E6EC
S11301909EE00197F1F700004098419880E288B909
S11301A0429A8FEF97E40197F1F700C0000042985C
S11301B0089598B19F7098B998B1282F207F922BF9
S11301C098B940984198429AEFEFF7E43197F1F7E4
S11301D000C00000429898B19F7098B998B1829578
S11301E0807F892B88B940984198429A8FEF97E491
S11301F00197F1F700C000004298089595DF86E664
S11302009EE00197F1F7000088E2D3DF81E0D1DFBF
S113021086E0CFDF8EE0CDDF80E8CBCF089598B1C4
S11302209F7098B998B1282F207F922B98B9409A43
S11302304198429AEFEFF7E43197F1F700C00000DC
S1130240429898B19F7098B998B18295807F892B14
S113025088B9409A4198429A8FEF97E40197F1F751
S113026000C000004298089580E8A3CF0895CF937A
S1130270DF93EC018881882329F02196D0DF8991CE
S11302808111FCCFDF91CF910895823069F018F489
S1130290813031F00895833059F0843069F0089545
S11302A08FE7860F86CF08958FEB860F82CF089550
S11302B083E9860F7ECF089583ED860F7ACF089564
S11302C00F931F93CF93DF938A01E901882311F0E1
S11302D0611102C0C9DF01C0D8DFC530D10509F002
S11302E0D5C09801329522952F7023273F7023277C
S11302F0A7E4B3E00E94B4189695879596958795E0
S113030096958795C09690936D0280936C0287DFD3
S11303109801369527953695279536952795A5EC1A
S1130320B0E20E94B418AC01529542954F70452733
S11303305F70452750937102409370029A01ADECAF
S1130340BCEC0E94B41896958795969587959695DA
S113035087959C01220F331F880F991F880F991FBF
S1130360880F991F820F931F481B590BCA01C0960F
S11303709093B2028093B10252DF04C0C330D1051E
S113038009F089C098013695279536952795ABE7EE
S1130390B4E10E94B418AC0156954795509371028C
S11303A0409370029A01ADECBCEC0E94B41896958F
S11303B0879596958795969587959C01220F331F6F
S11303C0880F991F880F991F880F991F820F931FF9
S11303D0481B590BCA01C0969093A8028093A702A8
S11303E01EDF9801ADECBCEC0E94B418AC0156952C
S11303F04795569547955695479550937102409366
S113040070029A010E94B4189695879596958795DF
S1130410969587959C01220F331F880F991F880F8B
S1130420991F880F991F820F931F481B590BCA01EC
S1130430C0969093820280938102F1DE03C0C130A2
S1130440D105F9F49801ADECBCEC0E94B418969572
S1130450879596958795969587959C01220F331FCE
S1130460880F991F880F991F880F991F820F931F58
S1130470081B190BC801C0969093B0028093AF0279
S1130480CEDE269764F085E4CADE09C0C430D10507
S113049009F074CF3DCFC230D10589F6A2CFDF91E8
S11304A0CF911F910F910895E1E2F1E010828FEF57
S11304B08093250191E09093240110922901809367
S11304C0280110922B0180932A0110922D01809310
S11304D02C0189EA809320018BE08083089581B107
S11304E08F6081B982B1807F82B9EAE0F1E08081D6
S11304F088618083EBE0F1E08081886180830895E6
S113050092B1907F8F70982B92B9089586E0F8CFBE
S1130510089589E0F5CF089585E0F2CF08958AE043
S1130520EFCF089580E0ECCF089587B1876F87B946
S113053088B1807888B908958AB18E6F8AB9589A3B
S1130540089510BA11BA1092070110920801089583
S1130550259A2D9A0895269A2E9A0895279A2F9AC5
S11305600895E1E8F0E010828CEF8093850081E04B
S11305708093840093E0909389008FEF80938800A8
S113058090938B0080938A0090938D0080938C00CD
S113059090938700809386008BEA8093800010926A
S11305A082008CE080830895C0DFCBDF3B9A4398C0
S11305B0CFDFD1DFD3DFC0CF089586B1886088B99B
S11305C0089586B1877F88B90895883018F098E037
S11305D090937B008770806280937C00EAE7F0E070
S11305E0808180648083808184FFFDCF8091790045
S11305F0EAE7F0E090819061908310927B00089587
S1130600F894E9E6F0E0808182608083E89A789447
S113061008951F920F920FB60F9211248F939F93F8
S1130620AF93BF938091500290915102A0915202D6
S1130630B09153020196A11DB11D80935002909375
S11306405102A0935202B0935302BF91AF919F9174
S11306508F910F900FBE0F901F901895EAE7F0E06E
S1130660108210927B0080E280937C0080E880BF3F
S113067086E88083089510928900682F70E080E0F6
S113068090E00E9413182BE734E14EEE5FE30E94E2
S11306907F1720E030E04CE052E40E941B170E94D8
S11306A0E71760938800089510928B00682F70E01C
S11306B080E090E00E9413182BE734E14EEE5FE3F4
S11306C00E947F1720E030E04CE052E40E941B17A8
S11306D00E94E71760938A00089510928D00682F96
S11306E070E080E090E00E9413182BE734E14EEEB6
S11306F05FE30E947F1720E030E04CE052E40E9468
S11307001B170E94E71760938C0008955E985F980A
S113071008955E9A5F9A08955E985F9A08955C9A28
S11307205D9A0895F3DF10925002109251021092D4
S11307305202109253022FEF8FE794E02150804031
S11307409040E1F700C00000809150029091510266
S1130750A0915202B0915302809376029093770253
S1130760A0937802B09379022FEF8FEF9CE221508F
S113077080409040E1F700C000000895CADF109265
S113078050021092510210925202109253022FEF13
S11307908FE794E0215080409040E1F700C00000D2
S11307A08091500290915102A0915202B091530253
S11307B08093720290937302A0937402B0937502B3
S11307C00895AADF10925002109251021092520220
S11307D0109253022FEF8FE794E021508040904015
S11307E0E1F700C000008091500290915102A09165
S11307F05202B09153028093660290936702A093D1
S11308006802B093690208956C98749A08956D987B
S1130810759A089564DEF8DFFACF0895F894EAE64D
S1130820F0E0808182608083EC9A78940895F89453
S1130830EAE6F0E0808188608083ED9A78940895F8
S11308401F920F920FB60F9211248F939F93AF9321
S1130850BF938091540290915502A0915602B09199
S113086057020196A11DB11D809354029093550225
S1130870A0935602B0935702BF91AF919F918F916D
S11308800F900FBE0F901F9018951F920F920FB6E6
S11308900F9211248F939F93AF93BF93809158022B
S11308A090915902A0915A02B0915B020196A11D48
S11308B0B11D8093580290935902A0935A02B093A9
S11308C05B02BF91AF919F918F910F900FBE0F90DC
S11308D01F901895CF92DF92EF92FF920F931F9380
S11308E0BC0180E090E00E94131828E431EE42E855
S11308F050E40E947F170E94E717CB01A0E0B0E00C
S113090010925402109255021092560210925702FD
S1130910109258021092590210925A0210925B02DD
S113092051E0E0E0C0905402D0905502E0905602AD
S1130930F0905702009158021091590220915A02E6
S113094030915B02452F081719072A073B0708F463
S11309504E2F411109C0252FC816D906EA06FB06F9
S113096008F42E2F2223F1F2DDDD1F910F91FF9069
S1130970EF90DF90CF9008950F931F93BC0180E018
S113098090E00E94131825EE30ED4AEA50E40E94EC
S11309907F170E94E717109254021092550210928A
S11309A05602109257020091540210915502209160
S11309B0560230915702601771078207930798F720
S11309C0B1DD1F910F910895CF93DF93EC019EDD6C
S11309D0CE01D2DFDF91CF910895CF93DF93EC0165
S11309E098DDCE01C9DFDF91CF910895CF93DF93D6
S11309F0EC0192DDCE016EDFDF91CF910895CF93AC
S1130A00DF93EC018CDDCE0165DFDF91CF9108959A
S1130A10F89400DF03DF0BDFC7DDF2DD1FDE5FDDEF
S1130A2043DD9FDD7894089583E0CFDD8093430216
S1130A3082E0CBDD8093420281E0C7DD80934102F6
S1130A4008958130E9F48AE590E09093450280931B
S1130A5044022ADE8FEF9FE80197F1F700C00000FF
S1130A6080914402909145020197909345028093AE
S1130A7044028C3391056CF78CE380930002089553
S1130A808AE590E090934502809344020DDE8FEF57
S1130A909FE80197F1F700C0000080914402909113
S1130AA0450201969093450280934402893791054B
S1130AB06CF388E7809300020895809100028C33E0
S1130AC0D1F48CE390E09093450280934402ECDDF2
S1130AD08FEF9FE80197F1F700C000008091440276
S1130AE090914502019690934502809344028B3580
S1130AF09105D4F4ECCF88E790E09093450280937D
S1130B004402D2DD8FEF9FE80197F1F700C00000A7
S1130B1080914402909145020197909345028093FD
S1130B2044028A3591056CF78AE5809300020895A2
S1130B3081111AC087E390E09093450280934402A8
S1130B40CCDD8FEF9FE80197F1F700C000008091A2
S1130B504402909145020197909345028093440288
S1130B6018161906E4F4ECCF8130C9F487E390E059
S1130B7090934502809344027EDD8FEF9FE80197B6
S1130B80F1F700C000008091440290914502019762
S1130B909093450280934402181619066CF3089545
S1130BA0811118C0109245021092440296DD8FEF15
S1130BB09FE80197F1F700C00000809144029091F2
S1130BC04502019690934502809344028733910530
S1130BD0DCF4ECCF8130C1F410924502109244024F
S1130BE080E049DD8FEF9FE80197F1F700C0000036
S1130BF0809144029091450201969093450280931E
S1130C004402873391056CF30895D7DC2FEF8FE707
S1130C1094E0215080409040E1F700C00000D1CC26
S1130C200895CF93DF93EC0181E0C3DA61E081E0C2
S1130C302CDBCE011CDBE9DF2FEF8FEF9CE2215090
S1130C4080409040E1F700C00000DF91CF9108950B
S1130C500F931F9367DDB5DD91DD2FEF8FE794E0F0
S1130C60215080409040E1F700C000008BE0ADDCF3
S1130C70883308F47BC08BE0A8DC843608F079C0A4
S1130C808091640290916502AA2797FDA095BA2FDE
S1130C9040917602509177026091780270917902C6
S1130CA0481759076A077B07D8F44091720250919C
S1130CB073026091740270917502481759076A07AC
S1130CC07B0770F44091660250916702609168025C
S1130CD070916902481759076A077B0708F44CC0EA
S1130CE04091760250917702609178027091790276
S1130CF08091660290916702A0916802B0916902A6
S1130D0084179507A607B707C8F4009176021091D7
S1130D1077022091780230917902409172025091C9
S1130D207302609174027091750281E090E0401743
S1130D3051076207730728F580E023C040916602DB
S1130D405091670260916802709169028091720209
S1130D5090917302A0917402B09175028417950763
S1130D60A607B70760F482E090E00BC08FEF9FEF17
S1130D7008C08FEF9FEF05C083E090E002C081E0E0
S1130D8090E01F910F910895CF93DF93C5E9D2E0CE
S1130D90E3E8F2E0ACE5B2E080E090E02EEF3FEF74
S1130DA08993999333832283318320831D921D92E7
S1130DB0019634968430910599F7E0919502F0916B
S1130DC09602EE0FFF1FE356FD4F11821082E09151
S1130DD09702F0919802EE0FFF1FE356FD4F81E05A
S1130DE090E091838083E0919902F0919A02EE0F52
S1130DF0FF1FE356FD4F82E090E091838083E091F2
S1130E009B02F0919C02EE0FFF1FE356FD4F83E01F
S1130E1090E0918380838FEF9FEF90937E02809385
S1130E207D0290937C0280937B029093AC0280932A
S1130E30AB029093AA028093A902DF91CF91089507
S1130E40CF93DF9386E98093280180932A018091D0
S1130E504C0290914D02892B39F580914602909174
S1130E604702892B71F480914802909149020297BC
S1130E7020F48EE190E0A8DD11C08EE190E0ADDDBC
S1130E800DC08091480290914902029720F48EE1AE
S1130E9090E0A3DD03C08EE190E096DD81E090E078
S1130EA090934D0280934C0280917F029091800236
S1130EB08230910530F42091460230914702232B71
S1130EC069F09C01225031092230310540F54091EE
S1130ED04602509147024230510509F58EE190E0F7
S1130EE085DD86E98093280180932A0101C014DB03
S1130EF081E06BDB8634D8F315DB80914602909158
S1130F004702039683709078992324F401978C6F99
S1130F109F6F0196909347028093460253C00297B5
S1130F2030F48091460290914702029749F02230B2
S1130F30310538F58091460290914702892B09F5D5
S1130F408EE190E05CDD86E98093280180932A019C
S1130F5001C0E5DA81E039DB8634D8F3E3DA809145
S1130F60460290914702019683709078992324F465
S1130F7001978C6F9F6F019690934702809346026E
S1130F8021C086E990E032DD86E9809328018093D0
S1130F902A0101C0C1DA82E018DB8634D8F3C2DA50
S1130FA0809146029091470202968370907899232B
S1130FB024F401978C6F9F6F01969093470280935E
S1130FC046022FDEC0917F02D091800241DECC0F19
S1130FD0DD1FCC0FDD1FCD57DD4F9B838A83E0914E
S1130FE07F02F0918002EE0FFF1FEE0FFF1FED57FF
S1130FF0FD4F428153814F3F2FEF520741F421E0CF
S113100030E049E050E06BE082E05AD905C021E0CD
S113101030E06BE082E054D94FEF8FEF9CE2415017
S113102080409040E1F700C0000080917F029091E1
S11310308002FC01EE0FFF1FEE0FFF1FED57FD4F67
S1131040228133812F3F4FEF340751F0FC01EE0F23
S1131050FF1FEB56FD4F408151812417350751F492
S11310602091010230910202215031093093020291
S113107020930102FC01EE0FFF1FE45AFD4F81E0B3
S113108090E09183808380914A0290914B02019673
S113109090934B0280934A02DF91CF910895CF93AE
S11310A0DF93EC01CEDC8C2F43DD8C2F79DD05DD65
S11310B0809103029091040201979093040280931B
S11310C00302CD2B21F48FE092E0ABDD03C089E174
S11310D092E0A7DDDF91CF910895CF93DF93EC01E8
S11310E0B0DC8C2F25DDE9DC8091030290910402B1
S11310F001969093040280930302CD2B21F482E2A3
S113110092E08FDD03C08CE292E08BDDDF91CF9122
S113111008958091830290918402209195023091E8
S113112096028217930709F05FC0209185023091DF
S113113086028217930709F057C080918702909125
S1131140880220919702309198028217930709F040
S11311504BC02091890230918A028217930709F0CB
S113116043C080917F0290918002FC01EE0FFF1F2B
S1131170EE0FFF1FED57FD4F20813181FC01EE0F73
S1131180FF1FEB56FD4F408151812417350761F550
S1131190FC01EE0FFF1FEE0FFF1FED57FD4F828185
S11311A093812817390701F580917B0290917C0285
S11311B00196D1F480917D0290917E020196A1F472
S11311C08091A9029091AA02019671F48091AB02D8
S11311D09091AC02019641F4809101029091020237
S11311E090934F0280934E02089512DC0E94940063
S11311F005D895DAC9DD80E797E19093650280937D
S113120064028AE551CA089586E98093280180938F
S11312102A018CE390E0D8CB08950F931F93CF93CA
S1131220DF938C01181619068CF4C0E0D0E009C0D5
S113123086E69EE00197F1F700002196C017D107DA
S113124039F082E0C2D9893298F302C0C0E0D0E01C
S113125069D981E0C017D1070CF080E0DF91CF910C
S11312601F910F91089580914202883258F5809120
S11312704302893298F090914102983278F44CD923
S1131280D3DB809142028832E8F4809143028932B0
S1131290C8F080914102883290F308959091410200
S11312A0993280F0883270F43AD9BEDB80914202E0
S11312B0883240F480914302883220F480914102C4
S11312C0893290F708950F931F93CF93DF9385E0AE
S11312D090E090936B0280936A0224D9809140023B
S11312E0813009F034C010924002CEE3D0E002E035
S11312F010E015D90230110531F48EE190E08DDF54
S1131300882329F058C0CE0188DF811154C00AD93E
S113131082E05BD9893208F04DC0A5DFFDD80230E8
S1131320110531F48CE390E078DF882329F043C081
S1131330CE0173DF81113FC0F5D882E046D96496AF
S1131340883208F437C08FDF0C5E1F4FD2CF81E0A4
S113135080934002CEE3D0E002E010E0DDD802301A
S1131360110531F48EE190E058DF882329F023C081
S1131370CE0153DF81111FC0D5D882E026D989322E
S1131380C8F471DFCCD80230110531F48CE390E05D
S113139044DF882329F00FC0CE013FDF81110BC049
S11313A0C1D882E012D96496883220F05CDF0C5EEA
S11313B01F4FD4CFB7D8DF91CF911F910F910895CC
S11313C086E98093280180932A0180914202883221
S11313D070F580914302893298F0909141029832DD
S11313E078F49AD821DB80914202883298F5809172
S11313F04302893278F180914102883290F32AC005
S113140090914102993288F0883278F488D80CDBC4
S1131410809142028832F0F4809143028832D0F401
S113142080914102893290F715C04DDF13C080913D
S11314304302893230F090914102983210F4E4CEA4
S11314400895883230F480914102893210F0DCCE64
S1131450089539DF67C80895FF920F931F93CF93C0
S1131460DF9308E211E00F2EF0EFFF2EF02DCAE219
S1131470D1E04CD8D9DA80914202893250F080917F
S11314804302893220F480914102893210F0BCDE9B
S113149011C0F801F082F88280914202893240F052
S11314A080914302883220F480914102883208F30B
S11314B087DFD2DFDF91CF911F910F91FF900895C5
S11314C0CBDF80916E0290916F02019690936F0230
S11314D080936E02089583E690E090934702809390
S11314E04602909349028093480286E9809328013A
S11314F080932A018EE190E082DA01C010D882E064
S113150064D88634D8F329E989E993E021508040EE
S11315109040E1F7000006D880914602909147027E
S1131520019683709078992324F401978C6F9F6FB0
S11315300196909347028093460280919302909182
S11315409402865A9F4F90939402809393025DCBAA
S1131550089580914602909147028130910539F4B3
S11315608091480290914902029798F409C0039728
S113157081F480914802909149020297029748F4BD
S113158086E98093280180932A018AE590E02EDA87
S113159011C08EE190E02ADA86E9809328018093D5
S11315A02A0102C00E948C0282E00FD88634D0F354
S11315B00E94920285E392E034DB8091460290918E
S11315C04702039683709078992324F401978C6FD3
S11315D09F6F0196909347028093460280919302F5
S11315E090919402865A9F4F909394028093930211
S11315F00CCB08958091460290914702009781F4A4
S1131600809148029091490202970297D0F486E9AA
S11316108093280180932A0184EB90E0E7D923C0CA
S1131620029779F48091480290914902029748F414
S113163086E98093280180932A0184EB90E0D6D92F
S113164012C086E98093280180932A0186E990E0FC
S1131650CDD902C00E948C0282E00E94E502863449
S1131660C8F30E9492028AE392E0DBDA8091460298
S113167090914702029683709078992324F40197FD
S11316808C6F9F6F019690934702809346028091DE
S11316909302909194028C549F4F90939402809360
S11316A093020895CF93DF93EC0180914C029091C3
S11316B04D02019721F410924D0210924C02CE017A
S11316C00497029788F5C430D10539F48091460215
S11316D090914702892B51F00BC0C530D10541F4DC
S11316E08091460290914702029711F4F4DE01C002
S11316F030DFE6DEE5DE249739F485E090E0909370
S113170049028093480206C084E090E09093490225
S11317108093480280916E0290916F02029690939A
S11317206F0280936E0245C08091460290914702F9
S11317308130910539F480914802909149020297D1
S113174078F409C0039799F4809148029091490272
S11317508230910511F4BFDE0AC0029740F406C03E
S11317608091480290914902029709F4F2DE22978F
S11317703CF48091460290914702892B39F007C0CE
S11317808091460290914702029709F433DF98DE74
S113179080917F029091800281709078992324F443
S11317A001978E6F9F6F01960496909349028093E0
S11317B04802DF91CF910895CF93DF9386E9809318
S11317C0280180932A018EE190E0FED881E090E028
S11317D090934D0280934C0280914802909149026B
S11317E020917F02309180022817390789F12091D6
S11317F04602309147022D7F2130310541F4833078
S1131800910511F0892B11F466DE01C0A2DE8091EE
S11318107F02909180028230910538F42091460233
S1131820309147022230310549F00297029738F48B
S11318308091460290914702892B09F4DBDE40DE59
S113184080917F0290918002909349028093480294
S113185082E390E0D4D886E98093280180932A011A
S113186040914602509147024F5F5F4F437050785A
S1131870552334F4415051094C6F5F6F4F5F5F4FF4
S1131880509347024093460221E030E061E081E05A
S11318900E94600102C00E948F0281E00E94E50262
S11318A08634C8F30E94920221E030E049E050E01F
S11318B061E081E00E946001C0917F02D0918002CA
S11318C0C7D9CC0FDD1FCC0FDD1FCD57DD4F99835A
S11318D08883E0917F02F0918002EE0FFF1FEE0FEC
S11318E0FF1FED57FD4F408151814F3F2FEF5207AE
S11318F049F421E030E049E050E06BE082E00E94EE
S1131900600106C021E030E06BE082E00E946001EB
S11319104FEF8FEF9CE2415080409040E1F700C0D0
S1131920000020917F0230918002F901EE0FFF1F29
S1131930EE0FFF1FED57FD4F808191818F3F4FEFD9
S1131940940751F0F901EE0FFF1FEB56FD4F208174
S113195031818217930749F4809101029091020228
S113196001979093020280930102DF91CF91089531
S11319700F931F93CF93DF938C01EB0120917F0290
S11319803091800240914802509149022417350752
S113199009F07EC0C9012230310530F4409146027D
S11319A050914702452B61F0225031092230310514
S11319B068F440914602509147024230510531F497
S11319C00C171D0709F44CC015DE4AC0823091057E
S11319D038F440914602509147024230510549F093
S11319E02230310558F44091460250914702452B6C
S11319F029F40C171D07A1F5FDDD32C082309105D5
S1131A0038F440914602509147024130510551F05B
S1131A102230310570F44091460250914702433020
S1131A20510539F40C171D0711F055DD19C091DD6E
S1131A3017C0029730F480914602909147020397B1
S1131A4049F02230310560F48091460290914702BA
S1131A50019731F40C171D0711F43DDD01C079DD48
S1131A6080914C0290914D02019709F065C08091DC
S1131A704602909147028D7F892B09F05DC08EE16B
S1131A8090E00E94ED0410924D0210924C0254C05A
S1131A9080914602909147028D7F019749F4211568
S1131AA0310519F02330310511F415DD01C051DD84
S1131AB020914602309147022115310521F0223050
S1131AC0310591F507C080917F02909180020297C1
S1131AD0C8F407C080917F02909180020297029718
S1131AE088F480914802909149020497029710F07B
S1131AF030DDE6DC0C171D0711F4E2DC15C0E0DC78
S1131B0079DD12C0809148029091490204970297AE
S1131B1010F01FDDD5DC0C171D0719F46BDDD0DCCC
S1131B2003C068DDCDDC66DD80917F029091800288
S1131B309093490280934802DF91CF911F910F91B6
S1131B4008950F931F93CF93DF938C01EB01FC0156
S1131B50EE0FFF1FE755FD4FA0917F02B091800269
S1131B60AA0FBB1FA60FB71FAA0FBB1FAD57BD4FB0
S1131B708D919C9191838083C801FADEC8018FDA2C
S1131B8080917F0290918002880F991FC80FD91FFE
S1131B90CC0FDD1FCD57DD4F8FEF9FEF99838883E7
S1131BA0DF91CF911F910F910895EF92FF920F93C0
S1131BB01F93CF93DF9320917F02309180022230D4
S1131BC0310530F48091460290914702029779F0F2
S1131BD0C9010297029780F48091460290914702CE
S1131BE0892B79F0C1E0D0E000E010E00EC0C0E045
S1131BF0D0E001E010E009C0C1E0D0E000E010E076
S1131C0004C0C0E0D0E001E010E0F901EE0FFF1FD6
S1131C10E45AFD4F80819181892B79F4F901EE0F0B
S1131C20FF1FEE0FFF1FED57FD4F8081918102963C
S1131C3019F4C2DD05D901C003D920917F02309186
S1131C408002F901EE0FFF1FEE0FFF1FED57FD4F4E
S1131C5040815181F901EE0FFF1FEB56FD4F80814A
S1131C6091814817590721F04F3F6FEF560789F4C8
S1131C70F901EE0FFF1FEE0FFF1FED57FD4F6281BD
S1131C8073818617970709F4EEC16F3F7F4F09F4FC
S1131C90EAC160910302709104026230710509F097
S1131CA0B0C0E091A502F091A602DF01AA0FBB1F0C
S1131CB0AB56BD4F6D917C914617570779F0D9010A
S1131CC0AA0FBB1FAA0FBB1FAD57BD4F1296ED90B5
S1131CD0FC9013976E157F0559F405C060E070E021
S1131CE0C8012FDF8EC061E070E0CE012ADF89C019
S1131CF08E159F0509F44EC0EF20E09409F44AC004
S1131D004817590769F04F3FAFEF5A0749F061E0B0
S1131D1070E0CE0116DF60E070E0C80112DF71C030
S1131D2021703078332334F4215031092E6F3F6F02
S1131D302F5F3F4FD901AA0FBB1FA558BD4F2D914F
S1131D403C912F3F3F4F09F1DF01AA0FBB1FAA0FA0
S1131D50BB1FAD57BD4F2D913C9162177307A9F07E
S1131D602F3F3F4F91F0EE0FFF1FEE0FFF1FED5778
S1131D70FD4F228133816217730739F02F3F3F4FA4
S1131D8021F04817590709F06EC161E070E0CE01F7
S1131D90D8DE37C04817590709F465C14F3F5F4F74
S1131DA009F461C121703078332334F421503109AE
S1131DB02E6F3F6F2F5F3F4FD901AA0FBB1FA5584E
S1131DC0BD4F8D919C910196C1F0DF01AA0FBB1FFD
S1131DD0AA0FBB1FAD57BD4F8D919C9111976817EA
S1131DE0790759F0019649F0FD01828193816817C2
S1131DF0790719F0019609F036C160E070E0C80176
S1131E00A0DE8091030290910402019709F02BC196
S1131E10F801EE0FFF1FE755FD4F80819181019678
S1131E2009F4E801BE016F5F7F4F6170707877231A
S1131E3034F4615071096E6F7F6F6F5F7F4F8091D3
S1131E407F02909180029C0121703078332334F416
S1131E50215031092E6F3F6F2F5F3F4FF901EE0F75
S1131E60FF1FE558FD4F208131812F3FAFEF3A0727
S1131E70D9F5FC01EE0FFF1FEC0FFD1FEE0FFF1F46
S1131E80ED57FD4F208131812F3FEFEF3E0771F079
S1131E90FC01EE0FFF1FEB56FD4F408151812417CB
S1131EA0350721F0BE01CE014CDEDDC0FC01EE0F92
S1131EB0FF1FE60FF71FEE0FFF1FED57FD4F2081A9
S1131EC031812F3F4FEF340709F4CDC0FC01EE0FF1
S1131ED0FF1FEB56FD4F808191812817390709F4C4
S1131EE0C2C0CE012EDEBFC04091A5025091A60211
S1131EF0FA01EE0FFF1FEB56FD4F0190F081E02D2C
S1131F00DC01AA0FBB1FAA0FBB1FAD57BD4F0D901D
S1131F10BC91A02DAE17BF0771F0DC01AA0FBB1F47
S1131F20AA0FBB1FAD57BD4F12960D90BC91A02DAB
S1131F30EA17FB07D9F5DA01AA0FBB1FA45ABD4F54
S1131F402D913C912130310509F08DC0DA01AA0FA1
S1131F50BB1FAA0FBB1FAD57BD4F2D913C912F3F07
S1131F603F4F79F0DA01AA0FBB1FAA0FBB1FAD5771
S1131F70BD4F12962D913C9113972F3F3F4F09F07F
S1131F8072C0880F991F8C0F9D1FDC01AA0FBB1F05
S1131F90AD57BD4F8D919C91E817F90721F4BE010F
S1131FA0CE01CFDD60C0CE01CCDD5DC0DC01AA0F67
S1131FB0BB1FAB56BD4F0D90BC91A02D2A173B07FC
S1131FC009F451C02E173F0709F44DC0FA01EE0F72
S1131FD0FF1FE45AFD4F208131812130310509F082
S1131FE042C0FA01EE0FFF1FEE0FFF1FED57FD4F2A
S1131FF020813181A217B307B1F1FA01EE0FFF1F5F
S1132000EE0FFF1FED57FD4F22813381A217B30757
S113201051F1FC01EE0FFF1FEC0FFD1FEE0FFF1F30
S1132020ED57FD4F208131812F3FEFEF3E0739F00F
S1132030A217B30721F0BE01CE0183DD14C0880FBF
S1132040991F860F971FFC01EE0FFF1FED57FD4FE1
S1132050808191818F3F2FEF920729F0A817B9074C
S113206011F0CE016EDDDF91CF911F910F91FF90A2
S1132070EF900895CF93DF939C012F5F3F4F217022
S11320803078332334F4215031092E6F3F6F2F5FA2
S11320903F4FD22FC32FE0917F02F0918002AF0116
S11320A0440F551F240F351FD901AA0FBB1FAD576D
S11320B0BD4F2D913C91DA01AB56BD4F4D915C91D2
S11320C02417350769F0A091A502B091A602AA0FC2
S11320D0BB1FAB56BD4F6D917C9126173707A9F0F6
S11320E0EE0FFF1FE80FF91FEE0FFF1FED57FD4F17
S11320F00190F081E02D4E175F0739F0319629F0F9
S1132100BC018D2F9C2F1DDD0BC02417350741F01A
S11321102F3F3F4F29F06D2F7C2F8D2F9C2F11DDEA
S1132120DF91CF9108950F931F93CF93DF93EC0129
S1132130E0917F02F0918002EE0FFF1FE60FF71F80
S1132140EE0FFF1FED57FD4F8C01000F111F0755B8
S11321501D4FD8018D919C9191838083CE0108DC21
S1132160CE010E946D088FEF9FEFF8019183808369
S113217080914E0290914F02019690934F0280936A
S11321804E02DF91CF911F910F9108950F931F93EA
S1132190CF93DF9320917F0230918002223031056A
S11321A030F48091460290914702029779F0C90178
S11321B00297029780F48091460290914702892BFE
S11321C079F001E010E0C0E0D0E00EC000E010E0E3
S11321D0C1E0D0E009C001E010E0C0E0D0E004C0FC
S11321E000E010E0C1E0D0E040910302509104020D
S11321F04230510509F43CC1F901EE0FFF1FEB56C3
S1132200FD4F408151818091A9029091AA028417C7
S1132210950741F08091AB029091AC0248175907A1
S113222009F026C1F901EE0FFF1FE45AFD4F80812A
S11322309181892B09F4C0DA809103029091040200
S1132240892B09F048C020917F0230918002F90166
S1132250EE0FFF1FEB56FD4F80819181FE01EE0FC3
S1132260FF1FE755FD4F4081518148175907A9F4D5
S1132270F901EE0FFF1FEE0FFF1FED57FD4F808199
S11322809181019629F460E070E0CE014CDF23C017
S113229061E070E0CE0147DF1EC0F801EE0FFF1FC2
S11322A0E755FD4F4081518184179507A1F4F90149
S11322B0EE0FFF1FEE0FFF1FED57FD4F8081918141
S11322C0019629F061E070E0C8012DDF04C060E0F0
S11322D070E0C80128DF20917F0230918002F9016B
S11322E0EE0FFF1FEB56FD4F808191814091A902B3
S11322F05091AA024817590741F04091AB025091FE
S1132300AC028417950709F0B3C0F901EE0FFF1F63
S1132310EE0FFF1FED57FD4F80819181019609F467
S113232046C0F901EE0FFF1FEE0FFF1FED57FD4FE3
S1132330828193810196D1F0F901EE0FFF1FE45AD7
S1132340FD4F80819181892B89F40E94200720917F
S11323507F0230918002F901EE0FFF1FEE0FFF1F85
S1132360ED57FD4F80819181019609F1F901EE0F3E
S1132370FF1FEE0FFF1FED57FD4F828193810196E2
S1132380B1F0DE01AA0FBB1FA755BD4FF901EE0F37
S1132390FF1FEB56FD4F4D915C9180819181481751
S11323A0590719F4CE0166DE02C0C80163DE8091CC
S11323B07F0290918002FC01EE0FFF1FEB56FD4F50
S11323C020813181FE01EE0FFF1FE755FD4F408153
S11323D051814217530711F5FC01EE0FFF1FEE0F59
S11323E0FF1FED57FD4F408151814F3F5F4F29F44F
S11323F060E070E0CE0197DE3BC0FC01EE0FFF1FF2
S1132400EE0FFF1FED57FD4F428153814F3F5F4F4A
S113241029F461E070E0CE0186DE2AC0F801EE0FF7
S1132420FF1FE755FD4F408151812417350701F502
S1132430FC01EE0FFF1FEE0FFF1FED57FD4F208134
S113244031812F3F3F4F29F460E070E0C8016BDE1B
S11324500FC0FC01EE0FFF1FEE0FFF1FED57FD4FE6
S113246082819381019621F461E070E0C8015BDE12
S1132470DF91CF911F910F9108950F931F93CF93E5
S1132480DF93EC018B01FC01EE0FFF1FE755FD4FBD
S1132490DB01AA0FBB1FA558BD4F8D919C91918361
S11324A08083C617D70739F480914602909147027A
S11324B0892B49F406C08091460290914702029705
S11324C011F498D80DC080914602909147028D7FF7
S11324D0019731F4209711F43CD802C00E946B0A92
S11324E0CE010E944F08F801EE0FFF1FE558FD4F83
S11324F08FEF9FEF91838083DF91CF911F910F9195
S11325000895CF93DF93EC01FB01EE0FFF1FE55815
S1132510FD4FDC01AA0FBB1FA755BD4F8D919C91A8
S113252091838083C617D70739F48091460290912E
S11325304702892B49F406C08091460290914702D4
S1132540029711F457D80EC0809146029091470229
S11325508D7F019739F4209719F40E94A90A02C0CB
S11325600E946B0ACE010E946D08CC0FDD1FC75577
S1132570DD4F8FEF9FEF99838883DF91CF9108958B
S11325800F931F93CF93DF932091A9023091AA0256
S11325902F3F1FEF310741F0F901EE0FFF1FE35604
S11325A0FD4FC081D18102C0CEEFDFEFE091AB02DD
S11325B0F091AC02EF3F4FEFF40709F47FC1DF0164
S11325C0AA0FBB1FA356BD4F4D915C9180917F0212
S11325D090918002019681709078992324F4019758
S11325E08E6F9F6F0196BC010296D0938002C093B8
S11325F07F022E173F0761F5DE01AA0FBB1FA45A05
S1132600BD4F0D90BC91A02DAB2BC9F0DE01AA0FDC
S1132610BB1FAA0FBB1FAD57BD4F0D90BC91A02D82
S11326201196B1F0DE01AA0FBB1FAA0FBB1FAD5755
S1132630BD4F12960D90BC91A02D119649F0209794
S113264019F0239709F028C181E090E05ADF24C1F2
S11326502F3FAFEF3A07C1F1DE01AA0FBB1FAA0F4C
S1132660BB1FAD57BD4F0D90BC91A02D119651F0DD
S1132670CC0FDD1FCC0FDD1FCD57DD4FAA81BB81F1
S1132680119611F5319609F007C19B01220F331FF2
S1132690F901E558FD4F40815181F901EB56FD4F99
S11326A0208131814217530759F0FC01EE0FFF1FBF
S11326B0EB56FD4F808191814817590709F0ECC012
S11326C081E090E0DADEE8C0EF3FAFEFFA0709F40B
S11326D051C0DA01AA0FBB1FAA0FBB1FAD57BD4FD4
S11326E00D90BC91A02D119609F40AC1DA01AA0F2C
S11326F0BB1FAA0FBB1FAD57BD4F12960D90BC91C7
S1132700A02D1196B9F5EAC02F3F3F4F09F0C4C080
S11327109B01220F331FF901E558FD4F4081518180
S1132720F901EB56FD4F208131814217530709F01F
S1132730B3C0FC01EE0FFF1FEB56FD4F808191816A
S11327404817590709F0A8C081E090E096DEA4C0BC
S1132750FB01EE0FFF1FE558FD4F8081918101962B
S113276009F09AC02F3F3F4F09F496C081E090E0F2
S1132770C8DE92C02F3F1FEF3107A1F0DB01AA0F83
S1132780BB1FA558BD4F8D919C91019631F4319694
S113279021F081E090E0B5DE7FC030938002209389
S11327A07F027AC0F0938002E0937F0275C0A80193
S11327B0440F551FFA01E558FD4F20813181FA017C
S11327C0EB56FD4F408151812417350751F0FC0130
S11327D0EE0FFF1FEB56FD4F6081718126173707FF
S11327E081F42F3FAFEF3A0731F1F901EE0FFF1FEC
S11327F0E356FD4F808191819093800280937F0204
S11328004BC02F3F3F4FB9F0B80180E090E035DE78
S11328100F5F1F4F01701078112334F40150110918
S11328200E6F1F6F0F5F1F4F0C5F1F4F10938002BF
S113283000937F0231C0F801EE0FFF1FE45AFD4FF1
S1132840208131812130310519F5F801EE0FFF1F88
S1132850EE0FFF1FED57FD4F2081318142175307C3
S113286019F02F3F3F4FA1F4F801EE0FFF1FEE0FB9
S1132870FF1FED57FD4F228133814217530719F093
S11328802F3F3F4F29F49093800280937F0204C02E
S11328901093800200937F0280917F0290918002C6
S11328A0029683709078992324F401978C6F9F6F1C
S11328B001969093A6028093A5022EC080917F0278
S11328C090918002019662E070E03BD48C01BC01DF
S11328D002962F3FAFEF3A07C1F469CF50938002BD
S11328E040937F02FA01EE0FFF1FEE0FFF1FED571B
S11328F0FD4F428153814F3F5F4F09F029CF04CFF1
S11329005093800240937F02FFCED0938002C09305
S11329107F024EEF5FEF9CCEDF91CF911F910F911D
S113292008958F929F92AF92BF92CF92DF92EF92CF
S1132930FF920F931F93CF93DF9340917F025091A7
S113294080024230510530F4809146029091470252
S1132950029779F0CA010297029780F480914602A7
S113296090914702892B79F001E010E0C0E0D0E0BB
S11329700EC000E010E0C1E0D0E009C001E010E0CA
S1132980C0E0D0E004C000E010E0C1E0D0E09A0173
S113299021703078332334F4215031092E6F3F6F86
S11329A02F5F3F4FB22EA32EF901EE0FFF1FE55804
S11329B0FD4F20813181FA01EE0FFF1FEB56FD4FD1
S11329C0808191812817390779F08091A50290912F
S11329D0A602FC01EE0FFF1FEB56FD4F4081518113
S11329E02417350709F0A6C08091030290910402D0
S11329F0181619060CF095C0F901EE0FFF1FE356E7
S1132A00FD4F608171817093800260937F02FE01AB
S1132A10EE0FFF1FE755FD4F80819181019669F408
S1132A2061707078772334F4615071096E6F7F6F31
S1132A306F5F7F4FCE0121DD15C0F801EE0FFF1F40
S1132A40E755FD4F80819181019661F46170707842
S1132A50772334F4615071096E6F7F6F6F5F7F4F1E
S1132A60C8010BDD8091030290910402019709F4DF
S1132A7069C180917F0290918002FC01EE0FFF1FDB
S1132A80EE0FFF1FED57FD4F208131812F3F3F4F48
S1132A9009F458C1FC01EE0FFF1FEE0FFF1FED57A5
S1132AA0FD4F228133812F3F3F4F09F44BC19C01DD
S1132AB021703078332334F4215031092E6F3F6F65
S1132AC02F5F3F4F622F732FF901EE0FFF1FE55861
S1132AD0FD4F208131812F3F3F4F09F033C1FC016D
S1132AE0EE0FFF1FEB56FD4F80819181FE01EE0F2B
S1132AF0FF1FE755FD4F208131812817390719F44D
S1132B00C801FFDC1FC1F801EE0FFF1FE755FD4FA1
S1132B10208131818217930709F014C1CE01F1DCC1
S1132B2011C18091A5029091A60290938002809396
S1132B307F0208C1FE01EE0FFF1FE755FD4F019014
S1132B40F081E02D4E175F0709F48DC0D801AA0F5C
S1132B50BB1FA755BD4F8D909C904815590509F48E
S1132B6082C0E0900302F0900402E114F10409F43D
S1132B704CC0B1E0EB16F10429F42F3F6FEF360798
S1132B80B1F509C0670171E0C71AD108A2E0CA16FD
S1132B90D10408F063C06C01CC0CDD1CCC0CDD1C32
S1132BA0B6016D577D4FDB01CD90DC904C155D0572
S1132BB021F0CD20C09409F051C06C01CC0CDD1C77
S1132BC0CC0CDD1CB6016D577D4FDB011296CD9008
S1132BD0DC9013974C155D0521F0CD20C09409F0CD
S1132BE03DC01E141F048CF42F3F3F4F71F03196EB
S1132BF029F46B2D7A2DCE0140DC07C08920809406
S1132C0021F46B2D7A2DC80138DC80917F029091DC
S1132C108002BC016F5F7F4F61707078772334F45A
S1132C20615071096E6F7F6F6F5F7F4F6C5F7F4F75
S1132C3081709078992324F401978E6F9F6F019689
S1132C4004960E94520B9CDC80917F02909180023A
S1132C500497029708F087C093DC85C090938002A4
S1132C6080937F026FC0A0910302B0910402109779
S1132C70C1F5DC01AA0FBB1FA45ABD4F0D90BC9136
S1132C80A02DA130B105D9F4DC01AA0FBB1FAA0FF6
S1132C90BB1FAD57BD4F0D90BC91A02D119609F4EB
S1132CA049C0DC01AA0FBB1FAA0FBB1FAD57BD4F04
S1132CB012968D919C911397019619F43BC0AB2BFE
S1132CC0C9F52F3F3F4FB1F54E175F0729F46B2D20
S1132CD07A2DC80116DC2EC06B2D7A2DCE0111DCA5
S1132CE029C0119739F5DC01AA0FBB1FAA0FBB1F1E
S1132CF0AD57BD4F4D915C914F3F5F4F69F0DC0183
S1132D00AA0FBB1FAA0FBB1FAD57BD4F12968D91C3
S1132D109C911397019671F42F3F3F4F59F03196D0
S1132D2029F46B2D7A2DCE01A8DB04C06B2D7A2DEE
S1132D30C801A3DB8091A5029091A6029093800222
S1132D4080937F0280917F0290918002029683702B
S1132D509078992324F401978C6F9F6F0196909338
S1132D60A6028093A502DF91CF911F910F91FF904E
S1132D70EF90DF90CF90BF90AF909F908F90089589
S1132D800E94F5081092800210927F0282E090E087
S1132D909093A6028093A50280E00E943B038AE5FB
S1132DA00E94540380E00E946D030E942C0A20912B
S1132DB04E0230914F028091010290910202281735
S1132DC03907ACF5E3D980914A0290914B020397FD
S1132DD011F40E94890820914E0230914F02809193
S1132DE00102909102022817390709F10E94D50DBA
S1132DF080917F0290918002BC016170707877238A
S1132E0034F4615071096E6F7F6F6F5F7F4F6C5F39
S1132E107F4F0E94520B85DD20914E0230914F026C
S1132E208091010290910202281739075CF280E038
S1132E3090E008955058BB27AA270ED048C139D135
S1132E4030F03ED120F031F49F3F11F41EF42EC136
S1132E500EF4E095E7FB24C1E92F4AD180F3BA17B9
S1132E60620773078407950718F071F49EF562C131
S1132E700EF4E0950B2EBA2FA02D0B01B901900191
S1132E800C01CA01A0011124FF27591B99F0593FD5
S1132E9050F4503E68F11A16F040A22F232F342F1D
S1132EA04427585FF3CF469537952795A795F0406B
S1132EB05395C9F77EF41F16BA0B620B730B840B80
S1132EC0BAF09150A1F0FF0FBB1F661F771F881F38
S1132ED0C2F70EC0BA0F621F731F841F48F4879590
S1132EE077956795B795F7959E3F08F0B3CF93957F
S1132EF0880F08F09927EE0F9795879508950CD0C1
S1132F00E6C0DED040F0D5D030F021F45F3F19F0B8
S1132F10C7C0511110C1CAC0EBD098F39923C9F3AB
S1132F205523B1F3951B550BBB27AA2762177307CB
S1132F30840738F09F5F5F4F220F331F441FAA1F7F
S1132F40A9F333D00E2E3AF0E0E830D0915050403F
S1132F50E695001CCAF729D0FE2F27D0660F771FED
S1132F60881FBB1F261737074807AB07B0E809F0CF
S1132F70BB0B802DBF01FF2793585F4F2AF09E3F64
S1132F80510568F08DC0D7C05F3FECF3983EDCF389
S1132F90869577956795B795F7959F5FC9F7880FDD
S1132FA0911D9695879597F90895E1E0660F771F2F
S1132FB0881FBB1F621773078407BA0720F0621BC0
S1132FC0730B840BBA0BEE1F88F7E095089598D025
S1132FD088F09F5790F0B92F9927B751A0F0D1F0FE
S1132FE0660F771F881F991F1AF0BA95C9F712C088
S1132FF0B13081F09FD0B1E008959CC0672F782F45
S11330008827B85F39F0B93FCCF3869577956795F3
S1133010B395D9F73EF490958095709561957F4F5F
S11330208F4F9F4F0895E89409C097FB3EF4909505
S11330308095709561957F4F8F4F9F4F9923A9F08D
S1133040F92F96E9BB279395F6958795779567951C
S1133050B795F111F8CFFAF4BB0F11F460FF1BC060
S11330606F5F7F4F8F4F9F4F16C0882311F096E9F3
S113307011C0772321F09EE8872F762F05C06623A1
S113308071F096E8862F70E060E02AF09A95660F5A
S1133090771F881FDAF7880F9695879597F9089513
S11330A097F99F6780E870E060E008959FEF80ECF7
S11330B0089500240A94161617061806090608959A
S11330C000240A9412161306140605060895092E00
S11330D00394000C11F4882352F0BB0F40F4BF2B6F
S11330E011F460FF04C06F5F7F4F8F4F9F4F0895AF
S11330F057FD9058440F551F59F05F3F71F04795A5
S1133100880F97FB991F61F09F3F79F08795089589
S1133110121613061406551FF2CF4695F1DF08C0A8
S1133120161617061806991FF1CF869571056105C5
S113313008940895E894BB2766277727CB0197F96D
S1133140089597FB072E16F4009406D077FD08D057
S11331501AD007FC05D03EF4909581959F4F0895B1
S1133160709561957F4F0895A29FB001B39FC001F0
S1133170A39F700D811D1124911DB29F700D811D9F
S11331801124911D0895AA1BBB1B51E107C0AA1F5E
S1133190BB1FA617B70710F0A61BB70B881F991FF4
S11331A05A95A9F780959095BC01CD010895F8949E
S10531B0FFCF4B
S11331B25A080002005468726573686F6C64007088
S11331C269636B5269676874007069636B4C656606
S11331D2740064726F7052696768740064726F700D
S11331E24C656674004C656674207475726E0000DA
S9030000FC
