S0110000416C69676E6D656E742E7372656374
S113000071C000001BC300008EC000008CC0000043
S11300108AC0000004C40000DDC3000084C00000E6
S113002082C0000080C000007EC000007CC00000D0
S11300307AC0000078C0000076C0000074C00000E0
S113004072C0000070C000006EC000006CC00000F0
S11300506AC0000068C0000066C0000064C0000000
S113006062C0000060C000005EC000005CC0000010
S11300705AC0000058C0000056C0000054C0000020
S113008052C0000050C000004EC000004CC0000030
S11300904AC0000048C0000046C0000044C0000040
S11300A042C0000040C000003EC000003CC0000050
S11300B03AC0000038C0000036C0000034C0000060
S11300C032C0000030C000002EC000002CC0000070
S11300D02AC0000028C0000026C0000024C0000080
S11300E022C0000011241FBECFEFD1E2DEBFCDBF7E
S11300F000E00CBF12E0A0E0B2E0E6EBFFE200E0BB
S11301000BBF02C007900D92AE34B107D9F722E0BD
S1130110AEE4B2E001C01D92AB3BB207E1F70E942E
S11301201E160C94D9176CCF86E69EE00197F1F762
S113013000004098419880E388B9429A8FEF97E491
S11301400197F1F700C00000429886E69EE001970F
S1130150F1F700004098419880E388B9429A8FEF04
S113016097E40197F1F700C00000429886E69EE00C
S11301700197F1F700004098419880E388B9429ACA
S11301808FEF97E40197F1F700C00000429886E6EC
S11301909EE00197F1F700004098419880E288B909
S11301A0429A8FEF97E40197F1F700C0000042985C
S11301B0089598B19F7098B998B1282F207F922BF9
S11301C098B940984198429AEFEFF7E43197F1F7E4
S11301D000C00000429898B19F7098B998B1829578
S11301E0807F892B88B940984198429A8FEF97E491
S11301F00197F1F700C000004298089595DF86E664
S11302009EE00197F1F7000088E2D3DF81E0D1DFBF
S113021086E0CFDF8EE0CDDF80E8CBCF089598B1C4
S11302209F7098B998B1282F207F922B98B9409A43
S11302304198429AEFEFF7E43197F1F700C00000DC
S1130240429898B19F7098B998B18295807F892B14
S113025088B9409A4198429A8FEF97E40197F1F751
S113026000C000004298089580E8A3CF0895CF937A
S1130270DF93EC018881882329F02196D0DF8991CE
S11302808111FCCFDF91CF910895823069F018F489
S1130290813031F00895833059F0843069F0089545
S11302A08FE7860F86CF08958FEB860F82CF089550
S11302B083E9860F7ECF089583ED860F7ACF089564
S11302C00F931F93CF93DF938A01E901882311F0E1
S11302D0611102C0C9DF01C0D8DFC530D10509F002
S11302E0D5C09801329522952F7023273F7023277C
S11302F0A7E4B3E00E94B6179695879596958795DF
S113030096958795C096909375028093740287DFC3
S11303109801369527953695279536952795A5EC1A
S1130320B0E20E94B617AC01529542954F70452732
S11303305F70452750937902409378029A01ADEC9F
S1130340BCEC0E94B61796958795969587959695D9
S113035087959C01220F331F880F991F880F991FBF
S1130360880F991F820F931F481B590BCA01C0960F
S11303709093BA028093B90252DF04C0C330D1050E
S113038009F089C098013695279536952795ABE7EE
S1130390B4E10E94B617AC01569547955093790283
S11303A0409378029A01ADECBCEC0E94B617969586
S11303B0879596958795969587959C01220F331F6F
S11303C0880F991F880F991F880F991F820F931FF9
S11303D0481B590BCA01C0969093B0028093AF0298
S11303E01EDF9801ADECBCEC0E94B617AC0156952B
S11303F0479556954795569547955093790240935E
S113040078029A010E94B6179695879596958795D6
S1130410969587959C01220F331F880F991F880F8B
S1130420991F880F991F820F931F481B590BCA01EC
S1130430C09690938A0280938902F1DE03C0C13092
S1130440D105F9F49801ADECBCEC0E94B617969571
S1130450879596958795969587959C01220F331FCE
S1130460880F991F880F991F880F991F820F931F58
S1130470081B190BC801C0969093B8028093B70269
S1130480CEDE269764F085E4CADE09C0C430D10507
S113049009F074CF3DCFC230D10589F6A2CFDF91E8
S11304A0CF911F910F910895E1E2F1E010828FEF57
S11304B08093250191E09093240110922901809367
S11304C0280110922B0180932A0110922D01809310
S11304D02C0189EA809320018BE08083089581B107
S11304E08F6081B982B1807F82B9EAE0F1E08081D6
S11304F088618083EBE0F1E08081886180830895E6
S113050092B1907F8F70982B92B9089586E0F8CFBE
S1130510089589E0F5CF089585E0F2CF08958AE043
S1130520EFCF089580E0ECCF089587B1876F87B946
S113053088B1807888B908958AB18E6F8AB9589A3B
S1130540089583E0809389008FEF80938800089555
S113055083E080938B008FEF80938A00089583E07B
S113056080938D008FEF80938C00089510BA11BA98
S113057010920701109208010895259A2D9A089562
S1130580269A2E9A0895279A2F9A0895E1E8F0E082
S113059010828CEF8093850081E08093840093E047
S11305A0909389008FEF8093880090938B008093C1
S11305B08A0090938D0080938C00909387008093A1
S11305C086008BEA80938000109282008CE0808306
S11305D00895ABDFCBDF3B9A4398CFDFD1DFD3DF86
S11305E0ABCF089586B1886088B9089586B1877FB6
S11305F088B90895883018F098E090937B0087704C
S1130600806280937C00EAE7F0E0808180648083EC
S1130610808184FFFDCF80917900EAE7F0E090814A
S11306209061908310927B000895F894E9E6F0E0DD
S1130630808182608083E89A789408951F920F9253
S11306400FB60F9211248F939F93AF93BF93809112
S1130650580290915902A0915A02B0915B020196FE
S1130660A11DB11D8093580290935902A0935A0280
S1130670B0935B02BF91AF919F918F910F900FBE8A
S11306800F901F901895EAE7F0E0108210927B001B
S113069080E280937C0080E880BF86E880830895B0
S11306A05E985F9808955E9A5F9A08955E985F9A3F
S11306B008955C9A5D9A0895F3DF1092580210929F
S11306C0590210925A0210925B022FEF8FE794E0C6
S11306D0215080409040E1F700C000008091580212
S11306E090915902A0915A02B0915B0280937E02CC
S11306F090937F02A0938002B09381022FEF8FEF3B
S11307009CE2215080409040E1F700C00000089531
S1130710CADF109258021092590210925A02109293
S11307205B022FEF8FE794E0215080409040E1F787
S113073000C000008091580290915902A0915A0281
S1130740B0915B0280937A0290937B02A0937C0227
S1130750B0937D020895AADF1092580210925902B4
S113076010925A0210925B022FEF8FE794E021500F
S113077080409040E1F700C00000809158029091C1
S11307805902A0915A02B0915B0280936E02909339
S11307906F02A0937002B093710208956C98749ADA
S11307A008956D98759A08959ADEF8DFFACF089542
S11307B0F894EAE6F0E0808182608083EC9A789491
S11307C00895F894EAE6F0E0808188608083ED9AE9
S11307D0789408951F920F920FB60F9211248F935D
S11307E09F93AF93BF9380915C0290915D02A0911F
S11307F05E02B0915F020196A11DB11D80935C025F
S113080090935D02A0935E02B0935F02BF91AF919B
S11308109F918F910F900FBE0F901F9018951F926C
S11308200F920FB60F9211248F939F93AF93BF93A0
S11308308091600290916102A0916202B091630282
S11308400196A11DB11D8093600290936102A09353
S11308506202B0936302BF91AF919F918F910F9009
S11308600FBE0F901F901895CF92DF92EF92FF92D8
S11308700F931F93BC0180E090E00E94151728E4B9
S113088031EE42E850E40E9481160E94E916CB0141
S1130890A0E0B0E010925C0210925D0210925E0241
S11308A010925F0210926002109261021092620232
S11308B01092630251E0E0E0C0905C02D0905D02CF
S11308C0E0905E02F0905F0200916002109161027C
S11308D02091620230916302452F081719072A07F5
S11308E03B0708F44E2F411109C0252FC816D9061D
S11308F0EA06FB0608F42E2F2223F1F213DE1F91E1
S11309000F91FF90EF90DF90CF9008950F931F9376
S1130910BC0180E090E00E94151725EE30ED4AEA14
S113092050E40E9481160E94E91610925C02109213
S11309305D0210925E0210925F0200915C021091BF
S11309405D0220915E0230915F0260177107820799
S1130950930798F7E7DD1F910F910895CF93DF93E5
S1130960EC01D4DDCE01D2DFDF91CF910895CF9396
S1130970DF93EC01CEDDCE01C9DFDF91CF91089585
S1130980CF93DF93EC01C8DDCE016EDFDF91CF9111
S11309900895CF93DF93EC01C2DDCE0165DFDF91D3
S11309A0CF910895F89400DF03DF0BDF12DE3DDE04
S11309B06ADE95DD79DDEADD7894089583E01ADE58
S11309C08093510282E016DE8093500281E012DEB1
S11309D080934F020895813031F410928B0083E4A8
S11309E080938A00089510928B0083E680938A0096
S11309F0089510928B0083E580938A002FEF8FEF88
S1130A009AE1215080409040E1F700C00000A0CD61
S1130A100895811110C010928D0083E280938C00A0
S1130A202FEF8FE796E1215080409040E1F700C01E
S1130A30000095CD08951092890083E28093880088
S1130A402FEF8FE796E1215080409040E1F700C0FE
S1130A50000077CD0895811106C010928D008DE3BA
S1130A6080938C000895813029F41092890083E4E6
S1130A70809388000895CF93DF93EC0181E099DBA4
S1130A8061E081E002DCCE01F2DB2FEF8FEF9CE22C
S1130A90215080409040E1F700C00000DF91CF91E9
S1130AA00895A0DD2FEF8FE794E02150804090401F
S1130AB0E1F700C000009ACD08950F931F93FCDD69
S1130AC04ADE26DE2FEF8FE794E0215080409040ED
S1130AD0E1F700C000008BE08DDD883320F08BE06F
S1130AE089DD843620F0DDDF8FEF9FEF7BC08091BE
S1130AF06C0290916D02AA2797FDA095BA2F4091A0
S1130B007E0250917F0260918002709181024817A9
S1130B1059076A077B07D8F440917A0250917B0207
S1130B2060917C0270917D02481759076A077B0720
S1130B3070F440916E0250916F0260917002709156
S1130B407102481759076A077B0708F446C04091A9
S1130B507E0250917F0260918002709181028091A7
S1130B606E0290916F02A0917002B091710284178D
S1130B709507A607B707C8F400917E0210917F027B
S1130B80209180023091810240917A0250917B023F
S1130B9060917C0270917D0281E090E040175107E2
S1130BA062077307F8F480E01DC040916E02509113
S1130BB06F02609170027091710280917A0290913B
S1130BC07B02A0917C02B0917D0284179507A60751
S1130BD0B70730F482E090E005C083E090E002C003
S1130BE081E090E01F910F910895CF93DF93CDE9B9
S1130BF0D2E0EBE8F2E0A4E6B2E080E090E02EEF91
S1130C003FEF8993999333832283318320831D9209
S1130C101D92019634968430910599F7E0919D02D6
S1130C20F0919E02EE0FFF1FEB55FD4F11821082D3
S1130C30E0919F02F091A002EE0FFF1FEB55FD4FD4
S1130C4081E090E091838083E091A102F091A2027F
S1130C50EE0FFF1FEB55FD4F82E090E09183808300
S1130C60E091A302F091A402EE0FFF1FEB55FD4F9C
S1130C7083E090E0918380838FEF9FEF90938602CF
S1130C808093850290938402809383029093B402AC
S1130C908093B3029093B2028093B102DF91CF911B
S1130CA00895CF93DF9386E98093280180932A01E6
S1130CB080918702909188028230910530F42091CE
S1130CC0000230910102232B69F09C01225031096A
S1130CD02230310540F5409100025091010242302A
S1130CE0510509F58EE190E04BDE86E980932801F9
S1130CF080932A0101C010DC81E07CDC8233D8F3CC
S1130D0011DC809100029091010203968370907827
S1130D10992324F401978C6F9F6F0196909301029D
S1130D208093000253C0029730F4809100029091A6
S1130D300102029749F02230310538F58091000212
S1130D4090910102892B09F58EE190E022DE86E97B
S1130D508093280180932A0101C0E1DB81E04ADC11
S1130D608233D8F3DFDB8091000290910102019677
S1130D7083709078992324F401978C6F9F6F019668
S1130D80909301028093000221C086E990E0F8DD8F
S1130D9086E98093280180932A0101C0BDDB81E0AC
S1130DA029DC8233D8F3BEDB8091000290910102EA
S1130DB0029683709078992324F401978C6F9F6F27
S1130DC00196909301028093000255DEC091870240
S1130DD0D091880272DECC0FDD1FCC0FDD1FC5570A
S1130DE0DD4F9B838A83E0918702F0918802EE0FA6
S1130DF0FF1FEE0FFF1FE557FD4F428153814F3F09
S1130E002FEF520741F421E030E049E050E06BE07D
S1130E1082E056DA05C021E030E06BE082E050DA8F
S1130E204FEF8FEF9CE2415080409040E1F700C0CB
S1130E3000008091870290918802FC01EE0FFF1F51
S1130E40EE0FFF1FE557FD4F228133812F3F4FEFF8
S1130E50340751F0FC01EE0FFF1FE356FD4F4081B4
S1130E6051812417350751F4209104023091050271
S1130E70215031093093050220930402FC01EE0F46
S1130E80FF1FEC59FD4F81E090E0918380838091B6
S1130E90520290915302019690935302809352020E
S1130EA0409100025091010221E030E06FE082E0C5
S1130EB007DA8FEF9FEF2CE2815090402040E1F75A
S1130EC000C00000DF91CF910895CF93DF93EC0130
S1130ED082DD2FEF8FEF9CE2215080409040E1F7BC
S1130EE000C000008C2FB7DD2FEF8FEF96E8215064
S1130EF080409040E1F700C000007BDD2FEF8FEFD2
S1130F009CE2215080409040E1F700C000008091B5
S1130F1006029091070201979093070280930602BC
S1130F20CD2B21F482E192E0A6DD03C08CE192E0B6
S1130F30A2DD2FEF8FEF9CE2215080409040E1F73B
S1130F4000C00000DF91CF910895CF93DF93EC01AF
S1130F5042DD2FEF8FEF9CE2215080409040E1F77B
S1130F6000C000008C2F55DD2FEF8FEF96E8215045
S1130F7080409040E1F700C000003BDD2FEF8FEF91
S1130F809CE2215080409040E1F700C00000809135
S1130F90060290910702019690930702809306023D
S1130FA0CD2B21F485E292E066DD03C08FE292E06E
S1130FB062DDDF91CF91089580918B0290918C0234
S1130FC020919D0230919E028217930709F05FC021
S1130FD020918D0230918E028217930709F057C039
S1130FE080918F029091900220919F023091A002F3
S1130FF08217930709F04BC020919102309192021D
S11310008217930709F043C0809187029091880268
S1131010FC01EE0FFF1FEE0FFF1FE557FD4F208170
S11310203181FC01EE0FFF1FE356FD4F40815181DA
S11310302417350761F5FC01EE0FFF1FEE0FFF1FAC
S1131040E557FD4F828193812817390701F5809177
S11310508302909184020196D1F48091850290914B
S113106086020196A1F48091B1029091B202019698
S113107071F48091B3029091B402019641F480918D
S113108004029091050290935702809356020895AA
S113109089DC4AD8B3D80DDBA8DD80E797E19093CB
S11310A06D0280936C0210928B0083E580938A001A
S11310B0089521E030E041E050E061E081E000D9B2
S11310C086E98093280180932A0182E390E046DC3C
S11310D029CA08950F931F93CF93DF938C01181699
S11310E019068CF4C0E0D0E009C086E69EE00197C2
S11310F0F1F700002196C017D10739F082E07ADABF
S1131100883298F302C0C0E0D0E00CDA81E0C01766
S1131110D1070CF080E0DF91CF911F910F910895DA
S113112080915002893258F090915102993220F402
S113113090914F02993218F0BCDF81E00895883213
S1131140E0F480915102893258F090914F02983224
S113115038F4E2D933DC809150028832D0F30FC0E6
S113116090914F02993268F0883268F4D8D926DC1D
S1131170809150028832D0F308C080E0089580E066
S1131180089580E0089580E0089580E008951F9315
S1131190CF93DF9385E090E0909373028093720283
S11311A0C1D981E080934E02C2E3D0E0B5D9CE012B
S11311B091DF81112AC0B6D921E030E041E050E04E
S11311C061E081E07DD8ACDF182F811120C082E07E
S11311D011DA8932C0F4A3D9CE01C2967BDF811122
S11311E019C0A0D921E030E042E050E061E081E0A4
S11311F067D896DF81110DC082E0FCD9893218F4DA
S1131200CC59DF4FD3CF8ED905C010E003C011E015
S113121001C011E0812FDF91CF911F91089588ECD7
S11312208093280180932A0180915002883290F59E
S1131230809151028932A0F090914F02983280F44B
S113124002C06AD9BBDB809150028932D0F380910D
S113125051028832B0F780914F02883290F72FC044
S113126090914F02993290F0883280F402C057D99D
S1131270A5DB809150028932D0F3809151028832EB
S1131280B0F780914F02883290F719C080DF811146
S113129018C015C080915102893230F090914F02EC
S11312A0983210F406DF0DC0883230F480914F027A
S11312B0893210F0FEDE05C06ADF811102C032C936
S11312C0089581E090E00895FF920F931F93CF93C8
S11312D0DF9308E211E00F2EF0EFFF2EF02DCAE2AB
S11312E0D1E014D96BDB80915002893250F08091A7
S11312F05102893220F480914F02893210F0D9DEF4
S113130013C0F801F082F88280915002893240F0D3
S113131080915102883220F480914F02883208F380
S11313207EDF892B09F4D0DFDF91CF911F910F91DC
S1131330FF900895C9DF809176029091770201961B
S113134090937702809376020895809100029091A1
S113135001028330910539F48091020290910302D5
S1131360029798F409C0019781F480910202909148
S113137003020297029748F486E980932801809338
S11313802A018AE590E005DB0FC086E980932801F5
S113139080932A018EE190E0FCDA01C0C0D882E09B
S11313A029D98233D8F3BED888E392E064DB8091F4
S11313B0000290910102019683709078992324F49D
S11313C001978C6F9F6F01969093010280930002A6
S11313D080919B0290919C02865A9F4F90939C020D
S11313E080939B025ECB089580910002909101024C
S11313F08130910539F480910202909103020297A1
S113140098F409C0039781F4809102029091030239
S11314100297029748F486E98093280180932A0171
S11314208AE590E0ADDA0FC08EE190E0A9DA86E9B2
S11314308093280180932A0101C06ED882E0DAD813
S11314408233D8F36FD883E492E015DB80910002F5
S113145090910102039683709078992324F4019764
S11314608C6F9F6F0196909301028093000280918C
S11314709B0290919C02865A9F4F90939C0280936A
S11314809B020FCB08958091000290910102009776
S113149081F4809102029091030202970297D0F4A2
S11314A086E98093280180932A0184EB90E068DA2E
S11314B020C0029779F4809102029091030202976E
S11314C048F486E98093280180932A0184EB90E014
S11314D057DA0FC086E98093280180932A0186E9B0
S11314E090E04EDA01C018D882E084D88C33D8F367
S11314F019D888E492E0BFDA809100029091010249
S1131500029683709078992324F401978C6F9F6FCF
S11315100196909301028093000280919B02909126
S11315209C028C549F4F90939C0280939B0208953D
S1131530CF93DF93EC01809154029091550201976F
S113154021F41092550210925402CE01049702978E
S113155088F5C430D10539F48091000290910102DC
S1131560892B51F00BC0C530D10541F480910002A4
S113157090910102029711F4E8DE01C035DFDADE52
S1131580D9DE249739F485E090E0909303028093A8
S1131590020206C084E090E090930302809302026A
S11315A080917602909177020296909377028093CD
S11315B0760245C08091000290910102813091052C
S11315C039F48091020290910302029778F409C0E1
S11315D0039799F48091020290910302823091055D
S11315E011F4B3DE0AC0029740F406C080910202EF
S11315F090910302029709F4F7DE22973CF480915C
S1131600000290910102892B39F007C080910002F9
S113161090910102029709F436DF8CDE80918702F3
S11316209091880281709078992324F401978E6FA9
S11316309F6F019604969093030280930202DF91B8
S1131640CF910895CF93DF9381E00E94D90023E0E6
S113165030E048E753E061E081E00E94600186E900
S11316608093280180932A0181E090E090935502B1
S11316708093540280910202909103022091870288
S1131680309188022817390789F12091000230919E
S113169001022D7F2130310541F48330910511F091
S11316A0892B11F452DE01C09FDE80918702909154
S11316B088028230910538F42091000230910102B1
S11316C02230310549F00297029738F480910002E4
S11316D090910102892B09F4D6DE2CDE80918702D9
S11316E09091880290930302809302028EE190E02D
S11316F050D986E98093280180932A0180910002C1
S113170090910102019683709078992324F40197B3
S11317108C6F9F6F0196909301028093000202C028
S11317200E948F0283E00E94FA028233C8F30E946F
S11317309202C0918702D0918802BFD9CC0FDD1FDD
S1131740CC0FDD1FC557DD4F99838883E091870255
S1131750F0918802EE0FFF1FEE0FFF1FE557FD4FBC
S1131760408151814F3F2FEF520749F421E030E08F
S113177049E050E06BE082E00E94600106C021E095
S113178030E06BE082E00E9460014FEF8FEF9CE25B
S1131790415080409040E1F700C000002091870252
S11317A030918802F901EE0FFF1FEE0FFF1FE5577E
S11317B0FD4F808191818F3F4FEF940751F0F901E4
S11317C0EE0FFF1FE356FD4F2081318182179307EF
S11317D049F48091040290910502019790930502C7
S11317E080930402DF91CF9108950F931F93CF93B9
S11317F0DF938C01EB0120918702309188024091A4
S11318000202509103022417350709F081C0C9016F
S11318102230310530F44091000250910102452BF1
S113182061F0225031092230310568F44091000200
S1131830509101024230510531F40C171D0709F48F
S11318404AC021DE48C08230910538F4409100023C
S1131850509101024230510549F02230310558F4CB
S11318604091000250910102452B29F40C171D07E9
S113187091F509DE30C08230910538F440910002C0
S1131880509101024130510551F02230310570F47C
S113189040910002509101024330510539F40C1774
S11318A01D0711F052DD17C09FDD15C0029730F4FB
S11318B08091000290910102039749F02230310592
S11318C050F48091000290910102019721F40C17C9
S11318D01D0709F43ADD80910002909101020097FE
S11318E049F480918702909188020297029708F048
S11318F07FC00AC0029709F07BC080918702909153
S11319008802029708F074C08BE490E030D870C06D
S113191080910002909101028D7F019749F4211575
S1131920310519F02330310511F40FDD01C05CDD00
S11319308091000290910102009721F0029709F032
S113194033C007C080918702909188020297C8F43F
S113195007C080918702909188020297029788F4C9
S113196080910202909103020497029710F03CDDEB
S1131970E1DC0C171D0711F4DDDC32C0DBDC83DD98
S11319802FC080910202909103020497029710F0F5
S11319902BDDD0DC0C171D0719F475DDCBDC20C062
S11319A072DDC8DC70DD1CC00C171D0769F4809162
S11319B0870290918802009711F0039711F4C5DC17
S11319C001C012DDB7DC0CC08091870290918802BF
S11319D0009711F0039711F4B8DC01C005DDAADC0F
S11319E0809187029091880290930302809302026F
S11319F0DF91CF911F910F9108950F931F93CF9370
S1131A00DF938C01EB01FC01EE0FFF1FEF54FD4F40
S1131A10A0918702B0918802AA0FBB1FA60FB71F1F
S1131A20AA0FBB1FA557BD4F8D919C9191838083B5
S1131A30C801DBDEC80149DA8091870290918802EF
S1131A40880F991FC80FD91FCC0FDD1FC557DD4F55
S1131A508FEF9FEF99838883DF91CF911F910F912F
S1131A600895EF92FF920F931F93CF93DF932091EA
S1131A708702309188022230310530F480910002CF
S1131A8090910102029779F0C9010297029780F4BC
S1131A908091000290910102892B79F0C1E0D0E09D
S1131AA000E010E00EC0C0E0D0E001E010E009C0AA
S1131AB0C1E0D0E000E010E004C0C0E0D0E001E00C
S1131AC010E0F901EE0FFF1FEC59FD4F8081918169
S1131AD0892B79F4F901EE0FFF1FEE0FFF1FE55775
S1131AE0FD4F80819181029619F4ACDDDAD801C0F2
S1131AF0D8D82091870230918802F901EE0FFF1F98
S1131B00EE0FFF1FE557FD4F40815181F901EE0FA4
S1131B10FF1FE356FD4F808191814817590721F03B
S1131B204F3F6FEF560789F4F901EE0FFF1FEE0FD9
S1131B30FF1FE557FD4F628173818617970709F4EC
S1131B40EEC16F3F7F4F09F4EAC1609106027091C4
S1131B5007026230710509F0B0C0E091AD02F09166
S1131B60AE02DF01AA0FBB1FA356BD4F6D917C913E
S1131B704617570779F0D901AA0FBB1FAA0FBB1F3D
S1131B80A557BD4F1296ED90FC9013976E157F05E7
S1131B9059F405C061E070E0C8012FDF8EC060E039
S1131BA070E0CE012ADF89C08E159F0509F44EC06E
S1131BB0EF20E09409F44AC04817590769F04F3FF1
S1131BC0AFEF5A0749F060E070E0CE0116DF61E044
S1131BD070E0C80112DF71C021703078332334F40F
S1131BE0215031092E6F3F6F2F5F3F4FD901AA0F4C
S1131BF0BB1FAD57BD4F2D913C912F3F3F4F09F176
S1131C00DF01AA0FBB1FAA0FBB1FA557BD4F2D9104
S1131C103C9162177307A9F02F3F3F4F91F0EE0FED
S1131C20FF1FEE0FFF1FE557FD4F2281338162171F
S1131C30730739F02F3F3F4F21F04817590709F038
S1131C406EC161E070E0C801D8DE37C0481759079B
S1131C5009F465C14F3F5F4F09F461C121703078C9
S1131C60332334F4215031092E6F3F6F2F5F3F4FE0
S1131C70D901AA0FBB1FAD57BD4F8D919C91019601
S1131C80C1F0DF01AA0FBB1FAA0FBB1FA557BD4F91
S1131C908D919C9111976817790759F0019649F035
S1131CA0FD01828193816817790719F0019609F083
S1131CB036C160E070E0CE01A0DE80910602909112
S1131CC00702019709F02BC1F801EE0FFF1FEF5433
S1131CD0FD4F80819181019609F4E801BE016F5F97
S1131CE07F4F61707078772334F4615071096E6F9F
S1131CF07F6F6F5F7F4F80918702909188029C0174
S1131D0021703078332334F4215031092E6F3F6F22
S1131D102F5F3F4FF901EE0FFF1FED57FD4F20815D
S1131D2031812F3FAFEF3A07D9F5FC01EE0FFF1FCA
S1131D30EC0FFD1FEE0FFF1FE557FD4F2081318192
S1131D402F3FEFEF3E0771F0FC01EE0FFF1FE3564C
S1131D50FD4F408151812417350721F0BE01CE018A
S1131D604CDEDDC0FC01EE0FFF1FE60FF71FEE0F88
S1131D70FF1FE557FD4F208131812F3F4FEF34077F
S1131D8009F4CDC0FC01EE0FFF1FE356FD4F808127
S1131D9091812817390709F4C2C0CE012EDEBFC0D5
S1131DA04091AD025091AE02FA01EE0FFF1FE356CF
S1131DB0FD4F0190F081E02DDC01AA0FBB1FAA0F9B
S1131DC0BB1FA557BD4F0D90BC91A02DAE17BF07EB
S1131DD071F0DC01AA0FBB1FAA0FBB1FA557BD4F93
S1131DE012960D90BC91A02DEA17FB07D9F5DA01E4
S1131DF0AA0FBB1FAC59BD4F2D913C912130310529
S1131E0009F08DC0DA01AA0FBB1FAA0FBB1FA5578B
S1131E10BD4F2D913C912F3F3F4F79F0DA01AA0F2E
S1131E20BB1FAA0FBB1FA557BD4F12962D913C9106
S1131E3013972F3F3F4F09F072C0880F991F8C0FE3
S1131E409D1FDC01AA0FBB1FA557BD4F8D919C910F
S1131E50E817F90721F4BE01CE01CFDD60C0CE0141
S1131E60CCDD5DC0DC01AA0FBB1FA356BD4F0D9096
S1131E70BC91A02D2A173B0709F451C02E173F0728
S1131E8009F44DC0FA01EE0FFF1FEC59FD4F2081FC
S1131E9031812130310509F042C0FA01EE0FFF1FF4
S1131EA0EE0FFF1FE557FD4F20813181A217B307C5
S1131EB0B1F1FA01EE0FFF1FEE0FFF1FE557FD4FC3
S1131EC022813381A217B30751F1FC01EE0FFF1FEA
S1131ED0EC0FFD1FEE0FFF1FE557FD4F20813181F1
S1131EE02F3FEFEF3E0739F0A217B30721F0BE01F1
S1131EF0CE0183DD14C0880F991F860F971FFC0144
S1131F00EE0FFF1FE557FD4F808191818F3F2FEF2B
S1131F10920729F0A817B90711F0CE016EDDDF9101
S1131F20CF911F910F91FF90EF900895CF93DF937E
S1131F309C012F5F3F4F21703078332334F42150BC
S1131F4031092E6F3F6F2F5F3F4FD22FC32FE09188
S1131F508702F0918802AF01440F551F240F351FEB
S1131F60D901AA0FBB1FA557BD4F2D913C91DA0192
S1131F70A356BD4F4D915C912417350769F0A0918C
S1131F80AD02B091AE02AA0FBB1FA356BD4F6D9117
S1131F907C9126173707A9F0EE0FFF1FE80FF91FF2
S1131FA0EE0FFF1FE557FD4F0190F081E02D4E1716
S1131FB05F0739F0319629F0BC018D2F9C2F1DDD70
S1131FC00BC02417350741F02F3F3F4F29F06D2FE9
S1131FD07C2F8D2F9C2F11DDDF91CF9108950F93CE
S1131FE01F93CF93DF93EC01E0918702F091880275
S1131FF0EE0FFF1FE60FF71FEE0FFF1FE557FD4F14
S11320008C01000F111F0F541D4FD8018D919C910D
S113201091838083CE01E9DBCE010E94A5078FEF77
S11320209FEFF8019183808380915602909157022B
S113203001969093570280935602DF91CF911F919E
S11320400F9108950F931F93CF93DF9320918702ED
S1132050309188022230310530F480910002909151
S11320600102029779F0C9010297029780F48091E6
S1132070000290910102892B79F001E010E0C0E0A8
S1132080D0E00EC000E010E0C1E0D0E009C001E003
S113209010E0C0E0D0E004C000E010E0C1E0D0E017
S11320A040910602509107024230510509F43EC1A5
S11320B0F901EE0FFF1FE356FD4F408151818091DE
S11320C0B1029091B2028417950741F08091B30256
S11320D09091B4024817590709F028C1F901EE0F8D
S11320E0FF1FEC59FD4F80819181892B19F4AADAE5
S11320F00E9451068091060290910702892B09F0F3
S113210048C02091870230918802F901EE0FFF1F29
S1132110E356FD4F80819181FE01EE0FFF1FEF54C6
S1132120FD4F4081518148175907A9F4F901EE0F79
S1132130FF1FEE0FFF1FE557FD4F80819181019630
S113214029F460E070E0CE014ADF23C061E070E072
S1132150CE0145DF1EC0F801EE0FFF1FEF54FD4F07
S11321604081518184179507A1F4F901EE0FFF1FF7
S1132170EE0FFF1FE557FD4F80819181019629F0F5
S113218061E070E0C8012BDF04C060E070E0C801CA
S113219026DF2091870230918802F901EE0FFF1F9C
S11321A0E356FD4F808191814091B1025091B2027A
S11321B04817590741F04091B3025091B402841773
S11321C0950709F0B3C0F901EE0FFF1FEE0FFF1FD3
S11321D0E557FD4F80819181019609F446C0F901CC
S11321E0EE0FFF1FEE0FFF1FE557FD4F8281938116
S11321F00196D1F0F901EE0FFF1FEC59FD4F8081DC
S11322009181892B89F40E94510620918702309193
S11322108802F901EE0FFF1FEE0FFF1FE557FD4F78
S113222080819181019609F1F901EE0FFF1FEE0FF4
S1132230FF1FE557FD4F828193810196B1F0DE01C6
S1132240AA0FBB1FAF54BD4FF901EE0FFF1FE3569A
S1132250FD4F4D915C91808191814817590719F484
S1132260CE0164DE02C0C80161DE809187029091D4
S11322708802FC01EE0FFF1FE356FD4F20813181E0
S1132280FE01EE0FFF1FEF54FD4F408151814217B5
S1132290530711F5FC01EE0FFF1FEE0FFF1FE5576B
S11322A0FD4F408151814F3F5F4F29F460E070E062
S11322B0CE0195DE3BC0FC01EE0FFF1FEE0FFF1FAA
S11322C0E557FD4F428153814F3F5F4F29F461E051
S11322D070E0CE0184DE2AC0F801EE0FFF1FEF5438
S11322E0FD4F408151812417350701F5FC01EE0FA4
S11322F0FF1FEE0FFF1FE557FD4F208131812F3F58
S11323003F4F29F460E070E0C80169DE0FC0FC01B2
S1132310EE0FFF1FEE0FFF1FE557FD4F82819381E4
S1132320019621F461E070E0C80159DEDF91CF919C
S11323301F910F9108950F931F93CF93DF93EC0197
S11323408B01FC01EE0FFF1FEF54FD4FDB01AA0FC1
S1132350BB1FAD57BD4F8D919C9191838083C61750
S1132360D70739F48091000290910102892B49F436
S113237006C08091000290910102029711F483D863
S11323800DC080910002909101028D7F019731F47C
S1132390209711F429D802C00E94A509CE010E94F9
S11323A06507F801EE0FFF1FED57FD4F8FEF9FEF0D
S11323B091838083DF91CF911F910F910895CF93E3
S11323C0DF93EC01FB01EE0FFF1FED57FD4FDC0126
S11323D0AA0FBB1FAF54BD4F8D919C9191838083F5
S11323E0C617D70739F48091000290910102892B16
S11323F049F406C08091000290910102029711F401
S113240042D80EC080910002909101028D7F019705
S113241039F4209719F40E94F40902C00E94A50916
S1132420CE010E94A507CC0FDD1FCF54DD4F8FEFE7
S11324309FEF99838883DF91CF9108950F931F9322
S1132440CF93DF932091B1023091B2022F3F1FEF5F
S1132450310741F0F901EE0FFF1FEB55FD4FC0812D
S1132460D18102C0CEEFDFEFE091B302F091B4026C
S1132470EF3F4FEFF40709F47FC1DF01AA0FBB1F41
S1132480AB55BD4F4D915C9180918702909188022C
S1132490019681709078992324F401978E6F9F6F31
S11324A00196BC010296D0938802C09387022E172E
S11324B03F0761F5DE01AA0FBB1FAC59BD4F0D905C
S11324C0BC91A02DAB2BC9F0DE01AA0FBB1FAA0F34
S11324D0BB1FA557BD4F0D90BC91A02D1196B1F017
S11324E0DE01AA0FBB1FAA0FBB1FA557BD4F129633
S11324F00D90BC91A02D119649F0209719F02397C7
S113250009F028C181E090E05ADF24C12F3FAFEFEA
S11325103A07C1F1DE01AA0FBB1FAA0FBB1FA557C3
S1132520BD4F0D90BC91A02D119651F0CC0FDD1F25
S1132530CC0FDD1FC557DD4FAA81BB81119611F564
S1132540319609F007C19B01220F331FF901ED57A2
S1132550FD4F40815181F901E356FD4F20813181C6
S11325604217530759F0FC01EE0FFF1FE356FD4FCE
S1132570808191814817590709F0ECC081E090E00F
S1132580DADEE8C0EF3FAFEFFA0709F451C0DA0131
S1132590AA0FBB1FAA0FBB1FA557BD4F0D90BC911F
S11325A0A02D119609F40AC1DA01AA0FBB1FAA0FC4
S11325B0BB1FA557BD4F12960D90BC91A02D11962F
S11325C0B9F5EAC02F3F3F4F09F0C4C09B01220F69
S11325D0331FF901ED57FD4F40815181F901E35655
S11325E0FD4F208131814217530709F0B3C0FC012C
S11325F0EE0FFF1FE356FD4F808191814817590765
S113260009F0A8C081E090E096DEA4C0FB01EE0FC3
S1132610FF1FED57FD4F80819181019609F09AC00B
S11326202F3F3F4F09F496C081E090E0C8DE92C08E
S11326302F3F1FEF3107A1F0DB01AA0FBB1FAD57DE
S1132640BD4F8D919C91019631F4319621F081E03A
S113265090E0B5DE7FC030938802209387027AC071
S1132660F0938802E093870275C0A801440F551FB8
S1132670FA01ED57FD4F20813181FA01E356FD4FF8
S1132680408151812417350751F0FC01EE0FFF1FE3
S1132690E356FD4F608171812617370781F42F3F80
S11326A0AFEF3A0731F1F901EE0FFF1FEB55FD4F84
S11326B08081918190938802809387024BC02F3F41
S11326C03F4FB9F0B80180E090E035DE0F5F1F4F57
S11326D001701078112334F4015011090E6F1F6F2B
S11326E00F5F1F4F0C5F1F4F1093880200938702E8
S11326F031C0F801EE0FFF1FEC59FD4F20813181ED
S11327002130310519F5F801EE0FFF1FEE0FFF1F01
S1132710E557FD4F208131814217530719F02F3FB0
S11327203F4FA1F4F801EE0FFF1FEE0FFF1FE55717
S1132730FD4F228133814217530719F02F3F3F4F3A
S113274029F4909388028093870204C0109388022E
S11327500093870280918702909188020296837089
S11327609078992324F401978C6F9F6F019690932E
S1132770AE028093AD022EC08091870290918802B0
S1132780019662E070E0DFD38C01BC0102962F3F1A
S1132790AFEF3A07C1F469CF5093880240938702A0
S11327A0FA01EE0FFF1FEE0FFF1FE557FD4F4281A9
S11327B053814F3F5F4F09F029CF04CF50938802D4
S11327C040938702FFCED0938802C09387024EEFD6
S11327D05FEF9CCEDF91CF911F910F9108958F925F
S11327E09F92AF92BF92CF92DF92EF92FF920F939C
S11327F01F93CF93DF934091870250918802423018
S1132800510530F48091000290910102029779F011
S1132810CA010297029780F480910002909101020C
S1132820892B79F001E010E0C0E0D0E00EC000E0B8
S113283010E0C1E0D0E009C001E010E0C0E0D0E069
S113284004C000E010E0C1E0D0E09A0121703078CB
S1132850332334F4215031092E6F3F6F2F5F3F4FE4
S1132860B22EA32EF901EE0FFF1FED57FD4F20816D
S11328703181FA01EE0FFF1FE356FD4F80819181F4
S11328802817390779F08091AD029091AE02FC01CE
S1132890EE0FFF1FE356FD4F40815181241735078A
S11328A009F0A6C080910602909107021816190635
S11328B00CF095C0F901EE0FFF1FEB55FD4F608141
S11328C071817093880260938702FE01EE0FFF1FEF
S11328D0EF54FD4F80819181019669F461707078A5
S11328E0772334F4615071096E6F7F6F6F5F7F4F90
S11328F0CE0121DD15C0F801EE0FFF1FEF54FD4F8F
S113290080819181019661F461707078772334F449
S1132910615071096E6F7F6F6F5F7F4FC8010BDD70
S11329208091060290910702019709F469C1809190
S1132930870290918802FC01EE0FFF1FEE0FFF1F2C
S1132940E557FD4F208131812F3F3F4F09F458C196
S1132950FC01EE0FFF1FEE0FFF1FE557FD4F228115
S113296033812F3F3F4F09F44BC19C0121703078D4
S1132970332334F4215031092E6F3F6F2F5F3F4FC3
S1132980622F732FF901EE0FFF1FED57FD4F2081CA
S113299031812F3F3F4F09F033C1FC01EE0FFF1F80
S11329A0E356FD4F80819181FE01EE0FFF1FEF542E
S11329B0FD4F208131812817390719F4C801FFDC44
S11329C01FC1F801EE0FFF1FEF54FD4F208131812D
S11329D08217930709F014C1CE01F1DC11C1809173
S11329E0AD029091AE02909388028093870208C151
S11329F0FE01EE0FFF1FEF54FD4F0190F081E02D1B
S1132A004E175F0709F48DC0D801AA0FBB1FAF543E
S1132A10BD4F8D909C904815590509F482C0E090F3
S1132A200602F0900702E114F10409F44CC0B1E08D
S1132A30EB16F10429F42F3F6FEF3607B1F509C007
S1132A40670171E0C71AD108A2E0CA16D10408F0E0
S1132A5063C06C01CC0CDD1CCC0CDD1CB6016557CD
S1132A607D4FDB01CD90DC904C155D0521F0CD2030
S1132A70C09409F051C06C01CC0CDD1CCC0CDD1CE5
S1132A80B60165577D4FDB011296CD90DC9013970C
S1132A904C155D0521F0CD20C09409F03DC01E14F5
S1132AA01F048CF42F3F3F4F71F0319629F46B2DA6
S1132AB07A2DCE0140DC07C08920809421F46B2D4F
S1132AC07A2DC80138DC8091870290918802BC017C
S1132AD06F5F7F4F61707078772334F461507109B0
S1132AE06E6F7F6F6F5F7F4F6C5F7F4F81709078E9
S1132AF0992324F401978E6F9F6F019604960E9488
S1132B00980A9CDC8091870290918802049702972E
S1132B1008F087C093DC85C0909388028093870275
S1132B206FC0A0910602B09107021097C1F5DC01B5
S1132B30AA0FBB1FAC59BD4F0D90BC91A02DA13065
S1132B40B105D9F4DC01AA0FBB1FAA0FBB1FA557FF
S1132B50BD4F0D90BC91A02D119609F449C0DC0124
S1132B60AA0FBB1FAA0FBB1FA557BD4F12968D916D
S1132B709C911397019619F43BC0AB2BC9F52F3FD9
S1132B803F4FB1F54E175F0729F46B2D7A2DC8011D
S1132B9016DC2EC06B2D7A2DCE0111DC29C01197C5
S1132BA039F5DC01AA0FBB1FAA0FBB1FA557BD4FE8
S1132BB04D915C914F3F5F4F69F0DC01AA0FBB1F41
S1132BC0AA0FBB1FA557BD4F12968D919C911397C9
S1132BD0019671F42F3F3F4F59F0319629F46B2D34
S1132BE07A2DCE01A8DB04C06B2D7A2DC801A3DB9E
S1132BF08091AD029091AE029093880280938702F7
S1132C00809187029091880202968370907899232C
S1132C1024F401978C6F9F6F01969093AE0280937A
S1132C20AD02DF91CF911F910F91FF90EF90DF9054
S1132C30CF90BF90AF909F908F9008950E944808C6
S1132C4082E090E090938802809387021092AE0213
S1132C501092AD02909301028093000210928900B9
S1132C6083E28093880010928B0093E590938A000E
S1132C7010928D0080938C000E946409209156026A
S1132C803091570280910402909105022817390768
S1132C90ACF5D8D98091520290915302039711F464
S1132CA00E94DC0720915602309157028091040261
S1132CB0909105022817390709F10E94310D80917E
S1132CC0870290918802BC0161707078772334F494
S1132CD0615071096E6F7F6F6F5F7F4F6C5F7F4FC5
S1132CE00E94980A7CDD209156023091570280910F
S1132CF0040290910502281739075CF280E090E005
S1132D0008950CD0E6C0DED040F0D5D030F021F4E8
S1132D105F3F19F0C7C0511110C1CAC0EBD098F37E
S1132D209923C9F35523B1F3951B550BBB27AA2748
S1132D3062177307840738F09F5F5F4F220F331FBA
S1132D40441FAA1FA9F333D00E2E3AF0E0E830D086
S1132D5091505040E695001CCAF729D0FE2F27D089
S1132D60660F771F881FBB1F261737074807AB0757
S1132D70B0E809F0BB0B802DBF01FF2793585F4FCC
S1132D802AF09E3F510568F08DC0D7C05F3FECF339
S1132D90983EDCF3869577956795B795F7959F5F91
S1132DA0C9F7880F911D9695879597F90895E1E0E5
S1132DB0660F771F881FBB1F621773078407BA0744
S1132DC020F0621B730B840BBA0BEE1F88F7E0959F
S1132DD0089598D088F09F5790F0B92F9927B7514C
S1132DE0A0F0D1F0660F771F881F991F1AF0BA95CB
S1132DF0C9F712C0B13081F09FD0B1E008959CC0F2
S1132E00672F782F8827B85F39F0B93FCCF38695C0
S1132E1077956795B395D9F73EF49095809570951D
S1132E2061957F4F8F4F9F4F0895E89409C097FB9A
S1132E303EF490958095709561957F4F8F4F9F4F8D
S1132E409923A9F0F92F96E9BB279395F6958795D1
S1132E5077956795B795F111F8CFFAF4BB0F11F494
S1132E6060FF1BC06F5F7F4F8F4F9F4F16C088233B
S1132E7011F096E911C0772321F09EE8872F762F71
S1132E8005C0662371F096E8862F70E060E02AF0B2
S1132E909A95660F771F881FDAF7880F969587959E
S1132EA097F9089597F99F6780E870E060E00895C6
S1132EB09FEF80EC089500240A941616170618064E
S1132EC00906089500240A9412161306140605062A
S1132ED00895092E0394000C11F4882352F0BB0FBB
S1132EE040F4BF2B11F460FF04C06F5F7F4F8F4F1E
S1132EF09F4F089557FD9058440F551F59F05F3F59
S1132F0071F04795880F97FB991F61F09F3F79F007
S1132F1087950895121613061406551FF2CF469589
S1132F20F1DF08C0161617061806991FF1CF86950B
S1132F307105610508940895E894BB2766277727EF
S1132F40CB0197F9089597FB072E16F4009406D049
S1132F5077FD08D01AD007FC05D03EF490958195F2
S1132F609F4F0895709561957F4F0895A29FB0017A
S1132F70B39FC001A39F700D811D1124911DB29FA9
S1132F80700D811D1124911D0895AA1BBB1B51E1D5
S1132F9007C0AA1FBB1FA617B70710F0A61BB70BC5
S1132FA0881F991F5A95A9F780959095BC01CD016A
S1092FB00895F894FFCF20
S1132FB602000200080002005468726573686F6CB0
S1132FC664007069636B5269676874007069636B47
S1132FD64C6566740064726F705269676874006445
S1132FE6726F704C656674005269676874207475F4
S1112FF6726E004C656674207475726E000075
S9030000FC
