:1000000071C0000054C200008EC000008CC000000F
:100010008AC0000088C0000086C0000084C00000C4
:1000200082C0000080C000007EC000007CC00000D4
:100030007AC0000078C0000076C0000074C00000E4
:1000400072C0000070C000006EC000006CC00000F4
:100050006AC0000068C0000066C0000064C0000004
:1000600062C0000060C000005EC000005CC0000014
:100070005AC0000058C0000056C0000054C0000024
:1000800052C0000050C000004EC000004CC0000034
:100090004AC0000048C0000046C0000044C0000044
:1000A00042C0000040C000003EC000003CC0000054
:1000B0003AC0000038C0000036C0000034C0000064
:1000C00032C0000030C000002EC000002CC0000074
:1000D0002AC0000028C0000026C0000024C0000084
:1000E00022C0000011241FBECFEFD1E2DEBFCDBF82
:1000F00000E00CBF12E0A0E0B2E0EAE6F6E100E0CA
:100100000BBF02C007900D92AA33B107D9F722E0C6
:10011000AAE3B2E001C01D92A437B207E1F70E9442
:100120009B090C94330B6CCF98B19F7098B998B120
:10013000282F207F922B98B940984198429AEFEF50
:10014000F7E43197F1F700C00000429898B19F7032
:1001500098B998B18295807F892B88B94098419849
:10016000429A8FEF97E40197F1F700C000004298A0
:10017000089598B19F7098B998B1282F207F922B3D
:1001800098B9409A4198429AEFEFF7E43197F1F726
:1001900000C00000429898B19F7098B998B18295BC
:1001A000807F892B88B9409A4198429A8FEF97E4D3
:1001B0000197F1F700C000004298089580E8B4CF9D
:1001C0000895CF93DF93EC018881882329F021964D
:1001D000D0DF89918111FCCFDF91CF9108958230DA
:1001E00069F018F4813031F00895833059F084308B
:1001F00069F008958FE7860F97CF08958FEB860FEC
:1002000093CF089583E9860F8FCF089583ED860FEE
:100210008BCF08950F931F93CF93DF938A01E9014A
:10022000882311F0611102C0C9DF01C0D8DFC530D9
:10023000D10509F0D5C09801329522952F7023275A
:100240003F702327A7E4B3E00E94240B969587957F
:100250009695879596958795C09690935A02809328
:10026000590287DF9801369527953695279536955B
:100270002795A5ECB0E20E94240BAC015295429563
:100280004F7045275F70452750935D0240935C0295
:100290009A01ADECBCEC0E94240B9695879596953F
:1002A0008795969587959C01220F331F880F991F7C
:1002B000880F991F880F991F820F931F481B590B96
:1002C000CA01C096909373028093720252DF04C0F9
:1002D000C330D10509F089C0980136952795369528
:1002E0002795ABE7B4E10E94240BAC0156954795E6
:1002F00050935D0240935C029A01ADECBCEC0E940D
:10030000240B9695879596958795969587959C014C
:10031000220F331F880F991F880F991F880F991F6D
:10032000820F931F481B590BCA01C09690936E020F
:1003300080936D021EDF9801ADECBCEC0E94240B93
:10034000AC015695479556954795569547955093C8
:100350005D0240935C029A010E94240B969587955A
:1003600096958795969587959C01220F331F880F48
:10037000991F880F991F880F991F820F931F481B81
:10038000590BCA01C09690936A0280936902F1DE0C
:1003900003C0C130D105F9F49801ADECBCEC0E946A
:1003A000240B9695879596958795969587959C01AC
:1003B000220F331F880F991F880F991F880F991FCD
:1003C000820F931F081B190BC801C09690937102EE
:1003D00080937002CEDE269764F085E4CADE09C001
:1003E000C430D10509F074CF3DCFC230D10589F6B4
:1003F000A2CFDF91CF911F910F91089592B1907F7D
:100400008F70982B92B9089586E0F8CF089589E00F
:10041000F5CF089585E0F2CF08958AE0EFCF0895F3
:1004200080E0ECCF089586B1886088B9089586B1E0
:10043000877F88B908951092450210924602109263
:100440004702109248021092490210924A021092FA
:100450004B0210924C02BC0180E090E00E94960A90
:1004600028E431EE42E850E4CDD70E946A0A672BB7
:1004700011F4D6CF0895FFCF883018F098E090930C
:100480007B008770806280937C00EAE7F0E08081E7
:1004900080648083808184FFFDCF80917900EAE7CA
:1004A000F0E090819061908310927B0008951F92FC
:1004B0000F920FB60F9211248F939F93AF93BF9318
:1004C00080914D0290914E02A0914F02B091500246
:1004D0000196A11DB11D80934D0290934E02A093F1
:1004E0004F02B0935002BF91AF919F918F910F90A7
:1004F0000FBE0F901F90189510928900682F70E022
:1005000080E090E00E94960A2BE734E14EEE5FE334
:1005100079D720E030E04CE052E410D7DBD760938D
:10052000880008955E985F9808955E9A5F9A08958E
:100530005E985F9A0895F6DF10924D0210924E0277
:1005400010924F02109250022FEF8FE794E021504B
:1005500080409040E1F700C0000080914D029091F2
:100560004E02A0914F02B09150028093620290938C
:100570006302A0936402B093650261E081E02FDE24
:1005800085E192E01EDE409162025091630260912B
:1005900064027091650225E030E061E082E03ADEBD
:1005A0002FEF8FEF9CE2215080409040E1F700C098
:1005B000000081E0B9CD0895B8DF10924D0210928D
:1005C0004E0210924F02109250022FEF8FE794E0EC
:1005D000215080409040E1F700C0000080914D0222
:1005E00090914E02A0914F02B091500280935E0212
:1005F00090935F02A0936002B093610261E081E09A
:10060000EEDD80E292E0DDDD40915E0250915F021E
:10061000609160027091610225E030E061E082E06B
:10062000F9DD2FEF8FEF9CE2215080409040E1F701
:1006300000C0000081E078CD08957ADF10924D026D
:1006400010924E0210924F02109250022FEF8FE73D
:1006500094E0215080409040E1F700C0000080917C
:100660004D0290914E02A0914F02B09150028093A2
:10067000510290935202A0935302B093540261E04E
:1006800081E0ADDD8DE292E09CDD40915102509120
:100690005202609153027091540225E030E061E013
:1006A00082E0B8DD2FEF8FEF9CE221508040904038
:1006B000E1F700C0000081E037CD089583E0DCDE83
:1006C00080935B0282E0D8DE80936F0281E0D4DE0B
:1006D000809367020895CF93DF9385E090E0909335
:1006E000560280935502C3E0D0E094DE23E030E070
:1006F00049E053E067E082E08DDD80915502909102
:10070000560299DE8DDEDADF80916F02893268F45D
:100710002197209751F781DE80916F02883228F46B
:10072000CDDF80916F028832D8F3DF91CF910895A9
:10073000D2DF76CE0895FF920F931F93CF93DF936E
:1007400008E211E00F2EF8ECFF2EF02DCAE2D1E006
:10075000B5DF80916F02893250F080915B0289325F
:1007600020F480916702893210F04EDE0AC04CDE20
:10077000F801F082F88280916F02893248F7D8DF61
:10078000DADFDF91CF911F910F91FF9008953CDE4A
:1007900044DE8AE590E04FCE089536DE3BDE84E607
:1007A00090E049CE08953FDE42CE0895FCDF35DE6D
:1007B0008EEB90E040CE08958130910551F082306B
:1007C000910549F08330910541F0049741F482E0AE
:1007D000089583E0089584E0089581E0089580E01D
:1007E0000895611102C088CE0895613031F48D32D0
:1007F00011F480E001C08DE27FCE0895811106C022
:1008000010928B0083E880938A000895813029F448
:1008100010928D0083E880938C000895811106C0AA
:1008200010928B0083E280938A000895813029F42E
:1008300010928D0083E280938C000895CF93C82F8F
:10084000682F80E0CEDF8C2FD9DF8C2FE7DF6C2F75
:100850008DE2C7DFCF910895CF93C82F682F80E036
:10086000C0DF8C2FCBDF6C2F8DE2BBDF8C2FD6DF70
:10087000CF910895CF93282F30E0F901E45CFD4F2C
:100880006081611127C070910002472F50E0FA018A
:10089000EE0FFF1FE20FF31FE55FFD4F9081E92F81
:1008A000F0E0EA5FFD4FE0817E1709F447C099232D
:1008B00009F449C0F901E45CFD4F9083FA01EE0FA1
:1008C000FF1F2E0F3F1FF901E55FFD4F1082B6DFBE
:1008D00091E039C0C1E08111C0E04C2F50E0FA0135
:1008E000E45CFD4F808181112BC0A09100026A2F32
:1008F00070E0FB01EE0FFF1FE40FF51FE55FFD4FFA
:100900009081E92FF0E0EA5FFD4FE081AE17D1F072
:100910009923C9F0DA01A45CBD4FFB01EE0FFF1F64
:100920002E0F3F1FF901E55FFD4F80818C931082F0
:100930003DDF8C2F83DF3ADF91E005C0962F03C0A7
:1009400090E001C0982F892FCF910895CF93A09167
:1009500000024A2F50E0282F30E0FA01EE0FFF1F6F
:10096000E20FF31FE55FFD4F908191113DC0F9014A
:10097000E45CFD4F6081E62FF0E0EA5FFD4F70819F
:10098000A7130FC0FA01EE0FFF1FE20FF31FE55F81
:10099000FD4F6083F901E45CFD4F10825DDF91E063
:1009A00024C0C1E08111C0E06C2F70E0FB01E45C69
:1009B000FD4F8081E82FF0E0EA5FFD4FE081AE134C
:1009C00014C0FA01EE0FFF1F2E0F3F1FF901E55F64
:1009D000FD4F8083FB01E45CFD4F1082E7DE8C2F2E
:1009E0003BDFE4DE91E001C090E0892FCF910895D4
:1009F00090910002292F217030E0F901ED5BFD4F4D
:100A0000908191110EC0E82FF0E0D901AD5BBD4F90
:100A1000E45CFD4F90819C9310821EDF81E090E0AA
:100A2000089580E090E00895282F30E0F901E45C1B
:100A3000FD4F908191110BC0DF01F901ED5BFD4F7E
:100A400090819C931082FADE81E090E0089591E01D
:100A5000811190E0492F50E0FA01E45CFD4F808164
:100A600081110CC0DF01F901ED5BFD4F80818C939A
:100A70001082892FE3DE81E090E0089580E090E02D
:100A80000895CF93DF9380910002861320C0909148
:100A90003C02992309F469C020913D02222309F404
:100AA00064C0E82FF0E0E25CFD4F308131115DC0A1
:100AB000921739F0E22FF0E0EA5FFD4F9081891341
:100AC00003C080E095DF51C081E092DF4EC0962FD9
:100AD000982790FF15C0D82FD170ED2FF0E0ED5B77
:100AE000FD4FE081F0E0EA5FFD4FC081C61729F0BD
:100AF000862F90E061DEC81338C08D2F95DF35C09A
:100B00008170E82FF0E0ED5BFD4FE081F0E0EA5FFF
:100B1000FD4FE081E61329C090913D02911106C07E
:100B200090913C02911106C07FDF1FC090913C0262
:100B3000911108C0F0E0E25CFD4F90819130A9F482
:100B400073DF13C0AE2FB0E0A25CBD4F8C9181115A
:100B50000CC0A92FB0E0AA5FBD4F8C91E81303C071
:100B600080E046DF02C081E043DFDF91CF9108954E
:100B7000CF93C82FE0DD809100026C2F817081DF60
:100B800080910002813029F4C23061F1C43091F4C7
:100B90001FC0843039F4C13081F1C33091F422C0D8
:100BA000F6DD0FC0823031F4C33009F42FC0C130FC
:100BB00041F437C0833029F4C43009F432C0C23064
:100BC00029F1C0930002B7DD2BDC2ADCECDD34C058
:100BD000E4DDB1DDB0DD84E08093000264E080E01C
:100BE00050DFDECFDADDA7DDA6DDC09300026C2F7B
:100BF0008C2F817046DFD1DDE4CFCFDD9CDD9BDD26
:100C000081E08093000261E03CDFCACFC0DD93DD6C
:100C100092DDC09300026C2F8C2F817032DFBDDD1E
:100C2000D0CFB5DD88DD87DDC09300026C2F8C2F1F
:100C3000817027DFACDDC5CFCF9108951F93CF938F
:100C4000DF9310910002C12FD0E0CE01B5DD1092EC
:100C50003B0210923A02FE01EE0FFF1FE55FFD4FCF
:100C60009081E92FF0E0EA5FFD4F2081281304C056
:100C700091E090933B0207C0992329F0121719F0D5
:100C800091E090933A02CC0FDD1FC55FDD4F998153
:100C9000E92FF0E0EA5FFD4F2081281306C0809124
:100CA0003B028F5F80933B0209C0992339F01217F2
:100CB00029F080913A028F5F80933A02DF91CF91C1
:100CC0001F91089581E08093680280913F02811115
:100CD00010C00DC082E003C083E001C084E08093B7
:100CE0006802089585E08093680280E0089581E0BD
:100CF000089580914002882369F3809141028823FE
:100D000059F3809142028111EDCFE8CF80916F02BB
:100D1000893218F07CDBD2CC08950ADDF7CF089534
:100D20000ADC8BDC49DC8091050290E0A0E0B0E0B9
:100D30004091620250916302609164027091650279
:100D400084179507A607B707D0F440915E0250912B
:100D50005F02609160027091610284179507A60797
:100D6000B70768F4409151025091520260915302CA
:100D70007091540284179507A607B70720F0809159
:100D8000010290E0089540916202509163026091E7
:100D90006402709165028091510290915202A0917B
:100DA0005302B091540284179507A607B707E8F4D9
:100DB00040916202509163026091640270916502F9
:100DC00080915E0290915F02A0916002B0916102F9
:100DD00084179507A607B70720F48091040290E0D6
:100DE00008958091030290E008954091510250913E
:100DF0005202609153027091540280915E02909170
:100E00005F02A0916002B091610284179507A60766
:100E1000B70720F48091020290E0089580910302C8
:100E200090E00895CF93DF93811102C0B0DC01C040
:100E3000B4DC76DFEC01ABDCCE019927DF91CF91FA
:100E4000089580E0EFDFE0910002F0E0EE0FFF1F79
:100E5000E55FFD4F408150E021E030E061E082E05D
:100E6000D9D981E0DFDFE0910002F0E0E25CFD4FE4
:100E700081E080830895FF920F931F93CF93DF93B8
:100E800000910002C02FD0E0CE0196DC182FFE01A9
:100E9000EE0FFF1FE55FFD4FE081F0E0EA5FFD4FE1
:100EA000F080C25CDD4F8881811101C0CADFC6DEDF
:100EB00080E0E0DC81E0DEDC80913A02823039F4CF
:100EC000E0913C02F0E0EA5FFD4F10812FC090916D
:100ED0003B02913059F18130E1F4E12FF0E0E25C26
:100EE000FD4F8081882311F1E1E0F110E0E081E025
:100EF0000F1180E0E82B81E0F11280E08E2BE82FCB
:100F0000F0E0E45CFD4FE081F0E0EA5FFD4F10812E
:100F10000DC0923059F0E12FF0E0E25CFD4F80818E
:100F2000882311F0CFDE182F112379F080913C0235
:100F3000811108C080913D02811104C0812F18DE0B
:100F40009ADF03C0812F14DE06D0DF91CF911F916D
:100F50000F91FF900895CF92DF92EF92FF920F933F
:100F60001F93CF93DF930091000210E0C80124DCAF
:100F7000D82EF801E25CFD4F8081811101C061DF54
:100F80005DDE90910002292F30E0F901EE0FFF1F86
:100F9000E55FFD4F50810D2D10E0F801EA5FFD4F38
:100FA000408181E0541380E0C82E692F6170C62F04
:100FB00060E0D62FCD5BDD4F6881E62FF0E0EA5F81
:100FC000FD4F70819713ADC060913A02623039F5E0
:100FD000D901AA0FBB1FA55FBD4F11968C91581365
:100FE0000AC0E52FF0E0EA5FFD4FD08080E042DCF0
:100FF00081E040DC86C0E52FF0E0EA5FFD4FD08065
:1010000080E038DC80E0A2DC96DB80E00DDD81E072
:10101000EFDC7CDE81E02EDC81E098DC72C0925057
:10102000C1E0923008F0C0E0613009F046C0909114
:101030003B02913091F48C2D1DDC8C2D87DC7BDB09
:101040008C2FF2DC8C2FD4DC61DEC1E0C110C0E05B
:101050008C2F10DC8C2F7ADC54C0F801E25CFD4F41
:101060009081992309F44DC0F801EE0FFF1FE55F51
:10107000FD4F9081491345C0F801EE0FFF1FE55F5A
:10108000FD4F918149133DC0220F331FF901E80F35
:10109000F11DE55FFD4FE081F0E0EA5FFD4FD0809C
:1010A0008C2DE8DB8C2D52DC46DB8C2FBDDC2EDE5C
:1010B00081E0C11080E04ADC24C080913B02813095
:1010C00071F48C2D43DC37DB8C2FAEDC1FDEC1E0EE
:1010D000C110C0E08C2FCEDB8C2F38DC12C08230E8
:1010E00079F480E0C7DB80E031DC25DB8C2F9CDCF1
:1010F0008C2F7EDC0BDE81E0BDDB81E027DC01C0D4
:10110000D12C80913C02811108C080913D02811157
:1011100004C08D2D2DDDAFDEF1C08D2D29DD1BDF4F
:10112000EDC090913A02923009F048C0F901EE0FFB
:10113000FF1FE55FFD4F818158130EC0E52FF0E0E2
:10114000EA5FFD4FD08080E095DB80E0FFDB81E04F
:1011500091DB81E0FBDBD2C056130BC080E08ADB61
:1011600080E0F4DBE0913C02F0E0EA5FFD4FD080EC
:10117000C5C068130BC081E07DDB81E0E7DBE09157
:101180003D02F0E0EA5FFD4FD080B8C0E52FF0E00F
:10119000EA5FFD4FD080ED2DF0E0E25CFD4F9081E5
:1011A000913029F0E82FF0E0EA5FFD4FD08080E039
:1011B00061DB80E0CBDB81E05DDBA0C0913041F5FD
:1011C00090913B029130A1F461110AC0C1E08111FC
:1011D000C0E08C2F4FDB8C2FB9DB8C2D4BDB8EC00E
:1011E000C1E08111C0E08C2F45DB8C2FAFDB86C0C6
:1011F000F901EE0FFF1FE80FF11DE55FFD4FE081E4
:10120000F0E0EA5FFD4FD08035DB8C2D9FDB76C0B0
:1012100080913B02813041F4C1E0C110C0E08C2FCD
:1012200029DB8C2F93DB6AC0823071F4662329F0AE
:1012300080E020DB80E08ADB61C080E01BDB80E0B7
:1012400085DB81E017DB5AC080E080DB81E07EDB5C
:10125000F801E25CFD4F8081882309F44FC02091A2
:101260003F028091400290E0820F911D2091410247
:10127000820F911D20914202820F911D03971CF451
:1012800021DDD82E3BC08091000280FBEE24E0F8E7
:10129000F12CF701ED5BFD4FE081EE2329F0F0E04A
:1012A000EA5FFD4FD0802AC0E82FF0E03196E17070
:1012B000F078ED5BFD4FE081EE2329F0F0E0EA5F8E
:1012C000FD4FD0801BC0E0913C02EE2329F0F0E0FE
:1012D000EA5FFD4FD0801EC0E0913D02EE2329F071
:1012E000F0E0EA5FFD4FD0800DC080914302811194
:1012F00015C080914402811113C0FFCF80913C0240
:10130000811108C080913D02811104C08D2D30DC17
:10131000B2DD08C08D2D2CDC1EDE04C0D12CF2CF36
:10132000D12CF0CFDF91CF911F910F91FF90EF90D3
:10133000DF90CF9008959FDDFFCF5058BB27AA279D
:101340000ED048C139D130F03ED120F031F49F3F6A
:1013500011F41EF42EC10EF4E095E7FB24C1E92F31
:101360004AD180F3BA17620773078407950718F00C
:1013700071F49EF562C10EF4E0950B2EBA2FA02DEC
:101380000B01B90190010C01CA01A0011124FF2732
:10139000591B99F0593F50F4503E68F11A16F0402D
:1013A000A22F232F342F4427585FF3CF469537952C
:1013B0002795A795F0405395C9F77EF41F16BA0BF1
:1013C000620B730B840BBAF09150A1F0FF0FBB1F9F
:1013D000661F771F881FC2F70EC0BA0F621F731FE8
:1013E000841F48F4879577956795B795F7959E3F45
:1013F00008F0B3CF9395880F08F09927EE0F9795D3
:10140000879508950CD0E6C0DED040F0D5D030F0FE
:1014100021F45F3F19F0C7C0511110C1CAC0EBD011
:1014200098F39923C9F35523B1F3951B550BBB27AB
:10143000AA2762177307840738F09F5F5F4F220F58
:10144000331F441FAA1FA9F333D00E2E3AF0E0E851
:1014500030D091505040E695001CCAF729D0FE2F9D
:1014600027D0660F771F881FBB1F2617370748072F
:10147000AB07B0E809F0BB0B802DBF01FF279358E5
:101480005F4F2AF09E3F510568F08DC0D7C05F3F87
:10149000ECF3983EDCF3869577956795B795F795CD
:1014A0009F5FC9F7880F911D9695879597F90895C5
:1014B000E1E0660F771F881FBB1F62177307840761
:1014C000BA0720F0621B730B840BBA0BEE1F88F770
:1014D000E095089598D088F09F5790F0B92F9927FC
:1014E000B751A0F0D1F0660F771F881F991F1AF02F
:1014F000BA95C9F712C0B13081F09FD0B1E008951C
:101500009CC0672F782F8827B85F39F0B93FCCF39C
:10151000869577956795B395D9F73EF49095809524
:10152000709561957F4F8F4F9F4F0895E89409C044
:1015300097FB3EF490958095709561957F4F8F4F06
:101540009F4F9923A9F0F92F96E9BB279395F6951C
:10155000879577956795B795F111F8CFFAF4BB0F9A
:1015600011F460FF1BC06F5F7F4F8F4F9F4F16C0FE
:10157000882311F096E911C0772321F09EE8872F88
:10158000762F05C0662371F096E8862F70E060E044
:101590002AF09A95660F771F881FDAF7880F9695BD
:1015A000879597F9089597F99F6780E870E060E064
:1015B00008959FEF80EC089500240A9416161706EC
:1015C00018060906089500240A9412161306140634
:1015D00005060895092E0394000C11F4882352F097
:1015E000BB0F40F4BF2B11F460FF04C06F5F7F4F4F
:1015F0008F4F9F4F089557FD9058440F551F59F036
:101600005F3F71F04795880F97FB991F61F09F3FEF
:1016100079F087950895121613061406551FF2CF18
:101620004695F1DF08C0161617061806991FF1CF68
:1016300086957105610508940895E894BB2766278F
:101640007727CB0197F90895A29FB001B39FC001FE
:10165000A39F700D811D1124911DB29F700D811DDE
:0A1660001124911D0895F894FFCFA6
:10166A000104030201E8000104020300000202036C
:10167A0004040301015265642050756C736573009C
:10168A00477265656E2050756C73657300426C75A0
:0A169A00652050756C736573000045
:00000001FF
