S00C0000536F72742E7372656370
S113000071C000000CC300008EC000008CC0000052
S11300108AC0000088C0000086C0000084C00000C0
S113002082C0000080C000007EC000007CC00000D0
S11300307AC0000078C0000076C0000074C00000E0
S113004072C0000070C000006EC000006CC00000F0
S11300506AC0000068C0000066C0000064C0000000
S113006062C0000060C000005EC000005CC0000010
S11300705AC0000058C0000056C0000054C0000020
S113008052C0000050C000004EC000004CC0000030
S11300904AC0000048C0000046C0000044C0000040
S11300A042C0000040C000003EC000003CC0000050
S11300B03AC0000038C0000036C0000034C0000060
S11300C032C0000030C000002EC000002CC0000070
S11300D02AC0000028C0000026C0000024C0000080
S11300E022C0000011241FBECFEFD1E2DEBFCDBF7E
S11300F000E00CBF12E0A0E0B2E0EEE8FCE200E0B9
S11301000BBF02C007900D92A634B107D9F722E0C5
S1130110A6E4B2E001C01D92AA3AB207E1F70E9438
S113012028140C9445166CCF86E69EE00197F1F7EF
S113013000004098419880E388B9429A8FEF97E491
S11301400197F1F700C00000429886E69EE001970F
S1130150F1F700004098419880E388B9429A8FEF04
S113016097E40197F1F700C00000429886E69EE00C
S11301700197F1F700004098419880E388B9429ACA
S11301808FEF97E40197F1F700C00000429886E6EC
S11301909EE00197F1F700004098419880E288B909
S11301A0429A8FEF97E40197F1F700C0000042985C
S11301B0089598B19F7098B998B1282F207F922BF9
S11301C098B940984198429AEFEFF7E43197F1F7E4
S11301D000C00000429898B19F7098B998B1829578
S11301E0807F892B88B940984198429A8FEF97E491
S11301F00197F1F700C000004298089595DF86E664
S11302009EE00197F1F7000088E2D3DF81E0D1DFBF
S113021086E0CFDF8EE0CDDF80E8CBCF089598B1C4
S11302209F7098B998B1282F207F922B98B9409A43
S11302304198429AEFEFF7E43197F1F700C00000DC
S1130240429898B19F7098B998B18295807F892B14
S113025088B9409A4198429A8FEF97E40197F1F751
S113026000C000004298089580E8A3CF0895CF937A
S1130270DF93EC018881882329F02196D0DF8991CE
S11302808111FCCFDF91CF910895823069F018F489
S1130290813031F00895833059F0843069F0089545
S11302A08FE7860F86CF08958FEB860F82CF089550
S11302B083E9860F7ECF089583ED860F7ACF089564
S11302C00F931F93CF93DF938A01E901882311F0E1
S11302D0611102C0C9DF01C0D8DFC530D10509F002
S11302E0D5C09801329522952F7023273F7023277C
S11302F0A7E4B3E00E942216969587959695879574
S113030096958795C096909366028093650287DFE1
S11303109801369527953695279536952795A5EC1A
S1130320B0E20E942216AC01529542954F704527C7
S11303305F70452750936A02409369029A01ADECBD
S1130340BCEC0E942216969587959695879596956E
S113035087959C01220F331F880F991F880F991FBF
S1130360880F991F820F931F481B590BCA01C0960F
S11303709093A9028093A80252DF04C0C330D10530
S113038009F089C098013695279536952795ABE7EE
S1130390B4E10E942216AC015695479550936A0227
S11303A0409369029A01ADECBCEC0E94221696952A
S11303B0879596958795969587959C01220F331F6F
S11303C0880F991F880F991F880F991F820F931FF9
S11303D0481B590BCA01C09690939F0280939E02BA
S11303E01EDF9801ADECBCEC0E942216AC015695C0
S11303F04795569547955695479550936A0240936D
S113040069029A010E94221696958795969587957A
S1130410969587959C01220F331F880F991F880F8B
S1130420991F880F991F820F931F481B590BCA01EC
S1130430C09690937B0280937A02F1DE03C0C130B0
S1130440D105F9F49801ADECBCEC0E942216969506
S1130450879596958795969587959C01220F331FCE
S1130460880F991F880F991F880F991F820F931F58
S1130470081B190BC801C0969093A7028093A6028B
S1130480CEDE269764F085E4CADE09C0C430D10507
S113049009F074CF3DCFC230D10589F6A2CFDF91E8
S11304A0CF911F910F910895E1E2F1E010828FEF57
S11304B08093250191E09093240110922901809367
S11304C0280110922B0180932A0110922D01809310
S11304D02C0189EA809320018BE08083089581B107
S11304E08F6081B982B1807F82B9EAE0F1E08081D6
S11304F088618083EBE0F1E08081886180830895E6
S113050092B1907F8F70982B92B9089586E0F8CFBE
S1130510089587B1876F87B988B1807888B90895BD
S11305208AB18E6F8AB9589A089510BA11BA109286
S11305300701109208010895259A2D9A0895269A84
S11305402E9A0895279A2F9A0895E1E8F0E01082F0
S11305508CEF8093850081E08093840093E09093F6
S113056089008FEF8093880090938B0080938A009A
S113057090938D0080938C009093870080938600E5
S11305808BEA80938000109282008CE0808308952F
S1130590C0DFCBDF3B9A4398CFDFD1DFD3DFC0CFBF
S11305A0089586B1886088B9089586B1877F88B92F
S11305B00895883018F098E090937B0087708062EB
S11305C080937C00EAE7F0E080818064808380810E
S11305D084FFFDCF80917900EAE7F0E0908190619B
S11305E0908310927B000895CF93DF93C82FD62F6A
S11305F0842FDFDF80937302482F50E023E030E044
S11306006D2F8C2F5DDEDF91CF910895F894E9E68C
S1130610F0E0808182608083E89A789408951F9244
S11306200F920FB60F9211248F939F93AF93BF93A2
S11306308091510290915202A0915302B0915402C0
S11306400196A11DB11D8093510290935202A09373
S11306505302B0935402BF91AF919F918F910F9029
S11306600FBE0F901F901895EAE7F0E010821092E9
S11306707B0080E280937C0080E880BF86E88083F2
S11306800895F89485DFC2DFEFDF29DF0DDF5DDF3A
S11306907894089510928900682F70E080E090E0CB
S11306A00E9481152BE734E14EEE5FE30E94ED14C6
S11306B020E030E04CE052E40E9489140E94551579
S11306C06093880008955E985F9808955E9A5F9A93
S11306D008955E985F9A08955C9A5D9A0895F3DF91
S11306E0109251021092520210925302109254022C
S11306F02FEF8FE794E0215080409040E1F700C055
S113070000008091510290915202A0915302B09145
S1130710540280936F0290937002A0937102B0937D
S113072072022FEF8FEF9CE2215080409040E1F75E
S113073000C000000895CADF1092510210925202C4
S113074010925302109254022FEF8FE794E021503D
S113075080409040E1F700C00000809151029091E8
S11307605202A0915302B091540280936B02909371
S11307706C02A0936D02B0936E020895AADF1092EA
S113078051021092520210925302109254022FEF0F
S11307908FE794E0215080409040E1F700C00000D2
S11307A08091510290915202A0915302B09154024F
S11307B080935F0290936002A0936102B0936202FF
S11307C0089583E0F6DE8093480282E0F2DE8093AF
S11307D0470281E0EEDE80934602089543E061E043
S11307E081E002DF42E065E081E0FEDE41E069E0B5
S11307F081E0FACE0895DF92EF92FF920F931F9358
S1130800CF93DF9308E211E00F2EF8ECFF2EF02DCA
S1130810CAE2D1E00F2EF0EFEF2EF02D0F2EFCEDFB
S1130820DF2EF02D73DEF801F082E882D7DFC9DF16
S1130830D5DF809147028932C8F0B3DE67DEF80164
S1130840D082F882FCEC2CEC81E0F1502040804016
S1130850E1F700C080914702893240F0809148025C
S1130860883200F3809146028832E0F29EDEDF9106
S1130870CF911F910F91FF90EF90DF900895DF9239
S1130880EF92FF920F931F93CF93DF9308E211E04F
S11308900F2EF0EFEF2EF02DCAE2D1E00F2EF8EC80
S11308A0FF2EF02D0F2EFCEDDF2EF02D2FDEF801A4
S11308B0E082F88293DF85DF91DF809147028932FD
S11308C0C8F06FDE23DEF801F082D882FCEC2CEC59
S11308D081E0F15020408040E1F700C08091470260
S11308E0893240F080914802883200F380914602B8
S11308F08832E0F25ADEDF91CF911F910F91FF9081
S1130900EF90DF9008955DDF80914802893240F0D6
S113091072DF57DF63DF809148028932C8F7089598
S113092090914602993240F0AADF4BDF57DF809165
S113093046028932C8F70895883260F4983250F438
S1130940E5DD2CEC8CEC91E0215080409040E1F707
S113095000C0D9CF0895FF920F931F93CF93DF93D5
S113096030DF08E211E00F2EFAEFFF2EF02DCAE27D
S1130970D1E012C026DF32DFC9DDF801F082F8824F
S113098080914702893240F080914802893290F484
S113099080914602893270F480914702893240F096
S11309A080914602883220F480914802883210F304
S11309B0AADFD1DFDF91CF911F910F91FF900895AE
S11309C0CF93DF93EC0181E0F4DB61E081E05DDC57
S11309D0CE014DDCDF91CF9108958F929F92AF921B
S11309E0BF92CF92DF92EF92FF920F931F93CF9318
S11309F0DF93CDB7DEB728970FB6F894DEBF0FBEEE
S1130A00CDBF84E092E0DCDF6ADEB8DE94DE1A82D9
S1130A1019821C821B821E821D82A0E0B0E000E0CD
S1130A2010E0E0E0F0E024E030E080E090E0C0900E
S1130A306F02D0907002E0907102F09072024091C7
S1130A406B0250916C0260916D0270916E024C15B4
S1130A505D056E057F0508F053C0C0906F02D0900D
S1130A607002E0907102F090720240915F02509126
S1130A70600260916102709162024C155D056E0521
S1130A807F05F0F540916F02509170026091710200
S1130A90709172026D01EE24D7FCE094FE2C4C158B
S1130AA05D056E057F05E8F440916F025091700278
S1130AB060917102709172026C01EE24D7FCE09493
S1130AC0FE2CC416D506E606F70608F0C2C040910F
S1130AD06F025091700260917102709172027A01FA
S1130AE0BDC0A817B9070CF4DC0180906F02909088
S1130AF07002A0907102B09072027D01D401AEC068
S1130B00C0905F02D0906002E0906102F0906202B7
S1130B1040916B0250916C0260916D0270916E0273
S1130B204C155D056E057F0508F055C0C0906F0239
S1130B30D0907002E0907102F090720240915F02D6
S1130B40509160026091610270916202C416D506F0
S1130B50E606F70608F03FC040915F02509160023C
S1130B6060916102709162026801EE24D7FCE09406
S1130B70FE2C4C155D056E057F05E8F440915F027F
S1130B805091600260916102709162026C01EE24E6
S1130B90D7FCE094FE2CC416D506E606F70608F04A
S1130BA05AC040915F02509160026091610270915D
S1130BB062027A0153C0A801081719070CF4AC01AA
S1130BC0C0905F02D0906002E0906102F0906202F7
S1130BD086017A0143C040916B0250916C0260918E
S1130BE06D0270916E026F01EE24D7FCE094FE2C2E
S1130BF04C155D056E057F05E0F440916B02509144
S1130C006C0260916D0270916E026C01EE24D7FC4F
S1130C10E094FE2CC416D506E606F706F0F44091DF
S1130C206B0250916C0260916D0270916E027A01B8
S1130C3015C0AF01E817F9070CF4AC01C0906B02C2
S1130C40D0906C02E0906D02F0906E02F6017A0191
S1130C5005C07C0103C07C0101C07C012150310925
S1130C602115310511F0C701E2CE61E081E00DDB11
S1130C708FE092E0FCDA28ECE20EF11C25E030E093
S1130C80A70161E082E01CDB3FEF8FEF96E721E0F4
S1130C903150804090402040D9F700C0000081E0EE
S1130CA088DAC7018DDEC70128960FB6F894DEBF37
S1130CB00FBECDBFDF91CF911F910F91FF90EF90A9
S1130CC0DF90CF90BF90AF909F908F90089543DEB8
S1130CD080916702909168020196909368028093D4
S1130CE0670208958091670290916802019690933B
S1130CF068028093670208958091490290914A02A4
S1130D00019683709078992324F401978C6F9F6FD8
S1130D10019690934A028093490208958091490272
S1130D2090914A02039683709078992324F4019752
S1130D308C6F9F6F019690934A02809349020895A5
S1130D408091490290914A02029683709078992387
S1130D5024F401978C6F9F6F019690934A028093BD
S1130D6049020895CF93DF93EC010497029788F525
S1130D70C430D10539F48091490290914A02892BFB
S1130D8051F00BC0C530D10541F4809149029091D6
S1130D904A02029711F4B0DF01C0C0DF98DF97DF89
S1130DA0249739F485E090E090934C0280934B02B1
S1130DB006C084E090E090934C0280934B028091B3
S1130DC0670290916802029690936802809367028A
S1130DD023C022973CF48091490290914A02892BC6
S1130DE039F008C08091490290914A02029711F4A7
S1130DF079DF01C06CDF8091780290917902817073
S1130E009078992324F401978E6F9F6F019604962E
S1130E1090934C0280934B02DF91CF9108950F93EE
S1130E201F935DDCABDC87DC80915D0290915E02F8
S1130E30AA2797FDA095BA2F40916F025091700296
S1130E406091710270917202481759076A077B0713
S1130E50D8F440916B0250916C0260916D027091D4
S1130E606E02481759076A077B0770F440915F02C6
S1130E7050916002609161027091620248175907B3
S1130E806A077B0708F446C040916F0250917002D4
S1130E90609171027091720280915F029091600280
S1130EA0A0916102B091620284179507A607B70763
S1130EB0C8F400916F021091700220917102309178
S1130EC0720240916B0250916C0260916D027091BC
S1130ED06E0281E090E04017510762077307F8F44F
S1130EE080E01DC040915F025091600260916102F8
S1130EF07091620280916B0290916C02A0916D02DC
S1130F00B0916E0284179507A607B70730F482E004
S1130F1090E005C083E090E002C081E090E01F9182
S1130F200F910895CF93DF93CCE8D2E0ECE7F2E0A1
S1130F30A5E5B2E080E090E02EEF3FEF899399932E
S1130F4033832283318320831D921D92019634962C
S1130F508430910599F7E0918C02F0918D02EE0FA7
S1130F60FF1FEC56FD4F11821082E0918E02F0912A
S1130F708F02EE0FFF1FEC56FD4F81E090E091834E
S1130F808083E0919002F0919102EE0FFF1FEC56E6
S1130F90FD4F82E090E091838083E0919202F09192
S1130FA09302EE0FFF1FEC56FD4F83E090E0918318
S1130FB080838FEF9FEF90937702809376029093D4
S1130FC07502809374029093A3028093A20290937B
S1130FD0A1028093A002DF91CF910895CF93DF9374
S1130FE0809178029091790220914B0230914C02C9
S1130FF08217930789F12091490230914A022D7F8B
S11310002130310549F48330910511F0892B11F415
S113101073DE01C083DE5BDE8091780290917902F9
S11310208230910538F42091490230914A022230ED
S1131030310549F00297029738F480914902909162
S11310404A02892B09F44EDE80917802909179024C
S113105090934C0280934B02809178029091790294
S11310608230910530F42091490230914A02232BB9
S113107049F00297029740F48091490290914A0204
S1131080029711F439DE01C049DEC0917802D09193
S11310907902C5DECC0FDD1FCC0FDD1FC458DD4F38
S11310A0998388832091780230917902F901EE0FB7
S11310B0FF1FEE0FFF1FE458FD4F808191818F3F8A
S11310C04FEF940751F0F901EE0FFF1FE457FD4F66
S11310D0208131818217930749F480910002909115
S11310E0010201979093010280930002DF91CF9156
S11310F00895CF93DF9380917802909179028230A2
S1131100910530F42091490230914A02232B69F071
S11311109C01225031092230310548F440914902A2
S113112050914A024230510511F4F8DD14C002977F
S113113030F48091490290914A02029749F022309A
S1131140310540F48091490290914A02892B11F4AF
S1131150D3DD01C0F5DDC0917802D09179025FDE64
S1131160CC0FDD1FCC0FDD1FC458DD4F9B838A835A
S11311708091780290917902FC01EE0FFF1FEE0F2F
S1131180FF1FE458FD4F228133812F3F4FEF340777
S113119051F0FC01EE0FFF1FE457FD4F40815181D8
S11311A02417350751F42091000230910102215097
S11311B031093093010220930002FC01EE0FFF1F5E
S11311C0EB5AFD4F81E090E09183808380914D0242
S11311D090914E02019690934E0280934D02DF91BE
S11311E0CF910895611102C055CA0895613031F458
S11311F08D3211F480E001C08DE24CCA0895811152
S113120006C010928B0083E880938A000895813091
S113121029F410928D0083E880938C000895811145
S113122006C010928B0083E280938A000895813077
S113123029F410928D0083E280938C000895CF935B
S1131240C82F682F80E0CEDF8C2FD9DF8C2FE7DF0B
S11312506C2F8DE2C7DF8091020290910302019707
S11312609093030280930202CF9108950F931F93EA
S1131270CF93DF938C01EB0186E399E0A1DB20910E
S1131280780230917902F801EE0FFF1FE056FD4F0E
S1131290D901AA0FBB1FAC0FBD1FAA0FBB1FA458B7
S11312A0BD4F8D919C919183808380914B0290914D
S11312B04C022817390709F075C0C90122303105DD
S11312C030F44091490250914A02452B61F022507A
S11312D031092230310568F44091490250914A02A3
S11312E04230510531F40C171D0709F448C028DDBC
S11312F046C08230910538F44091490250914A0227
S11313004230510549F02230310558F440914902E8
S113131050914A02452B29F40C171D0781F510DD65
S11313202EC08230910538F44091490250914A020E
S11313304130510551F02230310560F440914902A9
S113134050914A024330510529F40C171D07B9F096
S1131350D3DC15C0029730F48091490290914A027F
S1131360039749F02230310550F48091490290915D
S11313704A02019721F40C171D0709F4BDDCC801CA
S11313805EDF8091780290917902880F991FC80FCF
S1131390D91FCC0FDD1FC458DD4F8FEF9FEF99830A
S11313A0888350C030934C0220934B0280914902B1
S11313B090914A02009719F00297D1F404C02230A8
S11313C0310570F405C0225031092230310540F452
S11313D00C171D0711F47BDC23C079DCB1DC20C0C1
S11313E00C171D0719F4ACDC72DC1AC07BDC18C0C6
S11313F00C171D0759F42115310519F02330310557
S113140011F47ADC01C08ADC62DC0AC021153105E2
S113141019F02330310511F481DC01C06DDC62DC8C
S1131420C8010DDF8091780290917902880F991F8D
S1131430C80FD91FCC0FDD1FC458DD4F8FEF9FEFAE
S113144099838883DF91CF911F910F9108950F9312
S11314501F93CF93DF93EC018B0189E192E0B0DA23
S1131460FE01EE0FFF1FE056FD4FD801AA0FBB1F70
S1131470AC58BD4F8D919C9191838083C017D10747
S113148039F48091490290914A02892B49F406C0AB
S11314908091490290914A02029711F451DC0CC0E8
S11314A08091490290914A028D7F019729F42097F7
S11314B011F434DC01C020DCCE01C1DEF801EE0FF2
S11314C0FF1FEC58FD4F8FEF9FEF91838083DF91D7
S11314D0CF911F910F910895EF92FF920F931F9355
S11314E0CF93DF9382E292E06BDA2091780230911D
S11314F079022230310530F48091490290914A02F8
S1131500029779F0C9010297029780F48091490209
S113151090914A02892B79F0C1E0D0E000E010E01C
S11315200EC0C0E0D0E001E010E009C0C1E0D0E0AE
S113153000E010E004C0C0E0D0E001E010E0F901F8
S1131540EE0FFF1FEB5AFD4F80819181892B79F4B7
S1131550F901EE0FFF1FEE0FFF1FE458FD4F8081CE
S11315609181029619F43ADDC4DD01C0C2DD2091F7
S1131570780230917902F901EE0FFF1FEE0FFF1F81
S1131580E458FD4F40815181F901EE0FFF1FE457EC
S1131590FD4F808191814817590721F04F3F6FEF2C
S11315A0560789F4F901EE0FFF1FEE0FFF1FE458F1
S11315B0FD4F628173818617970709F4EEC16F3F6F
S11315C07F4F09F4EAC16091020270910302623014
S11315D0710509F0B0C0E0919C02F0919D02DF0119
S11315E0AA0FBB1FA457BD4F6D917C914617570797
S11315F079F0D901AA0FBB1FAA0FBB1FA458BD4F76
S11316001296ED90FC9013976E157F0559F405C062
S113161060E070E0C8012ADE8EC061E070E0CE01B7
S113162025DE89C08E159F0509F44EC0EF20E09495
S113163009F44AC04817590769F04F3FAFEF5A07FA
S113164049F061E070E0CE0111DE60E070E0C801B5
S11316500DDE71C021703078332334F42150310908
S11316602E6F3F6F2F5F3F4FD901AA0FBB1FAC589E
S1131670BD4F2D913C912F3F3F4F09F1DF01AA0F40
S1131680BB1FAA0FBB1FA458BD4F2D913C916217DD
S11316907307A9F02F3F3F4F91F0EE0FFF1FEE0F9E
S11316A0FF1FE458FD4F228133816217730739F01D
S11316B02F3F3F4F21F04817590709F06EC161E0F1
S11316C070E0CE01D3DD37C04817590709F465C16E
S11316D04F3F5F4F09F461C121703078332334F4F4
S11316E0215031092E6F3F6F2F5F3F4FD901AA0F51
S11316F0BB1FAC58BD4F8D919C910196C1F0DF0189
S1131700AA0FBB1FAA0FBB1FA458BD4F8D919C915C
S113171011976817790759F0019649F0FD01828104
S113172093816817790719F0019609F036C160E0D2
S113173070E0C8019BDD8091020290910302019741
S113174009F02BC1F801EE0FFF1FE056FD4F808119
S11317509181019609F4E801BE016F5F7F4F6170CA
S11317607078772334F4615071096E6F7F6F6F5F07
S11317707F4F80917802909179029C01217030789A
S1131780332334F4215031092E6F3F6F2F5F3F4FC5
S1131790F901EE0FFF1FEC58FD4F208131812F3FDF
S11317A0AFEF3A07D9F5FC01EE0FFF1FEC0FFD1F59
S11317B0EE0FFF1FE458FD4F208131812F3FEFEFE3
S11317C03E0771F0FC01EE0FFF1FE457FD4F40810F
S11317D051812417350721F0BE01CE0147DDDDC05C
S11317E0FC01EE0FFF1FE60FF71FEE0FFF1FE4587B
S11317F0FD4F208131812F3F4FEF340709F4CDC0D5
S1131800FC01EE0FFF1FE457FD4F808191812817E3
S1131810390709F4C2C0CE0129DDBFC040919C0242
S113182050919D02FA01EE0FFF1FE457FD4F019006
S1131830F081E02DDC01AA0FBB1FAA0FBB1FA45827
S1131840BD4F0D90BC91A02DAE17BF0771F0DC0108
S1131850AA0FBB1FAA0FBB1FA458BD4F12960D9011
S1131860BC91A02DEA17FB07D9F5DA01AA0FBB1F1B
S1131870AB5ABD4F2D913C912130310509F08DC0FB
S1131880DA01AA0FBB1FAA0FBB1FA458BD4F2D918D
S11318903C912F3F3F4F79F0DA01AA0FBB1FAA0FEB
S11318A0BB1FA458BD4F12962D913C9113972F3F07
S11318B03F4F09F072C0880F991F8C0F9D1FDC01E8
S11318C0AA0FBB1FA458BD4F8D919C91E817F9072F
S11318D021F4BE01CE01CADC60C0CE01C7DC5DC00C
S11318E0DC01AA0FBB1FA457BD4F0D90BC91A02DC6
S11318F02A173B0709F451C02E173F0709F44DC0BE
S1131900FA01EE0FFF1FEB5AFD4F20813181213088
S1131910310509F042C0FA01EE0FFF1FEE0FFF1F61
S1131920E458FD4F20813181A217B307B1F1FA01C8
S1131930EE0FFF1FEE0FFF1FE458FD4F228133818E
S1131940A217B30751F1FC01EE0FFF1FEC0FFD1FAF
S1131950EE0FFF1FE458FD4F208131812F3FEFEF41
S11319603E0739F0A217B30721F0BE01CE017EDC99
S113197014C0880F991F860F971FFC01EE0FFF1FDD
S1131980E458FD4F808191818F3F2FEF920729F01A
S1131990A817B90711F0CE0169DCDF91CF911F912F
S11319A00F91FF90EF900895CF93C82F89E292E0B2
S11319B007D86C2F80E016DC8C2F21DC6C2F8DE295
S11319C011DC8C2F2CDC8091020290910302019691
S11319D09093030280930202CF9108950F931F9373
S11319E0CF93DF93EC018B018EE292E00E94E0043E
S11319F02091780230917902F901EE0FFF1FE00F78
S1131A00F11FEE0FFF1FE458FD4FDE01AA0FBB1FAD
S1131A10A056BD4F8D919C919183808380914B0200
S1131A2090914C022817390709F06DC0C901223082
S1131A30310530F44091490250914A02452B61F03E
S1131A40225031092230310568F440914902509105
S1131A504A024230510531F4C017D10709F448C095
S1131A606FD946C08230910538F4409149025091B3
S1131A704A024230510549F02230310558F4409170
S1131A80490250914A02452B29F4C017D10781F528
S1131A9057D92EC08230910538F4409149025091B3
S1131AA04A024130510551F02230310560F4409131
S1131AB0490250914A024330510529F4C017D10715
S1131AC0B9F01AD915C0029730F480914902909167
S1131AD04A02039749F02230310550F480914902BB
S1131AE090914A02019721F4C017D10709F404D94F
S1131AF0CE015ADFCC0FDD1FC056DD4F8FEF9FEFB5
S1131B009983888347C030934C0220934B02809181
S1131B10490290914A02009719F00297C9F404C04F
S1131B202D7F232B29F00CC02D7F2130310541F46A
S1131B30C017D10711F4CBD823C0C9D801D920C00C
S1131B40C017D10719F4FCD8C2D81AC0CBD818C012
S1131B50C017D10759F42115310519F02330310587
S1131B6011F4CAD801C0DAD8B2D80AC02115310597
S1131B7019F02330310511F4D1D801C0BDD8B2D841
S1131B80CE0112DFCC0FDD1FC056DD4F8FEF9FEF6C
S1131B9099838883809178029091790290934C0282
S1131BA080934B0280914F02909150020196909342
S1131BB0500280934F02DF91CF911F910F910895AE
S1131BC0CF93DF93EC01FB01EE0FFF1FEC58FD4FA9
S1131BD0DC01AA0FBB1FA056BD4F8D919C91918330
S1131BE08083C617D70739F48091490290914A023D
S1131BF0892B49F406C08091490290914A020297C8
S1131C0011F49ED80CC08091490290914A028D7FB4
S1131C10019729F4209711F481D801C06DD8CE0121
S1131C20C3DECC0FDD1FC056DD4F8FEF9FEF9983CE
S1131C308883DF91CF910895CF93DF939C012F5F29
S1131C403F4F21703078332334F4215031092E6F03
S1131C503F6F2F5F3F4FD22FC32FE0917802F09157
S1131C607902AF01440F551F240F351FD901AA0F64
S1131C70BB1FA458BD4F2D913C91DA01A457BD4F11
S1131C804D915C912417350769F0A0919C02B091A5
S1131C909D02AA0FBB1FA457BD4F6D917C912617BF
S1131CA03707A9F0EE0FFF1FE80FF91FEE0FFF1F14
S1131CB0E458FD4F0190F081E02D4E175F0739F095
S1131CC0319629F0BC018D2F9C2FD0DA0BC024173C
S1131CD0350741F02F3F3F4F29F06D2F7C2F8D2F7B
S1131CE09C2FC4DADF91CF9108950F931F93CF9364
S1131CF0DF9387E392E00E94E00420917802309120
S1131D0079022230310530F48091490290914A02DF
S1131D10029779F0C9010297029780F480914902F1
S1131D2090914A02892B79F001E010E0C0E0D0E004
S1131D300EC000E010E0C1E0D0E009C001E010E016
S1131D40C0E0D0E004C000E010E0C1E0D0E0409189
S1131D500202509103024230510509F426C1F901EF
S1131D60EE0FFF1FE457FD4F408151816091A002A7
S1131D707091A1026417750741F08091A2029091BD
S1131D80A3024817590709F010C1F901EE0FFF1F0C
S1131D90EB5AFD4F80819181892B09F41FD98091E1
S1131DA0020290910302892B09F048C02091780225
S1131DB030917902F901EE0FFF1FE457FD4F808146
S1131DC09181FE01EE0FFF1FE056FD4F40815181CE
S1131DD048175907A9F4F901EE0FFF1FEE0FFF1F73
S1131DE0E458FD4F80819181019629F460E070E010
S1131DF0CE01F4DD23C061E070E0CE01EFDD1EC052
S1131E00F801EE0FFF1FE056FD4F4081518184170A
S1131E109507A1F4F901EE0FFF1FEE0FFF1FE45821
S1131E20FD4F80819181019629F061E070E0C80145
S1131E30D5DD04C060E070E0C801D0DD20917802F7
S1131E4030917902F901EE0FFF1FE457FD4F8081B5
S1131E5091814091A0025091A1024817590741F085
S1131E604091A2025091A3028417950709F09DC0E6
S1131E70F901EE0FFF1FEB5AFD4F80819181892BF1
S1131E8009F437D98091780290917902FC01EE0F20
S1131E90FF1FEE0FFF1FE458FD4F208131812F3FBC
S1131EA03F4F11F1FC01EE0FFF1FEE0FFF1FE4582F
S1131EB0FD4F228133812F3F3F4FB1F0DE01AA0F46
S1131EC0BB1FA056BD4FFC01EE0FFF1FE457FD4F93
S1131ED02D913C91808191812817390719F4CE0105
S1131EE0ABDE02C0C801A8DE80917802909179022D
S1131EF0FC01EE0FFF1FE457FD4F20813181FE01ED
S1131F00EE0FFF1FE056FD4F4081518142175307EA
S1131F1011F5FC01EE0FFF1FEE0FFF1FE458FD4FFC
S1131F20408151814F3F5F4F29F460E070E0CE0162
S1131F3055DD3BC0FC01EE0FFF1FEE0FFF1FE45801
S1131F40FD4F428153814F3F5F4F29F461E070E0C0
S1131F50CE0144DD2AC0F801EE0FFF1FE056FD4F0D
S1131F60408151812417350701F5FC01EE0FFF1F55
S1131F70EE0FFF1FE458FD4F208131812F3F3F4F6B
S1131F8029F460E070E0C80129DD0FC0FC01EE0F08
S1131F90FF1FEE0FFF1FE458FD4F828193810196CE
S1131FA021F461E070E0C80119DDDF91CF911F9148
S1131FB00F910895EF92FF920F931F93CF93DF93A6
S1131FC02091A0023091A1022F3F4FEF340739F046
S1131FD0F901EE0FFF1FEC56FD4FC081D181E09156
S1131FE0A202F091A302EF3F6FEFF60709F45DC17F
S1131FF0DF01AA0FBB1FAC56BD4F0D911C91809100
S1132000780290917902019681709078992324F452
S113201001978E6F9F6F0196BC010296D09379024F
S1132020C09378022F3FAFEF3A07E1F1DE01AA0F28
S1132030BB1FAA0FBB1FA458BD4F4D915C914F3FCE
S11320405F4F71F0DE01AA0FBB1FAA0FBB1FA4587C
S1132050BD4F12964D915C9113974F3F5F4F11F511
S1132060319609F010C1660F771FFB01EC58FD4F44
S113207020813181FB01E457FD4F408151812417B8
S1132080350759F0FC01EE0FFF1FE457FD4F808127
S113209091812817390709F0F6C0BE0181E090E06C
S11320A0D6D9F1C0EF3F4FEFF40709F452C0D8017D
S11320B0AA0FBB1FAA0FBB1FA458BD4F4D915C9123
S11320C04F3F5F4F09F413C1D801AA0FBB1FAA0FDA
S11320D0BB1FA458BD4F12964D915C9113974F3F6F
S11320E05F4FB9F5F2C02F3F3F4F09F0CCC09B01C1
S11320F0220F331FF901EC58FD4F40815181F90142
S1132100E457FD4F208131814217530709F0BBC0CA
S1132110FC01EE0FFF1FE457FD4F808191814817AA
S1132120590709F0B0C081E090E091D9ACC0FB013F
S1132130EE0FFF1FEC58FD4F80819181019609F04D
S1132140A2C02F3F3F4F09F49EC081E090E038DDEC
S11321509AC02F3FAFEF3A07A1F0DB01AA0FBB1FD4
S1132160AC58BD4F8D919C91019631F4319621F07C
S113217081E090E025DD87C03093790220937802D6
S113218082C0F0937902E09378027DC0A701440FE6
S1132190551FFA01EC58FD4F20813181FA01E457B3
S11321A0FD4F408151812417350751F0FC01EE0F9A
S11321B0FF1FE457FD4F608171812617370781F4B3
S11321C02F3FAFEF3A0771F1F901EE0FFF1FEC5605
S11321D0FD4F80819181909379028093780253C05E
S11321E02F3F3F4FF9F0B70180E090E030D92FEF57
S11321F0E21AF20A41E0E42240E8F422FF2054F417
S113220061E0E61AF1088EEFE82AFF24FA94AFEFB2
S1132210EA1AFA0AE4E0EE0EF11CF0927902E09276
S1132220780231C0F701EE0FFF1FEB5AFD4F2081FA
S113223031812130310519F5F701EE0FFF1FEE0F43
S1132240FF1FE458FD4F208131814217530719F0D5
S11322502F3F3F4FA1F4F701EE0FFF1FEE0FFF1FBB
S1132260E458FD4F228133814217530719F02F3F61
S11322703F4F29F4909379028093780204C0F0923E
S11322807902E09278028091780290917902029624
S113229083709078992324F401978C6F9F6F019633
S11322A090939D0280939C022CC08091780290911F
S11322B07902019662E070E0B2D47C01BC0102961E
S11322C02F3F4FEF3407C1F461CF1093790200938D
S11322D07802F801EE0FFF1FEE0FFF1FE458FD4FC9
S11322E0428153814F3F5F4F09F021CFFCCE1093C1
S11322F0790200937802F7CED0937902C0937802E2
S113230095CEDF91CF911F910F91FF90EF9008959B
S11323108F929F92AF92BF92CF92DF92EF92FF92F1
S11323200F931F93CF93DF934091780250917902DA
S11323304230510530F48091490290914A0202974B
S113234079F0CA010297029780F480914902909132
S11323504A02892B79F001E010E0C0E0D0E00EC021
S113236000E010E0C1E0D0E009C001E010E0C0E00E
S1132370D0E004C000E010E0C1E0D0E09A01217098
S11323803078332334F4215031092E6F3F6F2F5F9F
S11323903F4FB22EA32EF901EE0FFF1FEC58FD4F55
S11323A020813181FA01EE0FFF1FE457FD4F808138
S11323B091812817390779F080919C0290919D02B0
S11323C0FC01EE0FFF1FE457FD4F4081518124179C
S11323D0350709F0A7C080910202909103021816F4
S11323E019060CF096C0F901EE0FFF1FEC56FD4FD5
S11323F0608171817093790260937802FE01EE0F1F
S1132400FF1FE056FD4F80819181019669F4617050
S11324107078772334F4615071096E6F7F6F6F5F4A
S11324207F4FCE0114D816C0F801EE0FFF1FE056FF
S1132430FD4F80819181019669F4617070787723F2
S113244034F4615071096E6F7F6F6F5F7F4FC80105
S11324500E94270A8091020290910302019709F4D5
S11324606DC18091780290917902FC01EE0FFF1FFB
S1132470EE0FFF1FE458FD4F208131812F3F3F4F66
S113248009F45CC1FC01EE0FFF1FEE0FFF1FE458BF
S1132490FD4F228133812F3F3F4F09F44FC19C01EF
S11324A021703078332334F4215031092E6F3F6F7B
S11324B02F5F3F4F622F732FF901EE0FFF1FEC5870
S11324C0FD4F208131812F3F3F4F09F037C1FC017F
S11324D0EE0FFF1FE457FD4F80819181FE01EE0F47
S11324E0FF1FE056FD4F208131812817390719F469
S11324F0C80166DB23C1F801EE0FFF1FE056FD4F54
S1132500208131818217930709F018C1CE0158DB6D
S113251015C180919C0290919D02909379028093C1
S113252078020CC1FE01EE0FFF1FE056FD4F019033
S1132530F081E02D4E175F0709F48FC0D801AA0F70
S1132540BB1FA056BD4F8D909C904815590509F4AA
S113255084C0E0900202F0900302E114F10409F453
S11325604EC0B1E0EB16F10429F42F3F6FEF3607AC
S1132570B1F509C0670171E0C71AD108A2E0CA1613
S1132580D10408F065C06C01CC0CDD1CCC0CDD1C46
S1132590B60164587D4FDB01CD90DC904C155D0590
S11325A021F0CD20C09409F053C06C01CC0CDD1C8B
S11325B0CC0CDD1CB60164587D4FDB011296CD9026
S11325C0DC9013974C155D0521F0CD20C09409F0E3
S11325D03FC01E141F049CF42F3F3F4F81F03196DF
S11325E031F46B2D7A2DCE010E94270A08C0892070
S11325F0809429F46B2D7A2DC8010E94270A8091BA
S1132600780290917902BC016F5F7F4F617070789E
S1132610772334F4615071096E6F7F6F6F5F7F4F62
S11326206C5F7F4F81709078992324F401978E6FAB
S11326309F6F019604960E94B206BCDC80917802DA
S1132640909179020497029708F089C0B3DC87C09F
S1132650909379028093780271C0A0910202B091A4
S113266003021097C1F5DC01AA0FBB1FAB5ABD4F83
S11326700D90BC91A02DA130B105D9F4DC01AA0FB5
S1132680BB1FAA0FBB1FA458BD4F0D90BC91A02D1A
S1132690119609F44BC0DC01AA0FBB1FAA0FBB1F84
S11326A0A458BD4F12968D919C911397019619F4DD
S11326B03DC0AB2BD9F52F3F3F4FC1F54E175F07F8
S11326C029F46B2D7A2DC8017BDA30C06B2D7A2D5D
S11326D0CE0176DA2BC0119749F5DC01AA0FBB1F96
S11326E0AA0FBB1FA458BD4F4D915C914F3F5F4F44
S11326F069F0DC01AA0FBB1FAA0FBB1FA458BD4F72
S113270012968D919C911397019681F42F3F3F4F20
S113271069F0319631F46B2D7A2DCE010E94270A8F
S113272005C06B2D7A2DC8010E94270A80919C0256
S113273090919D029093790280937802809178021F
S113274090917902029683709078992324F40197EA
S11327508C6F9F6F019690939D0280939C02DF91F2
S1132760CF911F910F91FF90EF90DF90CF90BF908A
S1132770AF909F908F90089580917C0290917D02FC
S113278020918C0230918D028217930709F05FC06B
S113279020917E0230917F028217930709F057C07F
S11327A0809180029091810220918E0230918F025B
S11327B08217930709F04BC0209182023091830263
S11327C08217930709F043C08091780290917902AF
S11327D0FC01EE0FFF1FEE0FFF1FE458FD4F208199
S11327E03181FC01EE0FFF1FE457FD4F4081518101
S11327F02417350761F5FC01EE0FFF1FEE0FFF1FD5
S1132800E458FD4F828193812817390701F580919F
S11328107402909175020196D1F4809176029091A0
S113282077020196A1F48091A0029091A1020196F1
S113283071F48091A2029091A302019641F48091D7
S11328400002909101029093500280934F020895E8
S11328500E9441030E9494000E94FE000E946C03A7
S11328600E94ED0490935E0280935D020E949207A1
S1132870109279021092780282E090E090939D0287
S113288080939C028FE392E00E94E00420914F0227
S1132890309150028091000290910102281739076B
S11328A0A4F523DA80914D0290914E02039709F426
S11328B063DF20914F023091500280910002909189
S11328C001022817390709F10E946C0A80917802E5
S11328D090917902BC0161707078772334F461506F
S11328E071096E6F7F6F6F5F7F4F6C5F7F4F0E94C8
S11328F0B2060EDD20914F02309150028091000209
S1132900909101022817390764F281E090E008955C
S11329105058BB27AA270ED048C139D130F03ED138
S113292020F031F49F3F11F41EF42EC10EF4E09513
S1132930E7FB24C1E92F4AD180F3BA176207730772
S11329408407950718F071F49EF562C10EF4E095C2
S11329500B2EBA2FA02D0B01B90190010C01CA0155
S1132960A0011124FF27591B99F0593F50F4503E00
S113297068F11A16F040A22F232F342F4427585FF2
S1132980F3CF469537952795A795F0405395C9F70A
S11329907EF41F16BA0B620B730B840BBAF09150C2
S11329A0A1F0FF0FBB1F661F771F881FC2F70EC061
S11329B0BA0F621F731F841F48F487957795679534
S11329C0B795F7959E3F08F0B3CF9395880F08F01D
S11329D09927EE0F9795879508950CD0E6C0DED021
S11329E040F0D5D030F021F45F3F19F0C7C0511149
S11329F010C1CAC0EBD098F39923C9F35523B1F39E
S1132A00951B550BBB27AA2762177307840738F059
S1132A109F5F5F4F220F331F441FAA1FA9F333D0B8
S1132A200E2E3AF0E0E830D091505040E695001C6C
S1132A30CAF729D0FE2F27D0660F771F881FBB1F28
S1132A40261737074807AB07B0E809F0BB0B802D02
S1132A50BF01FF2793585F4F2AF09E3F510568F04E
S1132A608DC0D7C05F3FECF3983EDCF38695779535
S1132A706795B795F7959F5FC9F7880F911D969550
S1132A80879597F90895E1E0660F771F881FBB1FAC
S1132A90621773078407BA0720F0621B730B840B59
S1132AA0BA0BEE1F88F7E095089598D088F09F57E9
S1132AB090F0B92F9927B751A0F0D1F0660F771F86
S1132AC0881F991F1AF0BA95C9F712C0B13081F066
S1132AD09FD0B1E008959CC0672F782F8827B85FF6
S1132AE039F0B93FCCF3869577956795B395D9F7C7
S1132AF03EF490958095709561957F4F8F4F9F4FD1
S1132B000895E89409C097FB3EF4909580957095DC
S1132B1061957F4F8F4F9F4F9923A9F0F92F96E925
S1132B20BB279395F695879577956795B795F1119A
S1132B30F8CFFAF4BB0F11F460FF1BC06F5F7F4F37
S1132B408F4F9F4F16C0882311F096E911C0772349
S1132B5021F09EE8872F762F05C0662371F096E852
S1132B60862F70E060E02AF09A95660F771F881F21
S1132B70DAF7880F9695879597F9089597F99F67DF
S1132B8080E870E060E008959FEF80EC08950024F1
S1132B900A941616170618060906089500240A94BE
S1132BA012161306140605060895092E0394000C44
S1132BB011F4882352F0BB0F40F4BF2B11F460FFD3
S1132BC004C06F5F7F4F8F4F9F4F089557FD9058FC
S1132BD0440F551F59F05F3F71F04795880F97FBDD
S1132BE0991F61F09F3F79F0879508951216130697
S1132BF01406551FF2CF4695F1DF08C016161706C6
S1132C001806991FF1CF86957105610508940895FA
S1132C10E894BB2766277727CB0197F9089597FB9C
S1132C20072E16F4009406D077FD08D01AD007FCBE
S1132C3005D03EF4909581959F4F089570956195C8
S1132C407F4F0895A29FB001B39FC001A39F700D51
S1132C50811D1124911DB29F700D811D1124911DA0
S1132C600895AA1BBB1B51E107C0AA1FBB1FA617CF
S1132C70B70710F0A61BB70B881F991F5A95A9F721
S1112C8080959095BC01CD010895F894FFCF86
S1132C8E0800020063616C635468726573680054D3
S1132C9E68726573686F6C64007069636B536F72EE
S1132CAE74007069636B75700064726F70006E6F80
S1132CBE646544726F700063616E44726F7000429B
S1092CCE6567696E000059
S9030000FC
