S00C0000536F72742E7372656370
S113000071C0000055C200008EC000008CC000000A
S11300108AC0000035C300000EC3000084C0000085
S113002082C0000080C000007EC000007CC00000D0
S11300307AC0000078C0000076C0000074C00000E0
S113004072C0000070C000006EC000006CC00000F0
S11300506AC0000068C0000066C0000064C0000000
S113006062C0000060C000005EC000005CC0000010
S11300705AC0000058C0000056C0000054C0000020
S113008052C0000050C000004EC000004CC0000030
S11300904AC0000048C0000046C0000044C0000040
S11300A042C0000040C000003EC000003CC0000050
S11300B03AC0000038C0000036C0000034C0000060
S11300C032C0000030C000002EC000002CC0000070
S11300D02AC0000028C0000026C0000024C0000080
S11300E022C0000011241FBECFEFD1E2DEBFCDBF7E
S11300F000E00CBF12E0A0E0B2E0E6EEF5E100E0C3
S11301000BBF02C007900D92A030B107D9F722E0CF
S1130110A0E0B2E001C01D92A634B207E1F70E944C
S113012054090C94F10A6CCF89EF90E00197F1F730
S113013000C000004098419880E388B9429A81EE5B
S113014094E00197F1F700C00000429889EF90E035
S11301500197F1F700C000004098419880E388B906
S1130160429A81EE94E00197F1F700C000004298B2
S113017089EF90E00197F1F700C0000040984198A2
S113018080E388B9429A81EE94E00197F1F700C0C8
S11301900000429889EF90E00197F1F700C0000059
S11301A04098419880E288B9429A81EE94E00197A0
S11301B0F1F700C000004298089598B19F7098B973
S11301C098B1282F207F922B98B940984198429A51
S11301D0E1EEF4E03197F1F700C00000429898B1E5
S11301E09F7098B998B18295807F892B88B940987F
S11301F04198429A81EE94E00197F1F700C0000023
S11302004298089589EF90E00197F1F700C000004B
S113021088E2D3DF84E1D1DF8CE0CFDF86E0CDDF7D
S113022081E0CBCF089598B19F7098B998B1282FE9
S1130230207F922B98B9409A4198429AE1EEF4E0DB
S11302403197F1F700C00000429898B19F7098B9B7
S113025098B18295807F892B88B9409A4198429AB7
S113026081EE94E00197F1F700C0000042980895F0
S113027080E8A3CF0895823069F018F4813031F01A
S11302800895833059F0843069F008958FE7860F1C
S113029094CF08958FEB860F90CF089583E9860F4E
S11302A08CCF089583ED860F88CF08950F931F9305
S11302B0CF93DF938A01E901882311F0611102C011
S11302C0D7DF01C0D8DFC530D10509F0D5C098010A
S11302D0329522952F7023273F702327A7E4B3E09C
S11302E00E94E20A969587959695879596958795A7
S11302F0C096909327028093260295DF9801369545
S113030027953695279536952795A5ECB0E20E945A
S1130310E20AAC01529542954F7045275F7045271C
S113032050932902409328029A01ADECBCEC0E9440
S1130330E20A9695879596958795969587959C015B
S1130340220F331F880F991F880F991F880F991F39
S1130350820F931F481B590BCA01C0969093450204
S11303608093440260DF04C0C330D10509F089C022
S113037098013695279536952795ABE7B4E10E9409
S1130380E20AAC01569547955093290240932802FE
S11303909A01ADECBCEC0E94E20A9695879596957D
S11303A08795969587959C01220F331F880F991F77
S11303B0880F991F880F991F820F931F481B590B91
S11303C0CA01C09690934102809340022CDF9801A9
S11303D0ADECBCEC0E94E20AAC01569547955695EB
S11303E047955695479550932902409328029A01C0
S11303F00E94E20A96958795969587959695879596
S11304009C01220F331F880F991F880F991F880F93
S1130410991F820F931F481B590BCA01C0969093D2
S1130420350280933402FFDE03C0C130D105F9F4F4
S11304309801ADECBCEC0E94E20A969587959695DE
S11304408795969587959C01220F331F880F991FD6
S1130450880F991F880F991F820F931F081B190B70
S1130460C801C0969093430280934202DCDE269733
S113047064F085E4D8DE09C0C430D10509F074CF36
S11304803DCFC230D10589F6A2CFDF91CF911F9124
S11304900F9108958AB18E6F8AB9589A0895F89485
S11304A0E9E6F0E0808182608083E89A7894089598
S11304B01F920F920FB60F9211248F939F93AF93B5
S11304C0BF9380911A0290911B02A0911C02B091DB
S11304D01D020196A11DB11D80931A0290931B0267
S11304E0A0931C02B0931D02BF91AF919F918F9175
S11304F00F900FBE0F901F901895CCDFD0CF0895AA
S11305005C9A5D9A0895F9DFFBCF089510928900F3
S1130510682F70E080E090E0C7D72BE734E14EEE1F
S11305205FE32ED720E030E04CE052E4C5D690D70C
S113053060938800089587B1876F87B988B1807800
S113054088B9089510BA11BA1092070110920801DF
S1130550089581B18F6081B982B1807F82B9EAE068
S1130560F1E0808188618083EBE0F1E08081886143
S1130570808308956C98749A08956D98759A089577
S1130580DADFE0DFE6DFF6DFF8CF0895E1E2F1E05D
S113059010828FEF8093250191E0909324011092B3
S11305A029018093280110922B0180932A01109233
S11305B02D0180932C0189EA809320018BE08083B4
S11305C00895EAE7F0E0108210927B0080E28093C5
S11305D07C0080E880BF86E880830895883018F026
S11305E098E090937B008770806280937C00EAE7B8
S11305F0F0E0808180648083808184FFFDCF8091DE
S11306007900EAE7F0E090819061908310927B009A
S11306100895F894EAE6F0E0808182608083EC9AA1
S113062078940895F894EAE6F0E080818860808305
S1130630ED9A789408951F920F920FB60F92112499
S11306408F939F93AF93BF93809100029091010287
S1130650A0910202B09103020196A11DB11D8093E5
S1130660000290930102A0930202B0930302BF918F
S1130670AF919F918F910F900FBE0F901F9018957F
S11306801F920F920FB60F9211248F939F93AF93E3
S1130690BF938091040290910502A0910602B0914B
S11306A007020196A11DB11D8093040290930502D7
S11306B0A0930602B0930702BF91AF919F918F91CF
S11306C00F900FBE0F901F90189592B1907F8F706E
S11306D0982B92B9089586E0F8CF089580E0F5CF7D
S11306E0089589E0F2CF089585E0EFCF08958AE078
S11306F0ECCF0895CF92DF92EF92FF92CF93BC019B
S113070080E090E0D1D628E431EE42E850E438D6D7
S11307109FD66B01E12CF12C109200021092010281
S11307201092020210920302109204021092050227
S11307301092060210920702C0E021E030E045E08A
S113074050E061E082E0B2DD21E08091040290910A
S11307500502A0910602B09107028C159D05AE0515
S1130760BF0508F42C2F211111C021E08091000253
S113077090910102A0910202B09103028C159D0593
S1130780AE05BF0508F42C2F2223B9F2A7DFCF91C1
S1130790FF90EF90DF90CF90089586B1886088B97C
S11307A0089586B1877F88B90895F894E9DEABDEB1
S11307B008DF2FDF37DF3B9A4398E8DE789408950B
S11307C083E00CDF8093190282E008DF8093180233
S11307D081E004DF809317020895CF93DF9385E0CF
S11307E090E09093230280932202C3E0D0E07CDF68
S11307F023E030E049E053E067E082E057DD809198
S113080022029091230276DF69DFDADF80911802F9
S1130810893268F42197209751F769DF8091180293
S1130820883228F4CDDF809118028832D8F3DF9122
S1130830CF910895D2DF52CF0895FF920F931F9363
S1130840CF93DF9308E211E00F2EF8ECFF2EF02D8A
S1130850CAE2D1E0B5DF80911802893298F0809124
S11308601902893220F480911702893258F033DF5B
S11308702FEF84E39CE0215080409040E1F700C0DA
S113088000000AC028DFF801F082F8828091180283
S1130890893200F7CFDFD1DFDF91CF911F910F9124
S11308A0FF90089518DF2FE78FE492E121508040F4
S11308B09040E1F700C000000895F4DF18DF8AE5F6
S11308C090E018CF0895EEDF0FDF84E690E012CFBA
S11308D0089563DF2FE38DE093E021508040904042
S11308E0E1F700C000005DCF0895F3DF00DF8EEB79
S11308F090E000DF2FE38DE093E0215080409040B2
S1130900E1F700C00000089580910C02813041F0AD
S1130910823041F0833041F0843041F483E0089523
S113092082E0089581E0089584E0089580E00895C8
S1130930611102C0EBCD0895613031F48D3211F4B0
S113094080E001C08DE2E2CD0895811106C01092CD
S11309508B0083E880938A000895813029F41092F3
S11309608D0083E880938C000895811106C0109255
S11309708B0083E280938A000895813029F41092D9
S11309808D0083E280938C000895CF93C82F682F45
S113099080E0CEDF8C2FD9DF8C2FE7DF6C2F8DE248
S11309A0C7DFCF910895CF93C82F682F80E0C0DFB1
S11309B08C2FCBDF6C2F8DE2BBDF8C2FD6DFCF915A
S11309C00895CF93982F611162C0282F30E0F90168
S11309D0E65FFD4F6081611126C040910C0250E03A
S11309E0FA01EE0FFF1FE20FF31FEA5CFD4F808157
S11309F0FA01E35FFD4F7081871709F47DC08823F6
S1130A0009F483C0F901E65FFD4F8083FA01EE0F1C
S1130A10FF1F2E0F3F1FF901EA5CFD4F1082892F43
S1130A20B4DF81E072C0C1E08111C0E04C2F50E01E
S1130A30FA01E65FFD4F9081911160C060910C0254
S1130A4070E0FB01EE0FFF1FE40FF51FEA5CFD4FA2
S1130A508081FB01E35FFD4FE0818E1709F450C0F4
S1130A60882309F452C0DA01A65FBD4FFB01EE0FE3
S1130A70FF1F2E0F3F1FF901EA5CFD4F80818C930D
S1130A80108233DF8C2F81DF30DF81E03EC06130A4
S1130A90C9F5282F30E0F901E65FFD4F808181110F
S1130AA011C080910C02A82FA170B0E0F901E65F9B
S1130AB0FD4FAB5EBD4F8C9180831C92892F65DF07
S1130AC081E023C081E0911180E0282F30E0F9011A
S1130AD0E65FFD4F9081911117C090910C02492F50
S1130AE0417050E0DF01FA01EB5EFD4F90819C9371
S1130AF010824BDF81E009C0862F07C080E005C06B
S1130B00892F03C080E001C080E0CF910895CF9386
S1130B10982F61115CC0282F30E0F901E65FFD4F8A
S1130B20A081AA2319F140910C0250E0FA01EE0FC2
S1130B30FF1FE20FF31FEA5CFD4F8081811180C02B
S1130B40FA01E35FFD4F6081A61383C0FA01EE0F43
S1130B50FF1FE20FF31FEA5CFD4FA083F901E65F7C
S1130B60FD4F1082892F1FDF81E073C0C1E0811126
S1130B70C0E04C2F50E0FA01E65FFD4F80818823EE
S1130B8009F467C060910C0270E0FB01EE0FFF1FD7
S1130B90E40FF51FEA5CFD4F9081911153C0FB01F6
S1130BA0E35FFD4FE0818E134FC0660F771F260F62
S1130BB0371FF901EA5CFD4F1082FA01E65FFD4F31
S1130BC0108293DE8C2FEFDE90DE81E042C0613034
S1130BD009F03CC080910C02282F217030E0F9010B
S1130BE0EB5EFD4F8081811133C0492F50E0FA0143
S1130BF0E65FFD4F8081882361F0F901EB5EFD4FD4
S1130C008083FA01E65FFD4F1082892FBEDE81E00A
S1130C1020C061E0911160E0462F50E0FA01E65FE8
S1130C20FD4F80818823A9F0F901EB5EFD4F80839D
S1130C30FA01E65FFD4F1082862FA7DE81E009C02E
S1130C4080E007C08A2F05C0892F03C080E001C05F
S1130C5080E0CF910895CF93DF93D82FC62F809152
S1130C600C02ED2FF0E0EB5EFD4FE081F0E0E35F7E
S1130C70FD4F2081261328C090910B02911105C0CD
S1130C8090910A029923B1F004C090910A02911143
S1130C901BC030E0F901EE0FFF1FEA5CFD4F9081AD
S1130CA0992341F0F901EE0FFF1FEA5CFD4F91819A
S1130CB0913051F49EEF980F81E0923008F080E07B
S1130CC061E07FDE8093330280910C028C2780FFE9
S1130CD015C08C2F81708D1311C090910A02992335
S1130CE069F080910B02882349F0D0E0C35FDD4FA7
S1130CF081E02881921380E061E009DFDF91CF91E8
S1130D000895CF93DF93C82FD62F97DD6D2F8C2FA7
S1130D108170A1DFC13029F48DEF8D0F823038F559
S1130D2007C0C430E9F48FEF8D0F823008F03CC067
S1130D30CADD83DD2FE38DE093E0215080409040B5
S1130D40E1F700C0000079DD6D2F8D2F817083DF06
S1130D50D13011F0D43011F4B0DD2FC0B4DD2DC08A
S1130D60C23029F48DEF8D0F8230F0F406C0C33009
S1130D70D9F48FEF8D0F8230B8F49FDD5EDD2FE95B
S1130D8086E891E0215080409040E1F700C00000E7
S1130D9054DD6D2F8D2F81705EDFD250D23010F470
S1130DA092DD0BC08ADD09C02FE38DE093E0215072
S1130DB080409040E1F700C000003FDD8FDC8EDC16
S1130DC088DDDF91CF9108959FDD10920902109282
S1130DD0080220910C0230E0F901E35FFD4F4081ED
S1130DE090E0FC01EE0FFF1FEA5CFD4F50814513BC
S1130DF003C051E050930902FC01EE0FFF1FEA5CAF
S1130E00FD4F5181451305C0509109025F5F509316
S1130E100902F901EE0FFF1FEA5CFD4F50814513F3
S1130E2006C0FC01E35FFD4F5081451719F051E006
S1130E3050930802F901EE0FFF1FEA5CFD4F218178
S1130E40421306C0FC01E35FFD4F8081481729F07F
S1130E50809108028F5F80930802089581E0809357
S1130E6033028091120281110EC00BC082E001C0D6
S1130E7083E080933302089584E08093330280E01A
S1130E80089581E0089580911302882379F3809175
S1130E9014028111F1CFECCFCF93C82F9091180297
S1130EA0993218F01EDC8CDC03C0C4DC8C2FF4DF18
S1130EB0CF91089581E0809333028091380290911C
S1130EC00E0289131BC0909139028917C9F080E082
S1130ED0089582E08093330280E0089590913D026A
S1130EE0891739F083E001C082E08093330280E007
S1130EF0089584E08093330281E0089580E00895AA
S1130F0080913A0290910F028913E3CF90913B02B2
S1130F108913EACF80913C02909110028917F1F273
S1130F2083E0D8CFCF93F0DCC82F4EDF8091080246
S1130F30823039F4E0910A02F0E0E35FFD4FC081B2
S1130F401BC0909109029130B9F0813051F4EC2F1B
S1130F50F0E0EF5EFD4F8081882371F0C0910A02BA
S1130F600BC0923049F0EC2FF0E0EF5EFD4F808132
S1130F70882311F073DFC0E080910A0281110AC056
S1130F8080910B02811106C06C2F80910C02B9DE96
S1130F90C9DF05C06C2F80910C02B3DE02D0CF9163
S1130FA008950F931F93CF93DF93AEDC182F809196
S1130FB00C02282F30E0F901EE0FFF1FEA5CFD4F11
S1130FC06081412F50E0FA01E35FFD4FA08191E081
S1130FD06A1390E0092F782F7170C72F70E0D72F14
S1130FE0CB5EDD4F7881F901E35FFD4FE0817E1335
S1130FF0D0C08250C1E0823008F0C0E08091080285
S1131000823051F5F901EE0FFF1FEA5CFD4F81813B
S1131010681306C0E62FF0E0E35FFD4F1081A5C022
S1131020E62FF0E0E35FFD4F108160E080E0C9DC73
S113103060E080E06CDD01DC61E08C2FC2DC61E00B
S11310408C2F65DD80910C0227DF60E081E0B9DC44
S113105060E081E05CDD89C0813009F054C080919A
S113106009028130D1F460E0802FABDC60E0802F96
S11310704EDDE3DB61E08C2FA4DC61E08C2F47DDE7
S113108080910C0209DFC1E00111C0E060E08C2F07
S113109098DC60E08C2F3BDD68C0FA01EF5EFD4F09
S11310A08081882309F461C0FA01EE0FFF1FEA5C16
S11310B0FD4F8081A81359C0FA01EE0FFF1FEA5CAF
S11310C0FD4F8181A81351C0220F331FF901E90F8D
S11310D0F11DEA5CFD4FE081F0E0E35FFD4F10811C
S11310E060E0802F6EDC60E0802F11DDA6DB61E024
S11310F08C2F67DC80910C02CFDE81E0011180E04F
S113110060E005DD32C0809109028130A1F460E025
S1131110802FFDDC92DB61E08C2F53DC80910C028C
S1131120BBDEC1E00111C0E060E08C2F4ADC60E06E
S11311308C2FEDDC1AC08230B9F460E080E041DC31
S113114060E080E0E4DC79DB61E08C2F3ADC61E094
S11311508C2FDDDC80910C029FDE60E081E031DCCD
S113116060E081E0D4DC01C010E080910A028111CA
S11311700AC080910B02811106C0612F80910C027C
S1131180C0DDD0DE84C0612F80910C02BADD09DF9E
S11311907EC080910802823039F5F901EE0FFF1FFD
S11311A0EA5CFD4F818168130DC060E080E009DCDA
S11311B060E080E0ACDC60E081E003DC60E081E0E2
S11311C0A6DC65C0671307C060E080E0FADB60E07E
S11311D080E09DDC5CC078135AC060E081E0F1DB04
S11311E060E081E094DC53C0813021F580910902F4
S11311F08130C9F471110DC0C1E09111C0E060E00B
S11312008C2FDFDB60E08C2F82DC60E0802FD9DB69
S11312103EC0C1E09111C0E060E08C2FD2DB60E001
S11312208C2F75DC34C060E0892FCBDB60E0802F2D
S11312306EDC2DC080910902813051F4C1E091111E
S1131240C0E060E08C2FBDDB60E08C2F60DC1FC051
S1131250823099F4772339F060E080E0B2DB60E01B
S113126080E055DC14C060E080E0ABDB60E080E04F
S11312704EDC60E081E0A5DB0AC060E080E047DC92
S113128060E081E044DCEADD811101C013DEDF911E
S1131290CF911F910F91089560E080E092DB60E0B0
S11312A081E08FDB3FCE089580DA0E9494000E9493
S11312B00201F2DFFFCF5058BB27AA270ED048C146
S11312C039D130F03ED120F031F49F3F11F41EF4B7
S11312D02EC10EF4E095E7FB24C1E92F4AD180F337
S11312E0BA17620773078407950718F071F49EF51F
S11312F062C10EF4E0950B2EBA2FA02D0B01B9019B
S113130090010C01CA01A0011124FF27591B99F077
S1131310593F50F4503E68F11A16F040A22F232F83
S1131320342F4427585FF3CF469537952795A795D3
S1131330F0405395C9F77EF41F16BA0B620B730B7A
S1131340840BBAF09150A1F0FF0FBB1F661F771FEB
S1131350881FC2F70EC0BA0F621F731F841F48F4A0
S1131360879577956795B795F7959E3F08F0B3CF26
S11313709395880F08F09927EE0F97958795089510
S11313800CD0E6C0DED040F0D5D030F021F45F3F81
S113139019F0C7C0511110C1CAC0EBD098F39923FA
S11313A0C9F35523B1F3951B550BBB27AA27621725
S11313B07307840738F09F5F5F4F220F331F441F6A
S11313C0AA1FA9F333D00E2E3AF0E0E830D09150A2
S11313D05040E695001CCAF729D0FE2F27D0660F8F
S11313E0771F881FBB1F261737074807AB07B0E8CE
S11313F009F0BB0B802DBF01FF2793585F4F2AF0E4
S11314009E3F510568F08DC0D7C05F3FECF3983E16
S1131410DCF3869577956795B795F7959F5FC9F740
S1131420880F911D9695879597F90895E1E0660FC9
S1131430771F881FBB1F621773078407BA0720F042
S1131440621B730B840BBA0BEE1F88F7E0950895AB
S113145098D088F09F5790F0B92F9927B751A0F0F2
S1131460D1F0660F771F881F991F1AF0BA95C9F734
S113147012C0B13081F09FD0B1E008959CC0672FB5
S1131480782F8827B85F39F0B93FCCF386957795E4
S11314906795B395D9F73EF49095809570956195CD
S11314A07F4F8F4F9F4F0895E89409C097FB3EF4F8
S11314B090958095709561957F4F8F4F9F4F99239D
S11314C0A9F0F92F96E9BB279395F695879577951B
S11314D06795B795F111F8CFFAF4BB0F11F460FFDB
S11314E01BC06F5F7F4F8F4F9F4F16C0882311F033
S11314F096E911C0772321F09EE8872F762F05C047
S1131500662371F096E8862F70E060E02AF09A95E1
S1131510660F771F881FDAF7880F9695879597F9D6
S1131520089597F99F6780E870E060E008959FEF61
S113153080EC089500240A94161617061806090666
S1131540089500240A941216130614060506089535
S1131550092E0394000C11F4882352F0BB0F40F4BD
S1131560BF2B11F460FF04C06F5F7F4F8F4F9F4FFD
S1131570089557FD9058440F551F59F05F3F71F07F
S11315804795880F97FB991F61F09F3F79F08795E6
S11315900895121613061406551FF2CF4695F1DF6F
S11315A008C0161617061806991FF1CF86957105FF
S11315B0610508940895E894BB2766277727CB0133
S11315C097F90895A29FB001B39FC001A39F700D26
S11315D0811D1124911DB29F700D811D1124911D37
S10915E00895F894FFCF0A
S9030000FC
