:1000000071C0000006C300008EC000008CC000005C
:100010008AC0000008C40000E1C3000084C00000E2
:1000200082C0000080C000007EC000007CC00000D4
:100030007AC0000078C0000076C0000074C00000E4
:1000400072C0000070C000006EC000006CC00000F4
:100050006AC0000068C0000066C0000064C0000004
:1000600062C0000060C000005EC000005CC0000014
:100070005AC0000058C0000056C0000054C0000024
:1000800052C0000050C000004EC000004CC0000034
:100090004AC0000048C0000046C0000044C0000044
:1000A00042C0000040C000003EC000003CC0000054
:1000B0003AC0000038C0000036C0000034C0000064
:1000C00032C0000030C000002EC000002CC0000074
:1000D0002AC0000028C0000026C0000024C0000084
:1000E00022C0000011241FBECFEFD1E2DEBFCDBF82
:1000F00000E00CBF12E0A0E0B2E0E4E2FEE200E0CB
:100100000BBF02C007900D92AA34B107D9F722E0C5
:10011000AAE4B2E001C01D92AB3BB207E1F70E9436
:10012000F7140C9410176CCF86E69EE00197F1F758
:1001300000004098419880E388B9429A8FEF97E495
:100140000197F1F700C00000429886E69EE0019713
:10015000F1F700004098419880E388B9429A8FEF08
:1001600097E40197F1F700C00000429886E69EE010
:100170000197F1F700004098419880E388B9429ACE
:100180008FEF97E40197F1F700C00000429886E6F0
:100190009EE00197F1F700004098419880E288B90D
:1001A000429A8FEF97E40197F1F700C00000429860
:1001B000089598B19F7098B998B1282F207F922BFD
:1001C00098B940984198429AEFEFF7E43197F1F7E8
:1001D00000C00000429898B19F7098B998B182957C
:1001E000807F892B88B940984198429A8FEF97E495
:1001F0000197F1F700C000004298089595DF86E668
:100200009EE00197F1F7000088E2D3DF81E0D1DFC3
:1002100086E0CFDF8EE0CDDF80E8CBCF089598B1C8
:100220009F7098B998B1282F207F922B98B9409A47
:100230004198429AEFEFF7E43197F1F700C00000E0
:10024000429898B19F7098B998B18295807F892B18
:1002500088B9409A4198429A8FEF97E40197F1F755
:1002600000C000004298089580E8A3CF0895CF937E
:10027000DF93EC018881882329F02196D0DF8991D2
:100280008111FCCFDF91CF910895823069F018F48D
:10029000813031F00895833059F0843069F0089549
:1002A0008FE7860F86CF08958FEB860F82CF089554
:1002B00083E9860F7ECF089583ED860F7ACF089568
:1002C0000F931F93CF93DF938A01E901882311F0E5
:1002D000611102C0C9DF01C0D8DFC530D10509F006
:1002E000D5C09801329522952F7023273F70232780
:1002F000A7E4B3E00E94ED169695879596958795AD
:1003000096958795C096909375028093740287DFC7
:100310009801369527953695279536952795A5EC1E
:10032000B0E20E94ED16AC01529542954F70452700
:100330005F70452750937902409378029A01ADECA3
:10034000BCEC0E94ED1696958795969587959695A7
:1003500087959C01220F331F880F991F880F991FC3
:10036000880F991F820F931F481B590BCA01C09613
:100370009093BA028093B90252DF04C0C330D10512
:1003800009F089C098013695279536952795ABE7F2
:10039000B4E10E94ED16AC01569547955093790251
:1003A000409378029A01ADECBCEC0E94ED16969554
:1003B000879596958795969587959C01220F331F73
:1003C000880F991F880F991F880F991F820F931FFD
:1003D000481B590BCA01C0969093B0028093AF029C
:1003E0001EDF9801ADECBCEC0E94ED16AC015695F9
:1003F0004795569547955695479550937902409362
:1004000078029A010E94ED169695879596958795A4
:10041000969587959C01220F331F880F991F880F8F
:10042000991F880F991F820F931F481B590BCA01F0
:10043000C09690938A0280938902F1DE03C0C13096
:10044000D105F9F49801ADECBCEC0E94ED1696953F
:10045000879596958795969587959C01220F331FD2
:10046000880F991F880F991F880F991F820F931F5C
:10047000081B190BC801C0969093B8028093B7026D
:10048000CEDE269764F085E4CADE09C0C430D1050B
:1004900009F074CF3DCFC230D10589F6A2CFDF91EC
:1004A000CF911F910F910895E1E2F1E010828FEF5B
:1004B0008093250191E0909324011092290180936B
:1004C000280110922B0180932A0110922D01809314
:1004D0002C0189EA809320018BE08083089581B10B
:1004E0008F6081B982B1807F82B9EAE0F1E08081DA
:1004F00088618083EBE0F1E08081886180830895EA
:1005000092B1907F8F70982B92B9089586E0F8CFC2
:10051000089589E0F5CF089585E0F2CF08958AE047
:10052000EFCF089580E0ECCF089587B1876F87B94A
:1005300088B1807888B908958AB18E6F8AB9589A3F
:10054000089510BA11BA1092070110920801089587
:10055000259A2D9A0895269A2E9A0895279A2F9AC9
:100560000895E1E8F0E010828CEF8093850081E04F
:100570008093840093E0909389008FEF80938800AC
:1005800090938B0080938A0090938D0080938C00D1
:1005900090938700809386008BEA8093800010926E
:1005A00082008CE080830895C0DFCBDF3B9A4398C4
:1005B000CFDFD1DFD3DFC0CF089586B1886088B99F
:1005C000089586B1877F88B90895883018F098E03B
:1005D00090937B008770806280937C00EAE7F0E074
:1005E000808180648083808184FFFDCF8091790049
:1005F000EAE7F0E090819061908310927B0008958B
:10060000F894E9E6F0E0808182608083E89A78944B
:1006100008951F920F920FB60F9211248F939F93FC
:10062000AF93BF938091580290915902A0915A02C2
:10063000B0915B020196A11DB11D80935802909369
:100640005902A0935A02B0935B02BF91AF919F9160
:100650008F910F900FBE0F901F901895EAE7F0E072
:10066000108210927B0080E280937C0080E880BF43
:1006700086E88083089510928900682F70E080E0FA
:1006800090E00E944C162BE734E14EEE5FE30E94AF
:10069000B81520E030E04CE052E40E9454150E946E
:1006A00020166093880008955E985F9808955E9A7A
:1006B0005F9A08955E985F9A08955C9A5D9A08958E
:1006C000F3DF109258021092590210925A021092BF
:1006D0005B022FEF8FE794E0215080409040E1F7DC
:1006E00000C000008091580290915902A0915A02D6
:1006F000B0915B0280937E0290937F02A093800270
:10070000B09381022FEF8FEF9CE221508040904008
:10071000E1F700C000000895CADF1092580210925D
:10072000590210925A0210925B022FEF8FE794E069
:10073000215080409040E1F700C0000080915802B5
:1007400090915902A0915A02B0915B0280937A0273
:1007500090937B02A0937C02B0937D020895AADF60
:10076000109258021092590210925A0210925B0293
:100770002FEF8FE794E0215080409040E1F700C0D8
:1007800000008091580290915902A0915A02B091B4
:100790005B0280936E0290936F02A0937002B093FD
:1007A000710208956C98749A08956D98759A0895D9
:1007B00096DEF8DFFACF0895F894EAE6F0E080815B
:1007C00082608083EC9A78940895F894EAE6F0E0E9
:1007D000808188608083ED9A789408951F920F92AB
:1007E0000FB60F9211248F939F93AF93BF93809175
:1007F0005C0290915D02A0915E02B0915F02019651
:10080000A11DB11D80935C0290935D02A0935E02D6
:10081000B0935F02BF91AF919F918F910F900FBEE8
:100820000F901F9018951F920F920FB60F921124E0
:100830008F939F93AF93BF938091600290916102D9
:10084000A0916202B09163020196A11DB11D809337
:10085000600290936102A0936202B0936302BF9121
:10086000AF919F918F910F900FBE0F901F90189591
:10087000CF92DF92EF92FF920F931F93BC0180E023
:1008800090E00E944C1628E431EE42E850E40E94C9
:10089000B8150E942016CB01A0E0B0E010925C02D7
:1008A00010925D0210925E0210925F02109260023E
:1008B00010926102109262021092630251E0E0E035
:1008C000C0905C02D0905D02E0905E02F0905F020A
:1008D00000916002109161022091620230916302E6
:1008E000452F081719072A073B0708F44E2F411117
:1008F00009C0252FC816D906EA06FB0608F42E2FD4
:100900002223F1F20FDE1F910F91FF90EF90DF9005
:10091000CF9008950F931F93BC0180E090E00E9458
:100920004C1625EE30ED4AEA50E40E94B8150E94BC
:10093000201610925C0210925D0210925E021092DC
:100940005F0200915C0210915D0220915E02309185
:100950005F02601771078207930798F7E3DD1F9125
:100960000F910895CF93DF93EC01D0DDCE01D2DF5C
:10097000DF91CF910895CF93DF93EC01CADDCE01D3
:10098000C9DFDF91CF910895CF93DF93EC01C4DDF0
:10099000CE016EDFDF91CF910895CF93DF93EC010D
:1009A000BEDDCE0165DFDF91CF910895F89400DFC1
:1009B00003DF0BDFF9DD24DE51DE91DD75DDD1DDF6
:1009C000789408950F931F93CF93DF938C0118169B
:1009D00019068CF4C0E0D0E009C086E69EE00197DD
:1009E000F1F700002196C017D10739F082E0EDDD64
:1009F000893298F302C0C0E0D0E094DD81E0C017F6
:100A0000D1070CF080E0DF91CF911F910F910895F5
:100A100083E0DBDD80934D0282E0D7DD80934C02E2
:100A200081E0D3DD80934B02089588EC8093280108
:100A300080932A0180914C02893238F40EC066DD21
:100A4000E7DF80914C02893240F080914D0289327B
:100A5000B0F780914B02893290F72FEF8FEF9AE138
:100A6000215080409040E1F700C000005BCD089528
:100A700080914C02883258F580914D02893298F06D
:100A800090914B02983278F447DDC2DF80914C029E
:100A90008832E8F480914D028932C8F080914B028F
:100AA000883290F3089590914B02993280F0883209
:100AB00070F435DDADDF80914C02883240F48091D6
:100AC0004D02883220F480914B02893290F70895CC
:100AD0000F931F93CF93DF9385E090E09093730281
:100AE000809372021FDD80914A02813009F034C088
:100AF00010924A02CEE3D0E002E010E010DD0230B6
:100B0000110531F48EE190E05DDF882329F058C0B3
:100B1000CE0158DF811154C005DD82E056DD8932F7
:100B200008F04DC0A5DFF8DC0230110531F48CE38C
:100B300090E048DF882329F043C0CE0143DF8111D4
:100B40003FC0F0DC82E041DD6496883208F437C0B3
:100B50008FDF0C5E1F4FD2CF81E080934A02CEE33D
:100B6000D0E002E010E0D8DC0230110531F48EE173
:100B700090E028DF882329F023C0CE0123DF8111F4
:100B80001FC0D0DC82E021DD8932C8F471DFC7DC10
:100B90000230110531F48CE390E014DF882329F052
:100BA0000FC0CE010FDF81110BC0BCDC82E00DDD78
:100BB0006496883220F05CDF0C5E1F4FD4CFB2DC2D
:100BC000DF91CF911F910F91089586E980932801BD
:100BD00080932A0180914C02883270F580914D02F9
:100BE000893298F090914B02983278F495DC10DFBE
:100BF00080914C02883278F580914D02893258F10B
:100C000080914B02883290F326C090914B0299322A
:100C100088F0883278F483DCFBDE80914C028832E5
:100C2000D0F480914D028832B0F480914B02893229
:100C300090F711C04DDF0FC080914D02893220F036
:100C400090914B02983240F0883220F480914B0210
:100C5000893210F43DDF66CC0895FF920F931F9305
:100C6000CF93DF9308E211E00F2EF0EFFF2EF02D6F
:100C7000CAE2D1E04BDCCCDE80914C02893250F0EC
:100C800080914D02893220F480914B02893210F01C
:100C9000CCDE11C0F801F082F88280914C028932DA
:100CA00040F080914D02883220F480914B028832CE
:100CB00008F38BDFD2DFDF91CF911F910F91FF906F
:100CC0000895611102C0D7CC0895613031F48D329E
:100CD00011F480E001C08DE2CECC0895811106C0F0
:100CE00010928B0083E880938A000895813029F464
:100CF00010928D0083E880938C000895811106C0C6
:100D000010928B0083E280938A000895813029F449
:100D100010928D0083E280938C0008954EDC2FEFBB
:100D20008FE794E0215080409040E1F700C0000040
:100D300048CC0895CF93DF93EC0181E03ADA61E08B
:100D400081E0A3DACE0193DAE9DF2FEF8FEF9CE2A7
:100D5000215080409040E1F700C00000DF91CF912A
:100D600008957BDF809176029091770201969093AF
:100D7000770280937602089580914E0290914F02FF
:100D80008330910539F4809150029091510202977D
:100D900098F409C0019781F480915002909151021A
:100DA0000297029748F48FEF8093280180932A01DD
:100DB0008AE590E0F2DD18C08EE190E0EEDD8AEA8F
:100DC0008093280180932A0101C0A9DB82E0FDDB2A
:100DD0008634D8F3A7DB2FEF8FE794E021508040D3
:100DE0009040E1F700C000008EE092E0A3DF809128
:100DF0004E0290914F02019683709078992324F4CB
:100E000001978C6F9F6F019690934F0280934E02D3
:100E100080919B0290919C02865A9F4F90939C02D6
:100E200080939B02089580914E0290914F028130F1
:100E3000910539F48091500290915102029798F4F3
:100E400009C0039781F4809150029091510202975A
:100E5000029748F48FEF8093280180932A018AE556
:100E600090E092DD0FC08EE190E08EDD8AEA809303
:100E7000280180932A0101C04FDB82E0A6DB863483
:100E8000D8F350DB89E192E055DF80914E029091DA
:100E90004F02039683709078992324F401978C6F06
:100EA0009F6F019690934F0280934E0280919B0218
:100EB00090919C02865A9F4F90939C0280939B0234
:100EC000089580914E0290914F02009781F4809195
:100ED00050029091510202970297D0F48FEF8093C5
:100EE000280180932A0184EB90E04EDD20C0029718
:100EF00079F48091500290915102029748F48FEF5B
:100F00008093280180932A0184EB90E03DDD0FC09F
:100F10008FEF8093280180932A0186E990E034DDE9
:100F200001C0FADA82E051DB8832D8F3FBDA8EE1D5
:100F300092E000DF80914E0290914F020296837002
:100F40009078992324F401978C6F9F6F019690936A
:100F50004F0280934E0280919B0290919C028C5490
:100F60009F4F90939C0280939B020895CF93DF93B1
:100F7000EC018091540290915502019721F4109256
:100F8000550210925402CE010497029788F5C4309E
:100F9000D10539F480914E0290914F02892B51F086
:100FA0000BC0C530D10541F480914E0290914F02A3
:100FB000029711F4E1DE01C036DFD3DED2DE2497E2
:100FC00039F485E090E0909351028093500206C07E
:100FD00084E090E0909351028093500280917602D9
:100FE000909177020296909377028093760245C0A3
:100FF00080914E0290914F028130910539F4809199
:10100000500290915102029778F409C0039799F425
:1010100080915002909151028230910511F4ACDE22
:101020000AC0029740F406C080915002909151028C
:10103000029709F4F8DE22973CF480914E029091D9
:101040004F02892B39F007C080914E0290914F02D8
:10105000029709F436DF85DE80918702909188023D
:1010600081709078992324F401978E6F9F6F019679
:1010700004969093510280935002DF91CF9108958E
:101080000F931F931DDB6BDB47DB80916C0290910C
:101090006D02AA2797FDA095BA2F40917E0250912C
:1010A0007F026091800270918102481759076A0798
:1010B0007B07D8F440917A0250917B0260917C02C8
:1010C00070917D02481759076A077B0770F44091B9
:1010D0006E0250916F026091700270917102481718
:1010E00059076A077B0708F446C040917E02509179
:1010F0007F02609180027091810280916E029091D6
:101100006F02A0917002B091710284179507A60733
:10111000B707C8F400917E0210917F0220918002EF
:101120003091810240917A0250917B0260917C0261
:1011300070917D0281E090E04017510762077307CC
:10114000F8F480E01DC040916E0250916F026091F2
:1011500070027091710280917A0290917B02A0914D
:101160007C02B0917D0284179507A607B70730F47B
:1011700082E090E005C083E090E002C081E090E072
:101180001F910F910895CF93DF93CDE9D2E0EBE863
:10119000F2E0A4E6B2E080E090E02EEF3FEF89932A
:1011A000999333832283318320831D921D9201966C
:1011B00034968430910599F7E0919D02F0919E025A
:1011C000EE0FFF1FEB55FD4F11821082E0919F0241
:1011D000F091A002EE0FFF1FEB55FD4F81E090E074
:1011E00091838083E091A102F091A202EE0FFF1F94
:1011F000EB55FD4F82E090E091838083E091A30264
:10120000F091A402EE0FFF1FEB55FD4F83E090E03D
:10121000918380838FEF9FEF909386028093850266
:1012200090938402809383029093B4028093B302DC
:101230009093B2028093B102DF91CF910895CF9342
:10124000DF938EE190E08EDB81E090E09093550299
:101250008093540280915002909151022091870214
:10126000309188022817390789F120914E02309178
:101270004F022D7F2130310541F48330910511F06B
:10128000892B11F479DD01C0CEDD80918702909128
:1012900088028230910538F420914E0230914F023D
:1012A0002230310549F00297029738F480914E02BE
:1012B00090914F02892B09F404DE53DD809187025F
:1012C00090918802909351028093500280918702FE
:1012D000909188028230910530F420914E02309135
:1012E0004F02232B49F00297029740F480914E025F
:1012F00090914F02029711F43FDD01C094DDC0913F
:101300008702D0918802BCDECC0FDD1FCC0FDD1F21
:10131000C557DD4F9983888324E030E047E554E0EA
:1013200061E081E00E946001E0918702F091880213
:10133000EE0FFF1FEE0FFF1FE557FD4F80819181DC
:10134000F9DC2091870230918802F901EE0FFF1F2E
:10135000EE0FFF1FE557FD4F808191818F3F4FEFCB
:10136000940751F0F901EE0FFF1FE356FD4F208166
:1013700031818217930749F4809100029091010214
:1013800001979093010280930002DF91CF9108951D
:10139000CF93DF938091540290915502892B39F5B8
:1013A00080914E0290914F02892B71F480915002EE
:1013B00090915102029720F48EE190E0D3DA11C0AF
:1013C0008EE190E0D8DA0DC08091500290915102E8
:1013D000029720F48EE190E0CEDA03C08EE190E037
:1013E000C1DA81E090E0909355028093540280919D
:1013F0008702909188028230910530F420914E024C
:1014000030914F02232B69F09C0122503109223088
:10141000310548F440914E0250914F02423051053F
:1014200011F401DD14C0029730F480914E029091C6
:101430004F02029749F02230310540F480914E026C
:1014400090914F02892B11F497DC01C03ADDC091D5
:101450008702D091880214DECC0FDD1FCC0FDD1F78
:10146000C557DD4F9B838A838091870290918802C4
:10147000FC01EE0FFF1FEE0FFF1FE557FD4F22810E
:1014800033812F3F4FEF340751F0FC01EE0FFF1F68
:10149000E356FD4F408151812417350751F42091C7
:1014A0000002309101022150310930930102209352
:1014B0000002FC01EE0FFF1FEC59FD4F81E090E0B0
:1014C0009183808380915202909153020196909370
:1014D000530280935202DF91CF910895CF93DF930F
:1014E000EC01682F80E0EDDB8C2FF8DB8C2F06DC25
:1014F0006C2F8DE2E6DB809102029091030201974E
:101500009093030280930202CD2B21F483E292E0B8
:1015100011DC03C08DE292E00DDCDF91CF910895E4
:101520000F931F93CF93DF938C01EB0120918702E0
:101530003091880240915002509151022417350792
:1015400009F07DC0C9012230310530F440914E02CE
:1015500050914F02452B61F0225031092230310564
:1015600068F440914E0250914F024230510531F4DF
:101570000C171D0709F44CC0A4DC4AC08230910549
:1015800038F440914E0250914F024230510549F0DB
:101590002230310558F440914E0250914F02452BB4
:1015A00029F40C171D07A1F58CDC32C0823091059F
:1015B00038F440914E0250914F024130510551F0A4
:1015C0002230310570F440914E0250914F02433069
:1015D000510539F40C171D0711F0CEDB19C023DCBF
:1015E00017C0029730F480914E0290914F020397FA
:1015F00049F02230310560F480914E0290914F0203
:10160000019731F40C171D0711F4B6DB01C00BDC98
:101610008091540290915502019709F064C0809125
:101620004E0290914F028D7F892B09F05CC08EE1B4
:1016300090E0A1D9109255021092540254C08091AA
:101640004E0290914F028D7F019749F4211531058B
:1016500019F02330310511F48FDB01C0E4DB209158
:101660004E0230914F022115310521F02230310513
:1016700091F507C080918702909188020297C8F483
:1016800007C080918702909188020297029788F4A0
:1016900080915002909151020497029710F0C3DBA1
:1016A00060DB0C171D0711F45CDB15C05ADB09DC8D
:1016B00012C080915002909151020497029710F04D
:1016C000B2DB4FDB0C171D0719F4FBDB4ADB03C051
:1016D000F8DB47DBF6DB80918702909188029093DC
:1016E000510280935002DF91CF911F910F91089585
:1016F0000F931F93CF93DF938C01EB01FC01EE0F4F
:10170000FF1FEF54FD4FA0918702B0918802AA0FEE
:10171000BB1FA60FB71FAA0FBB1FA557BD4F8D91AB
:101720009C9191838083C801FBDEC801D7DE809144
:10173000870290918802880F991FC80FD91FCC0F7C
:10174000DD1FC557DD4F8FEF9FEF99838883DF91B2
:10175000CF911F910F9108950F931F93CF93DF9314
:10176000EC018B01FC01EE0FFF1FEF54FD4FDB017D
:10177000AA0FBB1FAD57BD4F8D919C919183808364
:10178000C617D70739F480914E0290914F02892BEA
:1017900049F406C080914E0290914F02029711F4D5
:1017A00090DB0CC080914E0290914F028D7F01978B
:1017B00029F4209711F437DB01C0DEDACE018EDE8A
:1017C000F801EE0FFF1FED57FD4F8FEF9FEF918355
:1017D0008083DF91CF911F910F910895EF92FF9237
:1017E0000F931F93CF93DF9320918702309188024C
:1017F0002230310530F480914E0290914F020297D1
:1018000079F0C9010297029780F480914E0290917D
:101810004F02892B79F0C1E0D0E000E010E00EC06B
:10182000C0E0D0E001E010E009C0C1E0D0E000E09D
:1018300010E004C0C0E0D0E001E010E0F901EE0FDC
:10184000FF1FEC59FD4F80819181892B79F4F901BB
:10185000EE0FFF1FEE0FFF1FE557FD4F80819181B7
:10186000029619F4ECDC94DD01C092DD2091870230
:1018700030918802F901EE0FFF1FEE0FFF1FE557B1
:10188000FD4F40815181F901EE0FFF1FE356FD4FDF
:10189000808191814817590721F04F3F6FEF56071C
:1018A00089F4F901EE0FFF1FEE0FFF1FE557FD4F03
:1018B000628173818617970709F4EEC16F3F7F4FEE
:1018C00009F4EAC16091020270910302623071056D
:1018D00009F0B0C0E091AD02F091AE02DF01AA0FB5
:1018E000BB1FA356BD4F6D917C914617570779F0EA
:1018F000D901AA0FBB1FAA0FBB1FA557BD4F129638
:10190000ED90FC9013976E157F0559F405C060E0CB
:1019100070E0C801EDDE8EC061E070E0CE01E8DE6F
:1019200089C08E159F0509F44EC0EF20E09409F49C
:101930004AC04817590769F04F3FAFEF5A0749F0BF
:1019400061E070E0CE01D4DE60E070E0C801D0DE7E
:1019500071C021703078332334F4215031092E6F57
:101960003F6F2F5F3F4FD901AA0FBB1FAD57BD4F30
:101970002D913C912F3F3F4F09F1DF01AA0FBB1F73
:10198000AA0FBB1FA557BD4F2D913C91621773073E
:10199000A9F02F3F3F4F91F0EE0FFF1FEE0FFF1FFB
:1019A000E557FD4F228133816217730739F02F3FCE
:1019B0003F4F21F04817590709F06EC161E070E010
:1019C000CE0196DE37C04817590709F465C14F3F6D
:1019D0005F4F09F461C121703078332334F4215012
:1019E00031092E6F3F6F2F5F3F4FD901AA0FBB1FE9
:1019F000AD57BD4F8D919C910196C1F0DF01AA0FAB
:101A0000BB1FAA0FBB1FA557BD4F8D919C9111976E
:101A10006817790759F0019649F0FD018281938199
:101A20006817790719F0019609F036C160E070E097
:101A3000C8015EDE8091020290910302019709F0D5
:101A40002BC1F801EE0FFF1FEF54FD4F80819181F4
:101A5000019609F4E801BE016F5F7F4F61707078F5
:101A6000772334F4615071096E6F7F6F6F5F7F4F22
:101A700080918702909188029C01217030783323F5
:101A800034F4215031092E6F3F6F2F5F3F4FF90122
:101A9000EE0FFF1FED57FD4F208131812F3FAFEF3C
:101AA0003A07D9F5FC01EE0FFF1FEC0FFD1FEE0FFB
:101AB000FF1FE557FD4F208131812F3FEFEF3E079C
:101AC00071F0FC01EE0FFF1FE356FD4F4081518185
:101AD0002417350721F0BE01CE010ADEDDC0FC016E
:101AE000EE0FFF1FE60FF71FEE0FFF1FE557FD4F2D
:101AF000208131812F3F4FEF340709F4CDC0FC0125
:101B0000EE0FFF1FE356FD4F8081918128173907A3
:101B100009F4C2C0CE01ECDDBFC04091AD025091CE
:101B2000AE02FA01EE0FFF1FE356FD4F0190F08168
:101B3000E02DDC01AA0FBB1FAA0FBB1FA557BD4F8D
:101B40000D90BC91A02DAE17BF0771F0DC01AA0F5C
:101B5000BB1FAA0FBB1FA557BD4F12960D90BC917E
:101B6000A02DEA17FB07D9F5DA01AA0FBB1FAC5964
:101B7000BD4F2D913C912130310509F08DC0DA0126
:101B8000AA0FBB1FAA0FBB1FA557BD4F2D913C919C
:101B90002F3F3F4F79F0DA01AA0FBB1FAA0FBB1FDF
:101BA000A557BD4F12962D913C9113972F3F3F4F54
:101BB00009F072C0880F991F8C0F9D1FDC01AA0FBE
:101BC000BB1FA557BD4F8D919C91E817F90721F4D4
:101BD000BE01CE018DDD60C0CE018ADD5DC0DC01BD
:101BE000AA0FBB1FA356BD4F0D90BC91A02D2A1765
:101BF0003B0709F451C02E173F0709F44DC0FA0105
:101C0000EE0FFF1FEC59FD4F20813181213031054E
:101C100009F042C0FA01EE0FFF1FEE0FFF1FE5575C
:101C2000FD4F20813181A217B307B1F1FA01EE0F08
:101C3000FF1FEE0FFF1FE557FD4F22813381A217D3
:101C4000B30751F1FC01EE0FFF1FEC0FFD1FEE0F6C
:101C5000FF1FE557FD4F208131812F3FEFEF3E07FA
:101C600039F0A217B30721F0BE01CE0141DD14C047
:101C7000880F991F860F971FFC01EE0FFF1FE55776
:101C8000FD4F808191818F3F2FEF920729F0A81798
:101C9000B90711F0CE012CDDDF91CF911F910F918B
:101CA000FF90EF900895CF93DF93EC01682F80E0D1
:101CB00008D88C2F13D86C2F8DE203D88C2F1ED808
:101CC0008091020290910302019690930302809307
:101CD0000202CD2B21F486E392E02CD803C080E4ED
:101CE00092E028D8DF91CF9108950F931F93CF935F
:101CF000DF93EC01E0918702F0918802EE0FFF1F65
:101D0000E60FF71FEE0FFF1FE557FD4F8C01000F89
:101D1000111F0F541D4FD8018D919C919183808389
:101D2000CE01FEDBCE01BFDF8FEF9FEFF801918385
:101D300080838091560290915702019690935702AA
:101D400080935602DF91CF911F910F910895CF9309
:101D5000DF93EC01FB01EE0FFF1FED57FD4FDC01A0
:101D6000AA0FBB1FAF54BD4F8D919C91918380836F
:101D7000C617D70739F480914E0290914F02892BF4
:101D800049F406C080914E0290914F02029711F4DF
:101D900098D80DC080914E0290914F028D7F01978F
:101DA00031F4209711F43FD802C00E94BC06CE0146
:101DB0007ADFCC0FDD1FCF54DD4F8FEF9FEF99837C
:101DC0008883DF91CF910895CF93DF939C012F5F9C
:101DD0003F4F21703078332334F4215031092E6F76
:101DE0003F6F2F5F3F4FD22FC32FE0918702F091BB
:101DF0008802AF01440F551F240F351FD901AA0FC8
:101E0000BB1FA557BD4F2D913C91DA01A356BD4F85
:101E10004D915C912417350769F0A091AD02B09106
:101E2000AE02AA0FBB1FA356BD4F6D917C91261722
:101E30003707A9F0EE0FFF1FE80FF91FEE0FFF1F86
:101E4000E557FD4F0190F081E02D4E175F0739F007
:101E5000319629F0BC018D2F9C2F4ADC0BC0241732
:101E6000350741F02F3F3F4F29F06D2F7C2F8D2FED
:101E70009C2F3EDCDF91CF9108950F931F93CF935A
:101E8000DF9320918702309188022230310530F4AF
:101E900080914E0290914F02029779F0C90102970A
:101EA000029780F480914E0290914F02892B79F035
:101EB00001E010E0C0E0D0E00EC000E010E0C1E0C2
:101EC000D0E009C001E010E0C0E0D0E004C000E0D4
:101ED00010E0C1E0D0E04091020250910302423094
:101EE000510509F43BC1F901EE0FFF1FE356FD4F09
:101EF000408151818091B1029091B202841795077F
:101F000041F08091B3029091B4024817590709F04B
:101F100025C1F901EE0FFF1FEC59FD4F8081918122
:101F2000892B09F48CD98091020290910302892BAC
:101F300009F048C02091870230918802F901EE0F24
:101F4000FF1FE356FD4F80819181FE01EE0FFF1FC1
:101F5000EF54FD4F4081518148175907A9F4F90109
:101F6000EE0FFF1FEE0FFF1FE557FD4F80819181A0
:101F7000019629F460E070E0CE01B7DE23C061E095
:101F800070E0CE01B2DE1EC0F801EE0FFF1FEF546D
:101F9000FD4F4081518184179507A1F4F901EE0F9F
:101FA000FF1FEE0FFF1FE557FD4F808191810196C6
:101FB00029F061E070E0C80198DE04C060E070E0E4
:101FC000C80193DE2091870230918802F901EE0F5B
:101FD000FF1FE356FD4F808191814091B1025091E6
:101FE000B2024817590741F04091B3025091B40230
:101FF0008417950709F0B2C0F901EE0FFF1FEE0F2D
:10200000FF1FE557FD4F80819181019609F445C07E
:10201000F901EE0FFF1FEE0FFF1FE557FD4F828105
:1020200093810196C9F0F901EE0FFF1FEC59FD4FA6
:1020300080819181892B81F4ABD9209187023091E5
:102040008802F901EE0FFF1FEE0FFF1FE557FD4F4E
:1020500080819181019609F1F901EE0FFF1FEE0FCA
:10206000FF1FE557FD4F828193810196B1F0DE019C
:10207000AA0FBB1FAF54BD4FF901EE0FFF1FE35670
:10208000FD4F4D915C91808191814817590719F45A
:10209000CE019ADE02C0C80197DE8091870290913E
:1020A0008802FC01EE0FFF1FE356FD4F20813181B6
:1020B000FE01EE0FFF1FEF54FD4F4081518142178B
:1020C000530711F5FC01EE0FFF1FEE0FFF1FE55741
:1020D000FD4F408151814F3F5F4F29F460E070E038
:1020E000CE0103DE3BC0FC01EE0FFF1FEE0FFF1F12
:1020F000E557FD4F428153814F3F5F4F29F461E027
:1021000070E0CE01F2DD2AC0F801EE0FFF1FEF54A0
:10211000FD4F408151812417350701F5FC01EE0F79
:10212000FF1FEE0FFF1FE557FD4F208131812F3F2D
:102130003F4F29F460E070E0C801D7DD0FC0FC011B
:10214000EE0FFF1FEE0FFF1FE557FD4F82819381BA
:10215000019621F461E070E0C801C7DDDF91CF9105
:102160001F910F9108950F931F93CF93DF932091A9
:10217000B1023091B2022F3F1FEF310741F0F90158
:10218000EE0FFF1FEB55FD4FC081D18102C0CEEF96
:10219000DFEFE091B302F091B402EF3F4FEFF407AD
:1021A00009F453C1DF01AA0FBB1FAB55BD4F4D91C1
:1021B0005C9180918702909188020196817090785D
:1021C000992324F401978E6F9F6F0196BC010296AC
:1021D000D0938802C09387022F3FAFEF3A07D9F11F
:1021E000DE01AA0FBB1FAA0FBB1FA557BD4F0D9045
:1021F000BC91A02D119669F0DE01AA0FBB1FAA0F9A
:10220000BB1FA557BD4F12960D90BC91A02D1196E6
:1022100011F5319609F007C1660F771FFB01ED57E5
:10222000FD4F20813181FB01E356FD4F40815181FB
:102230002417350759F0FC01EE0FFF1FE356FD4F41
:10224000808191812817390709F0EDC0BE0181E036
:1022500090E082DAE8C0EF3FAFEFFA0709F451C02F
:10226000DA01AA0FBB1FAA0FBB1FA557BD4F0D90C8
:10227000BC91A02D119609F40AC1DA01AA0FBB1F67
:10228000AA0FBB1FA557BD4F12960D90BC91A02D54
:102290001196B9F5EAC02F3F3F4F09F0C4C09B012A
:1022A000220F331FF901ED57FD4F40815181F90194
:1022B000E356FD4F208131814217530709F0B3C027
:1022C000FC01EE0FFF1FE356FD4F808191814817FF
:1022D000590709F0A8C081E090E03EDAA4C0FB01F4
:1022E000EE0FFF1FED57FD4F80819181019609F0A0
:1022F0009AC02F3F3F4F09F496C081E090E027DD60
:1023000092C02F3F1FEF3107A1F0DB01AA0FBB1FC7
:10231000AD57BD4F8D919C91019631F4319621F0CE
:1023200081E090E014DD7FC0309388022093870223
:102330007AC0F0938802E093870275C0A801440F29
:10234000551FFA01ED57FD4F20813181FA01E35607
:10235000FD4F408151812417350751F0FC01EE0FEC
:10236000FF1FE356FD4F608171812617370781F407
:102370002F3FAFEF3A0731F1F901EE0FFF1FEB5599
:10238000FD4F8081918190938802809387024BC09A
:102390002F3F3F4FB9F0B80180E090E0DDD90F5FEB
:1023A0001F4F01701078112334F4015011090E6F82
:1023B0001F6F0F5F1F4F0C5F1F4F1093880200931A
:1023C000870231C0F801EE0FFF1FEC59FD4F20814D
:1023D00031812130310519F5F801EE0FFF1FEE0FA5
:1023E000FF1FE557FD4F208131814217530719F038
:1023F0002F3F3F4FA1F4F801EE0FFF1FEE0FFF1F1D
:10240000E557FD4F228133814217530719F02F3FC3
:102410003F4F29F4909388028093870204C0109361
:102420008802009387028091870290918802029629
:1024300083709078992324F401978C6F9F6F019695
:102440009093AE028093AD022EC08091870290914E
:102450008802019662E070E0ADD48C01BC01029666
:102460002F3FAFEF3A07C1F469CF509388024093F2
:102470008702FA01EE0FFF1FEE0FFF1FE557FD4F1A
:10248000428153814F3F5F4F09F029CF04CF5093D2
:10249000880240938702FFCED0938802C0938702C0
:1024A0004EEF5FEF9DCEDF91CF911F910F91089579
:1024B0008F929F92AF92BF92CF92DF92EF92FF9254
:1024C0000F931F93CF93DF9340918702509188021F
:1024D0004230510530F480914E0290914F020297A4
:1024E00079F0CA010297029780F480914E02909190
:1024F0004F02892B79F001E010E0C0E0D0E00EC07F
:1025000000E010E0C1E0D0E009C001E010E0C0E070
:10251000D0E004C000E010E0C1E0D0E09A012170FA
:102520003078332334F4215031092E6F3F6F2F5F01
:102530003F4FB22EA32EF901EE0FFF1FED57FD4FB7
:1025400020813181FA01EE0FFF1FE356FD4F80819C
:1025500091812817390779F08091AD029091AE02F0
:10256000FC01EE0FFF1FE356FD4F40815181241700
:10257000350709F0A6C08091020290910302181657
:1025800019060CF095C0F901EE0FFF1FEB55FD4F3A
:10259000608171817093880260938702FE01EE0F63
:1025A000FF1FEF54FD4F80819181019669F46170A6
:1025B0007078772334F4615071096E6F7F6F6F5FAD
:1025C0007F4FCE01C9D815C0F801EE0FFF1FEF54A1
:1025D000FD4F80819181019661F46170707877235D
:1025E00034F4615071096E6F7F6F6F5F7F4FC80168
:1025F000B3D88091020290910302019709F46DC152
:102600008091870290918802FC01EE0FFF1FEE0F70
:10261000FF1FE557FD4F208131812F3F3F4F09F4C8
:102620005CC1FC01EE0FFF1FEE0FFF1FE557FD4FD2
:10263000228133812F3F3F4F09F44FC19C0121700C
:102640003078332334F4215031092E6F3F6F2F5FE0
:102650003F4F622F732FF901EE0FFF1FED57FD4F14
:10266000208131812F3F3F4F09F037C1FC01EE0F30
:10267000FF1FE356FD4F80819181FE01EE0FFF1F8A
:10268000EF54FD4F208131812817390719F4C80113
:102690005EDB23C1F801EE0FFF1FEF54FD4F2081D9
:1026A00031818217930709F018C1CE0150DB15C1A3
:1026B0008091AD029091AE02909388028093870240
:1026C0000CC1FE01EE0FFF1FEF54FD4F0190F08192
:1026D000E02D4E175F0709F48FC0D801AA0FBB1F6A
:1026E000AF54BD4F8D909C904815590509F484C096
:1026F000E0900202F0900302E114F10409F44EC0EC
:10270000B1E0EB16F10429F42F3F6FEF3607B1F576
:1027100009C0670171E0C71AD108A2E0CA16D10446
:1027200008F065C06C01CC0CDD1CCC0CDD1CB601C6
:1027300065577D4FDB01CD90DC904C155D0521F098
:10274000CD20C09409F053C06C01CC0CDD1CCC0C26
:10275000DD1CB60165577D4FDB011296CD90DC90F4
:1027600013974C155D0521F0CD20C09409F03FC0B2
:102770001E141F049CF42F3F3F4F81F0319631F41B
:102780006B2D7A2DCE010E94AC0B08C0892080945D
:1027900029F46B2D7A2DC8010E94AC0B8091870221
:1027A00090918802BC016F5F7F4F617070787723D2
:1027B00034F4615071096E6F7F6F6F5F7F4F6C5F94
:1027C0007F4F81709078992324F401978E6F9F6FCB
:1027D000019604960E94B607C6DC8091870290910C
:1027E00088020497029708F089C0BDDC87C09093E7
:1027F00088028093870271C0A0910202B091030207
:102800001097C1F5DC01AA0FBB1FAC59BD4F0D904D
:10281000BC91A02DA130B105D9F4DC01AA0FBB1FDA
:10282000AA0FBB1FA557BD4F0D90BC91A02D1196AF
:1028300009F44BC0DC01AA0FBB1FAA0FBB1FA55791
:10284000BD4F12968D919C911397019619F43DC03E
:10285000AB2BD9F52F3F3F4FC1F54E175F0729F43A
:102860006B2D7A2DC80173DA30C06B2D7A2DCE0115
:102870006EDA2BC0119749F5DC01AA0FBB1FAA0F16
:10288000BB1FA557BD4F4D915C914F3F5F4F69F006
:10289000DC01AA0FBB1FAA0FBB1FA557BD4F129685
:1028A0008D919C911397019681F42F3F3F4F69F0D2
:1028B000319631F46B2D7A2DCE010E94AC0B05C000
:1028C0006B2D7A2DC8010E94AC0B8091AD029091C6
:1028D000AE02909388028093870280918702909144
:1028E0008802029683709078992324F401978C6F64
:1028F0009F6F01969093AE028093AD02DF91CF91CE
:102900001F910F91FF90EF90DF90CF90BF90AF900D
:102910009F908F90089580918B0290918C022091CE
:102920009D0230919E028217930709F05FC02091AB
:102930008D0230918E028217930709F057C0809163
:102940008F029091900220919F023091A0028217F5
:10295000930709F04BC020919102309192028217A7
:10296000930709F043C08091870290918802FC018F
:10297000EE0FFF1FEE0FFF1FE557FD4F2081318146
:10298000FC01EE0FFF1FE356FD4F408151812417DC
:10299000350761F5FC01EE0FFF1FEE0FFF1FE55736
:1029A000FD4F828193812817390701F580918302B9
:1029B000909184020196D1F48091850290918602D3
:1029C0000196A1F48091B1029091B202019671F446
:1029D0008091B3029091B402019641F4809100027B
:1029E00090910102909357028093560208950E949D
:1029F000D6040E9494000E94FE000E945D030E9483
:102A0000C30880E797E190936D0280936C02109267
:102A100088021092870282E090E09093AE02809349
:102A2000AD022091560230915702809100029091A0
:102A3000010228173907A4F520DA809152029091FB
:102A40005302039709F467DF209156023091570231
:102A500080910002909101022817390709F10E9424
:102A6000EE0B8091870290918802BC0161707078B2
:102A7000772334F4615071096E6F7F6F6F5F7F4F02
:102A80006C5F7F4F0E94B60713DD20915602309194
:102A9000570280910002909101022817390764F2D1
:102AA00080E090E008955058BB27AA270ED048C177
:102AB00039D130F03ED120F031F49F3F11F41EF4B3
:102AC0002EC10EF4E095E7FB24C1E92F4AD180F333
:102AD000BA17620773078407950718F071F49EF51B
:102AE00062C10EF4E0950B2EBA2FA02D0B01B90197
:102AF00090010C01CA01A0011124FF27591B99F074
:102B0000593F50F4503E68F11A16F040A22F232F7F
:102B1000342F4427585FF3CF469537952795A795CF
:102B2000F0405395C9F77EF41F16BA0B620B730B76
:102B3000840BBAF09150A1F0FF0FBB1F661F771FE7
:102B4000881FC2F70EC0BA0F621F731F841F48F49C
:102B5000879577956795B795F7959E3F08F0B3CF22
:102B60009395880F08F09927EE0F9795879508950C
:102B70000CD0E6C0DED040F0D5D030F021F45F3F7D
:102B800019F0C7C0511110C1CAC0EBD098F39923F6
:102B9000C9F35523B1F3951B550BBB27AA27621721
:102BA0007307840738F09F5F5F4F220F331F441F66
:102BB000AA1FA9F333D00E2E3AF0E0E830D091509E
:102BC0005040E695001CCAF729D0FE2F27D0660F8B
:102BD000771F881FBB1F261737074807AB07B0E8CA
:102BE00009F0BB0B802DBF01FF2793585F4F2AF0E0
:102BF0009E3F510568F08DC0D7C05F3FECF3983E13
:102C0000DCF3869577956795B795F7959F5FC9F73C
:102C1000880F911D9695879597F90895E1E0660FC5
:102C2000771F881FBB1F621773078407BA0720F03E
:102C3000621B730B840BBA0BEE1F88F7E0950895A7
:102C400098D088F09F5790F0B92F9927B751A0F0EE
:102C5000D1F0660F771F881F991F1AF0BA95C9F730
:102C600012C0B13081F09FD0B1E008959CC0672FB1
:102C7000782F8827B85F39F0B93FCCF386957795E0
:102C80006795B395D9F73EF49095809570956195C9
:102C90007F4F8F4F9F4F0895E89409C097FB3EF4F4
:102CA00090958095709561957F4F8F4F9F4F992399
:102CB000A9F0F92F96E9BB279395F6958795779517
:102CC0006795B795F111F8CFFAF4BB0F11F460FFD7
:102CD0001BC06F5F7F4F8F4F9F4F16C0882311F02F
:102CE00096E911C0772321F09EE8872F762F05C043
:102CF000662371F096E8862F70E060E02AF09A95DE
:102D0000660F771F881FDAF7880F9695879597F9D2
:102D1000089597F99F6780E870E060E008959FEF5D
:102D200080EC089500240A94161617061806090662
:102D3000089500240A941216130614060506089531
:102D4000092E0394000C11F4882352F0BB0F40F4B9
:102D5000BF2B11F460FF04C06F5F7F4F8F4F9F4FF9
:102D6000089557FD9058440F551F59F05F3F71F07B
:102D70004795880F97FB991F61F09F3F79F08795E2
:102D80000895121613061406551FF2CF4695F1DF6B
:102D900008C0161617061806991FF1CF86957105FB
:102DA000610508940895E894BB2766277727CB012F
:102DB00097F9089597FB072E16F4009406D077FD37
:102DC00008D01AD007FC05D03EF4909581959F4F0E
:102DD0000895709561957F4F0895A29FB001B39FAC
:102DE000C001A39F700D811D1124911DB29F700D14
:102DF000811D1124911D0895AA1BBB1B51E107C021
:102E0000AA1FBB1FA617B70710F0A61BB70B881F7A
:102E1000991F5A95A9F780959095BC01CD01089509
:042E2000F894FFCF54
:102E2400080002005468726573686F6C640052692C
:102E3400676874207475726E004C656674207475CE
:102E4400726E007069636B526967687400706963BD
:102E54006B4C6566740064726F70526967687400C5
:0A2E640064726F704C656674000024
:00000001FF
