S0130000696D70726F7644656C61792E7372656385
S113000071C00000BCC100008CC000008AC00000A8
S113001088C0000086C0000084C0000082C00000C8
S113002080C000007EC000007CC000007AC00000D8
S113003078C0000076C0000074C0000072C00000E8
S113004070C000006EC000006CC000006AC00000F8
S113005068C0000066C0000064C0000062C0000008
S113006060C000005EC000005CC000005AC0000018
S113007058C0000056C0000054C0000052C0000028
S113008050C000004EC000004CC000004AC0000038
S113009048C0000046C0000044C0000042C0000048
S11300A040C000003EC000003CC000003AC0000058
S11300B038C0000036C0000034C0000032C0000068
S11300C030C000002EC000002CC000002AC0000078
S11300D028C0000026C0000024C0000022C0000088
S11300E020C0000011241FBECFEFD1E2DEBFCDBF80
S11300F000E00CBF12E0A0E0B2E0ECE6F6E000E0C5
S11301000BBF02C007900D92A030B107D9F722E0CF
S1130110A0E0B2E001C01D92AC35B207E1F79CD279
S1130120A3C26ECF86E69EE00197F1F700004098E7
S1130130419880E388B9429A8FEF97E40197F1F7E9
S113014000C00000429886E69EE00197F1F70000A7
S11301504098419880E388B9429A8FEF97E40197D9
S1130160F1F700C00000429886E69EE00197F1F79F
S113017000004098419880E388B9429A8FEF97E451
S11301800197F1F700C00000429886E69EE00197CF
S1130190F1F700004098419880E288B9429A8FEFC5
S11301A097E40197F1F700C000004298089598B1D0
S11301B09F7098B998B1282F207F922B98B94098B6
S11301C04198429AEFEFF7E43197F1F700C000004D
S11301D0429898B19F7098B998B18295807F892B85
S11301E088B940984198429A8FEF97E40197F1F7C4
S11301F000C000004298089595DF86E69EE00197CE
S1130200F1F7000088E2D3DF81E0D1DF86E0CFDFC1
S11302108EE0CDDF80E8CBCF0895E1E2F1E01082FB
S11302208FEF8093250191E090932401109229018E
S11302308093280110922B0180932A0110922D01A2
S113024080932C0189EA809320018BE080830895B8
S113025081B18F6081B982B1807F82B9EAE0F1E037
S1130260808188618083EBE0F1E080818861808314
S1130270089592B1907F8F70982B92B9089586E07B
S1130280F8CF089585E0F5CF08958AE0F2CF089578
S113029080E0EFCF089587B1876F87B988B1807800
S11302A088B908958AB18E6F8AB9589A089510BA98
S11302B011BA10920701109208010895259A2D9AF7
S11302C00895269A2E9A0895279A2F9A0895E1E878
S11302D0F0E010828CEF8093850081E080938400AD
S11302E093E0909389008FEF8093880090938B0024
S11302F080938A0090938D0080938C009093870064
S1130300809386008BEA80938000109282008CE0B8
S113031080830895C0DFCBDF3B9A4398CFDFD1DFE2
S1130320D3DFC0CF089586B1886088B9089586B1B7
S1130330877F88B90895883018F098E090937B00FF
S11303408770806280937C00EAE7F0E080818064BB
S11303508083808184FFFDCF80917900EAE7F0E01B
S113036090819061908310927B000895F894E9E65F
S1130370F0E0808182608083E89A789408951F92E7
S11303800F920FB60F9211248F939F93AF93BF9345
S11303908091030290910402A0910502B09106029B
S11303A00196A11DB11D8093030290930402A093B2
S11303B00502B0930602BF91AF919F918F910F9068
S11303C00FBE0F901F901895EAE7F0E0108210928C
S11303D07B0080E280937C0080E880BF86E8808395
S11303E00895F89497DFC2DFEFDF32DF16DF6FDFA7
S11303F0789408955C9A5D9A089583E09CDF8093D5
S1130400020282E098DF8093010281E094DF80930E
S11304100002089588DF2FEF8FE794E02150804099
S11304209040E1F700C0000082CF08950F931F931E
S1130430CF93DF938C01181619068CF4C0E0D0E03A
S113044009C086E69EE00197F1F700002196C017E7
S1130450D10739F082E06FDF893298F302C0C0E03F
S1130460D0E016DF81E0C017D1070CF080E0DF9107
S1130470CF911F910F91089580910102883258F510
S113048080910202893298F090910002983278F4B7
S1130490F9DEB3DF809101028832E8F48091020230
S11304A08932C8F080910002883290F308959091C7
S11304B00002993280F0883270F4E7DE9EDF80918A
S11304C00102883240F480910202883220F4809143
S11304D00002893290F708950F931F93CF93DF930F
S11304E085E090E09093160280931502D1DECEE36E
S11304F0D0E002E010E0C9DE0230110531F48EE1F3
S113050090E094DF882329F023C0CE018FDF81118E
S11305101FC0BEDEB1DF82E00EDF8932C0F4B2DE7E
S11305200230110531F48CE390E080DF882329F058
S11305300FC0CE017BDF81110BC0AADE82E0FBDE9F
S11305406496883220F098DF0C5E1F4FD4CFA0DE73
S1130550DF91CF911F910F91089586E9809328012F
S113056080932A0180910102883270F58091020201
S1130570893298F090910002983278F483DE3DDF5E
S113058080910102883298F580910202893278F1D3
S113059080910002883290F32AC09091000299322F
S11305A088F0883278F471DE28DF80910102883285
S11305B0F0F4809102028832D0F4809100028932F2
S11305C090F715C089DF13C080910202893230F0A0
S11305D090910002983210F41DDF09C0883230F483
S11305E080910002893210F015DF01C075DF50CE12
S11305F00895FF920F931F93CF93DF9308E211E0C6
S11306000F2EF0EFFF2EF02DCAE2D1E038DEF5DE3A
S113061080910102893248F080910202893220F4EB
S113062080910002893208F0F5DEF801F082F88248
S113063080910102893240F080910202883220F4D4
S113064080910002883210F388DFD3DFDF91CF91ED
S11306501F910F91FF900895C4DE64DDCDDDCADEE5
S10F0660C8DF81E090E00895F894FFCF1B
S9030000FC
