:1000000071C0000081C000007FC000007DC0000002
:100010007BC0000079C0000077C0000075C0000000
:1000200073C0000071C000006FC000006DC0000010
:100030006BC0000069C0000067C0000065C0000020
:1000400063C0000061C000005FC000005DC0000030
:100050005BC0000059C0000057C0000055C0000040
:1000600053C0000051C000004FC000004DC0000050
:100070004BC0000049C0000047C0000045C0000060
:1000800043C0000041C000003FC000003DC0000070
:100090003BC0000039C0000037C0000035C0000080
:1000A00033C0000031C000002FC000002DC0000090
:1000B0002BC0000029C0000027C0000025C00000A0
:1000C00023C0000021C000001FC000001DC00000B0
:1000D0001BC0000019C0000017C0000015C00000C0
:1000E00013C0000011241FBECFEFD1E2DEBFCDBF91
:1000F00000E00CBF22E0A0E0B2E001C01D92A03100
:10010000B207E1F72BD2D3C27BCF86E69EE0019700
:10011000F1F700004098419880E388B9429A8FEF48
:1001200097E40197F1F700C00000429886E69EE050
:100130000197F1F700004098419880E388B9429A0E
:100140008FEF97E40197F1F700C00000429886E630
:100150009EE00197F1F700004098419880E388B94C
:10016000429A8FEF97E40197F1F700C000004298A0
:1001700086E69EE00197F1F700004098419880E202
:1001800088B9429A8FEF97E40197F1F700C0000019
:100190004298089598B19F7098B998B1282F207F00
:1001A000922B98B940984198429AEFEFF7E4319733
:1001B000F1F700C00000429898B19F7098B998B1CB
:1001C0008295807F892B88B940984198429A8FEF19
:1001D00097E40197F1F700C000004298089595DF79
:1001E00086E69EE00197F1F7000088E2D3DF81E028
:1001F000D1DF86E0CFDF8EE0CDDF80E8CBCF089582
:1002000098B19F7098B998B1282F207F922B98B9F8
:10021000409A4198429AEFEFF7E43197F1F700C026
:100220000000429898B19F7098B998B18295807FEC
:10023000892B88B9409A4198429A8FEF97E40197A9
:10024000F1F700C000004298089580E8A3CF089518
:10025000823069F018F4813031F00895833059F01C
:10026000843069F008958FE7860F94CF08958FEB5F
:10027000860F90CF089583E9860F8CCF089583ED84
:10028000860F88CF08950F931F93CF93DF938A0132
:10029000E901882311F0611102C0D7DF01C0D8DF66
:1002A000C530D10509F0CDC09801329522952F7047
:1002B00023273F702327A7E4B3E0EAD196958795DB
:1002C0009695879596958795C0969093040280930E
:1002D000030296DF98013695279536952795369532
:1002E0002795A5ECB0E2D4D1AC01529542954F7060
:1002F00045275F70452750930602409305029A01F7
:10030000ADECBCECC5D1969587959695879596955D
:1003100087959C01220F331F880F991F880F991F03
:10032000880F991F820F931F481B590BCA01C09653
:1003300090930F0280930E0263DF04C0C330D10597
:1003400009F084C098013695279536952795ABE737
:10035000B4E19ED1AC015695479550930602409367
:1003600005029A01ADECBCEC93D1969587959695D4
:100370008795969587959C01220F331F880F991FAB
:10038000880F991F880F991F820F931F481B590BC5
:10039000CA01C09690930B0280930A0231DF980144
:1003A000ADECBCEC75D1AC0156954795569547958B
:1003B0005695479550930602409305029A0168D1DD
:1003C0009695879596958795969587959C01220F8A
:1003D000331F880F991F880F991F880F991F820F4D
:1003E000931F481B590BCA01C09690930902809332
:1003F000080206DF03C0C130D105F1F49801ADEC6D
:10040000BCEC46D196958795969587959695879558
:100410009C01220F331F880F991F880F991F880F87
:10042000991F820F931F081B190BC801C096909348
:100430000D0280930C02E4DE269764F085E4E0DE92
:1004400009C0C430D10509F079CF44CFC230D105FD
:1004500091F6A5CFDF91CF911F910F91089587B1AC
:10046000876F87B988B1807888B9089511B812B8B4
:10047000089584B18F6084B985B1807F85B98AB1D0
:1004800080638AB98BB180638BB90895E8DFEEDFB2
:10049000F0CF0895E1E8F0E010828FEF80938500BF
:1004A00091E09093840010928900809388001092CC
:1004B0008B0080938A00109287008093860081EAE7
:1004C000809380008DE080830895EAE7F0E0108259
:1004D00080E280937C0080E880BF86E88083089576
:1004E0008770806280937C00EAE7F0E0808180641E
:1004F0008083808184FFFDCF80917900EAE7F0E07E
:100500009081906190830895CF93DF93C82FD62F69
:10051000842FE6DF80930702482F50E023E030E08D
:100520006D2F8C2FB0DEDF91CF91089595B1907F24
:100530008F70982B95B9089586E0F8CF08951092A2
:1005400089008093880010928B0060938A00089540
:10055000F8949CDF9FDFB9DF78940895F9DFD5DD4B
:100560003EDE62E382E3EBDF23E030E042E350E093
:1005700061E082E088DE23E030E042E350E065E0C5
:1005800082E081DED9DFC0E083E0AADF809302024F
:1005900084E0A6DF8093010285E0A2DF8093000261
:1005A00043E061E081E0B0DF44E065E081E0ACDFA2
:1005B00045E069E081E0A8DF90910102913508F4FF
:1005C0005BC062E382E3BBDF23E030E042E350E064
:1005D00061E082E058DE23E030E042E350E065E095
:1005E00082E051DE21E025C06EE182E3A8DF23E056
:1005F00030E042E350E061E082E045DE23E030E0BD
:100600004EE150E065E082E03EDE21E012C062E3B0
:100610008EE195DF23E030E04EE150E061E082E0E2
:1006200032DE23E030E042E350E065E082E02BDEA2
:1006300021E090910102903508F0A6CF909102023E
:10064000903508F0A1CF90910002903508F09CCF32
:1006500021119ACF6C2F8C2F72DF23E030E040E025
:1006600050E061E082E00FDE23E030E040E050E067
:1006700065E082E008DE88CF80910202803508F4D0
:10068000B3CF80910002803508F4C1CF2C2FD1CF99
:10069000A29FB001B39FC001A39F700D811D1124C3
:1006A000911DB29F700D811D1124911D0895F89424
:0206B000FFCF7A
:00000001FF
