S0160000636F6C6F725468726573686F6C642E7372656342
S113000071C000005FC200008CC000008AC0000004
S113001088C0000086C0000084C0000082C00000C8
S113002080C000007EC000007CC000007AC00000D8
S113003078C0000076C0000074C0000072C00000E8
S113004070C000006EC000006CC000006AC00000F8
S113005068C0000066C0000064C0000062C0000008
S113006060C000005EC000005CC000005AC0000018
S113007058C0000056C0000054C0000052C0000028
S113008050C000004EC000004CC000004AC0000038
S113009048C0000046C0000044C0000042C0000048
S11300A040C000003EC000003CC000003AC0000058
S11300B038C0000036C0000034C0000032C0000068
S11300C030C000002EC000002CC000002AC0000078
S11300D028C0000026C0000024C0000022C0000088
S11300E020C0000011241FBECFEFD1E2DEBFCDBF80
S11300F000E00CBF12E0A0E0B2E0EAE0FAE000E0C9
S11301000BBF02C007900D92A433B107D9F722E0C8
S1130110A4E3B2E001C01D92A035B207E1F7F7D223
S113012072C46ECF86E69EE00197F1F70000409816
S1130130419880E388B9429A8FEF97E40197F1F7E9
S113014000C00000429886E69EE00197F1F70000A7
S11301504098419880E388B9429A8FEF97E40197D9
S1130160F1F700C00000429886E69EE00197F1F79F
S113017000004098419880E388B9429A8FEF97E451
S11301800197F1F700C00000429886E69EE00197CF
S1130190F1F700004098419880E288B9429A8FEFC5
S11301A097E40197F1F700C000004298089598B1D0
S11301B09F7098B998B1282F207F922B98B94098B6
S11301C04198429AEFEFF7E43197F1F700C000004D
S11301D0429898B19F7098B998B18295807F892B85
S11301E088B940984198429A8FEF97E40197F1F7C4
S11301F000C000004298089595DF86E69EE00197CE
S1130200F1F7000088E2D3DF81E0D1DF86E0CFDFC1
S11302108EE0CDDF80E8CBCF089598B19F7098B978
S113022098B1282F207F922B98B9409A4198429AEE
S1130230EFEFF7E43197F1F700C00000429898B16E
S11302409F7098B998B18295807F892B88B9409A1C
S11302504198429A8FEF97E40197F1F700C00000AC
S11302604298089580E8A3CF0895CF93DF93EC01DB
S11302708881882329F02196D0DF89918111FCCFD0
S1130280DF91CF910895823069F018F4813031F014
S11302900895833059F0843069F008958FE7860F0C
S11302A086CF08958FEB860F82CF089583E9860F5A
S11302B07ECF089583ED860F7ACF08950F931F9311
S11302C0CF93DF938A01E901882311F0611102C001
S11302D0C9DF01C0D8DFC530D10509F0CDC0980110
S11302E0329522952F7023273F702327A7E4B3E08C
S11302F07BD3969587959695879596958795C09681
S113030090933D0280933C0288DF980136952795AF
S11303103695279536952795A5ECB0E265D3AC01C3
S1130320529542954F7045275F70452750933F0281
S113033040933E029A01ADECBCEC56D3969587955A
S113034096958795969587959C01220F331F880F64
S1130350991F880F991F880F991F820F931F481B9D
S1130360590BCA01C09690934F0280934E0255DFF9
S113037004C0C330D10509F084C09801369527958F
S113038036952795ABE7B4E12FD3AC015695479545
S113039050933F0240933E029A01ADECBCEC24D34F
S11303A09695879596958795969587959C01220FA6
S11303B0331F880F991F880F991F880F991F820F69
S11303C0931F481B590BCA01C09690934B0280930C
S11303D04A0223DF9801ADECBCEC06D3AC01569580
S11303E04795569547955695479550933F024093A8
S11303F03E029A01F9D2969587959695879596959A
S113040087959C01220F331F880F991F880F991F0E
S1130410880F991F820F931F481B590BCA01C0965E
S11304209093490280934802F8DE03C0C130D1059D
S1130430F1F49801ADECBCECD7D2969587959695DE
S11304408795969587959C01220F331F880F991FD6
S1130450880F991F880F991F820F931F081B190B70
S1130460C801C09690934D0280934C02D6DE269725
S113047064F085E4D2DE09C0C430D10509F079CF37
S113048044CFC230D10591F6A5CFDF91CF911F9112
S11304900F91089587B1876F87B988B1807888B93B
S11304A008958AB18E6F8AB9589A0895F3DFF9CF07
S11304B00895F894E9E6F0E0808182608083E89A08
S11304C0789408951F920F920FB60F9211248F9370
S11304D09F93AF93BF938091340290913502A09182
S11304E03602B09137020196A11DB11D80933402EA
S11304F090933502A0933602B0933702BF91AF9127
S11305009F918F910F900FBE0F901F901895F894A4
S1130510CDDFCFDF789408955E985F9808955E9A52
S11305205F9A08955E985F9A08955C9A5D9A08951B
S1130530F3DF1092340210923502109236021092B8
S113054037022FEF8FE794E0215080409040E1F78D
S113055000C000008091340290913502A0913602CF
S1130560B09137028093440290934502A0934602CF
S1130570B093470261E081E086DE80E092E075DEC0
S113058040914402509145026091460270914702A5
S113059025E030E061E082E091DE2FEF8FEF9CE216
S11305A0215080409040E1F700C0000081E0FFCD81
S11305B00895B5DF1092340210923502109236027B
S11305C0109237022FEF8FE794E021508040904043
S11305D0E1F700C000008091340290913502A091AF
S11305E03602B09137028093400290934102A09367
S11305F04202B093430261E081E045DE8BE092E089
S113060034DE409140025091410260914202709167
S1130610430225E030E061E082E050DE2FEF8FEF0F
S11306209CE2215080409040E1F700C0000081E04E
S1130630BECD089577DF10923402109235021092E5
S11306403602109237022FEF8FE794E0215080405A
S11306509040E1F700C0000080913402909135028F
S1130660A0913602B09137028093380290933902F8
S1130670A0933A02B0933B0261E081E004DE88E19A
S113068092E0F3DD409138025091390260913A02D0
S113069070913B0225E030E061E082E00FDE2FEF55
S11306A08FEF9CE2215080409040E1F700C00000B1
S11306B081E07DCD08953CDF2FEF8FE796E1215057
S11306C080409040E1F700C0000073DF2FEF8FE718
S11306D096E1215080409040E1F700C00000AADF7D
S11306E02FEF8FE796E1215080409040E1F700C062
S11306F0000061E081E0C7DD84E292E0B6DD81E0E4
S113070056CD089504DF0EDD77DD0FCF08950F93E6
S11307101F93CF93DF93CDB7DEB728970FB6F89426
S1130720DEBF0FBECDBFEEDF1A8219821C821B8290
S11307301E821D8218861F8204E010E0BCDF4091F7
S113074044025091450260914602709147028091A3
S1130750400290914102A0914202B0914302841759
S11307609507A607B70708F05BC040914402509173
S1130770450260914602709147028091380290913F
S11307803902A0913A02B0913B0284179507A6075B
S1130790B70708F045C029813A81809144029091BD
S11307A04502A0914602B0914702A901662757FD70
S11307B06095762F84179507A607B707F8F48091FC
S11307C0440290914502A0914602B09147024F81A4
S11307D05885662757FD6095762F481759076A078D
S11307E07B0708F0D1C08091440290914502A0910A
S11307F04602B091470298878F83C6C08F8198853F
S11308008217930714F438872F83809144029091C0
S11308104502A0914602B09147029A838983B4C0ED
S1130820409138025091390260913A0270913B0232
S11308308091400290914102A0914202B091430202
S113084084179507A607B70708F05BC040914402D8
S1130850509145026091460270914702809138029E
S113086090913902A0913A02B0913B02481759077E
S11308706A077B0708F045C02B813C8180913802D0
S113088090913902A0913A02B0913B02A9016627E6
S113089057FD6095762F84179507A607B707F8F4D8
S11308A08091380290913902A0913A02B0913B02B2
S11308B04F815885662757FD6095762F481759074D
S11308C06A077B0708F060C0809138029091390272
S11308D0A0913A02B0913B0298878F8355C08F81D3
S11308E098858217930714F438872F8380913802F0
S11308F090913902A0913A02B0913B029C838B8380
S113090043C02D813E818091400290914102A0918B
S11309104202B0914302A901662757FD6095762FE4
S113092084179507A607B707F0F4809140029091C9
S11309304102A0914202B09143024F81588566273B
S113094057FD6095762F481759076A077B07E0F42F
S11309508091400290914102A0914202B0914302E1
S113096098878F8311C08F8198858217930714F419
S113097038872F838091400290914102A0914202D6
S1130980B09143029E838D83015011090115110515
S113099009F0D4CE0F81188561E081E074DC89E22E
S11309A092E063DCA80148535F4F25E030E061E04A
S11309B082E084DC2FEF3FEF86E791E02150304066
S11309C080409040D9F700C0000081E0F0DB80E077
S11309D090E028960FB6F894DEBF0FBECDBFDF912E
S11309E0CF911F910F910895A29FB001B39FC001B1
S11309F0A39F700D811D1124911DB29F700D811D47
S10D0A001124911D0895F894FFCF0E
S1130A0A5265642050756C73657300477265656E30
S1130A1A2050756C73657300426C75652050756C53
S1130A2A736573004E657874005468726573686FF1
S1070A3A6C640000E4
S9030000FC
