S0160000636F6C6F725468726573686F6C642E7372656342
S113000071C000005FC200008CC000008AC0000004
S113001088C0000086C0000084C0000082C00000C8
S113002080C000007EC000007CC000007AC00000D8
S113003078C0000076C0000074C0000072C00000E8
S113004070C000006EC000006CC000006AC00000F8
S113005068C0000066C0000064C0000062C0000008
S113006060C000005EC000005CC000005AC0000018
S113007058C0000056C0000054C0000052C0000028
S113008050C000004EC000004CC000004AC0000038
S113009048C0000046C0000044C0000042C0000048
S11300A040C000003EC000003CC000003AC0000058
S11300B038C0000036C0000034C0000032C0000068
S11300C030C000002EC000002CC000002AC0000078
S11300D028C0000026C0000024C0000022C0000088
S11300E020C0000011241FBECFEFD1E2DEBFCDBF80
S11300F000E00CBF12E0A0E0B2E0E6ECFBE000E0C0
S11301000BBF02C007900D92AC35B107D9F722E0BE
S1130110ACE5B2E001C01D92A837B207E1F701D304
S113012050C56ECF86E69EE00197F1F70000409837
S1130130419880E388B9429A8FEF97E40197F1F7E9
S113014000C00000429886E69EE00197F1F70000A7
S11301504098419880E388B9429A8FEF97E40197D9
S1130160F1F700C00000429886E69EE00197F1F79F
S113017000004098419880E388B9429A8FEF97E451
S11301800197F1F700C00000429886E69EE00197CF
S1130190F1F700004098419880E288B9429A8FEFC5
S11301A097E40197F1F700C000004298089598B1D0
S11301B09F7098B998B1282F207F922B98B94098B6
S11301C04198429AEFEFF7E43197F1F700C000004D
S11301D0429898B19F7098B998B18295807F892B85
S11301E088B940984198429A8FEF97E40197F1F7C4
S11301F000C000004298089595DF86E69EE00197CE
S1130200F1F7000088E2D3DF81E0D1DF86E0CFDFC1
S11302108EE0CDDF80E8CBCF089598B19F7098B978
S113022098B1282F207F922B98B9409A4198429AEE
S1130230EFEFF7E43197F1F700C00000429898B16E
S11302409F7098B998B18295807F892B88B9409A1C
S11302504198429A8FEF97E40197F1F700C00000AC
S11302604298089580E8A3CF0895CF93DF93EC01DB
S11302708881882329F02196D0DF89918111FCCFD0
S1130280DF91CF910895823069F018F4813031F014
S11302900895833059F0843069F008958FE7860F0C
S11302A086CF08958FEB860F82CF089583E9860F5A
S11302B07ECF089583ED860F7ACF08950F931F9311
S11302C0CF93DF938A01E901882311F0611102C001
S11302D0C9DF01C0D8DFC530D10509F0CDC0980110
S11302E0329522952F7023273F702327A7E4B3E08C
S11302F045D4969587959695879596958795C096B6
S1130300909365028093640288DF9801369527955F
S11303103695279536952795A5ECB0E22FD4AC01F8
S1130320529542954F7045275F7045275093670259
S1130330409366029A01ADECBCEC20D49695879567
S113034096958795969587959C01220F331F880F64
S1130350991F880F991F880F991F820F931F481B9D
S1130360590BCA01C096909377028093760255DFA9
S113037004C0C330D10509F084C09801369527958F
S113038036952795ABE7B4E1F9D3AC01569547957B
S113039050936702409366029A01ADECBCECEED335
S11303A09695879596958795969587959C01220FA6
S11303B0331F880F991F880F991F880F991F820F69
S11303C0931F481B590BCA01C096909373028093E4
S11303D0720223DF9801ADECBCECD0D3AC0156958E
S11303E04795569547955695479550936702409380
S11303F066029A01C3D396958795969587959695A7
S113040087959C01220F331F880F991F880F991F0E
S1130410880F991F820F931F481B590BCA01C0965E
S11304209093710280937002F8DE03C0C130D1054D
S1130430F1F49801ADECBCECA1D396958795969513
S11304408795969587959C01220F331F880F991FD6
S1130450880F991F880F991F820F931F081B190B70
S1130460C801C0969093750280937402D6DE2697D5
S113047064F085E4D2DE09C0C430D10509F079CF37
S113048044CFC230D10591F6A5CFDF91CF911F9112
S11304900F91089587B1876F87B988B1807888B93B
S11304A008958AB18E6F8AB9589A0895F3DFF9CF07
S11304B00895F894E9E6F0E0808182608083E89A08
S11304C0789408951F920F920FB60F9211248F9370
S11304D09F93AF93BF9380915C0290915D02A09132
S11304E05E02B0915F020196A11DB11D80935C0272
S11304F090935D02A0935E02B0935F02BF91AF91AF
S11305009F918F910F900FBE0F901F901895F894A4
S11305103B9A4398CBDFCDDF789408955E985F983B
S113052008955E9A5F9A08955E985F9A08955C9A1A
S11305305D9A0895F3DF10925C0210925D021092AE
S11305405E0210925F022FEF8FE794E0215080400B
S11305509040E1F700C0000080915C0290915D0240
S1130560A0915E02B0915F0280936C0290936D0241
S1130570A0936E02B0936F0261E081E084DE80E0BC
S113058092E073DE40916C0250916D0260916E02B4
S113059070916F0225E030E061E082E08FDE2FEFA2
S11305A08FEF9CE2215080409040E1F700C00000B2
S11305B081E0FDCD0895B5DF10925C0210925D02DA
S11305C010925E0210925F022FEF8FE794E02150A9
S11305D080409040E1F700C0000080915C0290915F
S11305E05D02A0915E02B0915F02809368029093D5
S11305F06902A0936A02B0936B0261E081E043DE7A
S11306008BE092E032DE4091680250916902609181
S11306106A0270916B0225E030E061E082E04EDE18
S11306202FEF8FEF9CE2215080409040E1F700C013
S1130630000081E0BCCD089577DF10925C02109237
S11306405D0210925E0210925F022FEF8FE794E03A
S1130650215080409040E1F700C0000080915C028E
S113066090915D02A0915E02B0915F02809360025E
S113067090936102A0936202B093630261E081E00F
S113068002DE88E192E0F1DD409160025091610266
S1130690609162027091630225E030E061E082E0E3
S11306A00DDE2FEF8FEF9CE2215080409040E1F768
S11306B000C0000081E07BCD08953CDF2FEF8FE781
S11306C096E1215080409040E1F700C0000073DFC4
S11306D02FEF8FE796E1215080409040E1F700C072
S11306E00000AADF2FEF8FE796E121508040904071
S11306F0E1F700C0000061E081E0C5DD84E292E042
S1130700B4DD81E054CD089502DF0CDD75DD0FCF3B
S1130710089586B1886088B9089586B1877F88B9BD
S113072008958F929F92AF92BF92CF92DF92EF92F1
S1130730FF920F931F93CF93DF93CDB7DEB76897E4
S11307400FB6F894DEBF0FBECDBFDEDF1A8219826A
S11307501C821B821E821D8218861F8203E010E009
S1130760ACDFD7DF2FEF8FEF9CE221508040904029
S1130770E1F700C00000D1DF40916C0250916D029E
S113078060916E0270916F0280916802909169028B
S1130790A0916A02B0916B0284179507A607B70768
S11307A008F04CC040916C0250916D0260916E0251
S11307B070916F028091600290916102A091620237
S11307C0B091630284179507A607B707B8F5298186
S11307D03A8180916C0290916D02A0916E02B09169
S11307E06F02A901662757FD6095762F8417950738
S11307F0A607B70768F480916C0290916D02A091EE
S11308006E02B0916F0298878F83188B0F87AEC0EA
S11308102115310531F038872F8389859A85988B86
S11308208F8780916C0290916D02A0916E02B091BD
S11308306F029A8389831A87098798C0409160025E
S1130840509161026091620270916302809168022A
S113085090916902A0916A02B0916B028417950786
S1130860A607B70708F04CC040916C0250916D0286
S113087060916E0270916F028091600290916102AA
S1130880A0916202B0916302481759076A077B0777
S1130890B8F52D813E818091600290916102A09112
S11308A06202B0916302A901662757FD6095762F15
S11308B084179507A607B70768F4809160029091A2
S11308C06102A0916202B091630298878F83188BB2
S11308D00F874CC02115310531F038872F838D8562
S11308E09E85988B8F878091600290916102A09180
S11308F06202B09163029E838D831E870D8736C08A
S11309002B813C818091680290916902A0916A02D6
S1130910B0916B02A901662757FD6095762F841765
S11309209507A607B70768F4809168029091690259
S1130930A0916A02B0916B0298878F83188B0F87FE
S113094015C02115310531F038872F838B859C859F
S1130950988B8F878091680290916902A0916A02B6
S1130960B0916B029C838B831C870B870150110908
S113097008F0F6CEE985FA85EE0FFF1F81E090E0DE
S11309808C0F9D1FE80FF91F118A108AEB85FC85D7
S1130990EE0FFF1FE80FF91F81E090E0918B808B31
S11309A0ED85FE85EE0FFF1F8C0F9D1FE80FF91FCD
S11309B082E090E0918B808BEF85F889EE0FFF1F2A
S11309C081E090E08C0F9D1FE80FF91F83E090E019
S11309D0918B808BCF80D88461E081E054DC89E204
S11309E092E043DC98ECC90ED11C1C141D04CCF518
S11309F00F2EFAE0AF2EB12CF02D812C912CC601D4
S1130A00B501A9D07C0118161906DCF4082D192D9E
S1130A1080DE2FEF8FE794E0215080409040E1F793
S1130A2000C000007ADE2FEF8FE796E1215080406E
S1130A309040E1F700C000000F5F1F4F0E151F0527
S1130A4039F72FEF8FEF99E5215080409040E1F77F
S1130A5000C00000C601B5017ED06B011616170652
S1130A6074F225E030E0A60161E082E027DC2FEF9C
S1130A708FEF99E5215080409040E1F700C00000DD
S1130A8081E095DB83E392E0F0DB49895A8925E034
S1130A9030E061E082E012DC2FEF8FEF99E5215026
S1130AA080409040E1F700C0000081E080DB8DE3EE
S1130AB092E0DBDB4B895C8925E030E061E082E099
S1130AC0FDDB2FEF8FEF99E5215080409040E1F757
S1130AD000C0000081E06BDB87E492E0C6DB4D8957
S1130AE05E8925E030E061E082E0E8DB2FEF8FEF04
S1130AF099E5215080409040E1F700C0000081E07A
S1130B0056DB81E592E0B1DB4F89588D25E030E07A
S1130B1061E082E0D3DB2FEF8FEF99E52150804035
S1130B209040E1F700C0000081E041DB80E090E00C
S1130B3068960FB6F894DEBF0FBECDBFDF91CF919C
S1130B401F910F91FF90EF90DF90CF90BF90AF90E7
S1130B509F908F90089597FB072E16F4009406D06B
S1130B6077FD08D01AD007FC05D03EF49095819506
S1130B709F4F0895709561957F4F0895A29FB0018E
S1130B80B39FC001A39F700D811D1124911DB29FBD
S1130B90700D811D1124911D0895AA1BBB1B51E1E9
S1130BA007C0AA1FBB1FA617B70710F0A61BB70BD9
S1130BB0881F991F5A95A9F780959095BC01CD017E
S1090BC00895F894FFCF34
S1130BC65265642050756C73657300477265656E73
S1130BD62050756C73657300426C75652050756C96
S1130BE6736573004E657874005468726573686F34
S1130BF66C64004174204E6F64652031004174209A
S1130C064E6F64652032004174204E6F6465203354
S10F0C16004174204E6F6465203400001F
S9030000FC
