S01700004763634170706C69636174696F6E352E7372656357
S113000071C000008EC000008CC000008AC00000D7
S113001088C00000E3C20000BCC2000082C000002F
S113002080C000007EC000007CC000007AC00000D8
S113003078C0000076C0000074C0000072C00000E8
S113004070C000006EC000006CC000006AC00000F8
S113005068C0000066C0000064C0000062C0000008
S113006060C000005EC000005CC000005AC0000018
S113007058C0000056C0000054C0000052C0000028
S113008050C000004EC000004CC000004AC0000038
S113009048C0000046C0000044C0000042C0000048
S11300A040C000003EC000003CC000003AC0000058
S11300B038C0000036C0000034C0000032C0000068
S11300C030C000002EC000002CC000002AC0000078
S11300D028C0000026C0000024C0000022C0000088
S11300E020C0000011241FBECFEFD1E2DEBFCDBF80
S11300F000E00CBF12E0A0E0B2E0E6E9FCE000E0C2
S11301000BBF02C007900D92A630B107D9F722E0C9
S1130110A6E0B2E001C01D92A232B207E1F762D4B8
S1130120B8C56ECF86E69EE00197F1F700004098CF
S1130130419880E388B9429A8FEF97E40197F1F7E9
S113014000C00000429886E69EE00197F1F70000A7
S11301504098419880E388B9429A8FEF97E40197D9
S1130160F1F700C00000429886E69EE00197F1F79F
S113017000004098419880E388B9429A8FEF97E451
S11301800197F1F700C00000429886E69EE00197CF
S1130190F1F700004098419880E288B9429A8FEFC5
S11301A097E40197F1F700C000004298089598B1D0
S11301B09F7098B998B1282F207F922B98B94098B6
S11301C04198429AEFEFF7E43197F1F700C000004D
S11301D0429898B19F7098B998B18295807F892B85
S11301E088B940984198429A8FEF97E40197F1F7C4
S11301F000C000004298089586E69EE00197F1F75A
S1130200000088E2D4DF84E1D2DF8CE0D0DF86E036
S1130210CEDF81E0CCCF089598B19F7098B998B1A2
S1130220282F207F922B98B9409A4198429AEFEF59
S1130230F7E43197F1F700C00000429898B19F703D
S113024098B998B18295807F892B88B9409A419852
S1130250429A8FEF97E40197F1F700C000004298AB
S1130260089580E8A4CF0895CF93DF93EC018881AB
S1130270882329F02196D0DF89918111FCCFDF9169
S1130280CF910895823069F018F4813031F00895E7
S1130290833059F0843069F008958FE7860F87CF53
S11302A008958FEB860F83CF089583E9860F7FCF60
S11302B0089583ED860F7BCF08950F931F93CF93FB
S11302C0DF938A01E901882311F0611102C0C9DFBB
S11302D001C0D8DFC530D10509F0CDC098013295F1
S11302E022952F7023273F702327A7E4B3E0C2D4BD
S11302F0969587959695879596958795C0969093AC
S113030014028093130288DF980136952795369559
S1130310279536952795A5ECB0E2ACD4AC0152955F
S113032042954F7045275F704527509316024093BE
S113033015029A01ADECBCEC9DD4969587959695E3
S11303408795969587959C01220F331F880F991FD7
S1130350880F991F880F991F820F931F481B590BF1
S1130360CA01C096909321028093200255DF04C0F5
S1130370C330D10509F084C0980136952795369588
S11303802795ABE7B4E176D4AC01569547955093E5
S11303901602409315029A01ADECBCEC6BD4969511
S11303A0879596958795969587959C01220F331F7F
S11303B0880F991F880F991F880F991F820F931F09
S11303C0481B590BCA01C09690931D0280931C02CE
S11303D023DF9801ADECBCEC4DD4AC0156954795A8
S11303E05695479556954795509316024093150296
S11303F09A0140D496958795969587959695879575
S11304009C01220F331F880F991F880F991F880F93
S1130410991F820F931F481B590BCA01C0969093D2
S11304201B0280931A02F8DE03C0C130D105F1F437
S11304309801ADECBCEC1ED496958795969587955E
S1130440969587959C01220F331F880F991F880F5B
S1130450991F880F991F820F931F081B190BC8013E
S1130460C09690931F0280931E02D6DE269764F0F6
S113047085E4D2DE09C0C430D10509F079CF44CF78
S1130480C230D10591F6A5CFDF91CF911F910F9185
S1130490089587B1876F87B988B1807888B908953E
S11304A010BA11BA1092070110920801089581B18F
S11304B08F6081B982B1807F82B9EAE0F1E0808106
S11304C088618083EBE0F1E0808188618083089516
S11304D06C98749A08956D98759A0895DADFE0DF40
S11304E0E6DFF6DFF8CF0895E1E2F1E010828FEF66
S11304F08093250191E09093240110922901809327
S1130500280110922B0180932A0110922D018093CF
S11305102C0189EA809320018BE080830895EAE727
S1130520F0E0108210927B0080E280937C0080E8EF
S113053080BF86E880830895883018F098E090930F
S11305407B008770806280937C00EAE7F0E0808122
S113055080648083808184FFFDCF80917900EAE705
S1130560F0E090819061908310927B000895F8945C
S1130570EAE6F0E0808182608083EC9A78940895C2
S1130580F894EAE6F0E0808188608083ED9A7894BC
S113059008951F920F920FB60F9211248F939F9379
S11305A0AF93BF938091060290910702A091080235
S11305B0B09109020196A11DB11D8093060290938A
S11305C00702A0930802B0930902BF91AF919F91D3
S11305D08F910F900FBE0F901F9018951F920F923E
S11305E00FB60F9211248F939F93AF93BF93809173
S11305F00A0290910B02A0910C02B0910D02019697
S1130600A11DB11D80930A0290930B02A0930C02CA
S1130610B0930D02BF91AF919F918F910F900FBE38
S11306200F901F90189592B1907F8F70982B92B96C
S1130630089586E0F8CF089580E0F5CF089585E029
S1130640F2CF08958AE0EFCF089510920602109237
S11306500702109208021092090210920A021092E4
S11306600B0210920C0210920D02BC0180E090E08B
S113067073D228E431EE42E850E4DAD141D2672B58
S113068011F4DACF0895FFCFCF93DF93EC01D7DFD6
S1130690CE01DBDFDF91CF910895CF93DF93EC019F
S11306A0D1DFCE01D2DFDF91CF91089586B188608A
S11306B088B9089586B1877F88B90895F8940EDFC4
S11306C02EDF55DF5DDF3B9A43980EDF7894089563
S11306D083E032DF8093100282E02EDF80930F02EA
S11306E081E02ADF80930E02089521E030E044E0A7
S11306F050E06FE082E0E1DDA2DF2FEF8FE794E0CE
S1130700215080409040E1F700C00000E1DF80917B
S11307100F028932F0F480910E028932D0F48CDF1A
S113072091DF2FEF8FEF98E0215080409040E1F768
S113073000C00000CDDF80910F02893250F4909107
S11307401002883230F4983220F480910E028832FC
S113075060F2089586E98093280180932A01B8DF26
S113076021E030E041E050E065E081E0A6DD8091E9
S11307701002893290F063DF2FEF8FE794E021506D
S113078080409040E1F700C00000A2DF8091100299
S11307908832D8F0893278F717C080910E028932F6
S11307A090F050DF2FEF8FE794E02150804090408D
S11307B0E1F700C000008CDF80910E02883228F03F
S11307C0893278F701C091DF37CF089532DF2FEFF8
S11307D08FEF93EB215080409040E1F700C0000080
S11307E00895F4DF84E690E058DFB4CF0895EEDF97
S11307F084E690E049DFAECF089558DF2FEF8FEF06
S11308009CE2215080409040E1F700C0000052CFAC
S113081008958FEF8093280180932A0159DF8091F6
S11308200F02893258F080910E02893220F48091AF
S11308301002893218F0CADFE0CF0895FADE809101
S11308400F02893240F080910E02883220F48091A8
S11308501002883218F37EDFDCCF08950F931F93C4
S1130860CF93DF93EC018B01D4DF21E030E041E052
S113087050E06FE082E021DD21E030E041E050E033
S113088061E081E01ADDC130D10541F40230110587
S113089009F45AC004301105C9F449C0C430D10563
S11308A051F40130110509F45DC003301105C1F4A0
S11308B04BC097DF1EC0C230D10541F4033011058F
S11308C009F45DC00130110559F470C0239741F457
S11308D00430110509F46AC00230110509F44FC04F
S11308E02FEF8FEF9CE2215080409040E1F700C051
S11308F0000021E030E041E050E063E081E0DDDC35
S113090088DF21E030E042E050E06FE082E0D5DCB7
S113091093DE73DF97DE2FEF8FEF99E52150804050
S11309209040E1F700C0000087DE67DF56C05FDF5C
S113093070DF2FEF8FEF9CE2215080409040E1F771
S113094000C0000066DFB5CF52DF63DF2FEF8FEF0B
S11309509CE2215080409040E1F700C0000059DF44
S113096046DFC7CF44DF55DF2FEF8FEF9CE22150E6
S113097080409040E1F700C000004BDF9ACF31DFA8
S11309805BDE47DF59DE2FEF8FE796E12150804091
S11309909040E1F700C0000021E030E041E050E089
S11309A062E081E08ADC35DF22DFA3CF1ADF44DE98
S11309B030DF42DE2FEF8FE796E1215080409040F8
S11309C0E1F700C0000021E030E041E050E062E0E7
S11309D081E073DC1EDF05DF8CCFDF91CF911F91A7
S11309E00F910895CF93DF9300D01F921F92CDB73C
S11309F0DEB785E0E0E0F2E0DE01119601900D92B1
S1130A008A95E1F75BDE8EDBF7DB81E0D0DB61E02A
S1130A1082E038DCCE01019627DC61E070E083E0FF
S1130A2090E01CDF63E070E081E090E017DFFFCF2F
S1130A300CD0E6C0DED040F0D5D030F021F45F3FDA
S1130A4019F0C7C0511110C1CAC0EBD098F3992353
S1130A50C9F35523B1F3951B550BBB27AA2762177E
S1130A607307840738F09F5F5F4F220F331F441FC3
S1130A70AA1FA9F333D00E2E3AF0E0E830D09150FB
S1130A805040E695001CCAF729D0FE2F27D0660FE8
S1130A90771F881FBB1F261737074807AB07B0E827
S1130AA009F0BB0B802DBF01FF2793585F4F2AF03D
S1130AB09E3F510568F08DC0D7C05F3FECF3983E70
S1130AC0DCF3869577956795B795F7959F5FC9F79A
S1130AD0880F911D9695879597F90895E1E0660F23
S1130AE0771F881FBB1F621773078407BA0720F09C
S1130AF0621B730B840BBA0BEE1F88F7E095089505
S1130B0098D088F09F5790F0B92F9927B751A0F04B
S1130B10D1F0660F771F881F991F1AF0BA95C9F78D
S1130B2012C0B13081F09FD0B1E008959CC0672F0E
S1130B30782F8827B85F39F0B93FCCF3869577953D
S1130B406795B395D9F73EF4909580957095619526
S1130B507F4F8F4F9F4F0895E89409C097FB3EF451
S1130B6090958095709561957F4F8F4F9F4F9923F6
S1130B70A9F0F92F96E9BB279395F6958795779574
S1130B806795B795F111F8CFFAF4BB0F11F460FF34
S1130B901BC06F5F7F4F8F4F9F4F16C0882311F08C
S1130BA096E911C0772321F09EE8872F762F05C0A0
S1130BB0662371F096E8862F70E060E02AF09A953B
S1130BC0660F771F881FDAF7880F9695879597F930
S1130BD0089597F99F6780E870E060E008959FEFBB
S1130BE080EC089500240A941616170618060906C0
S1130BF0089500240A94121613061406050608958F
S1130C00092E0394000C11F4882352F0BB0F40F416
S1130C10BF2B11F460FF04C06F5F7F4F8F4F9F4F56
S1130C20089557FD9058440F551F59F05F3F71F0D8
S1130C304795880F97FB991F61F09F3F79F087953F
S1130C400895121613061406551FF2CF4695F1DFC8
S1130C5008C0161617061806991FF1CF8695710558
S1130C60610508940895E894BB2766277727CB018C
S1130C7097F90895A29FB001B39FC001A39F700D7F
S1130C80811D1124911DB29F700D811D1124911D90
S1090C900895F894FFCF63
S1090C9641686D65640075
S9030000FC
