S0140000496E64696361746F725365722E7372656349
S113000071C00000FBC200008DC000008BC0000066
S113001089C0000023C40000FCC3000083C00000AA
S113002081C000007FC000007DC000007BC00000D4
S113003079C0000077C0000075C0000073C00000E4
S113004071C000006FC000006DC000006BC00000F4
S113005069C0000067C0000065C0000063C0000004
S113006061C000005FC000005DC000005BC0000014
S113007059C0000057C0000055C0000053C0000024
S113008051C000004FC000004DC000004BC0000034
S113009049C0000047C0000045C0000043C0000044
S11300A041C000003FC000003DC000003BC0000054
S11300B039C0000037C0000035C0000033C0000064
S11300C031C000002FC000002DC000002BC0000074
S11300D029C0000027C0000025C0000023C0000084
S11300E021C0000011241FBECFEFD1E2DEBFCDBF7F
S11300F000E00CBF12E0A0E0B2E0E4E5F3E100E0D0
S11301000BBF02C007900D92A030B107D9F722E0CF
S1130110A0E0B2E001C01D92A736B207E1F720D6F5
S11301200C94A8096DCF86E69EE00197F1F70000D4
S11301304098419880E388B9429A8FEF97E40197F9
S1130140F1F700C00000429886E69EE00197F1F7BF
S113015000004098419880E388B9429A8FEF97E471
S11301600197F1F700C00000429886E69EE00197EF
S1130170F1F700004098419880E388B9429A8FEFE4
S113018097E40197F1F700C00000429886E69EE0EC
S11301900197F1F700004098419880E288B9429AAB
S11301A08FEF97E40197F1F700C00000429808959B
S11301B098B19F7098B998B1282F207F922B98B945
S11301C040984198429AEFEFF7E43197F1F700C075
S11301D00000429898B19F7098B998B18295807F39
S11301E0892B88B940984198429A8FEF97E40197F8
S11301F0F1F700C000004298089595DF86E69EE07E
S11302000197F1F7000088E2D3DF81E0D1DF86E0D7
S1130210CFDF8EE0CDDF80E8CBCF089598B19F701B
S113022098B998B1282F207F922B98B9409A419879
S1130230429AEFEFF7E43197F1F700C000004298DB
S113024098B19F7098B998B18295807F892B88B9AD
S1130250409A4198429A8FEF97E40197F1F700C0D2
S113026000004298089580E8A3CF0895823069F091
S113027018F4813031F00895833059F0843069F0F6
S113028008958FE7860F94CF08958FEB860F90CF54
S1130290089583E9860F8CCF089583ED860F88CF68
S11302A008950F931F93CF93DF938A01E901882365
S11302B011F0611102C0D7DF01C0D8DFC530D1050C
S11302C009F0D0C09801329522952F7023273F70F2
S11302D02327A7E4B3E00E949909969587959695FC
S11302E0879596958795C0969093210280932002D6
S11302F095DF980136952795369527953695279558
S1130300A5ECB0E20E949909AC01529542954F7058
S113031045275F70452750932502409324029A0194
S1130320ADECBCEC0E9499099695879596958795B6
S1130330969587959C01220F331F880F991F880F6C
S1130340991F880F991F820F931F481B590BCA01CD
S1130350C096909366028093650260DF04C0C33048
S1130360D10509F084C098013695279536952795CF
S1130370ABE7B4E1DED7AC0156954795509325021F
S1130380409324029A01ADECBCECD3D796958795A3
S113039096958795969587959C01220F331F880F14
S11303A0991F880F991F880F991F820F931F481B4D
S11303B0590BCA01C09690935C0280935B022EDFB6
S11303C09801ADECBCECB5D7AC0156954795569564
S11303D047955695479550932502409324029A01D8
S11303E0A8D79695879596958795969587959C0118
S11303F0220F331F880F991F880F991F880F991F89
S1130400820F931F481B590BCA01C0969093360262
S11304108093350203DF03C0C130D105F1F49801A4
S1130420ADECBCEC86D79695879596958795969571
S113043087959C01220F331F880F991F880F991FDE
S1130440880F991F820F931F081B190BC801C096B0
S11304509093640280936302E1DE269764F085E45E
S1130460DDDE09C0C430D10509F079CF42CFC230F6
S1130470D10591F6A5CFDF91CF911F910F910895EA
S1130480E1E2F1E010828FEF8093250191E09093F7
S11304902401109229018093280110922B0180934A
S11304A02A0110922D0180932C0189EA8093200166
S11304B08BE08083089581B18F6081B982B1807FA0
S11304C082B9EAE0F1E0808188618083EBE0F1E0C9
S11304D0808188618083089592B1907F8F70982B7A
S11304E092B9089586E0F8CF089585E0F5CF089590
S11304F08AE0F2CF089584E0EFCF089582E0ECCF54
S1130500089581E0E9CF089588E0E6CF089580E07A
S1130510E3CF089587B1876F87B988B1807888B9A8
S113052008958AB18E6F8AB9589A089510BA11BA8B
S113053010920701109208010895259A2D9A0895A2
S1130540269A2E9A0895279A2F9A0895E1E8F0E0C2
S113055010828CEF8093850081E08093840093E087
S1130560909389008FEF8093880090938B00809301
S11305708A0090938D0080938C00909387008093E1
S113058086008BEA80938000109282008CE0808346
S11305900895C0DFCBDF3B9A4398CFDFD1DFD3DFB1
S11305A0C0CF089586B1886088B9089586B1877FE1
S11305B088B90895883018F098E090937B0087708C
S11305C0806280937C00EAE7F0E08081806480832D
S11305D0808184FFFDCF80917900EAE7F0E090818B
S11305E09061908310927B000895F894E9E6F0E01E
S11305F0808182608083E89A789408951F920F9294
S11306000FB60F9211248F939F93AF93BF93809152
S1130610040290910502A0910602B091070201968E
S1130620A11DB11D8093040290930502A0930602BC
S1130630B0930702BF91AF919F918F910F900FBE1E
S11306400F901F901895EAE7F0E0108210927B005B
S113065080E280937C0080E880BF86E880830895F0
S113066010928900682F70E080E090E0D4D52BE7E9
S113067034E14EEE5FE33BD520E030E04CE052E461
S1130680D2D49DD560938800089510928B00682F72
S113069070E080E090E0BFD52BE734E14EEE5FE3FD
S11306A026D520E030E04CE052E4BDD488D56093F8
S11306B08A00089510928D00682F70E080E090E029
S11306C0AAD52BE734E14EEE5FE311D520E030E00C
S11306D04CE052E4A8D473D560938C0008955E98DE
S11306E05F9808955E9A5F9A08955E985F9A089558
S11306F05C9A5D9A0895F3DF109204021092050249
S113070010920602109207022FEF8FE794E0215017
S113071080409040E1F700C0000080910402909175
S11307200502A0910602B091070280932A029093D9
S11307302B02A0932C02B0932D022FEF8FEF9CE29B
S1130740215080409040E1F700C000000895CADFC6
S113075010920402109205021092060210920702EF
S11307602FEF8FE794E0215080409040E1F700C0E4
S113077000008091040290910502A0910602B091BC
S113078007028093260290932702A0932802B09335
S113079029020895AADF1092040210920502109211
S11307A00602109207022FEF8FE794E02150804059
S11307B09040E1F700C0000080910402909105028E
S11307C0A0910602B091070280931A0290931B0233
S11307D0A0931C02B0931D0208956C98749A089516
S11307E06D98759A089567DEF8DFFACF0895F89446
S11307F0EAE6F0E0808182608083EC9A7894089540
S1130800F894EAE6F0E0808188608083ED9A789439
S113081008951F920F920FB60F9211248F939F93F6
S1130820AF93BF938091080290910902A0910A02AC
S1130830B0910B020196A11DB11D80930802909303
S11308400902A0930A02B0930B02BF91AF919F914A
S11308508F910F900FBE0F901F9018951F920F92BB
S11308600FB60F9211248F939F93AF93BF938091F0
S11308700C0290910D02A0910E02B0910F0201960C
S1130880A11DB11D80930C0290930D02A0930E0242
S1130890B0930F02BF91AF919F918F910F900FBEB4
S11308A00F901F9018950F931F93BC0180E090E068
S11308B0B2D425EE30ED4AEA50E419D480D4109233
S11308C008021092090210920A0210920B0200917F
S11308D008021091090220910A0230910B0260175C
S11308E071078207930798F712DE1F910F910895FD
S11308F0CF93DF93EC01F6DDCE01D5DFDF91CF910D
S11309000895F89470DF73DF7BDF43DE6EDE9BDED9
S1130910D2DDB6DD1BDE7894089583E04BDE809350
S1130920030282E047DE8093020281E043DE80938B
S1130930010208950F931F93DEDE2CDF08DF2FEFF3
S11309408FE794E0215080409040E1F700C0000020
S11309508BE030DE883308F47BC08BE02BDE8436FA
S113096008F079C08091180290911902AA2797FD86
S1130970A095BA2F40912A0250912B0260912C022B
S113098070912D02481759076A077B07D8F44091E4
S1130990260250912702609128027091290248177B
S11309A059076A077B0770F440911A0250911B02A1
S11309B060911C0270911D02481759076A077B0752
S11309C008F44CC040912A0250912B0260912C02F1
S11309D070912D0280911A0290911B02A0911C0229
S11309E0B0911D0284179507A607B707C8F40091B4
S11309F02A0210912B0220912C0230912D02409159
S1130A00260250912702609128027091290281E008
S1130A1090E0401751076207730728F580E023C070
S1130A2040911A0250911B0260911C0270911D02A8
S1130A308091260290912702A0912802B091290268
S1130A4084179507A607B70760F482E090E00BC00F
S1130A508FEF9FEF08C08FEF9FEF05C083E090E01A
S1130A6002C081E090E01F910F910895CF93DF932E
S1130A70C9E4D2E0E7E3F2E0A0E1B2E080E090E094
S1130A802EEF3FEF8993999333832283318320831D
S1130A901D921D92019634968430910599F7E09148
S1130AA04902F0914A02EE0FFF1FEF5AFD4F1182E7
S1130AB01082E0914B02F0914C02EE0FFF1FEF5AAF
S1130AC0FD4F81E090E091838083E0914D02F091AD
S1130AD04E02EE0FFF1FEF5AFD4F82E090E091832C
S1130AE08083E0914F02F0915002EE0FFF1FEF5A06
S1130AF0FD4F83E090E0918380838FEF9FEF90938D
S1130B003202809331029093300280932F029093AB
S1130B10600280935F0290935E0280935D02DF9196
S1130B20CF910895EEDEFFDA68DBE2DD9FDF80E738
S1130B3097E190931902809318028AE5A6CD08954F
S1130B400F931F93CF93DF938C01181619068CF41F
S1130B50C0E0D0E009C086E69EE00197F1F700000E
S1130B602196C017D10739F082E024DD883298F34A
S1130B7002C0C0E0D0E0CBDC81E0C017D1070CF0AC
S1130B8080E0DF91CF911F910F910895809102022F
S1130B90893240F090910302993208F59091010254
S1130BA09932E8F48832D8F480910302893258F0FB
S1130BB090910102983238F498DCAFDE8091020201
S1130BC08832D0F3089590910102993240F088322E
S1130BD030F48EDCA2DE809102028832D0F30895D4
S1130BE0CF93DF9385E090E090931F0280931E02E1
S1130BF08EDC81E080930002C2E3D0E076DCCE019B
S1130C009FDF811124C083DC21E030E041E050E02B
S1130C1061E081E046DBBADF82E0CCDC8932B0F40B
S1130C2067DCCE01C2968CDF811111C070DC21E03B
S1130C3030E042E050E061E081E033DBA7DF82E0B6
S1130C40B9DC893218F4CC59DF4FD8CF60DCDF919E
S1130C50CF91089588EC8093280180932A01809194
S1130C600202883280F5809103028932A0F09091CB
S1130C700102983280F402C038DC4FDE8091020217
S1130C808932D0F3809103028832B0F78091010257
S1130C90883290F727C090910102993290F08832FF
S1130CA080F402C025DC39DE809102028932D0F35F
S1130CB0809103028832B0F780910102883290F764
S1130CC011C08EDF0FC080910302893220F0909111
S1130CD00102983240F0883220F480910102893276
S1130CE010F47EDF14CC0895FF920F931F93CF93DB
S1130CF0DF9308E211E00F2EF0EFFF2EF02DCAE291
S1130D00D1E0F0DB0ADE80910202893240F080916A
S1130D1003028932A8F480910102893288F4F8012F
S1130D20F082F88280910202893240F080910302BD
S1130D30883220F480910102883218F38BDFD4DFEB
S1130D40DF91CF911F910F91FF9008958CE390E074
S1130D50CFDDCBDB82E02EDC8832E0F3D8CB089504
S1130D60E1DE82E090E090933402809333021092AB
S1130D705A021092590280E073DC8AE586DC80E036
S1130D8099DCB2DF80EA90E0B3DDBEDB2FEF8FE7C2
S1130D909FE1215080409040E1F700C0000083E0D3
S1130DA009DC8832E0F3B3DBC5DD90935002809315
S1130DB04F0218161906FCF4C0E0D0E00FE412E06C
S1130DC0F1DBEFEFFFE724E0E150F0402040E1F7F2
S1130DD000C00000EBDB8FEF9FE7E6E1815090401D
S1130DE0E040E1F700C000002196F8018081918184
S1130DF0C817D9072CF37FDBFFEF2FEF8CE2F150FC
S1130E0020408040E1F700C0000082E0D3DB88325C
S1130E10E0F37DDB76DB9FEFEFE7F6E19150E04016
S1130E20F040E1F700C0000082E0C4DB8832E0F368
S1130E306EDB80DD90934E0280934D0218161906E6
S1130E40FCF4C0E0D0E00DE412E0ACDB2FEF8FE760
S1130E5094E0215080409040E1F700C00000A6DB00
S1130E60EFEFFFE726E1E150F0402040E1F700C05A
S1130E7000002196F80180819181C817D9072CF3CD
S1130E803DDBFFEF2FE786E1F15020408040E1F7A2
S1130E9000C0000082E08EDB8832E0F338DB24DF20
S1130EA080EA90E025DD30DB9FEFEFE7F6E191503B
S1130EB0E040F040E1F700C0000083E07BDB8832D3
S1130EC0E0F325DB37DD90934C0280934B02181638
S1130ED01906FCF4C0E0D0E00BE412E063DB2FEF72
S1130EE08FE794E0215080409040E1F700C000007B
S1130EF05DDBEFEFFFE726E1E150F0402040E1F752
S1130F0000C000002196F80180819181C817D9079B
S1130F102CF3F1DAFFEF2FEF8CE2F1502040804008
S1130F20E1F700C0000082E045DB8832E0F3EFDA4D
S1130F30E8DA9FEFEFE7F6E19150E040F040E1F7A7
S1130F4000C0000082E036DB8832E0F3E0DAF2DC55
S1130F5090934A028093490218161906FCF4C0E0E3
S1130F60D0E009E412E01EDB2FEF8FE794E021507C
S1130F7080409040E1F700C0000018DBEFEFFFE78E
S1130F8026E1E150F0402040E1F700C00000219646
S1130F90F80180819181C817D9072CF3AFDAFFEFEC
S1130FA02FE786E1F15020408040E1F700C00000C7
S1130FB082E000DB8832E0F3AADA409149025091E2
S1130FC04A0221E030E061E081E06BD940914B02BC
S1130FD050914C0221E030E063E081E062D940911D
S1130FE04D0250914E0221E030E065E081E059D994
S1130FF040914F025091500221E030E067E081E0DF
S113100050D972DEA3DE6EDA9FEFEFE7F6E191507E
S1131010E040F040E1F700C0000066DE97DE64DEE9
S1131020C1DAFFCF5058BB27AA270ED048C139D107
S113103030F03ED120F031F49F3F11F41EF42EC164
S11310400EF4E095E7FB24C1E92F4AD180F3BA17E7
S1131050620773078407950718F071F49EF562C15F
S11310600EF4E0950B2EBA2FA02D0B01B9019001BF
S11310700C01CA01A0011124FF27591B99F0593F03
S113108050F4503E68F11A16F040A22F232F342F4B
S11310904427585FF3CF469537952795A795F04099
S11310A05395C9F77EF41F16BA0B620B730B840BAE
S11310B0BAF09150A1F0FF0FBB1F661F771F881F66
S11310C0C2F70EC0BA0F621F731F841F48F48795BE
S11310D077956795B795F7959E3F08F0B3CF9395AD
S11310E0880F08F09927EE0F9795879508950CD0EF
S11310F0E6C0DED040F0D5D030F021F45F3F19F0E7
S1131100C7C0511110C1CAC0EBD098F39923C9F3D9
S11311105523B1F3951B550BBB27AA2762177307F9
S1131120840738F09F5F5F4F220F331F441FAA1FAD
S1131130A9F333D00E2E3AF0E0E830D0915050406D
S1131140E695001CCAF729D0FE2F27D0660F771F1B
S1131150881FBB1F261737074807AB07B0E809F0FD
S1131160BB0B802DBF01FF2793585F4F2AF09E3F92
S1131170510568F08DC0D7C05F3FECF3983EDCF3B7
S1131180869577956795B795F7959F5FC9F7880F0B
S1131190911D9695879597F90895E1E0660F771F5D
S11311A0881FBB1F621773078407BA0720F0621BEE
S11311B0730B840BBA0BEE1F88F7E095089598D053
S11311C088F09F5790F0B92F9927B751A0F0D1F02C
S11311D0660F771F881F991F1AF0BA95C9F712C0B6
S11311E0B13081F09FD0B1E008959CC0672F782F73
S11311F08827B85F39F0B93FCCF386957795679522
S1131200B395D9F73EF490958095709561957F4F8D
S11312108F4F9F4F0895E89409C097FB3EF4909533
S11312208095709561957F4F8F4F9F4F9923A9F0BB
S1131230F92F96E9BB279395F6958795779567954A
S1131240B795F111F8CFFAF4BB0F11F460FF1BC08E
S11312506F5F7F4F8F4F9F4F16C0882311F096E921
S113126011C0772321F09EE8872F762F05C06623CF
S113127071F096E8862F70E060E02AF09A95660F88
S1131280771F881FDAF7880F9695879597F9089541
S113129097F99F6780E870E060E008959FEF80EC25
S11312A0089500240A9416161706180609060895C8
S11312B000240A9412161306140605060895092E2E
S11312C00394000C11F4882352F0BB0F40F4BF2B9D
S11312D011F460FF04C06F5F7F4F8F4F9F4F0895DD
S11312E057FD9058440F551F59F05F3F71F04795D3
S11312F0880F97FB991F61F09F3F79F087950895B8
S1131300121613061406551FF2CF4695F1DF08C0D6
S1131310161617061806991FF1CF869571056105F3
S113132008940895E894BB2766277727CB0197F99B
S11313300895A29FB001B39FC001A39F700D811DAA
S11313401124911DB29F700D811D1124911D0895CA
S1071350F894FFCF3B
S9030000FC
