:1000000071C000000BC300008DC000008BC0000059
:1000100089C0000033C400000CC4000083C000008D
:1000200081C000007FC000007DC000007BC00000D8
:1000300079C0000077C0000075C0000073C00000E8
:1000400071C000006FC000006DC000006BC00000F8
:1000500069C0000067C0000065C0000063C0000008
:1000600061C000005FC000005DC000005BC0000018
:1000700059C0000057C0000055C0000053C0000028
:1000800051C000004FC000004DC000004BC0000038
:1000900049C0000047C0000045C0000043C0000048
:1000A00041C000003FC000003DC000003BC0000058
:1000B00039C0000037C0000035C0000033C0000068
:1000C00031C000002FC000002DC000002BC0000078
:1000D00029C0000027C0000025C0000023C0000088
:1000E00021C0000011241FBECFEFD1E2DEBFCDBF83
:1000F00000E00CBF12E0A0E0B2E0EEEDF3E100E0C2
:100100000BBF02C007900D92A634B107D9F722E0C9
:10011000A6E4B2E001C01D92A13BB207E1F7F8D618
:100120000C94ED096DCF86E69EE00197F1F7000093
:100130004098419880E388B9429A8FEF97E40197FD
:10014000F1F700C00000429886E69EE00197F1F7C3
:1001500000004098419880E388B9429A8FEF97E475
:100160000197F1F700C00000429886E69EE00197F3
:10017000F1F700004098419880E388B9429A8FEFE8
:1001800097E40197F1F700C00000429886E69EE0F0
:100190000197F1F700004098419880E288B9429AAF
:1001A0008FEF97E40197F1F700C00000429808959F
:1001B00098B19F7098B998B1282F207F922B98B949
:1001C00040984198429AEFEFF7E43197F1F700C079
:1001D0000000429898B19F7098B998B18295807F3D
:1001E000892B88B940984198429A8FEF97E40197FC
:1001F000F1F700C000004298089595DF86E69EE082
:100200000197F1F7000088E2D3DF81E0D1DF86E0DB
:10021000CFDF8EE0CDDF80E8CBCF089598B19F701F
:1002200098B998B1282F207F922B98B9409A41987D
:10023000429AEFEFF7E43197F1F700C000004298DF
:1002400098B19F7098B998B18295807F892B88B9B1
:10025000409A4198429A8FEF97E40197F1F700C0D6
:1002600000004298089580E8A3CF0895CF93DF93CC
:10027000EC018881882329F02196D0DF89918111B2
:10028000FCCFDF91CF910895823069F018F481306E
:1002900031F00895833059F0843069F008958FE784
:1002A000860F86CF08958FEB860F82CF089583E95E
:1002B000860F7ECF089583ED860F7ACF08950F9332
:1002C0001F93CF93DF938A01E901882311F0611115
:1002D00002C0C9DF01C0D8DFC530D10509F0D2C0E6
:1002E0009801329522952F7023273F702327A7E48A
:1002F000B3E00E94DE099695879596958795969529
:100300008795C09690936B0280936A0287DF98016D
:10031000369527953695279536952795A5ECB0E225
:100320000E94DE09AC01529542954F7045275F70DF
:10033000452750936F0240936E029A01ADECBCECDE
:100340000E94DE099695879596958795969587954F
:100350009C01220F331F880F991F880F991F880F48
:10036000991F820F931F481B590BCA01C096909387
:10037000B0028093AF0252DF04C0C330D10509F050
:1003800086C098013695279536952795ABE7B4E159
:100390000E94DE09AC015695479550936F02409339
:1003A0006E029A01ADECBCEC0E94DE099695879531
:1003B00096958795969587959C01220F331F880FF8
:1003C000991F880F991F880F991F820F931F481B31
:1003D000590BCA01C0969093A6028093A5021EDF16
:1003E0009801ADECBCECEAD7AC0156954795569513
:1003F00047955695479550936F0240936E029A0128
:10040000DDD79695879596958795969587959C01C6
:10041000220F331F880F991F880F991F880F991F6C
:10042000820F931F481B590BCA01C09690938002FC
:1004300080937F02F3DE03C0C130D105F1F498014F
:10044000ADECBCECBBD79695879596958795969520
:1004500087959C01220F331F880F991F880F991FC2
:10046000880F991F820F931F081B190BC801C09694
:100470009093AE028093AD02D1DE269764F085E4BE
:10048000CDDE09C0C430D10509F077CF40CFC230EE
:10049000D10591F6A5CFDF91CF911F910F910895CE
:1004A000E1E2F1E010828FEF8093250191E09093DB
:1004B0002401109229018093280110922B0180932E
:1004C0002A0110922D0180932C0189EA809320014A
:1004D0008BE08083089581B18F6081B982B1807F84
:1004E00082B9EAE0F1E0808188618083EBE0F1E0AD
:1004F000808188618083089592B1907F8F70982B5E
:1005000092B9089586E0F8CF089585E0F5CF089573
:100510008AE0F2CF089584E0EFCF089582E0ECCF37
:10052000089581E0E9CF089588E0E6CF089580E05E
:10053000E3CF089587B1876F87B988B1807888B98C
:1005400008958AB18E6F8AB9589A089510BA11BA6F
:1005500010920701109208010895259A2D9A089586
:10056000269A2E9A0895279A2F9A0895E1E8F0E0A6
:1005700010828CEF8093850081E08093840093E06B
:10058000909389008FEF8093880090938B008093E5
:100590008A0090938D0080938C00909387008093C5
:1005A00086008BEA80938000109282008CE080832A
:1005B0000895C0DFCBDF3B9A4398CFDFD1DFD3DF95
:1005C000C0CF089586B1886088B9089586B1877FC5
:1005D00088B90895883018F098E090937B00877070
:1005E000806280937C00EAE7F0E080818064808311
:1005F000808184FFFDCF80917900EAE7F0E090816F
:100600009061908310927B000895F894E9E6F0E001
:10061000808182608083E89A789408951F920F9277
:100620000FB60F9211248F939F93AF93BF93809136
:100630004E0290914F02A0915002B091510201964A
:10064000A11DB11D80934E0290934F02A0935002C2
:10065000B0935102BF91AF919F918F910F900FBEB8
:100660000F901F901895EAE7F0E0108210927B003F
:1006700080E280937C0080E880BF86E880830895D4
:1006800010928900682F70E080E090E009D62BE797
:1006900034E14EEE5FE370D520E030E04CE052E410
:1006A00007D5D2D560938800089510928B00682FEB
:1006B00070E080E090E0F4D52BE734E14EEE5FE3AC
:1006C0005BD520E030E04CE052E4F2D4BDD560933D
:1006D0008A00089510928D00682F70E080E090E00D
:1006E000DFD52BE734E14EEE5FE346D520E030E086
:1006F0004CE052E4DDD4A8D560938C0008955E9858
:100700005F9808955E9A5F9A08955E985F9A08953B
:100710005C9A5D9A0895F3DF10924E0210924F0298
:1007200010925002109251022FEF8FE794E0215067
:1007300080409040E1F700C0000080914E0290910F
:100740004F02A0915002B091510280937402909395
:100750007502A0937602B09377022FEF8FEF9CE2A1
:10076000215080409040E1F700C000000895CADFAA
:1007700010924E0210924F021092500210925102AB
:100780002FEF8FE794E0215080409040E1F700C0C8
:10079000000080914E0290914F02A0915002B091C2
:1007A00051028093700290937102A0937202B093F1
:1007B00073020895AADF10924E0210924F02109217
:1007C0005002109251022FEF8FE794E021508040A9
:1007D0009040E1F700C0000080914E0290914F02DE
:1007E000A0915002B09151028093640290936502EF
:1007F000A0936602B093670208956C98749A089566
:100800006D98759A089567DEF8DFFACF0895F89429
:10081000EAE6F0E0808182608083EC9A7894089523
:10082000F894EAE6F0E0808188608083ED9A78941D
:1008300008951F920F920FB60F9211248F939F93DA
:10084000AF93BF938091520290915302A0915402B2
:10085000B09155020196A11DB11D80935202909353
:100860005302A0935402B0935502BF91AF919F9150
:100870008F910F900FBE0F901F9018951F920F929F
:100880000FB60F9211248F939F93AF93BF938091D4
:10089000560290915702A0915802B09159020196C8
:1008A000A11DB11D8093560290935702A093580248
:1008B000B0935902BF91AF919F918F910F900FBE4E
:1008C0000F901F901895CF92DF92EF92FF920F93A7
:1008D0001F93BC0180E090E0E3D428E431EE42E8CD
:1008E00050E44AD4B1D4CB01A0E0B0E0109252025F
:1008F0001092530210925402109255021092560216
:1009000010925702109258021092590251E0E0E002
:10091000C0905202D0905302E0905402F0905502E1
:1009200000915602109157022091580230915902BD
:10093000452F081719072A073B0708F44E2F4111C6
:1009400009C0252FC816D906EA06FB0608F42E2F83
:100950002223F1F2ECDD1F910F91FF90EF90DF90D9
:10096000CF9008950F931F93BC0180E090E098D43E
:1009700025EE30ED4AEA50E4FFD366D410925202DD
:10098000109253021092540210925502009152029A
:100990001091530220915402309155026017710753
:1009A0008207930798F7C3DD1F910F910895CF93A6
:1009B000DF93EC01A7DDCE01D5DFDF91CF91089564
:1009C000CF93DF93EC01A1DDCE017DDFDF91CF91ED
:1009D0000895F89418DF1BDF23DFEBDD16DE43DE1E
:1009E0007ADD5EDDC3DD7894089583E0F3DD8093E6
:1009F000490282E0EFDD8093480281E0EBDD8093E5
:100A000047020895DFDD2FEF8FE794E0215080400B
:100A10009040E1F700C00000D9CD0895CF93DF9357
:100A2000EC0181E0C5DB61E081E02EDCCE011EDC63
:100A30002FEF8FEF9CE2215080409040E1F700C003
:100A40000000DF91CF9108950F931F9364DEB2DE13
:100A50008EDE2FEF8FE794E0215080409040E1F749
:100A600000C000008BE0B6DD883308F47BC08BE06B
:100A7000B1DD843608F079C0809162029091630202
:100A8000AA2797FDA095BA2F409174025091750244
:100A90006091760270917702481759076A077B07C1
:100AA000D8F440917002509171026091720270917D
:100AB0007302481759076A077B0770F44091640274
:100AC000509165026091660270916702481759075C
:100AD0006A077B0708F44CC040917402509175027C
:100AE0006091760270917702809164029091650224
:100AF000A0916602B091670284179507A607B70711
:100B0000C8F4009174021091750220917602309120
:100B1000770240917002509171026091720270915F
:100B2000730281E090E0401751076207730728F5D0
:100B300080E023C04091640250916502609166029A
:100B4000709167028091700290917102A09172027F
:100B5000B091730284179507A607B70760F482E087
:100B600090E00BC08FEF9FEF08C08FEF9FEF05C0A5
:100B700083E090E002C081E090E01F910F91089522
:100B8000CF93DF93C3E9D2E0E1E8F2E0AAE5B2E077
:100B900080E090E02EEF3FEF899399933383228397
:100BA000318320831D921D920196349684309105E5
:100BB00099F7E0919302F0919402EE0FFF1FE55632
:100BC000FD4F11821082E0919502F0919602EE0F96
:100BD000FF1FE556FD4F81E090E091838083E09117
:100BE0009702F0919802EE0FFF1FE556FD4F82E04D
:100BF00090E091838083E0919902F0919A02EE0F48
:100C0000FF1FE556FD4F83E090E0918380838FEFD7
:100C10009FEF90937C0280937B0290937A02809363
:100C200079029093AA028093A9029093A8028093DC
:100C3000A702DF91CF910895CCDE75DADEDA68DDA8
:100C40009FDF80E797E190936302809362028AE5D9
:100C50002CCD08950F931F93CF93DF938C0118161B
:100C600019068CF4C0E0D0E009C086E69EE001974A
:100C7000F1F700002196C017D10739F082E0AADC15
:100C8000883298F302C0C0E0D0E051DC81E0C017A8
:100C9000D1070CF080E0DF91CF911F910F91089563
:100CA00080914802893240F090914902993208F5CA
:100CB000909147029932E8F48832D8F48091490241
:100CC000893258F090914702983238F41EDC8DDE5C
:100CD000809148028832D0F308959091470299326A
:100CE00040F0883230F414DC80DE80914802883293
:100CF000D0F30895CF93DF9385E090E0909369025D
:100D00008093680214DC81E080934602C2E3D0E065
:100D1000FCDBCE019FDF811124C009DC21E030E043
:100D200041E050E061E081E0CADABADF82E052DC03
:100D30008932B0F4EDDBCE01C2968CDF811111C097
:100D4000F6DB21E030E042E050E061E081E0B7DA3C
:100D5000A7DF82E03FDC893218F4CC59DF4FD8CFCF
:100D6000E6DBDF91CF91089588EC80932801809392
:100D70002A0180914802883280F5809149028932A7
:100D8000A0F090914702983280F402C0BEDB2DDEC5
:100D9000809148028932D0F3809149028832B0F7BD
:100DA00080914702883290F727C09091470299328C
:100DB00090F0883280F402C0ABDB17DE80914802ED
:100DC0008932D0F3809149028832B0F7809147028E
:100DD000883290F711C08EDF0FC0809149028932AE
:100DE00020F090914702983240F0883220F48091B0
:100DF0004702893210F47EDF9ACB0895FF920F9359
:100E00001F93CF93DF9308E211E00F2EF0EFFF2E38
:100E1000F02DCAE2D1E076DBE8DD8091480289322C
:100E200040F0809149028932A8F4809147028932CA
:100E300088F4F801F082F88280914802893240F00B
:100E400080914902883220F480914702883218F359
:100E50008BDFD4DFDF91CF911F910F91FF90089529
:100E600080914A0290914B028130910539F4809132
:100E70004C0290914D02029798F409C0039781F4B7
:100E800080914C0290914D020297029748F486E9B6
:100E90008093280180932A018AE590E091DD18C0B3
:100EA0008EE190E08DDD86E98093280180932A0110
:100EB00001C02BDB82E08EDB8233D8F32FEF8FE78C
:100EC00094E0215080409040E1F700C000002FDB0B
:100ED0008BE392E0A3DD80914A0290914B0203964E
:100EE00083709078992324F401978C6F9F6F0196FB
:100EF00090934B0280934A028091910290919202CA
:100F0000865A9F4F90939202809391027BCD0895D1
:100F100093DE10927E0210927D0282E090E0909328
:100F2000A4028093A30280E0ABDB8AE5BEDB80E015
:100F3000D1DB64DF80EA90E03ADDF6DA2FEF8FE76D
:100F400096E1215080409040E1F700C0000083E02E
:100F500041DB8832E0F3EBDA77DD9093A2028093F5
:100F6000A102D9DA2FEF8FEF9CE221508040904010
:100F7000E1F700C0000082E02DDB8832E0F3D7DA31
:100F8000D0DA2FEF8FE796E1215080409040E1F7D3
:100F900000C0000082E01EDB8832E0F3C8DA54DDD6
:100FA0009093A00280939F02B9DA2FEF8FE796E12A
:100FB000215080409040E1F700C0000082E00ADB51
:100FC0008832E0F3B4DA1ADF80EA90E0F0DCACDAE1
:100FD0002FEF8FE796E1215080409040E1F700C06D
:100FE000000083E0F7DA8832E0F3A1DA2DDD909398
:100FF0009E0280939D028FDA2FEF8FEF9CE22150AB
:1010000080409040E1F700C0000082E0E3DA8832DF
:10101000E0F38DDA86DA2FEF8FE796E121508040FA
:101020009040E1F700C0000081E0D4DA8832E0F3BC
:101030007EDA0ADD90939C0280939B026FDA2FEF99
:101040008FE796E1215080409040E1F700C000001A
:1010500082E0C0DA8832E0F36ADA40919B02509174
:101060009C0221E030E061E081E029D940919D02BD
:1010700050919E0221E030E063E081E020D9409170
:101080009F025091A00221E030E065E081E017D995
:101090004091A1025091A20221E030E067E081E09E
:1010A0000ED9ACDEDDDEDCDE80E090E00895505845
:1010B000BB27AA270ED048C139D130F03ED120F04D
:1010C00031F49F3F11F41EF42EC10EF4E095E7FBBE
:1010D00024C1E92F4AD180F3BA1762077307840746
:1010E000950718F071F49EF562C10EF4E0950B2E91
:1010F000BA2FA02D0B01B90190010C01CA01A0016A
:101100001124FF27591B99F0593F50F4503E68F1C4
:101110001A16F040A22F232F342F4427585FF3CF05
:10112000469537952795A795F0405395C9F77EF4D6
:101130001F16BA0B620B730B840BBAF09150A1F01F
:10114000FF0FBB1F661F771F881FC2F70EC0BA0FA5
:10115000621F731F841F48F4879577956795B7952D
:10116000F7959E3F08F0B3CF9395880F08F0992725
:10117000EE0F9795879508950CD0E6C0DED040F02D
:10118000D5D030F021F45F3F19F0C7C0511110C124
:10119000CAC0EBD098F39923C9F35523B1F3951B3B
:1011A000550BBB27AA2762177307840738F09F5F88
:1011B0005F4F220F331F441FAA1FA9F333D00E2EF7
:1011C0003AF0E0E830D091505040E695001CCAF764
:1011D00029D0FE2F27D0660F771F881FBB1F261729
:1011E00037074807AB07B0E809F0BB0B802DBF01FC
:1011F000FF2793585F4F2AF09E3F510568F08DC03E
:10120000D7C05F3FECF3983EDCF386957795679502
:10121000B795F7959F5FC9F7880F911D96958795AC
:1012200097F90895E1E0660F771F881FBB1F6217CB
:1012300073078407BA0720F0621B730B840BBA0B89
:10124000EE1F88F7E095089598D088F09F5790F0AA
:10125000B92F9927B751A0F0D1F0660F771F881FDB
:10126000991F1AF0BA95C9F712C0B13081F09FD01A
:10127000B1E008959CC0672F782F8827B85F39F0B8
:10128000B93FCCF3869577956795B395D9F73EF43A
:1012900090958095709561957F4F8F4F9F4F0895E2
:1012A000E89409C097FB3EF4909580957095619500
:1012B0007F4F8F4F9F4F9923A9F0F92F96E9BB27B6
:1012C0009395F695879577956795B795F111F8CF32
:1012D000FAF4BB0F11F460FF1BC06F5F7F4F8F4F9D
:1012E0009F4F16C0882311F096E911C0772321F093
:1012F0009EE8872F762F05C0662371F096E8862F2B
:1013000070E060E02AF09A95660F771F881FDAF781
:10131000880F9695879597F9089597F99F6780E8C4
:1013200070E060E008959FEF80EC089500240A9437
:101330001616170618060906089500240A941216B0
:101340001306140605060895092E0394000C11F4E3
:10135000882352F0BB0F40F4BF2B11F460FF04C090
:101360006F5F7F4F8F4F9F4F089557FD9058440FE9
:10137000551F59F05F3F71F04795880F97FB991FF4
:1013800061F09F3F79F087950895121613061406B1
:10139000551FF2CF4695F1DF08C01616170618063E
:1013A000991FF1CF86957105610508940895E89419
:1013B000BB2766277727CB0197F90895A29FB00135
:1013C000B39FC001A39F700D811D1124911DB29F79
:0E13D000700D811D1124911D0895F894FFCF1A
:1013DE005468726573686F6C64007069636B5269F0
:1013EE00676874007069636B4C6566740064726F35
:1013FE007052696768740064726F704C6566740031
:10140E005269676874207475726E004C656674203C
:06141E007475726E0000FF
:00000001FF
