:1000000071C000008EC000008CC000008AC00000DB
:1000100088C0000086C0000084C0000082C00000CC
:1000200080C000007EC000007CC000007AC00000DC
:1000300078C0000076C0000074C0000072C00000EC
:1000400070C000006EC000006CC000006AC00000FC
:1000500068C0000066C0000064C0000062C000000C
:1000600060C000005EC000005CC000005AC000001C
:1000700058C0000056C0000054C0000052C000002C
:1000800050C000004EC000004CC000004AC000003C
:1000900048C0000046C0000044C0000042C000004C
:1000A00040C000003EC000003CC000003AC000005C
:1000B00038C0000036C0000034C0000032C000006C
:1000C00030C000002EC000002CC000002AC000007C
:1000D00028C0000026C0000024C0000022C000008C
:1000E00020C0000011241FBECFEFD1E2DEBFCDBF84
:1000F00000E00CBF12E0A0E0B2E0E2E5F2E000E0D8
:100100000BBF02C007900D92A030B107D9F722E0D3
:10011000A0E0B2E001C01D92A030B207E1F741D0EB
:1001200096C06ECF259A2D9A0895269A2E9A0895F4
:10013000279A2F9A0895F6DFF8DFFACF0895E1E8BD
:10014000F0E010828CEF8093850081E08093840042
:1001500093E0909389008FEF8093880090938B00B9
:1001600080938A0090938D0080938C0090938700F9
:10017000809386008BEA80938000109282008CE04E
:1001800080830895F8943B9A4398D5DFD8DF78941C
:10019000089586B1886088B9089586B1877F88B947
:1001A0000895F0DF10928D0088E380938C00109208
:1001B0008B0083E380938A00ECDF1FEF2FE764E07E
:1001C000115020406040E1F700C00000E6DF8BE8FE
:1001D00090E0CAE8D0E055E4ADE8B0E00F2EFCE8CE
:1001E000EF2EF12CF02D43E23BE323E37FEFEFEF23
:1001F000FCE27150E040F040E1F700C00000FC017B
:1002000010825883FFEF1FE766E1F1501040604015
:10021000E1F700C000001C92F7014083FFEF1FEFE1
:100220006CE2F15010406040E1F700C000001C9209
:10023000F7013083FFEF1FEF6CE2F1501040604098
:10024000E1F700C00000FC0110822883CFCFF894B2
:02025000FFCFDE
:00000001FF
